{
  "contractName": "Campaign",
  "abi": [
    {
      "inputs": [
        {
          "internalType": "address[]",
          "name": "sub",
          "type": "address[]"
        },
        {
          "internalType": "uint8",
          "name": "numberOfSub",
          "type": "uint8"
        },
        {
          "internalType": "uint8[]",
          "name": "percentages",
          "type": "uint8[]"
        },
        {
          "internalType": "bytes32[]",
          "name": "names",
          "type": "bytes32[]"
        }
      ],
      "stateMutability": "nonpayable",
      "type": "constructor"
    },
    {
      "anonymous": false,
      "inputs": [
        {
          "indexed": false,
          "internalType": "address",
          "name": "account",
          "type": "address"
        },
        {
          "indexed": false,
          "internalType": "uint256",
          "name": "balance",
          "type": "uint256"
        },
        {
          "indexed": false,
          "internalType": "bytes32",
          "name": "accountName",
          "type": "bytes32"
        }
      ],
      "name": "accountGoalHit",
      "type": "event"
    },
    {
      "anonymous": false,
      "inputs": [
        {
          "indexed": false,
          "internalType": "address",
          "name": "account",
          "type": "address"
        },
        {
          "indexed": false,
          "internalType": "uint256",
          "name": "balance",
          "type": "uint256"
        },
        {
          "indexed": false,
          "internalType": "bytes32",
          "name": "accountName",
          "type": "bytes32"
        }
      ],
      "name": "accountGoalNotHit",
      "type": "event"
    },
    {
      "anonymous": false,
      "inputs": [],
      "name": "cannotWithdraw",
      "type": "event"
    },
    {
      "inputs": [],
      "name": "creationTime",
      "outputs": [
        {
          "internalType": "uint256",
          "name": "",
          "type": "uint256"
        }
      ],
      "stateMutability": "view",
      "type": "function"
    },
    {
      "inputs": [
        {
          "internalType": "uint256",
          "name": "",
          "type": "uint256"
        }
      ],
      "name": "donorList",
      "outputs": [
        {
          "internalType": "address",
          "name": "",
          "type": "address"
        }
      ],
      "stateMutability": "view",
      "type": "function"
    },
    {
      "inputs": [],
      "name": "numberOfSubAccounts",
      "outputs": [
        {
          "internalType": "uint8",
          "name": "",
          "type": "uint8"
        }
      ],
      "stateMutability": "view",
      "type": "function"
    },
    {
      "inputs": [
        {
          "internalType": "address",
          "name": "",
          "type": "address"
        }
      ],
      "name": "subAccountNames",
      "outputs": [
        {
          "internalType": "bytes32",
          "name": "",
          "type": "bytes32"
        }
      ],
      "stateMutability": "view",
      "type": "function"
    },
    {
      "inputs": [
        {
          "internalType": "address",
          "name": "",
          "type": "address"
        }
      ],
      "name": "subAccountPercentages",
      "outputs": [
        {
          "internalType": "uint8",
          "name": "",
          "type": "uint8"
        }
      ],
      "stateMutability": "view",
      "type": "function"
    },
    {
      "inputs": [
        {
          "internalType": "uint256",
          "name": "",
          "type": "uint256"
        }
      ],
      "name": "subAccounts",
      "outputs": [
        {
          "internalType": "address",
          "name": "",
          "type": "address"
        }
      ],
      "stateMutability": "view",
      "type": "function"
    },
    {
      "inputs": [
        {
          "internalType": "uint256[]",
          "name": "allocations",
          "type": "uint256[]"
        }
      ],
      "name": "addCampaignGoals",
      "outputs": [],
      "stateMutability": "nonpayable",
      "type": "function"
    },
    {
      "inputs": [
        {
          "internalType": "uint8",
          "name": "typeOfCampaign",
          "type": "uint8"
        }
      ],
      "name": "startCampaign",
      "outputs": [],
      "stateMutability": "nonpayable",
      "type": "function"
    },
    {
      "inputs": [
        {
          "internalType": "bytes32",
          "name": "subAccount",
          "type": "bytes32"
        }
      ],
      "name": "depositCampaign",
      "outputs": [],
      "stateMutability": "payable",
      "type": "function"
    },
    {
      "inputs": [
        {
          "internalType": "bytes32",
          "name": "subAccount",
          "type": "bytes32"
        }
      ],
      "name": "withdrawCampaign",
      "outputs": [],
      "stateMutability": "nonpayable",
      "type": "function"
    },
    {
      "inputs": [],
      "name": "endCampaign",
      "outputs": [],
      "stateMutability": "nonpayable",
      "type": "function"
    },
    {
      "inputs": [
        {
          "internalType": "bytes32",
          "name": "subAccountName",
          "type": "bytes32"
        }
      ],
      "name": "getSubAccountBalance",
      "outputs": [
        {
          "internalType": "uint256",
          "name": "",
          "type": "uint256"
        }
      ],
      "stateMutability": "view",
      "type": "function"
    }
  ],
  "bytecode": "0x60806040523480156200001157600080fd5b5060405162002e7f38038062002e7f833981810160405281019062000037919062000702565b33600c60006101000a81548173ffffffffffffffffffffffffffffffffffffffff021916908373ffffffffffffffffffffffffffffffffffffffff16021790555082600160006101000a81548160ff021916908360ff1602179055508360009080519060200190620000ab92919062000241565b5060005b600160009054906101000a900460ff1660ff168110156200023657828181518110620000e057620000df620007d1565b5b602002602001015160026000808481548110620001025762000101620007d1565b5b9060005260206000200160009054906101000a900473ffffffffffffffffffffffffffffffffffffffff1673ffffffffffffffffffffffffffffffffffffffff1673ffffffffffffffffffffffffffffffffffffffff16815260200190815260200160002060006101000a81548160ff021916908360ff160217905550818181518110620001955762000194620007d1565b5b602002602001015160036000808481548110620001b757620001b6620007d1565b5b9060005260206000200160009054906101000a900473ffffffffffffffffffffffffffffffffffffffff1673ffffffffffffffffffffffffffffffffffffffff1673ffffffffffffffffffffffffffffffffffffffff1681526020019081526020016000208190555080806200022d9062000839565b915050620000af565b505050505062000886565b828054828255906000526020600020908101928215620002bd579160200282015b82811115620002bc5782518260006101000a81548173ffffffffffffffffffffffffffffffffffffffff021916908373ffffffffffffffffffffffffffffffffffffffff1602179055509160200191906001019062000262565b5b509050620002cc9190620002d0565b5090565b5b80821115620002eb576000816000905550600101620002d1565b5090565b6000604051905090565b600080fd5b600080fd5b600080fd5b6000601f19601f8301169050919050565b7f4e487b7100000000000000000000000000000000000000000000000000000000600052604160045260246000fd5b620003538262000308565b810181811067ffffffffffffffff8211171562000375576200037462000319565b5b80604052505050565b60006200038a620002ef565b905062000398828262000348565b919050565b600067ffffffffffffffff821115620003bb57620003ba62000319565b5b602082029050602081019050919050565b600080fd5b600073ffffffffffffffffffffffffffffffffffffffff82169050919050565b6000620003fe82620003d1565b9050919050565b6200041081620003f1565b81146200041c57600080fd5b50565b600081519050620004308162000405565b92915050565b60006200044d62000447846200039d565b6200037e565b90508083825260208201905060208402830185811115620004735762000472620003cc565b5b835b81811015620004a057806200048b88826200041f565b84526020840193505060208101905062000475565b5050509392505050565b600082601f830112620004c257620004c162000303565b5b8151620004d484826020860162000436565b91505092915050565b600060ff82169050919050565b620004f581620004dd565b81146200050157600080fd5b50565b6000815190506200051581620004ea565b92915050565b600067ffffffffffffffff82111562000539576200053862000319565b5b602082029050602081019050919050565b6000620005616200055b846200051b565b6200037e565b90508083825260208201905060208402830185811115620005875762000586620003cc565b5b835b81811015620005b457806200059f888262000504565b84526020840193505060208101905062000589565b5050509392505050565b600082601f830112620005d657620005d562000303565b5b8151620005e88482602086016200054a565b91505092915050565b600067ffffffffffffffff8211156200060f576200060e62000319565b5b602082029050602081019050919050565b6000819050919050565b620006358162000620565b81146200064157600080fd5b50565b60008151905062000655816200062a565b92915050565b6000620006726200066c84620005f1565b6200037e565b90508083825260208201905060208402830185811115620006985762000697620003cc565b5b835b81811015620006c55780620006b0888262000644565b8452602084019350506020810190506200069a565b5050509392505050565b600082601f830112620006e757620006e662000303565b5b8151620006f98482602086016200065b565b91505092915050565b600080600080608085870312156200071f576200071e620002f9565b5b600085015167ffffffffffffffff81111562000740576200073f620002fe565b5b6200074e87828801620004aa565b9450506020620007618782880162000504565b935050604085015167ffffffffffffffff811115620007855762000784620002fe565b5b6200079387828801620005be565b925050606085015167ffffffffffffffff811115620007b757620007b6620002fe565b5b620007c587828801620006cf565b91505092959194509250565b7f4e487b7100000000000000000000000000000000000000000000000000000000600052603260045260246000fd5b7f4e487b7100000000000000000000000000000000000000000000000000000000600052601160045260246000fd5b6000819050919050565b600062000846826200082f565b91507fffffffffffffffffffffffffffffffffffffffffffffffffffffffffffffffff82036200087b576200087a62000800565b5b600182019050919050565b6125e980620008966000396000f3fe6080604052600436106100a75760003560e01c806378ad2c2f1161006457806378ad2c2f146101ab5780639dffb367146101d6578063ca5b7c2e14610213578063d7ed7d2f14610250578063d8270dce14610279578063fa6b9a25146102a4576100a7565b8063021a3b22146100ac5780633a8658e4146100c85780635cccb48e146100f15780635eed3dcb1461011a57806371aac7f9146101575780637603cd7a1461016e575b600080fd5b6100c660048036038101906100c19190611e97565b6102e1565b005b3480156100d457600080fd5b506100ef60048036038101906100ea9190611e97565b610ab7565b005b3480156100fd57600080fd5b5061011860048036038101906101139190611efd565b6118d0565b005b34801561012657600080fd5b50610141600480360381019061013c9190611f60565b611a25565b60405161014e9190611fce565b60405180910390f35b34801561016357600080fd5b5061016c611a64565b005b34801561017a57600080fd5b5061019560048036038101906101909190612015565b611ac0565b6040516101a29190612051565b60405180910390f35b3480156101b757600080fd5b506101c0611ad8565b6040516101cd919061207b565b60405180910390f35b3480156101e257600080fd5b506101fd60048036038101906101f89190611e97565b611aeb565b60405161020a91906120a5565b60405180910390f35b34801561021f57600080fd5b5061023a60048036038101906102359190611f60565b611c2c565b6040516102479190611fce565b60405180910390f35b34801561025c57600080fd5b5061027760048036038101906102729190612219565b611c6b565b005b34801561028557600080fd5b5061028e611de9565b60405161029b91906120a5565b60405180910390f35b3480156102b057600080fd5b506102cb60048036038101906102c69190612015565b611def565b6040516102d8919061207b565b60405180910390f35b60005b600160009054906101000a900460ff1660ff168110156105fa576000600281111561031257610311612262565b5b6006600080848154811061032957610328612291565b5b9060005260206000200160009054906101000a900473ffffffffffffffffffffffffffffffffffffffff1673ffffffffffffffffffffffffffffffffffffffff1673ffffffffffffffffffffffffffffffffffffffff16815260200190815260200160002060009054906101000a900460ff1660028111156103ae576103ad612262565b5b1480156103cb575062093a80600b546103c791906122ef565b4210155b156105e7576002600660008084815481106103e9576103e8612291565b5b9060005260206000200160009054906101000a900473ffffffffffffffffffffffffffffffffffffffff1673ffffffffffffffffffffffffffffffffffffffff1673ffffffffffffffffffffffffffffffffffffffff16815260200190815260200160002060006101000a81548160ff021916908360028111156104705761046f612262565b5b02179055507fe98097b6040eb0966e73fd39adf87f8715de85b3f660e6a7009ba2469d4fd86d600082815481106104aa576104a9612291565b5b9060005260206000200160009054906101000a900473ffffffffffffffffffffffffffffffffffffffff16600460008085815481106104ec576104eb612291565b5b9060005260206000200160009054906101000a900473ffffffffffffffffffffffffffffffffffffffff1673ffffffffffffffffffffffffffffffffffffffff1673ffffffffffffffffffffffffffffffffffffffff168152602001908152602001600020546003600080868154811061056957610568612291565b5b9060005260206000200160009054906101000a900473ffffffffffffffffffffffffffffffffffffffff1673ffffffffffffffffffffffffffffffffffffffff1673ffffffffffffffffffffffffffffffffffffffff168152602001908152602001600020546040516105de93929190612345565b60405180910390a15b80806105f29061237c565b9150506102e4565b50600080600090505b600160009054906101000a900460ff1660ff168110156106f557826003600080848154811061063557610634612291565b5b9060005260206000200160009054906101000a900473ffffffffffffffffffffffffffffffffffffffff1673ffffffffffffffffffffffffffffffffffffffff1673ffffffffffffffffffffffffffffffffffffffff16815260200190815260200160002054036106e257600081815481106106b4576106b3612291565b5b9060005260206000200160009054906101000a900473ffffffffffffffffffffffffffffffffffffffff1691505b80806106ed9061237c565b915050610603565b506000600281111561070a57610709612262565b5b600660008373ffffffffffffffffffffffffffffffffffffffff1673ffffffffffffffffffffffffffffffffffffffff16815260200190815260200160002060009054906101000a900460ff16600281111561076957610768612262565b5b146107a9576040517f08c379a00000000000000000000000000000000000000000000000000000000081526004016107a090612447565b60405180910390fd5b6000600460008373ffffffffffffffffffffffffffffffffffffffff1673ffffffffffffffffffffffffffffffffffffffff1681526020019081526020016000205490506000811461080857348161080191906122ef565b905061080c565b3490505b600560008373ffffffffffffffffffffffffffffffffffffffff1673ffffffffffffffffffffffffffffffffffffffff1681526020019081526020016000205481106108f6576001600660008473ffffffffffffffffffffffffffffffffffffffff1673ffffffffffffffffffffffffffffffffffffffff16815260200190815260200160002060006101000a81548160ff021916908360028111156108b5576108b4612262565b5b02179055507f84ce75384538250d1691d23fcf41bb86189a077b16f707a9abf1d1c3e1285aa38282856040516108ed93929190612345565b60405180910390a15b60011515600860003373ffffffffffffffffffffffffffffffffffffffff1673ffffffffffffffffffffffffffffffffffffffff16815260200190815260200160002060009054906101000a900460ff16151514610a0a576001600860003373ffffffffffffffffffffffffffffffffffffffff1673ffffffffffffffffffffffffffffffffffffffff16815260200190815260200160002060006101000a81548160ff021916908315150217905550600a339080600181540180825580915050600190039060005260206000200160009091909190916101000a81548173ffffffffffffffffffffffffffffffffffffffff021916908373ffffffffffffffffffffffffffffffffffffffff1602179055505b6000600760003373ffffffffffffffffffffffffffffffffffffffff1673ffffffffffffffffffffffffffffffffffffffff16815260200190815260200160002054905060008114610a69573481610a6291906122ef565b9050610a6d565b3490505b80600760003373ffffffffffffffffffffffffffffffffffffffff1673ffffffffffffffffffffffffffffffffffffffff1681526020019081526020016000208190555050505050565b60005b600160009054906101000a900460ff1660ff16811015610dd05760006002811115610ae857610ae7612262565b5b60066000808481548110610aff57610afe612291565b5b9060005260206000200160009054906101000a900473ffffffffffffffffffffffffffffffffffffffff1673ffffffffffffffffffffffffffffffffffffffff1673ffffffffffffffffffffffffffffffffffffffff16815260200190815260200160002060009054906101000a900460ff166002811115610b8457610b83612262565b5b148015610ba1575062093a80600b54610b9d91906122ef565b4210155b15610dbd57600260066000808481548110610bbf57610bbe612291565b5b9060005260206000200160009054906101000a900473ffffffffffffffffffffffffffffffffffffffff1673ffffffffffffffffffffffffffffffffffffffff1673ffffffffffffffffffffffffffffffffffffffff16815260200190815260200160002060006101000a81548160ff02191690836002811115610c4657610c45612262565b5b02179055507fe98097b6040eb0966e73fd39adf87f8715de85b3f660e6a7009ba2469d4fd86d60008281548110610c8057610c7f612291565b5b9060005260206000200160009054906101000a900473ffffffffffffffffffffffffffffffffffffffff1660046000808581548110610cc257610cc1612291565b5b9060005260206000200160009054906101000a900473ffffffffffffffffffffffffffffffffffffffff1673ffffffffffffffffffffffffffffffffffffffff1673ffffffffffffffffffffffffffffffffffffffff1681526020019081526020016000205460036000808681548110610d3f57610d3e612291565b5b9060005260206000200160009054906101000a900473ffffffffffffffffffffffffffffffffffffffff1673ffffffffffffffffffffffffffffffffffffffff1673ffffffffffffffffffffffffffffffffffffffff16815260200190815260200160002054604051610db493929190612345565b60405180910390a15b8080610dc89061237c565b915050610aba565b50600c60009054906101000a900473ffffffffffffffffffffffffffffffffffffffff1673ffffffffffffffffffffffffffffffffffffffff163373ffffffffffffffffffffffffffffffffffffffff1614610e2b57600080fd5b600080600090505b600160009054906101000a900460ff1660ff16811015610f25578260036000808481548110610e6557610e64612291565b5b9060005260206000200160009054906101000a900473ffffffffffffffffffffffffffffffffffffffff1673ffffffffffffffffffffffffffffffffffffffff1673ffffffffffffffffffffffffffffffffffffffff1681526020019081526020016000205403610f125760008181548110610ee457610ee3612291565b5b9060005260206000200160009054906101000a900473ffffffffffffffffffffffffffffffffffffffff1691505b8080610f1d9061237c565b915050610e33565b5060016002811115610f3a57610f39612262565b5b600660008373ffffffffffffffffffffffffffffffffffffffff1673ffffffffffffffffffffffffffffffffffffffff16815260200190815260200160002060009054906101000a900460ff166002811115610f9957610f98612262565b5b036111c5576000600460008373ffffffffffffffffffffffffffffffffffffffff1673ffffffffffffffffffffffffffffffffffffffff1681526020019081526020016000205490506000600460008473ffffffffffffffffffffffffffffffffffffffff1673ffffffffffffffffffffffffffffffffffffffff1681526020019081526020016000208190555060008290508073ffffffffffffffffffffffffffffffffffffffff166108fc839081150290604051600060405180830381858888f19350505050158015611072573d6000803e3d6000fd5b5060005b600a805490508110156111af57600060086000600a848154811061109d5761109c612291565b5b9060005260206000200160009054906101000a900473ffffffffffffffffffffffffffffffffffffffff1673ffffffffffffffffffffffffffffffffffffffff1673ffffffffffffffffffffffffffffffffffffffff16815260200190815260200160002060006101000a81548160ff021916908315150217905550600060076000600a848154811061113357611132612291565b5b9060005260206000200160009054906101000a900473ffffffffffffffffffffffffffffffffffffffff1673ffffffffffffffffffffffffffffffffffffffff1673ffffffffffffffffffffffffffffffffffffffff1681526020019081526020016000208190555080806111a79061237c565b915050611076565b50600a60006111be9190611e0f565b50506118cc565b6002808111156111d8576111d7612262565b5b600660008373ffffffffffffffffffffffffffffffffffffffff1673ffffffffffffffffffffffffffffffffffffffff16815260200190815260200160002060009054906101000a900460ff16600281111561123757611236612262565b5b03611825576000600460008373ffffffffffffffffffffffffffffffffffffffff1673ffffffffffffffffffffffffffffffffffffffff1681526020019081526020016000205490506000811461181f576000600960009054906101000a900460ff1660ff16036115a95760005b600a805490508110156113de57600060086000600a84815481106112cc576112cb612291565b5b9060005260206000200160009054906101000a900473ffffffffffffffffffffffffffffffffffffffff1673ffffffffffffffffffffffffffffffffffffffff1673ffffffffffffffffffffffffffffffffffffffff16815260200190815260200160002060006101000a81548160ff021916908315150217905550600060076000600a848154811061136257611361612291565b5b9060005260206000200160009054906101000a900473ffffffffffffffffffffffffffffffffffffffff1673ffffffffffffffffffffffffffffffffffffffff1673ffffffffffffffffffffffffffffffffffffffff1681526020019081526020016000208190555080806113d69061237c565b9150506112a5565b506000600460008473ffffffffffffffffffffffffffffffffffffffff1673ffffffffffffffffffffffffffffffffffffffff16815260200190815260200160002054905060005b600160009054906101000a900460ff1660ff1681101561154f57600080828154811061145557611454612291565b5b9060005260206000200160009054906101000a900473ffffffffffffffffffffffffffffffffffffffff1690506000600260008373ffffffffffffffffffffffffffffffffffffffff1673ffffffffffffffffffffffffffffffffffffffff16815260200190815260200160002060009054906101000a900460ff16905060008290508073ffffffffffffffffffffffffffffffffffffffff166108fc866064856115009190612496565b60ff1661150d91906124c7565b9081150290604051600060405180830381858888f19350505050158015611538573d6000803e3d6000fd5b5050505080806115479061237c565b915050611426565b506000600460008573ffffffffffffffffffffffffffffffffffffffff1673ffffffffffffffffffffffffffffffffffffffff16815260200190815260200160002081905550600a60006115a39190611e0f565b5061181e565b6001600960009054906101000a900460ff1660ff160361181d5760005b600a8054905081101561180d57600060086000600a84815481106115ed576115ec612291565b5b9060005260206000200160009054906101000a900473ffffffffffffffffffffffffffffffffffffffff1673ffffffffffffffffffffffffffffffffffffffff1673ffffffffffffffffffffffffffffffffffffffff16815260200190815260200160002060006101000a81548160ff021916908315150217905550600060076000600a848154811061168357611682612291565b5b9060005260206000200160009054906101000a900473ffffffffffffffffffffffffffffffffffffffff1673ffffffffffffffffffffffffffffffffffffffff1673ffffffffffffffffffffffffffffffffffffffff168152602001908152602001600020549050600060076000600a858154811061170557611704612291565b5b9060005260206000200160009054906101000a900473ffffffffffffffffffffffffffffffffffffffff1673ffffffffffffffffffffffffffffffffffffffff1673ffffffffffffffffffffffffffffffffffffffff168152602001908152602001600020819055506000600a838154811061178457611783612291565b5b9060005260206000200160009054906101000a900473ffffffffffffffffffffffffffffffffffffffff1690508073ffffffffffffffffffffffffffffffffffffffff166108fc839081150290604051600060405180830381858888f193505050501580156117f7573d6000803e3d6000fd5b50505080806118059061237c565b9150506115c6565b50600a600061181c9190611e0f565b5b5b5b506118cb565b6000600281111561183957611838612262565b5b600660008373ffffffffffffffffffffffffffffffffffffffff1673ffffffffffffffffffffffffffffffffffffffff16815260200190815260200160002060009054906101000a900460ff16600281111561189857611897612262565b5b036118ca577f64d12556a85cdd58f632c188b5b6bdb51b11dff496b036e63e193315cbc6019f60405160405180910390a15b5b5b5050565b600c60009054906101000a900473ffffffffffffffffffffffffffffffffffffffff1673ffffffffffffffffffffffffffffffffffffffff163373ffffffffffffffffffffffffffffffffffffffff161461192a57600080fd5b60005b600160009054906101000a900460ff1660ff168110156119ff576000600660008084815481106119605761195f612291565b5b9060005260206000200160009054906101000a900473ffffffffffffffffffffffffffffffffffffffff1673ffffffffffffffffffffffffffffffffffffffff1673ffffffffffffffffffffffffffffffffffffffff16815260200190815260200160002060006101000a81548160ff021916908360028111156119e7576119e6612262565b5b021790555080806119f79061237c565b91505061192d565b5042600b8190555080600960006101000a81548160ff021916908360ff16021790555050565b600a8181548110611a3557600080fd5b906000526020600020016000915054906101000a900473ffffffffffffffffffffffffffffffffffffffff1681565b600c60009054906101000a900473ffffffffffffffffffffffffffffffffffffffff1673ffffffffffffffffffffffffffffffffffffffff163373ffffffffffffffffffffffffffffffffffffffff1614611abe57600080fd5b565b60036020528060005260406000206000915090505481565b600160009054906101000a900460ff1681565b60008060005b600160009054906101000a900460ff1660ff16811015611be3578360036000808481548110611b2357611b22612291565b5b9060005260206000200160009054906101000a900473ffffffffffffffffffffffffffffffffffffffff1673ffffffffffffffffffffffffffffffffffffffff1673ffffffffffffffffffffffffffffffffffffffff1681526020019081526020016000205403611bd05760008181548110611ba257611ba1612291565b5b9060005260206000200160009054906101000a900473ffffffffffffffffffffffffffffffffffffffff1691505b8080611bdb9061237c565b915050611af1565b50600460008273ffffffffffffffffffffffffffffffffffffffff1673ffffffffffffffffffffffffffffffffffffffff16815260200190815260200160002054915050919050565b60008181548110611c3c57600080fd5b906000526020600020016000915054906101000a900473ffffffffffffffffffffffffffffffffffffffff1681565b600c60009054906101000a900473ffffffffffffffffffffffffffffffffffffffff1673ffffffffffffffffffffffffffffffffffffffff163373ffffffffffffffffffffffffffffffffffffffff1614611cc557600080fd5b600160009054906101000a900460ff1660ff16815114611d1a576040517f08c379a0000000000000000000000000000000000000000000000000000000008152600401611d1190612593565b60405180910390fd5b60005b600160009054906101000a900460ff1660ff16811015611de557818181518110611d4a57611d49612291565b5b602002602001015160056000808481548110611d6957611d68612291565b5b9060005260206000200160009054906101000a900473ffffffffffffffffffffffffffffffffffffffff1673ffffffffffffffffffffffffffffffffffffffff1673ffffffffffffffffffffffffffffffffffffffff168152602001908152602001600020819055508080611ddd9061237c565b915050611d1d565b5050565b600b5481565b60026020528060005260406000206000915054906101000a900460ff1681565b5080546000825590600052602060002090810190611e2d9190611e30565b50565b5b80821115611e49576000816000905550600101611e31565b5090565b6000604051905090565b600080fd5b600080fd5b6000819050919050565b611e7481611e61565b8114611e7f57600080fd5b50565b600081359050611e9181611e6b565b92915050565b600060208284031215611ead57611eac611e57565b5b6000611ebb84828501611e82565b91505092915050565b600060ff82169050919050565b611eda81611ec4565b8114611ee557600080fd5b50565b600081359050611ef781611ed1565b92915050565b600060208284031215611f1357611f12611e57565b5b6000611f2184828501611ee8565b91505092915050565b6000819050919050565b611f3d81611f2a565b8114611f4857600080fd5b50565b600081359050611f5a81611f34565b92915050565b600060208284031215611f7657611f75611e57565b5b6000611f8484828501611f4b565b91505092915050565b600073ffffffffffffffffffffffffffffffffffffffff82169050919050565b6000611fb882611f8d565b9050919050565b611fc881611fad565b82525050565b6000602082019050611fe36000830184611fbf565b92915050565b611ff281611fad565b8114611ffd57600080fd5b50565b60008135905061200f81611fe9565b92915050565b60006020828403121561202b5761202a611e57565b5b600061203984828501612000565b91505092915050565b61204b81611e61565b82525050565b60006020820190506120666000830184612042565b92915050565b61207581611ec4565b82525050565b6000602082019050612090600083018461206c565b92915050565b61209f81611f2a565b82525050565b60006020820190506120ba6000830184612096565b92915050565b600080fd5b6000601f19601f8301169050919050565b7f4e487b7100000000000000000000000000000000000000000000000000000000600052604160045260246000fd5b61210e826120c5565b810181811067ffffffffffffffff8211171561212d5761212c6120d6565b5b80604052505050565b6000612140611e4d565b905061214c8282612105565b919050565b600067ffffffffffffffff82111561216c5761216b6120d6565b5b602082029050602081019050919050565b600080fd5b600061219561219084612151565b612136565b905080838252602082019050602084028301858111156121b8576121b761217d565b5b835b818110156121e157806121cd8882611f4b565b8452602084019350506020810190506121ba565b5050509392505050565b600082601f830112612200576121ff6120c0565b5b8135612210848260208601612182565b91505092915050565b60006020828403121561222f5761222e611e57565b5b600082013567ffffffffffffffff81111561224d5761224c611e5c565b5b612259848285016121eb565b91505092915050565b7f4e487b7100000000000000000000000000000000000000000000000000000000600052602160045260246000fd5b7f4e487b7100000000000000000000000000000000000000000000000000000000600052603260045260246000fd5b7f4e487b7100000000000000000000000000000000000000000000000000000000600052601160045260246000fd5b60006122fa82611f2a565b915061230583611f2a565b9250827fffffffffffffffffffffffffffffffffffffffffffffffffffffffffffffffff0382111561233a576123396122c0565b5b828201905092915050565b600060608201905061235a6000830186611fbf565b6123676020830185612096565b6123746040830184612042565b949350505050565b600061238782611f2a565b91507fffffffffffffffffffffffffffffffffffffffffffffffffffffffffffffffff82036123b9576123b86122c0565b5b600182019050919050565b600082825260208201905092915050565b7f5468652063616d706169676e20686173206569746865722066696e697368656460008201527f206f7220686173206265656e2066756c66696c6c65642e000000000000000000602082015250565b60006124316037836123c4565b915061243c826123d5565b604082019050919050565b6000602082019050818103600083015261246081612424565b9050919050565b7f4e487b7100000000000000000000000000000000000000000000000000000000600052601260045260246000fd5b60006124a182611ec4565b91506124ac83611ec4565b9250826124bc576124bb612467565b5b828204905092915050565b60006124d282611f2a565b91506124dd83611f2a565b9250817fffffffffffffffffffffffffffffffffffffffffffffffffffffffffffffffff0483118215151615612516576125156122c0565b5b828202905092915050565b7f596f75206e65656420746f20637265617465206120676f616c20666f7220656160008201527f6368207375622d6163636f756e74210000000000000000000000000000000000602082015250565b600061257d602f836123c4565b915061258882612521565b604082019050919050565b600060208201905081810360008301526125ac81612570565b905091905056fea26469706673582212203b4b3fbc5e1d1b38606569c12a565506a997e0ce5b5ee0ac2bf251abea96837864736f6c634300080d0033",
  "immutableReferences": {},
  "source": "// SPDX-License-Identifier: MIT\r\npragma solidity >= 0.5.0;\r\n\r\n// Charities should be able to declare a new campaign\r\n// whereby delayed release of funds is implemented.\r\n// Also should be able to query status of funds per sub-account.\r\n\r\n// Declaring a campaign means setting goals for pre-created sub-accounts.\r\n// After a certain time, if goal not met money returned to donors. (We can add that this creates incentive to donate immediately)\r\n// Else if goal hit, funds become available for the charity to use\r\n// A more complicated implementation would be automating the ending of a campaign after a given time, for now we assume charity manually calls function\r\n\r\ncontract Campaign {\r\n    address[] public subAccounts;\r\n    uint8 public numberOfSubAccounts; //subaccounts sld not exceed 255\r\n    mapping(address => uint8) public subAccountPercentages; // mapping of proportion of amount donated, for each sub-account [0.1, 0.2, 0.3, 0.4] etc\r\n    mapping(address => bytes32) public subAccountNames; // same size as mapping above, stores the name of each subaccount for that charity\r\n    mapping(address => uint256) subAccountBalance; // Maps name of account => account balance. Can switch to address => balance mapping if that is used more (one less conversion step).\r\n    mapping(address => uint256) campaignGoals; // Maps account => goal for that account.\r\n    mapping(address => Stages) campaignAccountStatus; // Maps address to current stage.\r\n    mapping(address => uint256) donorsBalance; // how much each donor has donated\r\n    mapping(address => bool) hasDonated;\r\n    uint8 campaignType; // 0 for split if not met, 1 for return to donors if not met\r\n    address[] public donorList;\r\n    uint public creationTime;\r\n    enum Stages {\r\n        AcceptingDeposits,\r\n        ReleasingDeposits,\r\n        ElapsedDeposits\r\n    }\r\n\r\n    address charityOwner;\r\n    // TODO add all the events as per midterm test for testing\r\n    event cannotWithdraw();\r\n    event accountGoalHit(address account, uint256 balance, bytes32 accountName);\r\n    event accountGoalNotHit(address account, uint256 balance, bytes32 accountName);\r\n\r\n    constructor(address[] memory sub, uint8 numberOfSub, uint8[] memory percentages, bytes32[] memory names) {\r\n        charityOwner = msg.sender;\r\n        numberOfSubAccounts = numberOfSub;\r\n        subAccounts = sub;\r\n        for (uint i = 0; i < numberOfSubAccounts; i++) {\r\n            subAccountPercentages[subAccounts[i]] = percentages[i];\r\n            subAccountNames[subAccounts[i]] = names[i];\r\n        }\r\n    }\r\n\r\n    // Modifiers\r\n    modifier ownerOnly() {\r\n        require(msg.sender == charityOwner); // has to be instantiated by charity\r\n        _;\r\n    }\r\n\r\n    modifier timedTransitions() {\r\n        for (uint i = 0; i < numberOfSubAccounts; i++) {\r\n            if (campaignAccountStatus[subAccounts[i]] == Stages.AcceptingDeposits && block.timestamp >= creationTime + 7 days) {\r\n                campaignAccountStatus[subAccounts[i]] = Stages.ElapsedDeposits;\r\n                emit accountGoalNotHit(subAccounts[i], subAccountBalance[subAccounts[i]], subAccountNames[subAccounts[i]]);\r\n            }\r\n        }\r\n        _;\r\n    }\r\n\r\n    function addCampaignGoals(uint256[] memory allocations) public ownerOnly {\r\n        require(allocations.length == numberOfSubAccounts, \"You need to create a goal for each sub-account!\");\r\n        for (uint i = 0; i < numberOfSubAccounts; i++) {\r\n            campaignGoals[subAccounts[i]] = allocations[i]; // allocate\r\n        }\r\n    }\r\n\r\n    function startCampaign(uint8 typeOfCampaign) public ownerOnly {\r\n        for (uint i = 0; i < numberOfSubAccounts; i++) {\r\n            campaignAccountStatus[subAccounts[i]] = Stages.AcceptingDeposits;\r\n        }\r\n        creationTime = block.timestamp; // start timer\r\n        campaignType = typeOfCampaign;\r\n\r\n    }\r\n\r\n    function depositCampaign(bytes32 subAccount) public payable timedTransitions {\r\n        address temp;\r\n        for (uint i = 0; i < numberOfSubAccounts; i++) {\r\n            if (subAccountNames[subAccounts[i]] == subAccount) {\r\n                temp = subAccounts[i]; // finding account address using string, since that is fed\r\n            }\r\n        }\r\n        require(campaignAccountStatus[temp] == Stages.AcceptingDeposits, \"The campaign has either finished or has been fulfilled.\");\r\n        uint256 existingBalance = subAccountBalance[temp]; // update sub account\r\n        if (existingBalance != 0) {\r\n            existingBalance += msg.value;\r\n        } else {\r\n            existingBalance = msg.value;\r\n        }\r\n        if (existingBalance >= campaignGoals[temp]) {\r\n            campaignAccountStatus[temp] = Stages.ReleasingDeposits; // met the criteria already. release now? or wait for cue\r\n            emit accountGoalHit(temp, existingBalance, subAccount);\r\n        }\r\n        if (hasDonated[msg.sender] != true) {\r\n            hasDonated[msg.sender] = true;\r\n            donorList.push(msg.sender); // add to address list\r\n        }\r\n        uint256 donorBalance = donorsBalance[msg.sender]; // update amount donated\r\n        if (donorBalance != 0) {\r\n            donorBalance += msg.value;\r\n        } else {\r\n            donorBalance = msg.value;\r\n        }\r\n        donorsBalance[msg.sender] = donorBalance;\r\n    }\r\n\r\n    function withdrawCampaign(bytes32 subAccount) public timedTransitions ownerOnly { // if charity wants to withdraw\r\n        address temp;\r\n        for (uint i = 0; i < numberOfSubAccounts; i++) {\r\n            if (subAccountNames[subAccounts[i]] == subAccount) {\r\n                temp = subAccounts[i]; // finding account address using bytes32, since that is fed\r\n            }\r\n        }\r\n        if (campaignAccountStatus[temp] == Stages.ReleasingDeposits) {\r\n            uint amount = subAccountBalance[temp];\r\n            subAccountBalance[temp] = 0;\r\n            address payable accountPayable = payable(temp);\r\n            accountPayable.transfer(amount); // transfer is done if target is hit AND the charity rq's for transfer\r\n            for (uint h = 0; h < donorList.length; h++) {\r\n                hasDonated[donorList[h]] = false;\r\n                donorsBalance[donorList[h]] = 0;\r\n            }\r\n            delete donorList;\r\n        } else if (campaignAccountStatus[temp] == Stages.ElapsedDeposits) { // its over without hitting the target.\r\n            uint amount = subAccountBalance[temp];\r\n            if (amount != 0) {\r\n                // two situations: split OR return to donors\r\n                if (campaignType == 0) {\r\n                    for (uint i = 0; i < donorList.length; i++) {\r\n                        hasDonated[donorList[i]] = false;\r\n                        donorsBalance[donorList[i]] = 0;\r\n                    }\r\n                    uint256 amtDonated = subAccountBalance[temp];\r\n                    for (uint j =0; j < numberOfSubAccounts; j++) {\r\n                        address subAccountAdd = subAccounts[j];\r\n                        uint8 ratio = subAccountPercentages[subAccountAdd];\r\n                        address payable subAccountAddPayable = payable(subAccountAdd);\r\n                        subAccountAddPayable.transfer((ratio / 100) * amtDonated);\r\n                    }\r\n                    subAccountBalance[temp] = 0;\r\n                    delete donorList;\r\n                } else if (campaignType == 1) { // return to donors.\r\n                    for (uint k = 0; k < donorList.length; k++) {\r\n                        hasDonated[donorList[k]] = false;\r\n                        uint256 amtToReturn = donorsBalance[donorList[k]];\r\n                        donorsBalance[donorList[k]] = 0;\r\n                        address payable accountPayable = payable(donorList[k]);\r\n                        accountPayable.transfer(amtToReturn);\r\n                    } \r\n                    delete donorList;\r\n                }\r\n            }\r\n        } else if (campaignAccountStatus[temp] == Stages.AcceptingDeposits) {\r\n            emit cannotWithdraw();\r\n        }\r\n    }\r\n\r\n    /* Check if bytes32 as function paramater is fine (special case for gas usage)\r\n    function createSubAccount(bytes32 subAccountName, address subAccountAddress) public ownerOnly() {\r\n        // TODO, make sure to check subAccount does not already exist\r\n    }*/\r\n\r\n    function endCampaign() public ownerOnly() {\r\n        // Check if elapsed time has passed\r\n        // Cycle through campaignGoals and check if goal hit. If yes, release funds else return funds. Same as midterm exam.\r\n        // (We have to take this approach and used fixed price token because otherwise very costly to transfer to main account then transfer to sub account with normal eth)\r\n        // Reset campaignGoals, campaignGoalsReached for specific campaigns whose duration has elapsed\r\n    }\r\n\r\n\r\n    // Getters & Setters\r\n    function getSubAccountBalance(bytes32 subAccountName) public view returns(uint256) {\r\n        address temp;\r\n        for (uint i = 0; i < numberOfSubAccounts; i++) {\r\n            if (subAccountNames[subAccounts[i]] == subAccountName) {\r\n                temp = subAccounts[i]; // finding account address using bytes32, since that is fed\r\n            }\r\n        }\r\n        return subAccountBalance[temp];\r\n    }\r\n\r\n    // Any ownerOnly functions that want to use funds from subAccount first checks that account not in campaignGoals and if it is, then at least campaignGoal is met\r\n}",
  "sourcePath": "C:\\Users\\cheer\\Desktop\\IS4302 Labs\\Project\\charichain\\charichain\\code\\contracts\\Campaign.sol",
  "compiler": {
    "name": "solc",
    "version": "0.8.13+commit.abaa5c0e.Emscripten.clang"
  },
  "schemaVersion": "3.4.4",
  "updatedAt": "2022-04-12T09:05:29.120Z",
  "devdoc": {
    "kind": "dev",
    "methods": {},
    "version": 1
  },
  "userdoc": {
    "kind": "user",
    "methods": {},
    "version": 1
  }
}