{
  "contractName": "Campaign",
  "abi": [
    {
      "inputs": [
        {
          "internalType": "address[]",
          "name": "sub",
          "type": "address[]"
        },
        {
          "internalType": "uint8",
          "name": "numberOfSub",
          "type": "uint8"
        },
        {
          "internalType": "uint8[]",
          "name": "percentages",
          "type": "uint8[]"
        },
        {
          "internalType": "bytes32[]",
          "name": "names",
          "type": "bytes32[]"
        },
        {
          "internalType": "uint8",
          "name": "campaign",
          "type": "uint8"
        },
        {
          "internalType": "bytes32",
          "name": "nameOfCampaign",
          "type": "bytes32"
        }
      ],
      "stateMutability": "nonpayable",
      "type": "constructor"
    },
    {
      "anonymous": false,
      "inputs": [
        {
          "indexed": false,
          "internalType": "address",
          "name": "account",
          "type": "address"
        },
        {
          "indexed": false,
          "internalType": "uint256",
          "name": "balance",
          "type": "uint256"
        },
        {
          "indexed": false,
          "internalType": "bytes32",
          "name": "accountName",
          "type": "bytes32"
        }
      ],
      "name": "accountGoalHit",
      "type": "event"
    },
    {
      "anonymous": false,
      "inputs": [
        {
          "indexed": false,
          "internalType": "address",
          "name": "account",
          "type": "address"
        },
        {
          "indexed": false,
          "internalType": "uint256",
          "name": "balance",
          "type": "uint256"
        },
        {
          "indexed": false,
          "internalType": "bytes32",
          "name": "accountName",
          "type": "bytes32"
        }
      ],
      "name": "accountGoalNotHit",
      "type": "event"
    },
    {
      "anonymous": false,
      "inputs": [],
      "name": "cannotWithdraw",
      "type": "event"
    },
    {
      "inputs": [],
      "name": "creationTime",
      "outputs": [
        {
          "internalType": "uint256",
          "name": "",
          "type": "uint256"
        }
      ],
      "stateMutability": "view",
      "type": "function"
    },
    {
      "inputs": [],
      "name": "numberOfSubAccounts",
      "outputs": [
        {
          "internalType": "uint8",
          "name": "",
          "type": "uint8"
        }
      ],
      "stateMutability": "view",
      "type": "function"
    },
    {
      "inputs": [
        {
          "internalType": "address",
          "name": "",
          "type": "address"
        }
      ],
      "name": "subAccountNames",
      "outputs": [
        {
          "internalType": "bytes32",
          "name": "",
          "type": "bytes32"
        }
      ],
      "stateMutability": "view",
      "type": "function"
    },
    {
      "inputs": [
        {
          "internalType": "address",
          "name": "",
          "type": "address"
        }
      ],
      "name": "subAccountPercentages",
      "outputs": [
        {
          "internalType": "uint8",
          "name": "",
          "type": "uint8"
        }
      ],
      "stateMutability": "view",
      "type": "function"
    },
    {
      "inputs": [
        {
          "internalType": "uint256",
          "name": "",
          "type": "uint256"
        }
      ],
      "name": "subAccounts",
      "outputs": [
        {
          "internalType": "address",
          "name": "",
          "type": "address"
        }
      ],
      "stateMutability": "view",
      "type": "function"
    },
    {
      "inputs": [
        {
          "internalType": "uint256[]",
          "name": "allocations",
          "type": "uint256[]"
        }
      ],
      "name": "addCampaignGoals",
      "outputs": [],
      "stateMutability": "nonpayable",
      "type": "function"
    },
    {
      "inputs": [
        {
          "internalType": "uint8",
          "name": "typeOfCampaign",
          "type": "uint8"
        }
      ],
      "name": "startCampaign",
      "outputs": [],
      "stateMutability": "nonpayable",
      "type": "function"
    },
    {
      "inputs": [
        {
          "internalType": "bytes32",
          "name": "subAccount",
          "type": "bytes32"
        }
      ],
      "name": "depositCampaign",
      "outputs": [],
      "stateMutability": "payable",
      "type": "function"
    },
    {
      "inputs": [
        {
          "internalType": "bytes32",
          "name": "subAccount",
          "type": "bytes32"
        }
      ],
      "name": "withdrawCampaign",
      "outputs": [],
      "stateMutability": "nonpayable",
      "type": "function"
    },
    {
      "inputs": [],
      "name": "endCampaign",
      "outputs": [],
      "stateMutability": "nonpayable",
      "type": "function"
    },
    {
      "inputs": [
        {
          "internalType": "bytes32",
          "name": "subAccountName",
          "type": "bytes32"
        }
      ],
      "name": "getSubAccountBalance",
      "outputs": [
        {
          "internalType": "uint256",
          "name": "",
          "type": "uint256"
        }
      ],
      "stateMutability": "view",
      "type": "function"
    },
    {
      "inputs": [],
      "name": "getCampaignType",
      "outputs": [
        {
          "internalType": "uint8",
          "name": "",
          "type": "uint8"
        }
      ],
      "stateMutability": "view",
      "type": "function"
    }
  ],
  "bytecode": "0x60806040523480156200001157600080fd5b5060405162002cb938038062002cb9833981810160405281019062000037919062000726565b33600d60006101000a81548173ffffffffffffffffffffffffffffffffffffffff021916908373ffffffffffffffffffffffffffffffffffffffff16021790555084600160006101000a81548160ff021916908360ff1602179055508560009080519060200190620000ab92919062000265565b5081600a60006101000a81548160ff021916908360ff16021790555080600b8190555060005b600160009054906101000a900460ff1660ff1681101562000258578481815181106200010257620001016200081f565b5b6020026020010151600260008084815481106200012457620001236200081f565b5b9060005260206000200160009054906101000a900473ffffffffffffffffffffffffffffffffffffffff1673ffffffffffffffffffffffffffffffffffffffff1673ffffffffffffffffffffffffffffffffffffffff16815260200190815260200160002060006101000a81548160ff021916908360ff160217905550838181518110620001b757620001b66200081f565b5b602002602001015160036000808481548110620001d957620001d86200081f565b5b9060005260206000200160009054906101000a900473ffffffffffffffffffffffffffffffffffffffff1673ffffffffffffffffffffffffffffffffffffffff1673ffffffffffffffffffffffffffffffffffffffff1681526020019081526020016000208190555080806200024f9062000887565b915050620000d1565b50505050505050620008d5565b828054828255906000526020600020908101928215620002e1579160200282015b82811115620002e05782518260006101000a81548173ffffffffffffffffffffffffffffffffffffffff021916908373ffffffffffffffffffffffffffffffffffffffff1602179055509160200191906001019062000286565b5b509050620002f09190620002f4565b5090565b5b808211156200030f576000816000905550600101620002f5565b5090565b6000604051905090565b600080fd5b600080fd5b600080fd5b6000601f19601f8301169050919050565b7f4e487b7100000000000000000000000000000000000000000000000000000000600052604160045260246000fd5b62000377826200032c565b810181811067ffffffffffffffff821117156200039957620003986200033d565b5b80604052505050565b6000620003ae62000313565b9050620003bc82826200036c565b919050565b600067ffffffffffffffff821115620003df57620003de6200033d565b5b602082029050602081019050919050565b600080fd5b600073ffffffffffffffffffffffffffffffffffffffff82169050919050565b60006200042282620003f5565b9050919050565b620004348162000415565b81146200044057600080fd5b50565b600081519050620004548162000429565b92915050565b6000620004716200046b84620003c1565b620003a2565b90508083825260208201905060208402830185811115620004975762000496620003f0565b5b835b81811015620004c45780620004af888262000443565b84526020840193505060208101905062000499565b5050509392505050565b600082601f830112620004e657620004e562000327565b5b8151620004f88482602086016200045a565b91505092915050565b600060ff82169050919050565b620005198162000501565b81146200052557600080fd5b50565b60008151905062000539816200050e565b92915050565b600067ffffffffffffffff8211156200055d576200055c6200033d565b5b602082029050602081019050919050565b6000620005856200057f846200053f565b620003a2565b90508083825260208201905060208402830185811115620005ab57620005aa620003f0565b5b835b81811015620005d85780620005c3888262000528565b845260208401935050602081019050620005ad565b5050509392505050565b600082601f830112620005fa57620005f962000327565b5b81516200060c8482602086016200056e565b91505092915050565b600067ffffffffffffffff8211156200063357620006326200033d565b5b602082029050602081019050919050565b6000819050919050565b620006598162000644565b81146200066557600080fd5b50565b60008151905062000679816200064e565b92915050565b600062000696620006908462000615565b620003a2565b90508083825260208201905060208402830185811115620006bc57620006bb620003f0565b5b835b81811015620006e95780620006d4888262000668565b845260208401935050602081019050620006be565b5050509392505050565b600082601f8301126200070b576200070a62000327565b5b81516200071d8482602086016200067f565b91505092915050565b60008060008060008060c087890312156200074657620007456200031d565b5b600087015167ffffffffffffffff81111562000767576200076662000322565b5b6200077589828a01620004ce565b96505060206200078889828a0162000528565b955050604087015167ffffffffffffffff811115620007ac57620007ab62000322565b5b620007ba89828a01620005e2565b945050606087015167ffffffffffffffff811115620007de57620007dd62000322565b5b620007ec89828a01620006f3565b9350506080620007ff89828a0162000528565b92505060a06200081289828a0162000668565b9150509295509295509295565b7f4e487b7100000000000000000000000000000000000000000000000000000000600052603260045260246000fd5b7f4e487b7100000000000000000000000000000000000000000000000000000000600052601160045260246000fd5b6000819050919050565b600062000894826200087d565b91507fffffffffffffffffffffffffffffffffffffffffffffffffffffffffffffffff821415620008ca57620008c96200084e565b5b600182019050919050565b6123d480620008e56000396000f3fe6080604052600436106100a75760003560e01c806378ad2c2f1161006457806378ad2c2f146101995780639dffb367146101c4578063ca5b7c2e14610201578063d7ed7d2f1461023e578063d8270dce14610267578063fa6b9a2514610292576100a7565b8063021a3b22146100ac5780633a8658e4146100c85780635b588ac6146100f15780635cccb48e1461011c57806371aac7f9146101455780637603cd7a1461015c575b600080fd5b6100c660048036038101906100c19190611c81565b6102cf565b005b3480156100d457600080fd5b506100ef60048036038101906100ea9190611c81565b610c37565b005b3480156100fd57600080fd5b5061010661171f565b6040516101139190611cca565b60405180910390f35b34801561012857600080fd5b50610143600480360381019061013e9190611d11565b611736565b005b34801561015157600080fd5b5061015a61188b565b005b34801561016857600080fd5b50610183600480360381019061017e9190611d9c565b6118e7565b6040516101909190611dd8565b60405180910390f35b3480156101a557600080fd5b506101ae6118ff565b6040516101bb9190611cca565b60405180910390f35b3480156101d057600080fd5b506101eb60048036038101906101e69190611c81565b611912565b6040516101f89190611e0c565b60405180910390f35b34801561020d57600080fd5b5061022860048036038101906102239190611e53565b611a54565b6040516102359190611e8f565b60405180910390f35b34801561024a57600080fd5b5061026560048036038101906102609190612003565b611a93565b005b34801561027357600080fd5b5061027c611c11565b6040516102899190611e0c565b60405180910390f35b34801561029e57600080fd5b506102b960048036038101906102b49190611d9c565b611c17565b6040516102c69190611cca565b60405180910390f35b60005b600160009054906101000a900460ff1660ff168110156106045760006002811115610300576102ff61204c565b5b600660008084815481106103175761031661207b565b5b9060005260206000200160009054906101000a900473ffffffffffffffffffffffffffffffffffffffff1673ffffffffffffffffffffffffffffffffffffffff1673ffffffffffffffffffffffffffffffffffffffff16815260200190815260200160002060009054906101000a900460ff16600281111561039c5761039b61204c565b5b1480156103b9575062093a80600c546103b591906120d9565b4210155b156105f1576002600660008084815481106103d7576103d661207b565b5b9060005260206000200160009054906101000a900473ffffffffffffffffffffffffffffffffffffffff1673ffffffffffffffffffffffffffffffffffffffff1673ffffffffffffffffffffffffffffffffffffffff16815260200190815260200160002060006101000a81548160ff0219169083600281111561045e5761045d61204c565b5b02179055507fe98097b6040eb0966e73fd39adf87f8715de85b3f660e6a7009ba2469d4fd86d600082815481106104985761049761207b565b5b9060005260206000200160009054906101000a900473ffffffffffffffffffffffffffffffffffffffff16600460008085815481106104da576104d961207b565b5b9060005260206000200160009054906101000a900473ffffffffffffffffffffffffffffffffffffffff1673ffffffffffffffffffffffffffffffffffffffff1673ffffffffffffffffffffffffffffffffffffffff16815260200190815260200160002054600360008086815481106105575761055661207b565b5b9060005260206000200160009054906101000a900473ffffffffffffffffffffffffffffffffffffffff1673ffffffffffffffffffffffffffffffffffffffff1673ffffffffffffffffffffffffffffffffffffffff168152602001908152602001600020546040516105cc9392919061212f565b60405180910390a16003600a60006101000a81548160ff021916908360ff1602179055505b80806105fc90612166565b9150506102d2565b50600080600090505b600160009054906101000a900460ff1660ff1681101561070057826003600080848154811061063f5761063e61207b565b5b9060005260206000200160009054906101000a900473ffffffffffffffffffffffffffffffffffffffff1673ffffffffffffffffffffffffffffffffffffffff1673ffffffffffffffffffffffffffffffffffffffff1681526020019081526020016000205414156106ed57600081815481106106bf576106be61207b565b5b9060005260206000200160009054906101000a900473ffffffffffffffffffffffffffffffffffffffff1691505b80806106f890612166565b91505061060d565b50600060028111156107155761071461204c565b5b600660008373ffffffffffffffffffffffffffffffffffffffff1673ffffffffffffffffffffffffffffffffffffffff16815260200190815260200160002060009054906101000a900460ff1660028111156107745761077361204c565b5b146107b4576040517f08c379a00000000000000000000000000000000000000000000000000000000081526004016107ab90612232565b60405180910390fd5b6000600460008373ffffffffffffffffffffffffffffffffffffffff1673ffffffffffffffffffffffffffffffffffffffff1681526020019081526020016000205490506000811461081357348161080c91906120d9565b9050610817565b3490505b80600460008473ffffffffffffffffffffffffffffffffffffffff1673ffffffffffffffffffffffffffffffffffffffff16815260200190815260200160002081905550600560008373ffffffffffffffffffffffffffffffffffffffff1673ffffffffffffffffffffffffffffffffffffffff168152602001908152602001600020548110610945576001600660008473ffffffffffffffffffffffffffffffffffffffff1673ffffffffffffffffffffffffffffffffffffffff16815260200190815260200160002060006101000a81548160ff021916908360028111156109045761090361204c565b5b02179055507f84ce75384538250d1691d23fcf41bb86189a077b16f707a9abf1d1c3e1285aa382828560405161093c9392919061212f565b60405180910390a15b60011515600860008473ffffffffffffffffffffffffffffffffffffffff1673ffffffffffffffffffffffffffffffffffffffff16815260200190815260200160002060003373ffffffffffffffffffffffffffffffffffffffff1673ffffffffffffffffffffffffffffffffffffffff16815260200190815260200160002060009054906101000a900460ff16151514610b10576001600860008473ffffffffffffffffffffffffffffffffffffffff1673ffffffffffffffffffffffffffffffffffffffff16815260200190815260200160002060003373ffffffffffffffffffffffffffffffffffffffff1673ffffffffffffffffffffffffffffffffffffffff16815260200190815260200160002060006101000a81548160ff021916908315150217905550600960008373ffffffffffffffffffffffffffffffffffffffff1673ffffffffffffffffffffffffffffffffffffffff168152602001908152602001600020339080600181540180825580915050600190039060005260206000200160009091909190916101000a81548173ffffffffffffffffffffffffffffffffffffffff021916908373ffffffffffffffffffffffffffffffffffffffff1602179055505b6000600760008473ffffffffffffffffffffffffffffffffffffffff1673ffffffffffffffffffffffffffffffffffffffff16815260200190815260200160002060003373ffffffffffffffffffffffffffffffffffffffff1673ffffffffffffffffffffffffffffffffffffffff16815260200190815260200160002054905060008114610bac573481610ba591906120d9565b9050610bb0565b3490505b80600760008573ffffffffffffffffffffffffffffffffffffffff1673ffffffffffffffffffffffffffffffffffffffff16815260200190815260200160002060003373ffffffffffffffffffffffffffffffffffffffff1673ffffffffffffffffffffffffffffffffffffffff1681526020019081526020016000208190555050505050565b60005b600160009054906101000a900460ff1660ff16811015610f6c5760006002811115610c6857610c6761204c565b5b60066000808481548110610c7f57610c7e61207b565b5b9060005260206000200160009054906101000a900473ffffffffffffffffffffffffffffffffffffffff1673ffffffffffffffffffffffffffffffffffffffff1673ffffffffffffffffffffffffffffffffffffffff16815260200190815260200160002060009054906101000a900460ff166002811115610d0457610d0361204c565b5b148015610d21575062093a80600c54610d1d91906120d9565b4210155b15610f5957600260066000808481548110610d3f57610d3e61207b565b5b9060005260206000200160009054906101000a900473ffffffffffffffffffffffffffffffffffffffff1673ffffffffffffffffffffffffffffffffffffffff1673ffffffffffffffffffffffffffffffffffffffff16815260200190815260200160002060006101000a81548160ff02191690836002811115610dc657610dc561204c565b5b02179055507fe98097b6040eb0966e73fd39adf87f8715de85b3f660e6a7009ba2469d4fd86d60008281548110610e0057610dff61207b565b5b9060005260206000200160009054906101000a900473ffffffffffffffffffffffffffffffffffffffff1660046000808581548110610e4257610e4161207b565b5b9060005260206000200160009054906101000a900473ffffffffffffffffffffffffffffffffffffffff1673ffffffffffffffffffffffffffffffffffffffff1673ffffffffffffffffffffffffffffffffffffffff1681526020019081526020016000205460036000808681548110610ebf57610ebe61207b565b5b9060005260206000200160009054906101000a900473ffffffffffffffffffffffffffffffffffffffff1673ffffffffffffffffffffffffffffffffffffffff1673ffffffffffffffffffffffffffffffffffffffff16815260200190815260200160002054604051610f349392919061212f565b60405180910390a16003600a60006101000a81548160ff021916908360ff1602179055505b8080610f6490612166565b915050610c3a565b50600d60009054906101000a900473ffffffffffffffffffffffffffffffffffffffff1673ffffffffffffffffffffffffffffffffffffffff163373ffffffffffffffffffffffffffffffffffffffff1614610fc757600080fd5b600080600090505b600160009054906101000a900460ff1660ff168110156110c25782600360008084815481106110015761100061207b565b5b9060005260206000200160009054906101000a900473ffffffffffffffffffffffffffffffffffffffff1673ffffffffffffffffffffffffffffffffffffffff1673ffffffffffffffffffffffffffffffffffffffff1681526020019081526020016000205414156110af57600081815481106110815761108061207b565b5b9060005260206000200160009054906101000a900473ffffffffffffffffffffffffffffffffffffffff1691505b80806110ba90612166565b915050610fcf565b50600160028111156110d7576110d661204c565b5b600660008373ffffffffffffffffffffffffffffffffffffffff1673ffffffffffffffffffffffffffffffffffffffff16815260200190815260200160002060009054906101000a900460ff1660028111156111365761113561204c565b5b14156111d3576000600460008373ffffffffffffffffffffffffffffffffffffffff1673ffffffffffffffffffffffffffffffffffffffff16815260200190815260200160002054905060008290508073ffffffffffffffffffffffffffffffffffffffff166108fc839081150290604051600060405180830381858888f193505050501580156111cb573d6000803e3d6000fd5b50505061171b565b6002808111156111e6576111e561204c565b5b600660008373ffffffffffffffffffffffffffffffffffffffff1673ffffffffffffffffffffffffffffffffffffffff16815260200190815260200160002060009054906101000a900460ff1660028111156112455761124461204c565b5b1415611673576000600460008373ffffffffffffffffffffffffffffffffffffffff1673ffffffffffffffffffffffffffffffffffffffff1681526020019081526020016000205490506000811461166d576000600a60009054906101000a900460ff1660ff161415611429576000600460008473ffffffffffffffffffffffffffffffffffffffff1673ffffffffffffffffffffffffffffffffffffffff16815260200190815260200160002054905060005b600160009054906101000a900460ff1660ff168110156114225760008082815481106113285761132761207b565b5b9060005260206000200160009054906101000a900473ffffffffffffffffffffffffffffffffffffffff1690506000600260008373ffffffffffffffffffffffffffffffffffffffff1673ffffffffffffffffffffffffffffffffffffffff16815260200190815260200160002060009054906101000a900460ff16905060008290508073ffffffffffffffffffffffffffffffffffffffff166108fc866064856113d39190612281565b60ff166113e091906122b2565b9081150290604051600060405180830381858888f1935050505015801561140b573d6000803e3d6000fd5b50505050808061141a90612166565b9150506112f9565b505061166c565b6001600a60009054906101000a900460ff1660ff16141561166b5760005b600960008473ffffffffffffffffffffffffffffffffffffffff1673ffffffffffffffffffffffffffffffffffffffff16815260200190815260200160002080549050811015611669576000600760008573ffffffffffffffffffffffffffffffffffffffff1673ffffffffffffffffffffffffffffffffffffffff1681526020019081526020016000206000600960008773ffffffffffffffffffffffffffffffffffffffff1673ffffffffffffffffffffffffffffffffffffffff16815260200190815260200160002084815481106115255761152461207b565b5b9060005260206000200160009054906101000a900473ffffffffffffffffffffffffffffffffffffffff1673ffffffffffffffffffffffffffffffffffffffff1673ffffffffffffffffffffffffffffffffffffffff1681526020019081526020016000205490506000600960008673ffffffffffffffffffffffffffffffffffffffff1673ffffffffffffffffffffffffffffffffffffffff16815260200190815260200160002083815481106115e0576115df61207b565b5b9060005260206000200160009054906101000a900473ffffffffffffffffffffffffffffffffffffffff1690508073ffffffffffffffffffffffffffffffffffffffff166108fc839081150290604051600060405180830381858888f19350505050158015611653573d6000803e3d6000fd5b505050808061166190612166565b915050611447565b505b5b5b5061171a565b600060028111156116875761168661204c565b5b600660008373ffffffffffffffffffffffffffffffffffffffff1673ffffffffffffffffffffffffffffffffffffffff16815260200190815260200160002060009054906101000a900460ff1660028111156116e6576116e561204c565b5b1415611719577f64d12556a85cdd58f632c188b5b6bdb51b11dff496b036e63e193315cbc6019f60405160405180910390a15b5b5b5050565b6000600a60009054906101000a900460ff16905090565b600d60009054906101000a900473ffffffffffffffffffffffffffffffffffffffff1673ffffffffffffffffffffffffffffffffffffffff163373ffffffffffffffffffffffffffffffffffffffff161461179057600080fd5b60005b600160009054906101000a900460ff1660ff16811015611865576000600660008084815481106117c6576117c561207b565b5b9060005260206000200160009054906101000a900473ffffffffffffffffffffffffffffffffffffffff1673ffffffffffffffffffffffffffffffffffffffff1673ffffffffffffffffffffffffffffffffffffffff16815260200190815260200160002060006101000a81548160ff0219169083600281111561184d5761184c61204c565b5b0217905550808061185d90612166565b915050611793565b5042600c8190555080600a60006101000a81548160ff021916908360ff16021790555050565b600d60009054906101000a900473ffffffffffffffffffffffffffffffffffffffff1673ffffffffffffffffffffffffffffffffffffffff163373ffffffffffffffffffffffffffffffffffffffff16146118e557600080fd5b565b60036020528060005260406000206000915090505481565b600160009054906101000a900460ff1681565b60008060005b600160009054906101000a900460ff1660ff16811015611a0b57836003600080848154811061194a5761194961207b565b5b9060005260206000200160009054906101000a900473ffffffffffffffffffffffffffffffffffffffff1673ffffffffffffffffffffffffffffffffffffffff1673ffffffffffffffffffffffffffffffffffffffff1681526020019081526020016000205414156119f857600081815481106119ca576119c961207b565b5b9060005260206000200160009054906101000a900473ffffffffffffffffffffffffffffffffffffffff1691505b8080611a0390612166565b915050611918565b50600460008273ffffffffffffffffffffffffffffffffffffffff1673ffffffffffffffffffffffffffffffffffffffff16815260200190815260200160002054915050919050565b60008181548110611a6457600080fd5b906000526020600020016000915054906101000a900473ffffffffffffffffffffffffffffffffffffffff1681565b600d60009054906101000a900473ffffffffffffffffffffffffffffffffffffffff1673ffffffffffffffffffffffffffffffffffffffff163373ffffffffffffffffffffffffffffffffffffffff1614611aed57600080fd5b600160009054906101000a900460ff1660ff16815114611b42576040517f08c379a0000000000000000000000000000000000000000000000000000000008152600401611b399061237e565b60405180910390fd5b60005b600160009054906101000a900460ff1660ff16811015611c0d57818181518110611b7257611b7161207b565b5b602002602001015160056000808481548110611b9157611b9061207b565b5b9060005260206000200160009054906101000a900473ffffffffffffffffffffffffffffffffffffffff1673ffffffffffffffffffffffffffffffffffffffff1673ffffffffffffffffffffffffffffffffffffffff168152602001908152602001600020819055508080611c0590612166565b915050611b45565b5050565b600c5481565b60026020528060005260406000206000915054906101000a900460ff1681565b6000604051905090565b600080fd5b600080fd5b6000819050919050565b611c5e81611c4b565b8114611c6957600080fd5b50565b600081359050611c7b81611c55565b92915050565b600060208284031215611c9757611c96611c41565b5b6000611ca584828501611c6c565b91505092915050565b600060ff82169050919050565b611cc481611cae565b82525050565b6000602082019050611cdf6000830184611cbb565b92915050565b611cee81611cae565b8114611cf957600080fd5b50565b600081359050611d0b81611ce5565b92915050565b600060208284031215611d2757611d26611c41565b5b6000611d3584828501611cfc565b91505092915050565b600073ffffffffffffffffffffffffffffffffffffffff82169050919050565b6000611d6982611d3e565b9050919050565b611d7981611d5e565b8114611d8457600080fd5b50565b600081359050611d9681611d70565b92915050565b600060208284031215611db257611db1611c41565b5b6000611dc084828501611d87565b91505092915050565b611dd281611c4b565b82525050565b6000602082019050611ded6000830184611dc9565b92915050565b6000819050919050565b611e0681611df3565b82525050565b6000602082019050611e216000830184611dfd565b92915050565b611e3081611df3565b8114611e3b57600080fd5b50565b600081359050611e4d81611e27565b92915050565b600060208284031215611e6957611e68611c41565b5b6000611e7784828501611e3e565b91505092915050565b611e8981611d5e565b82525050565b6000602082019050611ea46000830184611e80565b92915050565b600080fd5b6000601f19601f8301169050919050565b7f4e487b7100000000000000000000000000000000000000000000000000000000600052604160045260246000fd5b611ef882611eaf565b810181811067ffffffffffffffff82111715611f1757611f16611ec0565b5b80604052505050565b6000611f2a611c37565b9050611f368282611eef565b919050565b600067ffffffffffffffff821115611f5657611f55611ec0565b5b602082029050602081019050919050565b600080fd5b6000611f7f611f7a84611f3b565b611f20565b90508083825260208201905060208402830185811115611fa257611fa1611f67565b5b835b81811015611fcb5780611fb78882611e3e565b845260208401935050602081019050611fa4565b5050509392505050565b600082601f830112611fea57611fe9611eaa565b5b8135611ffa848260208601611f6c565b91505092915050565b60006020828403121561201957612018611c41565b5b600082013567ffffffffffffffff81111561203757612036611c46565b5b61204384828501611fd5565b91505092915050565b7f4e487b7100000000000000000000000000000000000000000000000000000000600052602160045260246000fd5b7f4e487b7100000000000000000000000000000000000000000000000000000000600052603260045260246000fd5b7f4e487b7100000000000000000000000000000000000000000000000000000000600052601160045260246000fd5b60006120e482611df3565b91506120ef83611df3565b9250827fffffffffffffffffffffffffffffffffffffffffffffffffffffffffffffffff03821115612124576121236120aa565b5b828201905092915050565b60006060820190506121446000830186611e80565b6121516020830185611dfd565b61215e6040830184611dc9565b949350505050565b600061217182611df3565b91507fffffffffffffffffffffffffffffffffffffffffffffffffffffffffffffffff8214156121a4576121a36120aa565b5b600182019050919050565b600082825260208201905092915050565b7f5468652063616d706169676e20686173206569746865722066696e697368656460008201527f206f7220686173206265656e2066756c66696c6c65642e000000000000000000602082015250565b600061221c6037836121af565b9150612227826121c0565b604082019050919050565b6000602082019050818103600083015261224b8161220f565b9050919050565b7f4e487b7100000000000000000000000000000000000000000000000000000000600052601260045260246000fd5b600061228c82611cae565b915061229783611cae565b9250826122a7576122a6612252565b5b828204905092915050565b60006122bd82611df3565b91506122c883611df3565b9250817fffffffffffffffffffffffffffffffffffffffffffffffffffffffffffffffff0483118215151615612301576123006120aa565b5b828202905092915050565b7f596f75206e65656420746f20637265617465206120676f616c20666f7220656160008201527f6368207375622d6163636f756e74210000000000000000000000000000000000602082015250565b6000612368602f836121af565b91506123738261230c565b604082019050919050565b600060208201905081810360008301526123978161235b565b905091905056fea26469706673582212207c4c7947e0eb0bb804426e273a31688f45e15b232786b85a755199d31eecfc0c64736f6c634300080b0033",
  "immutableReferences": {},
  "source": "// SPDX-License-Identifier: MIT\npragma solidity >= 0.8.0;\n\n// Charities should be able to declare a new campaign\n// whereby delayed release of funds is implemented.\n// Also should be able to query status of funds per sub-account.\n\n// Declaring a campaign means setting goals for pre-created sub-accounts.\n// After a certain time, if goal not met money returned to donors. (We can add that this creates incentive to donate immediately)\n// Else if goal hit, funds become available for the charity to use\n// A more complicated implementation would be automating the ending of a campaign after a given time, for now we assume charity manually calls function\n\ncontract Campaign {\n    address[] public subAccounts;\n    uint8 public numberOfSubAccounts; //subaccounts sld not exceed 255\n    mapping(address => uint8) public subAccountPercentages; // mapping of proportion of amount donated, for each sub-account [0.1, 0.2, 0.3, 0.4] etc\n    mapping(address => bytes32) public subAccountNames; // same size as mapping above, stores the name of each subaccount for that charity\n    mapping(address => uint256) subAccountBalance; // Maps name of account => account balance. Can switch to address => balance mapping if that is used more (one less conversion step).\n    mapping(address => uint256) campaignGoals; // Maps account => goal for that account.\n    mapping(address => Stages) campaignAccountStatus; // Maps address to current stage.\n    mapping(address => mapping(address => uint256)) donorsBalance; // how much each donor has donated\n    mapping(address => mapping(address => bool)) hasDonated;\n    mapping(address => address[]) donorList;\n    //address[] public donorList;\n    uint8 campaignType; // 0 for split if not met, 1 for return to donors if not met, 2 for not started yet, 3 for done already.\n    bytes32 campaignName;\n\n    uint public creationTime;\n    enum Stages {\n        AcceptingDeposits,\n        ReleasingDeposits,\n        ElapsedDeposits\n    }\n\n    address charityOwner;\n\n    // TODO add all the events as per midterm test for testing\n    event cannotWithdraw();\n    event accountGoalHit(address account, uint256 balance, bytes32 accountName);\n    event accountGoalNotHit(address account, uint256 balance, bytes32 accountName);\n\n    constructor(address[] memory sub, uint8 numberOfSub, uint8[] memory percentages, bytes32[] memory names, uint8 campaign, bytes32 nameOfCampaign) {\n        charityOwner = msg.sender;\n        numberOfSubAccounts = numberOfSub;\n        subAccounts = sub;\n        campaignType = campaign;\n        campaignName = nameOfCampaign;\n        for (uint i = 0; i < numberOfSubAccounts; i++) {\n            subAccountPercentages[subAccounts[i]] = percentages[i];\n            subAccountNames[subAccounts[i]] = names[i];\n        }\n    }\n\n    // Modifiers\n    modifier ownerOnly() {\n        require(msg.sender == charityOwner); // has to be instantiated by charity\n        _;\n    }\n\n    modifier timedTransitions() {\n        for (uint i = 0; i < numberOfSubAccounts; i++) {\n            if (campaignAccountStatus[subAccounts[i]] == Stages.AcceptingDeposits && block.timestamp >= creationTime + 7 days) {\n                campaignAccountStatus[subAccounts[i]] = Stages.ElapsedDeposits;\n                emit accountGoalNotHit(subAccounts[i], subAccountBalance[subAccounts[i]], subAccountNames[subAccounts[i]]);\n                campaignType = 3;\n            }\n        }\n        _;\n    }\n\n    function addCampaignGoals(uint256[] memory allocations) public ownerOnly {\n        require(allocations.length == numberOfSubAccounts, \"You need to create a goal for each sub-account!\");\n        for (uint i = 0; i < numberOfSubAccounts; i++) {\n            campaignGoals[subAccounts[i]] = allocations[i]; // allocate\n        }\n    }\n\n    function startCampaign(uint8 typeOfCampaign) public ownerOnly {\n        for (uint i = 0; i < numberOfSubAccounts; i++) {\n            campaignAccountStatus[subAccounts[i]] = Stages.AcceptingDeposits;\n        }\n        creationTime = block.timestamp; // start timer\n        campaignType = typeOfCampaign;\n    }\n\n    function depositCampaign(bytes32 subAccount) public payable timedTransitions {\n        address temp;\n        for (uint i = 0; i < numberOfSubAccounts; i++) {\n            if (subAccountNames[subAccounts[i]] == subAccount) {\n                temp = subAccounts[i]; // finding account address using string, since that is fed\n            }\n        }\n        require(campaignAccountStatus[temp] == Stages.AcceptingDeposits, \"The campaign has either finished or has been fulfilled.\");\n        uint256 existingBalance = subAccountBalance[temp]; // update sub account\n        if (existingBalance != 0) {\n            existingBalance += msg.value;\n        } else {\n            existingBalance = msg.value;\n        }\n        subAccountBalance[temp] = existingBalance;\n        if (existingBalance >= campaignGoals[temp]) {\n            campaignAccountStatus[temp] = Stages.ReleasingDeposits; // met the criteria already. release now? or wait for cue\n            emit accountGoalHit(temp, existingBalance, subAccount);\n        }\n        if (hasDonated[temp][msg.sender] != true) {\n            hasDonated[temp][msg.sender] = true;\n            donorList[temp].push(msg.sender); // add to address list\n        }\n        uint256 donorBalance = donorsBalance[temp][msg.sender]; // update amount donated\n        if (donorBalance != 0) {\n            donorBalance += msg.value;\n        } else {\n            donorBalance = msg.value;\n        }\n        donorsBalance[temp][msg.sender] = donorBalance;\n    }\n\n    function withdrawCampaign(bytes32 subAccount) public timedTransitions ownerOnly { // if charity wants to withdraw\n        address temp;\n        for (uint i = 0; i < numberOfSubAccounts; i++) {\n            if (subAccountNames[subAccounts[i]] == subAccount) {\n                temp = subAccounts[i]; // finding account address using bytes32, since that is fed\n            }\n        }\n        if (campaignAccountStatus[temp] == Stages.ReleasingDeposits) {\n            uint amount = subAccountBalance[temp];\n            address payable accountPayable = payable(temp);\n            accountPayable.transfer(amount); // transfer is done if target is hit AND the charity rq's for transfer\n        } else if (campaignAccountStatus[temp] == Stages.ElapsedDeposits) { // its over without hitting the target.\n            uint amount = subAccountBalance[temp];\n            if (amount != 0) {\n                // two situations: split OR return to donors\n                if (campaignType == 0) {\n                    uint256 amtDonated = subAccountBalance[temp];\n                    for (uint j =0; j < numberOfSubAccounts; j++) {\n                        address subAccountAdd = subAccounts[j];\n                        uint8 ratio = subAccountPercentages[subAccountAdd];\n                        address payable subAccountAddPayable = payable(subAccountAdd);\n                        subAccountAddPayable.transfer((ratio / 100) * amtDonated);\n                    }\n                } else if (campaignType == 1) { // return to donors.\n                    for (uint k = 0; k < donorList[temp].length; k++) {\n                        uint256 amtToReturn = donorsBalance[temp][donorList[temp][k]];\n                        address payable accountPayable = payable(donorList[temp][k]);\n                        accountPayable.transfer(amtToReturn);\n                    } \n                }\n            }\n        } else if (campaignAccountStatus[temp] == Stages.AcceptingDeposits) {\n            emit cannotWithdraw();\n        }\n    }\n\n    /* Check if bytes32 as function paramater is fine (special case for gas usage)\n    function createSubAccount(bytes32 subAccountName, address subAccountAddress) public ownerOnly() {\n        // TODO, make sure to check subAccount does not already exist\n    }*/\n\n    function endCampaign() public ownerOnly() {\n        // Check if elapsed time has passed\n        // Cycle through campaignGoals and check if goal hit. If yes, release funds else return funds. Same as midterm exam.\n        // (We have to take this approach and used fixed price token because otherwise very costly to transfer to main account then transfer to sub account with normal eth)\n        // Reset campaignGoals, campaignGoalsReached for specific campaigns whose duration has elapsed\n    }\n\n\n    // Getters & Setters\n    function getSubAccountBalance(bytes32 subAccountName) public view returns(uint256) {\n        address temp;\n        for (uint i = 0; i < numberOfSubAccounts; i++) {\n            if (subAccountNames[subAccounts[i]] == subAccountName) {\n                temp = subAccounts[i]; // finding account address using bytes32, since that is fed\n            }\n        }\n        return subAccountBalance[temp];\n    }\n\n    function getCampaignType() public view returns (uint8) {\n        return campaignType;\n    }\n    // Any ownerOnly functions that want to use funds from subAccount first checks that account not in campaignGoals and if it is, then at least campaignGoal is met\n}",
  "sourcePath": "/Users/ngxianghan/Documents/Y2S2/IS4302/charichain/code/contracts/Campaign.sol",
  "compiler": {
    "name": "solc",
    "version": "0.8.11+commit.d7f03943.Emscripten.clang"
  },
  "schemaVersion": "3.4.7",
  "updatedAt": "2022-04-12T11:29:13.501Z",
  "devdoc": {
    "kind": "dev",
    "methods": {},
    "version": 1
  },
  "userdoc": {
    "kind": "user",
    "methods": {},
    "version": 1
  }
}