{
  "contractName": "Charity",
  "abi": [
    {
      "inputs": [
        {
          "internalType": "address[]",
          "name": "accounts",
          "type": "address[]"
        }
      ],
      "stateMutability": "nonpayable",
      "type": "constructor"
    },
    {
      "anonymous": false,
      "inputs": [
        {
          "indexed": false,
          "internalType": "address",
          "name": "accountAddress",
          "type": "address"
        },
        {
          "indexed": false,
          "internalType": "uint8",
          "name": "percentages",
          "type": "uint8"
        }
      ],
      "name": "Allocation",
      "type": "event"
    },
    {
      "inputs": [
        {
          "internalType": "address",
          "name": "",
          "type": "address"
        }
      ],
      "name": "amountDonated",
      "outputs": [
        {
          "internalType": "uint256",
          "name": "",
          "type": "uint256"
        }
      ],
      "stateMutability": "view",
      "type": "function"
    },
    {
      "inputs": [],
      "name": "numberOfSubAccounts",
      "outputs": [
        {
          "internalType": "uint8",
          "name": "",
          "type": "uint8"
        }
      ],
      "stateMutability": "view",
      "type": "function"
    },
    {
      "inputs": [
        {
          "internalType": "address",
          "name": "",
          "type": "address"
        }
      ],
      "name": "subAccountNames",
      "outputs": [
        {
          "internalType": "bytes32",
          "name": "",
          "type": "bytes32"
        }
      ],
      "stateMutability": "view",
      "type": "function"
    },
    {
      "inputs": [
        {
          "internalType": "address",
          "name": "",
          "type": "address"
        }
      ],
      "name": "subAccountPercentages",
      "outputs": [
        {
          "internalType": "uint8",
          "name": "",
          "type": "uint8"
        }
      ],
      "stateMutability": "view",
      "type": "function"
    },
    {
      "inputs": [
        {
          "internalType": "uint256",
          "name": "",
          "type": "uint256"
        }
      ],
      "name": "subAccounts",
      "outputs": [
        {
          "internalType": "address",
          "name": "",
          "type": "address"
        }
      ],
      "stateMutability": "view",
      "type": "function"
    },
    {
      "inputs": [
        {
          "internalType": "address",
          "name": "accountAddress",
          "type": "address"
        },
        {
          "internalType": "bytes32",
          "name": "accountName",
          "type": "bytes32"
        }
      ],
      "name": "createSubAccount",
      "outputs": [],
      "stateMutability": "nonpayable",
      "type": "function"
    },
    {
      "inputs": [
        {
          "internalType": "uint8[]",
          "name": "percentages",
          "type": "uint8[]"
        }
      ],
      "name": "allocatePercentages",
      "outputs": [],
      "stateMutability": "nonpayable",
      "type": "function"
    },
    {
      "inputs": [
        {
          "internalType": "uint256",
          "name": "amtDonated",
          "type": "uint256"
        }
      ],
      "name": "allocateDonations",
      "outputs": [],
      "stateMutability": "payable",
      "type": "function"
    },
    {
      "inputs": [
        {
          "internalType": "uint256",
          "name": "amtDonated",
          "type": "uint256"
        },
        {
          "internalType": "address",
          "name": "donor",
          "type": "address"
        }
      ],
      "name": "processDonations",
      "outputs": [],
      "stateMutability": "payable",
      "type": "function"
    },
    {
      "inputs": [],
      "name": "createCampaign",
      "outputs": [],
      "stateMutability": "nonpayable",
      "type": "function"
    },
    {
      "inputs": [],
      "name": "showAllocation",
      "outputs": [],
      "stateMutability": "nonpayable",
      "type": "function"
    },
    {
      "inputs": [],
      "name": "getProportions",
      "outputs": [
        {
          "internalType": "uint256[]",
          "name": "xd",
          "type": "uint256[]"
        }
      ],
      "stateMutability": "view",
      "type": "function"
    },
    {
      "inputs": [],
      "name": "getAccountsInOrder",
      "outputs": [
        {
          "internalType": "bytes32[]",
          "name": "xd",
          "type": "bytes32[]"
        }
      ],
      "stateMutability": "view",
      "type": "function"
    },
    {
      "inputs": [
        {
          "internalType": "uint256",
          "name": "amt",
          "type": "uint256"
        }
      ],
      "name": "checkAmount",
      "outputs": [
        {
          "internalType": "uint256[]",
          "name": "xd",
          "type": "uint256[]"
        }
      ],
      "stateMutability": "view",
      "type": "function"
    },
    {
      "inputs": [],
      "name": "getNumberOfAccounts",
      "outputs": [
        {
          "internalType": "uint256",
          "name": "",
          "type": "uint256"
        }
      ],
      "stateMutability": "view",
      "type": "function"
    },
    {
      "inputs": [],
      "name": "getBalance",
      "outputs": [
        {
          "internalType": "uint256",
          "name": "",
          "type": "uint256"
        }
      ],
      "stateMutability": "view",
      "type": "function"
    },
    {
      "inputs": [],
      "name": "checkVoteOutcome",
      "outputs": [
        {
          "internalType": "uint256[]",
          "name": "vc",
          "type": "uint256[]"
        }
      ],
      "stateMutability": "payable",
      "type": "function"
    }
  ],
  "bytecode": "0x608060405233600360006101000a81548173ffffffffffffffffffffffffffffffffffffffff021916908373ffffffffffffffffffffffffffffffffffffffff1602179055503480156200005257600080fd5b5060405162007930380380620079308339818101604052810190620000789190620003cf565b6000604051620000889062000125565b604051809103906000f080158015620000a5573d6000803e3d6000fd5b509050806000806101000a81548173ffffffffffffffffffffffffffffffffffffffff021916908373ffffffffffffffffffffffffffffffffffffffff16021790555081600290805190602001906200010092919062000133565b506000600360146101000a81548160ff021916908360ff160217905550505062000420565b611e938062005a9d83390190565b828054828255906000526020600020908101928215620001af579160200282015b82811115620001ae5782518260006101000a81548173ffffffffffffffffffffffffffffffffffffffff021916908373ffffffffffffffffffffffffffffffffffffffff1602179055509160200191906001019062000154565b5b509050620001be9190620001c2565b5090565b5b80821115620001dd576000816000905550600101620001c3565b5090565b6000604051905090565b600080fd5b600080fd5b600080fd5b6000601f19601f8301169050919050565b7f4e487b7100000000000000000000000000000000000000000000000000000000600052604160045260246000fd5b6200024582620001fa565b810181811067ffffffffffffffff821117156200026757620002666200020b565b5b80604052505050565b60006200027c620001e1565b90506200028a82826200023a565b919050565b600067ffffffffffffffff821115620002ad57620002ac6200020b565b5b602082029050602081019050919050565b600080fd5b600073ffffffffffffffffffffffffffffffffffffffff82169050919050565b6000620002f082620002c3565b9050919050565b6200030281620002e3565b81146200030e57600080fd5b50565b6000815190506200032281620002f7565b92915050565b60006200033f62000339846200028f565b62000270565b90508083825260208201905060208402830185811115620003655762000364620002be565b5b835b818110156200039257806200037d888262000311565b84526020840193505060208101905062000367565b5050509392505050565b600082601f830112620003b457620003b3620001f5565b5b8151620003c684826020860162000328565b91505092915050565b600060208284031215620003e857620003e7620001eb565b5b600082015167ffffffffffffffff811115620004095762000408620001f0565b5b62000417848285016200039c565b91505092915050565b61566d80620004306000396000f3fe608060405260043610620001165760003560e01c80637603cd7a11620000a3578063cdc7fcc2116200006d578063cdc7fcc21462000333578063dcd1e6701462000363578063fa6b9a2514620003a7578063fbeb46ff14620003eb578063fe91f6eb146200042f5762000116565b80637603cd7a146200025b57806378ad2c2f146200029f5780639cbb9a0614620002cf578063ca5b7c2e14620002ef5762000116565b80633b926cbf11620000e55780633b926cbf14620001c55780633edfa59514620001e55780635d598f1d14620002135780636201fe6914620002415762000116565b8063099113f2146200011b57806312065fe01462000135578063309e36ef14620001655780633649aeed1462000195575b600080fd5b3480156200012857600080fd5b506200013362000451565b005b3480156200014257600080fd5b506200014d6200054f565b6040516200015c919062001939565b60405180910390f35b3480156200017257600080fd5b506200017d62000557565b6040516200018c919062001939565b60405180910390f35b348015620001a257600080fd5b50620001ad62000571565b604051620001bc919062001a2e565b60405180910390f35b620001e36004803603810190620001dd919062001a97565b620006a3565b005b348015620001f257600080fd5b506200021160048036038101906200020b919062001b5f565b620007e0565b005b3480156200022057600080fd5b506200023f600480360381019062000239919062001d59565b62000a90565b005b3480156200024e57600080fd5b506200025962000cb3565b005b3480156200026857600080fd5b5062000287600480360381019062000281919062001daa565b62000fe2565b60405162000296919062001ded565b60405180910390f35b348015620002ac57600080fd5b50620002b762000ffa565b604051620002c6919062001e1b565b60405180910390f35b620002ed6004803603810190620002e7919062001e38565b6200100d565b005b348015620002fc57600080fd5b506200031b600480360381019062000315919062001a97565b620012c9565b6040516200032a919062001e90565b60405180910390f35b3480156200034057600080fd5b506200034b62001309565b6040516200035a919062001f7b565b60405180910390f35b3480156200037057600080fd5b506200038f600480360381019062000389919062001a97565b62001497565b6040516200039e919062001f7b565b60405180910390f35b348015620003b457600080fd5b50620003d36004803603810190620003cd919062001daa565b620015e8565b604051620003e2919062001e1b565b60405180910390f35b348015620003f857600080fd5b5062000417600480360381019062000411919062001daa565b62001608565b60405162000426919062001939565b60405180910390f35b6200043962001620565b60405162000448919062001f7b565b60405180910390f35b60005b6002805490508110156200054c576000600282815481106200047b576200047a62001f9f565b5b9060005260206000200160009054906101000a900473ffffffffffffffffffffffffffffffffffffffff1690506000600460008373ffffffffffffffffffffffffffffffffffffffff1673ffffffffffffffffffffffffffffffffffffffff16815260200190815260200160002060009054906101000a900460ff1690507f1678b24f967a3843f4df73c502214e9713abcdddaae41eb0afe87d808a99e78582826040516200052c92919062001fce565b60405180910390a15050808062000543906200202a565b91505062000454565b50565b600047905090565b6000600360149054906101000a900460ff1660ff16905090565b606060006200057f62000557565b67ffffffffffffffff8111156200059b576200059a62001bbc565b5b604051908082528060200260200182016040528015620005ca5781602001602082028036833780820191505090505b50905060005b620005da62000557565b8110156200069b576005600060028381548110620005fd57620005fc62001f9f565b5b9060005260206000200160009054906101000a900473ffffffffffffffffffffffffffffffffffffffff1673ffffffffffffffffffffffffffffffffffffffff1673ffffffffffffffffffffffffffffffffffffffff1681526020019081526020016000205482828151811062000679576200067862001f9f565b5b602002602001018181525050808062000692906200202a565b915050620005d0565b508091505090565b60005b600360149054906101000a900460ff1660ff16811015620007dc57600060028281548110620006da57620006d962001f9f565b5b9060005260206000200160009054906101000a900473ffffffffffffffffffffffffffffffffffffffff1690506000600460008373ffffffffffffffffffffffffffffffffffffffff1673ffffffffffffffffffffffffffffffffffffffff16815260200190815260200160002060009054906101000a900460ff16905060008290508073ffffffffffffffffffffffffffffffffffffffff166108fc86606485620007879190620020a6565b60ff16620007969190620020de565b9081150290604051600060405180830381858888f19350505050158015620007c2573d6000803e3d6000fd5b505050508080620007d3906200202a565b915050620006a6565b5050565b600360009054906101000a900473ffffffffffffffffffffffffffffffffffffffff1673ffffffffffffffffffffffffffffffffffffffff163373ffffffffffffffffffffffffffffffffffffffff16146200083b57600080fd5b600080600090505b600280549050811015620008e0578373ffffffffffffffffffffffffffffffffffffffff16600282815481106200087f576200087e62001f9f565b5b9060005260206000200160009054906101000a900473ffffffffffffffffffffffffffffffffffffffff1673ffffffffffffffffffffffffffffffffffffffff1603620008ca578391505b8080620008d7906200202a565b91505062000843565b508273ffffffffffffffffffffffffffffffffffffffff168173ffffffffffffffffffffffffffffffffffffffff160362000952576040517f08c379a00000000000000000000000000000000000000000000000000000000081526004016200094990620021c6565b60405180910390fd5b6002839080600181540180825580915050600190039060005260206000200160009091909190916101000a81548173ffffffffffffffffffffffffffffffffffffffff021916908373ffffffffffffffffffffffffffffffffffffffff1602179055506000600460008573ffffffffffffffffffffffffffffffffffffffff1673ffffffffffffffffffffffffffffffffffffffff16815260200190815260200160002060006101000a81548160ff021916908360ff16021790555081600560008573ffffffffffffffffffffffffffffffffffffffff1673ffffffffffffffffffffffffffffffffffffffff168152602001908152602001600020819055506001600360148282829054906101000a900460ff1662000a739190620021e8565b92506101000a81548160ff021916908360ff160217905550505050565b600360009054906101000a900473ffffffffffffffffffffffffffffffffffffffff1673ffffffffffffffffffffffffffffffffffffffff163373ffffffffffffffffffffffffffffffffffffffff161462000aeb57600080fd5b60028054905081511462000b36576040517f08c379a000000000000000000000000000000000000000000000000000000000815260040162000b2d906200229c565b60405180910390fd5b600080600090505b825181101562000b8e5782818151811062000b5e5762000b5d62001f9f565b5b602002602001015160ff168262000b769190620022be565b9150808062000b85906200202a565b91505062000b3e565b506064811462000bd5576040517f08c379a000000000000000000000000000000000000000000000000000000000815260040162000bcc9062002391565b60405180910390fd5b60005b825181101562000cae5782818151811062000bf85762000bf762001f9f565b5b6020026020010151600460006002848154811062000c1b5762000c1a62001f9f565b5b9060005260206000200160009054906101000a900473ffffffffffffffffffffffffffffffffffffffff1673ffffffffffffffffffffffffffffffffffffffff1673ffffffffffffffffffffffffffffffffffffffff16815260200190815260200160002060006101000a81548160ff021916908360ff160217905550808062000ca5906200202a565b91505062000bd8565b505050565b600360009054906101000a900473ffffffffffffffffffffffffffffffffffffffff1673ffffffffffffffffffffffffffffffffffffffff163373ffffffffffffffffffffffffffffffffffffffff161462000d0e57600080fd5b600062000d1a62000557565b67ffffffffffffffff81111562000d365762000d3562001bbc565b5b60405190808252806020026020018201604052801562000d655781602001602082028036833780820191505090505b509050600062000d7462000557565b67ffffffffffffffff81111562000d905762000d8f62001bbc565b5b60405190808252806020026020018201604052801562000dbf5781602001602082028036833780820191505090505b50905060005b62000dcf62000557565b81101562000f4857600460006002838154811062000df25762000df162001f9f565b5b9060005260206000200160009054906101000a900473ffffffffffffffffffffffffffffffffffffffff1673ffffffffffffffffffffffffffffffffffffffff1673ffffffffffffffffffffffffffffffffffffffff16815260200190815260200160002060009054906101000a900460ff1683828151811062000e7b5762000e7a62001f9f565b5b602002602001019060ff16908160ff1681525050600560006002838154811062000eaa5762000ea962001f9f565b5b9060005260206000200160009054906101000a900473ffffffffffffffffffffffffffffffffffffffff1673ffffffffffffffffffffffffffffffffffffffff1673ffffffffffffffffffffffffffffffffffffffff1681526020019081526020016000205482828151811062000f265762000f2562001f9f565b5b602002602001018181525050808062000f3f906200202a565b91505062000dc5565b5060006002600360149054906101000a900460ff16848460405162000f6d9062001910565b62000f7c9493929190620025bd565b604051809103906000f08015801562000f99573d6000803e3d6000fd5b50905080600160006101000a81548173ffffffffffffffffffffffffffffffffffffffff021916908373ffffffffffffffffffffffffffffffffffffffff160217905550505050565b60056020528060005260406000206000915090505481565b600360149054906101000a900460ff1681565b3073ffffffffffffffffffffffffffffffffffffffff16633b926cbf836040518263ffffffff1660e01b815260040162001048919062001939565b600060405180830381600087803b1580156200106357600080fd5b505af115801562001078573d6000803e3d6000fd5b5050505060008054906101000a900473ffffffffffffffffffffffffffffffffffffffff1673ffffffffffffffffffffffffffffffffffffffff1663da304e4d836040518263ffffffff1660e01b8152600401620010d7919062001939565b600060405180830381600087803b158015620010f257600080fd5b505af115801562001107573d6000803e3d6000fd5b5050505060008060009054906101000a900473ffffffffffffffffffffffffffffffffffffffff1673ffffffffffffffffffffffffffffffffffffffff166319e5ad38846040518263ffffffff1660e01b815260040162001169919062001939565b602060405180830381865afa15801562001187573d6000803e3d6000fd5b505050506040513d601f19601f82011682018060405250810190620011ad919062002636565b905060008054906101000a900473ffffffffffffffffffffffffffffffffffffffff1673ffffffffffffffffffffffffffffffffffffffff1663af55de6c6040518163ffffffff1660e01b8152600401602060405180830381865afa1580156200121b573d6000803e3d6000fd5b505050506040513d601f19601f82011682018060405250810190620012419190620026ad565b73ffffffffffffffffffffffffffffffffffffffff1663a9059cbb83836040518363ffffffff1660e01b81526004016200127d929190620026df565b6020604051808303816000875af11580156200129d573d6000803e3d6000fd5b505050506040513d601f19601f82011682018060405250810190620012c3919062002749565b50505050565b60028181548110620012da57600080fd5b906000526020600020016000915054906101000a900473ffffffffffffffffffffffffffffffffffffffff1681565b606060006200131762000557565b67ffffffffffffffff81111562001333576200133262001bbc565b5b604051908082528060200260200182016040528015620013625781602001602082028036833780820191505090505b50905060005b6200137262000557565b8110156200148f57600660003373ffffffffffffffffffffffffffffffffffffffff1673ffffffffffffffffffffffffffffffffffffffff168152602001908152602001600020546004600060028481548110620013d557620013d462001f9f565b5b9060005260206000200160009054906101000a900473ffffffffffffffffffffffffffffffffffffffff1673ffffffffffffffffffffffffffffffffffffffff1673ffffffffffffffffffffffffffffffffffffffff16815260200190815260200160002060009054906101000a900460ff1660ff16620014579190620020de565b8282815181106200146d576200146c62001f9f565b5b602002602001018181525050808062001486906200202a565b91505062001368565b508091505090565b60606000620014a562000557565b67ffffffffffffffff811115620014c157620014c062001bbc565b5b604051908082528060200260200182016040528015620014f05781602001602082028036833780820191505090505b50905060005b6200150062000557565b811015620015de5783600460006002848154811062001524576200152362001f9f565b5b9060005260206000200160009054906101000a900473ffffffffffffffffffffffffffffffffffffffff1673ffffffffffffffffffffffffffffffffffffffff1673ffffffffffffffffffffffffffffffffffffffff16815260200190815260200160002060009054906101000a900460ff1660ff16620015a69190620020de565b828281518110620015bc57620015bb62001f9f565b5b6020026020010181815250508080620015d5906200202a565b915050620014f6565b5080915050919050565b60046020528060005260406000206000915054906101000a900460ff1681565b60066020528060005260406000206000915090505481565b606060006200162e62000557565b67ffffffffffffffff8111156200164a576200164962001bbc565b5b604051908082528060200260200182016040528015620016795781602001602082028036833780820191505090505b50905060005b6200168962000557565b811015620019085760008060009054906101000a900473ffffffffffffffffffffffffffffffffffffffff1673ffffffffffffffffffffffffffffffffffffffff1663d1014bee60028481548110620016e757620016e662001f9f565b5b9060005260206000200160009054906101000a900473ffffffffffffffffffffffffffffffffffffffff166040518263ffffffff1660e01b815260040162001730919062001e90565b602060405180830381865afa1580156200174e573d6000803e3d6000fd5b505050506040513d601f19601f8201168201806040525081019062001774919062002636565b9050808383815181106200178d576200178c62001f9f565b5b60200260200101818152505060008054906101000a900473ffffffffffffffffffffffffffffffffffffffff1673ffffffffffffffffffffffffffffffffffffffff1663af55de6c6040518163ffffffff1660e01b8152600401602060405180830381865afa15801562001805573d6000803e3d6000fd5b505050506040513d601f19601f820116820180604052508101906200182b9190620026ad565b73ffffffffffffffffffffffffffffffffffffffff166323b872dd600284815481106200185d576200185c62001f9f565b5b9060005260206000200160009054906101000a900473ffffffffffffffffffffffffffffffffffffffff1630846040518463ffffffff1660e01b8152600401620018aa939291906200277b565b6020604051808303816000875af1158015620018ca573d6000803e3d6000fd5b505050506040513d601f19601f82011682018060405250810190620018f0919062002749565b50508080620018ff906200202a565b9150506200167f565b508091505090565b612e7f80620027b983390190565b6000819050919050565b62001933816200191e565b82525050565b600060208201905062001950600083018462001928565b92915050565b600081519050919050565b600082825260208201905092915050565b6000819050602082019050919050565b6000819050919050565b620019978162001982565b82525050565b6000620019ab83836200198c565b60208301905092915050565b6000602082019050919050565b6000620019d18262001956565b620019dd818562001961565b9350620019ea8362001972565b8060005b8381101562001a2157815162001a0588826200199d565b975062001a1283620019b7565b925050600181019050620019ee565b5085935050505092915050565b6000602082019050818103600083015262001a4a8184620019c4565b905092915050565b6000604051905090565b600080fd5b600080fd5b62001a71816200191e565b811462001a7d57600080fd5b50565b60008135905062001a918162001a66565b92915050565b60006020828403121562001ab05762001aaf62001a5c565b5b600062001ac08482850162001a80565b91505092915050565b600073ffffffffffffffffffffffffffffffffffffffff82169050919050565b600062001af68262001ac9565b9050919050565b62001b088162001ae9565b811462001b1457600080fd5b50565b60008135905062001b288162001afd565b92915050565b62001b398162001982565b811462001b4557600080fd5b50565b60008135905062001b598162001b2e565b92915050565b6000806040838503121562001b795762001b7862001a5c565b5b600062001b898582860162001b17565b925050602062001b9c8582860162001b48565b9150509250929050565b600080fd5b6000601f19601f8301169050919050565b7f4e487b7100000000000000000000000000000000000000000000000000000000600052604160045260246000fd5b62001bf68262001bab565b810181811067ffffffffffffffff8211171562001c185762001c1762001bbc565b5b80604052505050565b600062001c2d62001a52565b905062001c3b828262001beb565b919050565b600067ffffffffffffffff82111562001c5e5762001c5d62001bbc565b5b602082029050602081019050919050565b600080fd5b600060ff82169050919050565b62001c8c8162001c74565b811462001c9857600080fd5b50565b60008135905062001cac8162001c81565b92915050565b600062001cc962001cc38462001c40565b62001c21565b9050808382526020820190506020840283018581111562001cef5762001cee62001c6f565b5b835b8181101562001d1c578062001d07888262001c9b565b84526020840193505060208101905062001cf1565b5050509392505050565b600082601f83011262001d3e5762001d3d62001ba6565b5b813562001d5084826020860162001cb2565b91505092915050565b60006020828403121562001d725762001d7162001a5c565b5b600082013567ffffffffffffffff81111562001d935762001d9262001a61565b5b62001da18482850162001d26565b91505092915050565b60006020828403121562001dc35762001dc262001a5c565b5b600062001dd38482850162001b17565b91505092915050565b62001de78162001982565b82525050565b600060208201905062001e04600083018462001ddc565b92915050565b62001e158162001c74565b82525050565b600060208201905062001e32600083018462001e0a565b92915050565b6000806040838503121562001e525762001e5162001a5c565b5b600062001e628582860162001a80565b925050602062001e758582860162001b17565b9150509250929050565b62001e8a8162001ae9565b82525050565b600060208201905062001ea7600083018462001e7f565b92915050565b600081519050919050565b600082825260208201905092915050565b6000819050602082019050919050565b62001ee4816200191e565b82525050565b600062001ef8838362001ed9565b60208301905092915050565b6000602082019050919050565b600062001f1e8262001ead565b62001f2a818562001eb8565b935062001f378362001ec9565b8060005b8381101562001f6e57815162001f52888262001eea565b975062001f5f8362001f04565b92505060018101905062001f3b565b5085935050505092915050565b6000602082019050818103600083015262001f97818462001f11565b905092915050565b7f4e487b7100000000000000000000000000000000000000000000000000000000600052603260045260246000fd5b600060408201905062001fe5600083018562001e7f565b62001ff4602083018462001e0a565b9392505050565b7f4e487b7100000000000000000000000000000000000000000000000000000000600052601160045260246000fd5b600062002037826200191e565b91507fffffffffffffffffffffffffffffffffffffffffffffffffffffffffffffffff82036200206c576200206b62001ffb565b5b600182019050919050565b7f4e487b7100000000000000000000000000000000000000000000000000000000600052601260045260246000fd5b6000620020b38262001c74565b9150620020c08362001c74565b925082620020d357620020d262002077565b5b828204905092915050565b6000620020eb826200191e565b9150620020f8836200191e565b9250817fffffffffffffffffffffffffffffffffffffffffffffffffffffffffffffffff048311821515161562002134576200213362001ffb565b5b828202905092915050565b600082825260208201905092915050565b7f54686973206163636f756e742068617320616c7265616479206265656e20637260008201527f6561746564000000000000000000000000000000000000000000000000000000602082015250565b6000620021ae6025836200213f565b9150620021bb8262002150565b604082019050919050565b60006020820190508181036000830152620021e1816200219f565b9050919050565b6000620021f58262001c74565b9150620022028362001c74565b92508260ff038211156200221b576200221a62001ffb565b5b828201905092915050565b7f4c656e677468206f6620696e70757420646966666572732066726f6d206e756d60008201527f626572206f66207375622d6163636f756e747300000000000000000000000000602082015250565b6000620022846033836200213f565b9150620022918262002226565b604082019050919050565b60006020820190508181036000830152620022b78162002275565b9050919050565b6000620022cb826200191e565b9150620022d8836200191e565b9250827fffffffffffffffffffffffffffffffffffffffffffffffffffffffffffffffff0382111562002310576200230f62001ffb565b5b828201905092915050565b7f596f75722070657263656e746167657320646f6573206e6f742061646420757060008201527f20746f2031303000000000000000000000000000000000000000000000000000602082015250565b6000620023796027836200213f565b915062002386826200231b565b604082019050919050565b60006020820190508181036000830152620023ac816200236a565b9050919050565b600081549050919050565b600082825260208201905092915050565b60008190508160005260206000209050919050565b620023ef8162001ae9565b82525050565b6000620024038383620023e4565b60208301905092915050565b60008160001c9050919050565b600073ffffffffffffffffffffffffffffffffffffffff82169050919050565b6000620024536200244d836200240f565b6200241c565b9050919050565b60006200246882546200243c565b9050919050565b6000600182019050919050565b60006200248982620023b3565b620024958185620023be565b9350620024a283620023cf565b8060005b83811015620024e257620024ba826200245a565b620024c68882620023f5565b9750620024d3836200246f565b925050600181019050620024a6565b5085935050505092915050565b600081519050919050565b600082825260208201905092915050565b6000819050602082019050919050565b620025268162001c74565b82525050565b60006200253a83836200251b565b60208301905092915050565b6000602082019050919050565b60006200256082620024ef565b6200256c8185620024fa565b935062002579836200250b565b8060005b83811015620025b05781516200259488826200252c565b9750620025a18362002546565b9250506001810190506200257d565b5085935050505092915050565b60006080820190508181036000830152620025d981876200247c565b9050620025ea602083018662001e0a565b8181036040830152620025fe818562002553565b90508181036060830152620026148184620019c4565b905095945050505050565b600081519050620026308162001a66565b92915050565b6000602082840312156200264f576200264e62001a5c565b5b60006200265f848285016200261f565b91505092915050565b6000620026758262001ae9565b9050919050565b620026878162002668565b81146200269357600080fd5b50565b600081519050620026a7816200267c565b92915050565b600060208284031215620026c657620026c562001a5c565b5b6000620026d68482850162002696565b91505092915050565b6000604082019050620026f6600083018562001e7f565b62002705602083018462001928565b9392505050565b60008115159050919050565b62002723816200270c565b81146200272f57600080fd5b50565b600081519050620027438162002718565b92915050565b60006020828403121562002762576200276162001a5c565b5b6000620027728482850162002732565b91505092915050565b600060608201905062002792600083018662001e7f565b620027a1602083018562001e7f565b620027b0604083018462001928565b94935050505056fe60806040523480156200001157600080fd5b5060405162002e7f38038062002e7f833981810160405281019062000037919062000702565b33600c60006101000a81548173ffffffffffffffffffffffffffffffffffffffff021916908373ffffffffffffffffffffffffffffffffffffffff16021790555082600160006101000a81548160ff021916908360ff1602179055508360009080519060200190620000ab92919062000241565b5060005b600160009054906101000a900460ff1660ff168110156200023657828181518110620000e057620000df620007d1565b5b602002602001015160026000808481548110620001025762000101620007d1565b5b9060005260206000200160009054906101000a900473ffffffffffffffffffffffffffffffffffffffff1673ffffffffffffffffffffffffffffffffffffffff1673ffffffffffffffffffffffffffffffffffffffff16815260200190815260200160002060006101000a81548160ff021916908360ff160217905550818181518110620001955762000194620007d1565b5b602002602001015160036000808481548110620001b757620001b6620007d1565b5b9060005260206000200160009054906101000a900473ffffffffffffffffffffffffffffffffffffffff1673ffffffffffffffffffffffffffffffffffffffff1673ffffffffffffffffffffffffffffffffffffffff1681526020019081526020016000208190555080806200022d9062000839565b915050620000af565b505050505062000886565b828054828255906000526020600020908101928215620002bd579160200282015b82811115620002bc5782518260006101000a81548173ffffffffffffffffffffffffffffffffffffffff021916908373ffffffffffffffffffffffffffffffffffffffff1602179055509160200191906001019062000262565b5b509050620002cc9190620002d0565b5090565b5b80821115620002eb576000816000905550600101620002d1565b5090565b6000604051905090565b600080fd5b600080fd5b600080fd5b6000601f19601f8301169050919050565b7f4e487b7100000000000000000000000000000000000000000000000000000000600052604160045260246000fd5b620003538262000308565b810181811067ffffffffffffffff8211171562000375576200037462000319565b5b80604052505050565b60006200038a620002ef565b905062000398828262000348565b919050565b600067ffffffffffffffff821115620003bb57620003ba62000319565b5b602082029050602081019050919050565b600080fd5b600073ffffffffffffffffffffffffffffffffffffffff82169050919050565b6000620003fe82620003d1565b9050919050565b6200041081620003f1565b81146200041c57600080fd5b50565b600081519050620004308162000405565b92915050565b60006200044d62000447846200039d565b6200037e565b90508083825260208201905060208402830185811115620004735762000472620003cc565b5b835b81811015620004a057806200048b88826200041f565b84526020840193505060208101905062000475565b5050509392505050565b600082601f830112620004c257620004c162000303565b5b8151620004d484826020860162000436565b91505092915050565b600060ff82169050919050565b620004f581620004dd565b81146200050157600080fd5b50565b6000815190506200051581620004ea565b92915050565b600067ffffffffffffffff82111562000539576200053862000319565b5b602082029050602081019050919050565b6000620005616200055b846200051b565b6200037e565b90508083825260208201905060208402830185811115620005875762000586620003cc565b5b835b81811015620005b457806200059f888262000504565b84526020840193505060208101905062000589565b5050509392505050565b600082601f830112620005d657620005d562000303565b5b8151620005e88482602086016200054a565b91505092915050565b600067ffffffffffffffff8211156200060f576200060e62000319565b5b602082029050602081019050919050565b6000819050919050565b620006358162000620565b81146200064157600080fd5b50565b60008151905062000655816200062a565b92915050565b6000620006726200066c84620005f1565b6200037e565b90508083825260208201905060208402830185811115620006985762000697620003cc565b5b835b81811015620006c55780620006b0888262000644565b8452602084019350506020810190506200069a565b5050509392505050565b600082601f830112620006e757620006e662000303565b5b8151620006f98482602086016200065b565b91505092915050565b600080600080608085870312156200071f576200071e620002f9565b5b600085015167ffffffffffffffff81111562000740576200073f620002fe565b5b6200074e87828801620004aa565b9450506020620007618782880162000504565b935050604085015167ffffffffffffffff811115620007855762000784620002fe565b5b6200079387828801620005be565b925050606085015167ffffffffffffffff811115620007b757620007b6620002fe565b5b620007c587828801620006cf565b91505092959194509250565b7f4e487b7100000000000000000000000000000000000000000000000000000000600052603260045260246000fd5b7f4e487b7100000000000000000000000000000000000000000000000000000000600052601160045260246000fd5b6000819050919050565b600062000846826200082f565b91507fffffffffffffffffffffffffffffffffffffffffffffffffffffffffffffffff82036200087b576200087a62000800565b5b600182019050919050565b6125e980620008966000396000f3fe6080604052600436106100a75760003560e01c806378ad2c2f1161006457806378ad2c2f146101ab5780639dffb367146101d6578063ca5b7c2e14610213578063d7ed7d2f14610250578063d8270dce14610279578063fa6b9a25146102a4576100a7565b8063021a3b22146100ac5780633a8658e4146100c85780635cccb48e146100f15780635eed3dcb1461011a57806371aac7f9146101575780637603cd7a1461016e575b600080fd5b6100c660048036038101906100c19190611e97565b6102e1565b005b3480156100d457600080fd5b506100ef60048036038101906100ea9190611e97565b610ab7565b005b3480156100fd57600080fd5b5061011860048036038101906101139190611efd565b6118d0565b005b34801561012657600080fd5b50610141600480360381019061013c9190611f60565b611a25565b60405161014e9190611fce565b60405180910390f35b34801561016357600080fd5b5061016c611a64565b005b34801561017a57600080fd5b5061019560048036038101906101909190612015565b611ac0565b6040516101a29190612051565b60405180910390f35b3480156101b757600080fd5b506101c0611ad8565b6040516101cd919061207b565b60405180910390f35b3480156101e257600080fd5b506101fd60048036038101906101f89190611e97565b611aeb565b60405161020a91906120a5565b60405180910390f35b34801561021f57600080fd5b5061023a60048036038101906102359190611f60565b611c2c565b6040516102479190611fce565b60405180910390f35b34801561025c57600080fd5b5061027760048036038101906102729190612219565b611c6b565b005b34801561028557600080fd5b5061028e611de9565b60405161029b91906120a5565b60405180910390f35b3480156102b057600080fd5b506102cb60048036038101906102c69190612015565b611def565b6040516102d8919061207b565b60405180910390f35b60005b600160009054906101000a900460ff1660ff168110156105fa576000600281111561031257610311612262565b5b6006600080848154811061032957610328612291565b5b9060005260206000200160009054906101000a900473ffffffffffffffffffffffffffffffffffffffff1673ffffffffffffffffffffffffffffffffffffffff1673ffffffffffffffffffffffffffffffffffffffff16815260200190815260200160002060009054906101000a900460ff1660028111156103ae576103ad612262565b5b1480156103cb575062093a80600b546103c791906122ef565b4210155b156105e7576002600660008084815481106103e9576103e8612291565b5b9060005260206000200160009054906101000a900473ffffffffffffffffffffffffffffffffffffffff1673ffffffffffffffffffffffffffffffffffffffff1673ffffffffffffffffffffffffffffffffffffffff16815260200190815260200160002060006101000a81548160ff021916908360028111156104705761046f612262565b5b02179055507fe98097b6040eb0966e73fd39adf87f8715de85b3f660e6a7009ba2469d4fd86d600082815481106104aa576104a9612291565b5b9060005260206000200160009054906101000a900473ffffffffffffffffffffffffffffffffffffffff16600460008085815481106104ec576104eb612291565b5b9060005260206000200160009054906101000a900473ffffffffffffffffffffffffffffffffffffffff1673ffffffffffffffffffffffffffffffffffffffff1673ffffffffffffffffffffffffffffffffffffffff168152602001908152602001600020546003600080868154811061056957610568612291565b5b9060005260206000200160009054906101000a900473ffffffffffffffffffffffffffffffffffffffff1673ffffffffffffffffffffffffffffffffffffffff1673ffffffffffffffffffffffffffffffffffffffff168152602001908152602001600020546040516105de93929190612345565b60405180910390a15b80806105f29061237c565b9150506102e4565b50600080600090505b600160009054906101000a900460ff1660ff168110156106f557826003600080848154811061063557610634612291565b5b9060005260206000200160009054906101000a900473ffffffffffffffffffffffffffffffffffffffff1673ffffffffffffffffffffffffffffffffffffffff1673ffffffffffffffffffffffffffffffffffffffff16815260200190815260200160002054036106e257600081815481106106b4576106b3612291565b5b9060005260206000200160009054906101000a900473ffffffffffffffffffffffffffffffffffffffff1691505b80806106ed9061237c565b915050610603565b506000600281111561070a57610709612262565b5b600660008373ffffffffffffffffffffffffffffffffffffffff1673ffffffffffffffffffffffffffffffffffffffff16815260200190815260200160002060009054906101000a900460ff16600281111561076957610768612262565b5b146107a9576040517f08c379a00000000000000000000000000000000000000000000000000000000081526004016107a090612447565b60405180910390fd5b6000600460008373ffffffffffffffffffffffffffffffffffffffff1673ffffffffffffffffffffffffffffffffffffffff1681526020019081526020016000205490506000811461080857348161080191906122ef565b905061080c565b3490505b600560008373ffffffffffffffffffffffffffffffffffffffff1673ffffffffffffffffffffffffffffffffffffffff1681526020019081526020016000205481106108f6576001600660008473ffffffffffffffffffffffffffffffffffffffff1673ffffffffffffffffffffffffffffffffffffffff16815260200190815260200160002060006101000a81548160ff021916908360028111156108b5576108b4612262565b5b02179055507f84ce75384538250d1691d23fcf41bb86189a077b16f707a9abf1d1c3e1285aa38282856040516108ed93929190612345565b60405180910390a15b60011515600860003373ffffffffffffffffffffffffffffffffffffffff1673ffffffffffffffffffffffffffffffffffffffff16815260200190815260200160002060009054906101000a900460ff16151514610a0a576001600860003373ffffffffffffffffffffffffffffffffffffffff1673ffffffffffffffffffffffffffffffffffffffff16815260200190815260200160002060006101000a81548160ff021916908315150217905550600a339080600181540180825580915050600190039060005260206000200160009091909190916101000a81548173ffffffffffffffffffffffffffffffffffffffff021916908373ffffffffffffffffffffffffffffffffffffffff1602179055505b6000600760003373ffffffffffffffffffffffffffffffffffffffff1673ffffffffffffffffffffffffffffffffffffffff16815260200190815260200160002054905060008114610a69573481610a6291906122ef565b9050610a6d565b3490505b80600760003373ffffffffffffffffffffffffffffffffffffffff1673ffffffffffffffffffffffffffffffffffffffff1681526020019081526020016000208190555050505050565b60005b600160009054906101000a900460ff1660ff16811015610dd05760006002811115610ae857610ae7612262565b5b60066000808481548110610aff57610afe612291565b5b9060005260206000200160009054906101000a900473ffffffffffffffffffffffffffffffffffffffff1673ffffffffffffffffffffffffffffffffffffffff1673ffffffffffffffffffffffffffffffffffffffff16815260200190815260200160002060009054906101000a900460ff166002811115610b8457610b83612262565b5b148015610ba1575062093a80600b54610b9d91906122ef565b4210155b15610dbd57600260066000808481548110610bbf57610bbe612291565b5b9060005260206000200160009054906101000a900473ffffffffffffffffffffffffffffffffffffffff1673ffffffffffffffffffffffffffffffffffffffff1673ffffffffffffffffffffffffffffffffffffffff16815260200190815260200160002060006101000a81548160ff02191690836002811115610c4657610c45612262565b5b02179055507fe98097b6040eb0966e73fd39adf87f8715de85b3f660e6a7009ba2469d4fd86d60008281548110610c8057610c7f612291565b5b9060005260206000200160009054906101000a900473ffffffffffffffffffffffffffffffffffffffff1660046000808581548110610cc257610cc1612291565b5b9060005260206000200160009054906101000a900473ffffffffffffffffffffffffffffffffffffffff1673ffffffffffffffffffffffffffffffffffffffff1673ffffffffffffffffffffffffffffffffffffffff1681526020019081526020016000205460036000808681548110610d3f57610d3e612291565b5b9060005260206000200160009054906101000a900473ffffffffffffffffffffffffffffffffffffffff1673ffffffffffffffffffffffffffffffffffffffff1673ffffffffffffffffffffffffffffffffffffffff16815260200190815260200160002054604051610db493929190612345565b60405180910390a15b8080610dc89061237c565b915050610aba565b50600c60009054906101000a900473ffffffffffffffffffffffffffffffffffffffff1673ffffffffffffffffffffffffffffffffffffffff163373ffffffffffffffffffffffffffffffffffffffff1614610e2b57600080fd5b600080600090505b600160009054906101000a900460ff1660ff16811015610f25578260036000808481548110610e6557610e64612291565b5b9060005260206000200160009054906101000a900473ffffffffffffffffffffffffffffffffffffffff1673ffffffffffffffffffffffffffffffffffffffff1673ffffffffffffffffffffffffffffffffffffffff1681526020019081526020016000205403610f125760008181548110610ee457610ee3612291565b5b9060005260206000200160009054906101000a900473ffffffffffffffffffffffffffffffffffffffff1691505b8080610f1d9061237c565b915050610e33565b5060016002811115610f3a57610f39612262565b5b600660008373ffffffffffffffffffffffffffffffffffffffff1673ffffffffffffffffffffffffffffffffffffffff16815260200190815260200160002060009054906101000a900460ff166002811115610f9957610f98612262565b5b036111c5576000600460008373ffffffffffffffffffffffffffffffffffffffff1673ffffffffffffffffffffffffffffffffffffffff1681526020019081526020016000205490506000600460008473ffffffffffffffffffffffffffffffffffffffff1673ffffffffffffffffffffffffffffffffffffffff1681526020019081526020016000208190555060008290508073ffffffffffffffffffffffffffffffffffffffff166108fc839081150290604051600060405180830381858888f19350505050158015611072573d6000803e3d6000fd5b5060005b600a805490508110156111af57600060086000600a848154811061109d5761109c612291565b5b9060005260206000200160009054906101000a900473ffffffffffffffffffffffffffffffffffffffff1673ffffffffffffffffffffffffffffffffffffffff1673ffffffffffffffffffffffffffffffffffffffff16815260200190815260200160002060006101000a81548160ff021916908315150217905550600060076000600a848154811061113357611132612291565b5b9060005260206000200160009054906101000a900473ffffffffffffffffffffffffffffffffffffffff1673ffffffffffffffffffffffffffffffffffffffff1673ffffffffffffffffffffffffffffffffffffffff1681526020019081526020016000208190555080806111a79061237c565b915050611076565b50600a60006111be9190611e0f565b50506118cc565b6002808111156111d8576111d7612262565b5b600660008373ffffffffffffffffffffffffffffffffffffffff1673ffffffffffffffffffffffffffffffffffffffff16815260200190815260200160002060009054906101000a900460ff16600281111561123757611236612262565b5b03611825576000600460008373ffffffffffffffffffffffffffffffffffffffff1673ffffffffffffffffffffffffffffffffffffffff1681526020019081526020016000205490506000811461181f576000600960009054906101000a900460ff1660ff16036115a95760005b600a805490508110156113de57600060086000600a84815481106112cc576112cb612291565b5b9060005260206000200160009054906101000a900473ffffffffffffffffffffffffffffffffffffffff1673ffffffffffffffffffffffffffffffffffffffff1673ffffffffffffffffffffffffffffffffffffffff16815260200190815260200160002060006101000a81548160ff021916908315150217905550600060076000600a848154811061136257611361612291565b5b9060005260206000200160009054906101000a900473ffffffffffffffffffffffffffffffffffffffff1673ffffffffffffffffffffffffffffffffffffffff1673ffffffffffffffffffffffffffffffffffffffff1681526020019081526020016000208190555080806113d69061237c565b9150506112a5565b506000600460008473ffffffffffffffffffffffffffffffffffffffff1673ffffffffffffffffffffffffffffffffffffffff16815260200190815260200160002054905060005b600160009054906101000a900460ff1660ff1681101561154f57600080828154811061145557611454612291565b5b9060005260206000200160009054906101000a900473ffffffffffffffffffffffffffffffffffffffff1690506000600260008373ffffffffffffffffffffffffffffffffffffffff1673ffffffffffffffffffffffffffffffffffffffff16815260200190815260200160002060009054906101000a900460ff16905060008290508073ffffffffffffffffffffffffffffffffffffffff166108fc866064856115009190612496565b60ff1661150d91906124c7565b9081150290604051600060405180830381858888f19350505050158015611538573d6000803e3d6000fd5b5050505080806115479061237c565b915050611426565b506000600460008573ffffffffffffffffffffffffffffffffffffffff1673ffffffffffffffffffffffffffffffffffffffff16815260200190815260200160002081905550600a60006115a39190611e0f565b5061181e565b6001600960009054906101000a900460ff1660ff160361181d5760005b600a8054905081101561180d57600060086000600a84815481106115ed576115ec612291565b5b9060005260206000200160009054906101000a900473ffffffffffffffffffffffffffffffffffffffff1673ffffffffffffffffffffffffffffffffffffffff1673ffffffffffffffffffffffffffffffffffffffff16815260200190815260200160002060006101000a81548160ff021916908315150217905550600060076000600a848154811061168357611682612291565b5b9060005260206000200160009054906101000a900473ffffffffffffffffffffffffffffffffffffffff1673ffffffffffffffffffffffffffffffffffffffff1673ffffffffffffffffffffffffffffffffffffffff168152602001908152602001600020549050600060076000600a858154811061170557611704612291565b5b9060005260206000200160009054906101000a900473ffffffffffffffffffffffffffffffffffffffff1673ffffffffffffffffffffffffffffffffffffffff1673ffffffffffffffffffffffffffffffffffffffff168152602001908152602001600020819055506000600a838154811061178457611783612291565b5b9060005260206000200160009054906101000a900473ffffffffffffffffffffffffffffffffffffffff1690508073ffffffffffffffffffffffffffffffffffffffff166108fc839081150290604051600060405180830381858888f193505050501580156117f7573d6000803e3d6000fd5b50505080806118059061237c565b9150506115c6565b50600a600061181c9190611e0f565b5b5b5b506118cb565b6000600281111561183957611838612262565b5b600660008373ffffffffffffffffffffffffffffffffffffffff1673ffffffffffffffffffffffffffffffffffffffff16815260200190815260200160002060009054906101000a900460ff16600281111561189857611897612262565b5b036118ca577f64d12556a85cdd58f632c188b5b6bdb51b11dff496b036e63e193315cbc6019f60405160405180910390a15b5b5b5050565b600c60009054906101000a900473ffffffffffffffffffffffffffffffffffffffff1673ffffffffffffffffffffffffffffffffffffffff163373ffffffffffffffffffffffffffffffffffffffff161461192a57600080fd5b60005b600160009054906101000a900460ff1660ff168110156119ff576000600660008084815481106119605761195f612291565b5b9060005260206000200160009054906101000a900473ffffffffffffffffffffffffffffffffffffffff1673ffffffffffffffffffffffffffffffffffffffff1673ffffffffffffffffffffffffffffffffffffffff16815260200190815260200160002060006101000a81548160ff021916908360028111156119e7576119e6612262565b5b021790555080806119f79061237c565b91505061192d565b5042600b8190555080600960006101000a81548160ff021916908360ff16021790555050565b600a8181548110611a3557600080fd5b906000526020600020016000915054906101000a900473ffffffffffffffffffffffffffffffffffffffff1681565b600c60009054906101000a900473ffffffffffffffffffffffffffffffffffffffff1673ffffffffffffffffffffffffffffffffffffffff163373ffffffffffffffffffffffffffffffffffffffff1614611abe57600080fd5b565b60036020528060005260406000206000915090505481565b600160009054906101000a900460ff1681565b60008060005b600160009054906101000a900460ff1660ff16811015611be3578360036000808481548110611b2357611b22612291565b5b9060005260206000200160009054906101000a900473ffffffffffffffffffffffffffffffffffffffff1673ffffffffffffffffffffffffffffffffffffffff1673ffffffffffffffffffffffffffffffffffffffff1681526020019081526020016000205403611bd05760008181548110611ba257611ba1612291565b5b9060005260206000200160009054906101000a900473ffffffffffffffffffffffffffffffffffffffff1691505b8080611bdb9061237c565b915050611af1565b50600460008273ffffffffffffffffffffffffffffffffffffffff1673ffffffffffffffffffffffffffffffffffffffff16815260200190815260200160002054915050919050565b60008181548110611c3c57600080fd5b906000526020600020016000915054906101000a900473ffffffffffffffffffffffffffffffffffffffff1681565b600c60009054906101000a900473ffffffffffffffffffffffffffffffffffffffff1673ffffffffffffffffffffffffffffffffffffffff163373ffffffffffffffffffffffffffffffffffffffff1614611cc557600080fd5b600160009054906101000a900460ff1660ff16815114611d1a576040517f08c379a0000000000000000000000000000000000000000000000000000000008152600401611d1190612593565b60405180910390fd5b60005b600160009054906101000a900460ff1660ff16811015611de557818181518110611d4a57611d49612291565b5b602002602001015160056000808481548110611d6957611d68612291565b5b9060005260206000200160009054906101000a900473ffffffffffffffffffffffffffffffffffffffff1673ffffffffffffffffffffffffffffffffffffffff1673ffffffffffffffffffffffffffffffffffffffff168152602001908152602001600020819055508080611ddd9061237c565b915050611d1d565b5050565b600b5481565b60026020528060005260406000206000915054906101000a900460ff1681565b5080546000825590600052602060002090810190611e2d9190611e30565b50565b5b80821115611e49576000816000905550600101611e31565b5090565b6000604051905090565b600080fd5b600080fd5b6000819050919050565b611e7481611e61565b8114611e7f57600080fd5b50565b600081359050611e9181611e6b565b92915050565b600060208284031215611ead57611eac611e57565b5b6000611ebb84828501611e82565b91505092915050565b600060ff82169050919050565b611eda81611ec4565b8114611ee557600080fd5b50565b600081359050611ef781611ed1565b92915050565b600060208284031215611f1357611f12611e57565b5b6000611f2184828501611ee8565b91505092915050565b6000819050919050565b611f3d81611f2a565b8114611f4857600080fd5b50565b600081359050611f5a81611f34565b92915050565b600060208284031215611f7657611f75611e57565b5b6000611f8484828501611f4b565b91505092915050565b600073ffffffffffffffffffffffffffffffffffffffff82169050919050565b6000611fb882611f8d565b9050919050565b611fc881611fad565b82525050565b6000602082019050611fe36000830184611fbf565b92915050565b611ff281611fad565b8114611ffd57600080fd5b50565b60008135905061200f81611fe9565b92915050565b60006020828403121561202b5761202a611e57565b5b600061203984828501612000565b91505092915050565b61204b81611e61565b82525050565b60006020820190506120666000830184612042565b92915050565b61207581611ec4565b82525050565b6000602082019050612090600083018461206c565b92915050565b61209f81611f2a565b82525050565b60006020820190506120ba6000830184612096565b92915050565b600080fd5b6000601f19601f8301169050919050565b7f4e487b7100000000000000000000000000000000000000000000000000000000600052604160045260246000fd5b61210e826120c5565b810181811067ffffffffffffffff8211171561212d5761212c6120d6565b5b80604052505050565b6000612140611e4d565b905061214c8282612105565b919050565b600067ffffffffffffffff82111561216c5761216b6120d6565b5b602082029050602081019050919050565b600080fd5b600061219561219084612151565b612136565b905080838252602082019050602084028301858111156121b8576121b761217d565b5b835b818110156121e157806121cd8882611f4b565b8452602084019350506020810190506121ba565b5050509392505050565b600082601f830112612200576121ff6120c0565b5b8135612210848260208601612182565b91505092915050565b60006020828403121561222f5761222e611e57565b5b600082013567ffffffffffffffff81111561224d5761224c611e5c565b5b612259848285016121eb565b91505092915050565b7f4e487b7100000000000000000000000000000000000000000000000000000000600052602160045260246000fd5b7f4e487b7100000000000000000000000000000000000000000000000000000000600052603260045260246000fd5b7f4e487b7100000000000000000000000000000000000000000000000000000000600052601160045260246000fd5b60006122fa82611f2a565b915061230583611f2a565b9250827fffffffffffffffffffffffffffffffffffffffffffffffffffffffffffffffff0382111561233a576123396122c0565b5b828201905092915050565b600060608201905061235a6000830186611fbf565b6123676020830185612096565b6123746040830184612042565b949350505050565b600061238782611f2a565b91507fffffffffffffffffffffffffffffffffffffffffffffffffffffffffffffffff82036123b9576123b86122c0565b5b600182019050919050565b600082825260208201905092915050565b7f5468652063616d706169676e20686173206569746865722066696e697368656460008201527f206f7220686173206265656e2066756c66696c6c65642e000000000000000000602082015250565b60006124316037836123c4565b915061243c826123d5565b604082019050919050565b6000602082019050818103600083015261246081612424565b9050919050565b7f4e487b7100000000000000000000000000000000000000000000000000000000600052601260045260246000fd5b60006124a182611ec4565b91506124ac83611ec4565b9250826124bc576124bb612467565b5b828204905092915050565b60006124d282611f2a565b91506124dd83611f2a565b9250817fffffffffffffffffffffffffffffffffffffffffffffffffffffffffffffffff0483118215151615612516576125156122c0565b5b828202905092915050565b7f596f75206e65656420746f20637265617465206120676f616c20666f7220656160008201527f6368207375622d6163636f756e74210000000000000000000000000000000000602082015250565b600061257d602f836123c4565b915061258882612521565b604082019050919050565b600060208201905081810360008301526125ac81612570565b905091905056fea26469706673582212203b4b3fbc5e1d1b38606569c12a565506a997e0ce5b5ee0ac2bf251abea96837864736f6c634300080d0033a264697066735822122003ae2a6d34212092943182cade438dd7f43f0d43fd8ddbd2eac82b84b3c8dff864736f6c634300080d0033608060405234801561001057600080fd5b50600060405161001f906100cf565b604051809103906000f08015801561003b573d6000803e3d6000fd5b509050806000806101000a81548173ffffffffffffffffffffffffffffffffffffffff021916908373ffffffffffffffffffffffffffffffffffffffff16021790555033600360006101000a81548173ffffffffffffffffffffffffffffffffffffffff021916908373ffffffffffffffffffffffffffffffffffffffff160217905550620186a0600181905550506100dc565b6115228061097183390190565b610886806100eb6000396000f3fe60806040526004361061004a5760003560e01c806319e5ad381461004f5780636cba62901461008c578063af55de6c146100b7578063d1014bee146100e2578063da304e4d1461011f575b600080fd5b34801561005b57600080fd5b5061007660048036038101906100719190610498565b61013b565b60405161008391906104d4565b60405180910390f35b34801561009857600080fd5b506100a1610157565b6040516100ae91906104d4565b60405180910390f35b3480156100c357600080fd5b506100cc6101f9565b6040516100d9919061056e565b60405180910390f35b3480156100ee57600080fd5b50610109600480360381019061010491906105c7565b610222565b60405161011691906104d4565b60405180910390f35b61013960048036038101906101349190610498565b6102c6565b005b6000662386f26fc10000826101509190610652565b9050919050565b60008060009054906101000a900473ffffffffffffffffffffffffffffffffffffffff1673ffffffffffffffffffffffffffffffffffffffff166370a08231336040518263ffffffff1660e01b81526004016101b39190610692565b602060405180830381865afa1580156101d0573d6000803e3d6000fd5b505050506040513d601f19601f820116820180604052508101906101f491906106c2565b905090565b60008060009054906101000a900473ffffffffffffffffffffffffffffffffffffffff16905090565b60008060009054906101000a900473ffffffffffffffffffffffffffffffffffffffff1673ffffffffffffffffffffffffffffffffffffffff166370a08231836040518263ffffffff1660e01b815260040161027e9190610692565b602060405180830381865afa15801561029b573d6000803e3d6000fd5b505050506040513d601f19601f820116820180604052508101906102bf91906106c2565b9050919050565b6000662386f26fc10000826102db9190610652565b90506001548160008054906101000a900473ffffffffffffffffffffffffffffffffffffffff1673ffffffffffffffffffffffffffffffffffffffff166318160ddd6040518163ffffffff1660e01b8152600401602060405180830381865afa15801561034c573d6000803e3d6000fd5b505050506040513d601f19601f8201168201806040525081019061037091906106c2565b61037a91906106ef565b106103ba576040517f08c379a00000000000000000000000000000000000000000000000000000000081526004016103b1906107a2565b60405180910390fd5b60008054906101000a900473ffffffffffffffffffffffffffffffffffffffff1673ffffffffffffffffffffffffffffffffffffffff166340c10f1933836040518363ffffffff1660e01b81526004016104159291906107c2565b6020604051808303816000875af1158015610434573d6000803e3d6000fd5b505050506040513d601f19601f820116820180604052508101906104589190610823565b505050565b600080fd5b6000819050919050565b61047581610462565b811461048057600080fd5b50565b6000813590506104928161046c565b92915050565b6000602082840312156104ae576104ad61045d565b5b60006104bc84828501610483565b91505092915050565b6104ce81610462565b82525050565b60006020820190506104e960008301846104c5565b92915050565b600073ffffffffffffffffffffffffffffffffffffffff82169050919050565b6000819050919050565b600061053461052f61052a846104ef565b61050f565b6104ef565b9050919050565b600061054682610519565b9050919050565b60006105588261053b565b9050919050565b6105688161054d565b82525050565b6000602082019050610583600083018461055f565b92915050565b6000610594826104ef565b9050919050565b6105a481610589565b81146105af57600080fd5b50565b6000813590506105c18161059b565b92915050565b6000602082840312156105dd576105dc61045d565b5b60006105eb848285016105b2565b91505092915050565b7f4e487b7100000000000000000000000000000000000000000000000000000000600052601260045260246000fd5b7f4e487b7100000000000000000000000000000000000000000000000000000000600052601160045260246000fd5b600061065d82610462565b915061066883610462565b925082610678576106776105f4565b5b828204905092915050565b61068c81610589565b82525050565b60006020820190506106a76000830184610683565b92915050565b6000815190506106bc8161046c565b92915050565b6000602082840312156106d8576106d761045d565b5b60006106e6848285016106ad565b91505092915050565b60006106fa82610462565b915061070583610462565b9250827fffffffffffffffffffffffffffffffffffffffffffffffffffffffffffffffff0382111561073a57610739610623565b5b828201905092915050565b600082825260208201905092915050565b7f435420737570706c79206973206e6f7420656e6f756768210000000000000000600082015250565b600061078c601883610745565b915061079782610756565b602082019050919050565b600060208201905081810360008301526107bb8161077f565b9050919050565b60006040820190506107d76000830185610683565b6107e460208301846104c5565b9392505050565b60008115159050919050565b610800816107eb565b811461080b57600080fd5b50565b60008151905061081d816107f7565b92915050565b6000602082840312156108395761083861045d565b5b60006108478482850161080e565b9150509291505056fea26469706673582212201868b9f6bdfab73fac48e34432ec71977211d433ef751cd7f059c48a88cef62e64736f6c634300080d0033608060405260008060006101000a81548160ff02191690831515021790555033600060016101000a81548173ffffffffffffffffffffffffffffffffffffffff021916908373ffffffffffffffffffffffffffffffffffffffff16021790555034801561006b57600080fd5b506114a78061007b6000396000f3fe608060405234801561001057600080fd5b50600436106100ea5760003560e01c806370a082311161008c5780638da5cb5b116100665780638da5cb5b1461026357806395d89b4114610281578063a9059cbb1461029f578063dd62ed3e146102cf576100ea565b806370a08231146101f75780637d64bcb414610227578063893d20e814610245576100ea565b806318160ddd116100c857806318160ddd1461015b57806323b872dd14610179578063313ce567146101a957806340c10f19146101c7576100ea565b806305d2035b146100ef57806306fdde031461010d578063095ea7b31461012b575b600080fd5b6100f76102ff565b6040516101049190610f25565b60405180910390f35b610115610310565b6040516101229190610fd9565b60405180910390f35b61014560048036038101906101409190611094565b610349565b6040516101529190610f25565b60405180910390f35b61016361043b565b60405161017091906110e3565b60405180910390f35b610193600480360381019061018e91906110fe565b610445565b6040516101a09190610f25565b60405180910390f35b6101b1610869565b6040516101be919061116d565b60405180910390f35b6101e160048036038101906101dc9190611094565b61086e565b6040516101ee9190610f25565b60405180910390f35b610211600480360381019061020c9190611188565b610a4f565b60405161021e91906110e3565b60405180910390f35b61022f610a98565b60405161023c9190610f25565b60405180910390f35b61024d610b58565b60405161025a91906111c4565b60405180910390f35b61026b610b81565b60405161027891906111c4565b60405180910390f35b610289610ba7565b6040516102969190610fd9565b60405180910390f35b6102b960048036038101906102b49190611094565b610be0565b6040516102c69190610f25565b60405180910390f35b6102e960048036038101906102e491906111df565b610e35565b6040516102f691906110e3565b60405180910390f35b60008054906101000a900460ff1681565b6040518060400160405280600981526020017f44696365546f6b656e000000000000000000000000000000000000000000000081525081565b600081600160003373ffffffffffffffffffffffffffffffffffffffff1673ffffffffffffffffffffffffffffffffffffffff16815260200190815260200160002060008573ffffffffffffffffffffffffffffffffffffffff1673ffffffffffffffffffffffffffffffffffffffff168152602001908152602001600020819055508273ffffffffffffffffffffffffffffffffffffffff163373ffffffffffffffffffffffffffffffffffffffff167f8c5be1e5ebec7d5bd14f71427d1e84f3dd0314c0f7b2291e5b200ac8c7c3b9258460405161042991906110e3565b60405180910390a36001905092915050565b6000600354905090565b60008073ffffffffffffffffffffffffffffffffffffffff168373ffffffffffffffffffffffffffffffffffffffff160361047f57600080fd5b600260008573ffffffffffffffffffffffffffffffffffffffff1673ffffffffffffffffffffffffffffffffffffffff16815260200190815260200160002054821115610501576040517f08c379a00000000000000000000000000000000000000000000000000000000081526004016104f89061126b565b60405180910390fd5b600160008573ffffffffffffffffffffffffffffffffffffffff1673ffffffffffffffffffffffffffffffffffffffff16815260200190815260200160002060003273ffffffffffffffffffffffffffffffffffffffff1673ffffffffffffffffffffffffffffffffffffffff168152602001908152602001600020548211156105c0576040517f08c379a00000000000000000000000000000000000000000000000000000000081526004016105b7906112d7565b60405180910390fd5b61061282600260008773ffffffffffffffffffffffffffffffffffffffff1673ffffffffffffffffffffffffffffffffffffffff16815260200190815260200160002054610ebc90919063ffffffff16565b600260008673ffffffffffffffffffffffffffffffffffffffff1673ffffffffffffffffffffffffffffffffffffffff168152602001908152602001600020819055506106a782600260008673ffffffffffffffffffffffffffffffffffffffff1673ffffffffffffffffffffffffffffffffffffffff16815260200190815260200160002054610ee390919063ffffffff16565b600260008573ffffffffffffffffffffffffffffffffffffffff1673ffffffffffffffffffffffffffffffffffffffff1681526020019081526020016000208190555061077982600160008773ffffffffffffffffffffffffffffffffffffffff1673ffffffffffffffffffffffffffffffffffffffff16815260200190815260200160002060003273ffffffffffffffffffffffffffffffffffffffff1673ffffffffffffffffffffffffffffffffffffffff16815260200190815260200160002054610ebc90919063ffffffff16565b600160008673ffffffffffffffffffffffffffffffffffffffff1673ffffffffffffffffffffffffffffffffffffffff16815260200190815260200160002060003273ffffffffffffffffffffffffffffffffffffffff1673ffffffffffffffffffffffffffffffffffffffff168152602001908152602001600020819055508273ffffffffffffffffffffffffffffffffffffffff168473ffffffffffffffffffffffffffffffffffffffff167fddf252ad1be2c89b69c2b068fc378daa952ba7f163c4a11628f55a4df523b3ef8460405161085691906110e3565b60405180910390a3600190509392505050565b601281565b60008060019054906101000a900473ffffffffffffffffffffffffffffffffffffffff1673ffffffffffffffffffffffffffffffffffffffff163373ffffffffffffffffffffffffffffffffffffffff16146108c957600080fd5b60008054906101000a900460ff16156108e157600080fd5b6108f682600354610ee390919063ffffffff16565b60038190555061094e82600260008673ffffffffffffffffffffffffffffffffffffffff1673ffffffffffffffffffffffffffffffffffffffff16815260200190815260200160002054610ee390919063ffffffff16565b600260008573ffffffffffffffffffffffffffffffffffffffff1673ffffffffffffffffffffffffffffffffffffffff168152602001908152602001600020819055508273ffffffffffffffffffffffffffffffffffffffff167f0f6798a560793a54c3bcfe86a93cde1e73087d944c0ea20544137d4121396885836040516109d791906110e3565b60405180910390a28273ffffffffffffffffffffffffffffffffffffffff16600073ffffffffffffffffffffffffffffffffffffffff167fddf252ad1be2c89b69c2b068fc378daa952ba7f163c4a11628f55a4df523b3ef84604051610a3d91906110e3565b60405180910390a36001905092915050565b6000600260008373ffffffffffffffffffffffffffffffffffffffff1673ffffffffffffffffffffffffffffffffffffffff168152602001908152602001600020549050919050565b60008060019054906101000a900473ffffffffffffffffffffffffffffffffffffffff1673ffffffffffffffffffffffffffffffffffffffff163373ffffffffffffffffffffffffffffffffffffffff1614610af357600080fd5b60008054906101000a900460ff1615610b0b57600080fd5b60016000806101000a81548160ff0219169083151502179055507fae5184fba832cb2b1f702aca6117b8d265eaf03ad33eb133f19dde0f5920fa0860405160405180910390a16001905090565b60008060019054906101000a900473ffffffffffffffffffffffffffffffffffffffff16905090565b600060019054906101000a900473ffffffffffffffffffffffffffffffffffffffff1681565b6040518060400160405280600281526020017f445400000000000000000000000000000000000000000000000000000000000081525081565b60008073ffffffffffffffffffffffffffffffffffffffff168373ffffffffffffffffffffffffffffffffffffffff1603610c1a57600080fd5b600260003273ffffffffffffffffffffffffffffffffffffffff1673ffffffffffffffffffffffffffffffffffffffff16815260200190815260200160002054821115610c9c576040517f08c379a0000000000000000000000000000000000000000000000000000000008152600401610c9390611369565b60405180910390fd5b610cee82600260003273ffffffffffffffffffffffffffffffffffffffff1673ffffffffffffffffffffffffffffffffffffffff16815260200190815260200160002054610ebc90919063ffffffff16565b600260003273ffffffffffffffffffffffffffffffffffffffff1673ffffffffffffffffffffffffffffffffffffffff16815260200190815260200160002081905550610d8382600260008673ffffffffffffffffffffffffffffffffffffffff1673ffffffffffffffffffffffffffffffffffffffff16815260200190815260200160002054610ee390919063ffffffff16565b600260008573ffffffffffffffffffffffffffffffffffffffff1673ffffffffffffffffffffffffffffffffffffffff168152602001908152602001600020819055508273ffffffffffffffffffffffffffffffffffffffff163273ffffffffffffffffffffffffffffffffffffffff167fddf252ad1be2c89b69c2b068fc378daa952ba7f163c4a11628f55a4df523b3ef84604051610e2391906110e3565b60405180910390a36001905092915050565b6000600160008473ffffffffffffffffffffffffffffffffffffffff1673ffffffffffffffffffffffffffffffffffffffff16815260200190815260200160002060008373ffffffffffffffffffffffffffffffffffffffff1673ffffffffffffffffffffffffffffffffffffffff16815260200190815260200160002054905092915050565b600082821115610ecf57610ece611389565b5b8183610edb91906113e7565b905092915050565b60008183610ef1919061141b565b905082811015610f0457610f03611389565b5b92915050565b60008115159050919050565b610f1f81610f0a565b82525050565b6000602082019050610f3a6000830184610f16565b92915050565b600081519050919050565b600082825260208201905092915050565b60005b83811015610f7a578082015181840152602081019050610f5f565b83811115610f89576000848401525b50505050565b6000601f19601f8301169050919050565b6000610fab82610f40565b610fb58185610f4b565b9350610fc5818560208601610f5c565b610fce81610f8f565b840191505092915050565b60006020820190508181036000830152610ff38184610fa0565b905092915050565b600080fd5b600073ffffffffffffffffffffffffffffffffffffffff82169050919050565b600061102b82611000565b9050919050565b61103b81611020565b811461104657600080fd5b50565b60008135905061105881611032565b92915050565b6000819050919050565b6110718161105e565b811461107c57600080fd5b50565b60008135905061108e81611068565b92915050565b600080604083850312156110ab576110aa610ffb565b5b60006110b985828601611049565b92505060206110ca8582860161107f565b9150509250929050565b6110dd8161105e565b82525050565b60006020820190506110f860008301846110d4565b92915050565b60008060006060848603121561111757611116610ffb565b5b600061112586828701611049565b935050602061113686828701611049565b92505060406111478682870161107f565b9150509250925092565b600060ff82169050919050565b61116781611151565b82525050565b6000602082019050611182600083018461115e565b92915050565b60006020828403121561119e5761119d610ffb565b5b60006111ac84828501611049565b91505092915050565b6111be81611020565b82525050565b60006020820190506111d960008301846111b5565b92915050565b600080604083850312156111f6576111f5610ffb565b5b600061120485828601611049565b925050602061121585828601611049565b9150509250929050565b7f46726f6d20646f65736e2774206861766520656e6f7567682062616c616e6365600082015250565b6000611255602083610f4b565b91506112608261121f565b602082019050919050565b6000602082019050818103600083015261128481611248565b9050919050565b7f4e6f7420616c6c6f77656420746f207370656e642074686973206d7563680000600082015250565b60006112c1601e83610f4b565b91506112cc8261128b565b602082019050919050565b600060208201905081810360008301526112f0816112b4565b9050919050565b7f6d73672e73656e64657220646f65736e2774206861766520656e6f756768206260008201527f616c616e63650000000000000000000000000000000000000000000000000000602082015250565b6000611353602683610f4b565b915061135e826112f7565b604082019050919050565b6000602082019050818103600083015261138281611346565b9050919050565b7f4e487b7100000000000000000000000000000000000000000000000000000000600052600160045260246000fd5b7f4e487b7100000000000000000000000000000000000000000000000000000000600052601160045260246000fd5b60006113f28261105e565b91506113fd8361105e565b9250828210156114105761140f6113b8565b5b828203905092915050565b60006114268261105e565b91506114318361105e565b9250827fffffffffffffffffffffffffffffffffffffffffffffffffffffffffffffffff03821115611466576114656113b8565b5b82820190509291505056fea2646970667358221220435f778b5d8b9b581b3188cf75baaa2e9fa052929b659fb96750802a11b7fecf64736f6c634300080d0033",
  "immutableReferences": {},
  "source": "// SPDX-License-Identifier: MIT\r\npragma solidity >=0.8.0;\r\npragma abicoder v2;\r\n\r\nimport \"./ChariToken.sol\";\r\nimport \"./Campaign.sol\";\r\n\r\ncontract Charity {\r\n    ChariToken tokenContract;\r\n    Campaign campaignContract;\r\n    address[] public subAccounts;\r\n    address _owner = msg.sender;\r\n    uint8 public numberOfSubAccounts; //subaccounts sld not exceed 255\r\n    mapping(address => uint8) public subAccountPercentages; // mapping of proportion of amount donated, for each sub-account [0.1, 0.2, 0.3, 0.4] etc\r\n    mapping(address => bytes32) public subAccountNames; // same size as mapping above, stores the name of each subaccount for that charity\r\n    // mapping(address => uint256) public subAccountVotes; //same size as mapping above, tracks num. of votes per subaccount for that charity\r\n    mapping(address => uint256) public amountDonated; // mapping for amount that each person donates\r\n\r\n\r\n    constructor(address[] memory accounts) {\r\n        ChariToken ct = new ChariToken();\r\n        tokenContract = ct;\r\n        subAccounts = accounts;\r\n        numberOfSubAccounts = 0;\r\n    }\r\n\r\n    event Allocation(address accountAddress, uint8 percentages);\r\n    \r\n    modifier ownerOnly() {\r\n        require(msg.sender == _owner);\r\n        _;\r\n    }\r\n    // Function to receive Ether. msg.data must be empty\r\n    // receive() external payable {} // might need to change imo.... because we need to store senders\r\n\r\n    // // Fallback function is called when msg.data is not empty\r\n    // fallback() external payable {}\r\n\r\n    // creation of sub-accounts for a single charity\r\n    function createSubAccount(address accountAddress, bytes32 accountName) public ownerOnly() {\r\n        address temp;\r\n        for(uint i = 0; i < subAccounts.length; i++) {\r\n            if (subAccounts[i] == accountAddress) {\r\n                temp = accountAddress;\r\n            }\r\n        }\r\n        require(temp != accountAddress, \"This account has already been created\");\r\n        subAccounts.push(accountAddress);\r\n        subAccountPercentages[accountAddress] = 0;\r\n        subAccountNames[accountAddress] = accountName;\r\n        numberOfSubAccounts += 1;\r\n    }\r\n\r\n    // allocate percentages based on sub-account addresses. Feed in array of percentages\r\n    function allocatePercentages(uint8[] memory percentages) public ownerOnly() {\r\n        require(percentages.length == subAccounts.length, \"Length of input differs from number of sub-accounts\");\r\n        uint temp;\r\n        for(uint i = 0; i < percentages.length; i++) {\r\n            temp += percentages[i];\r\n        }\r\n        require(temp == 100, \"Your percentages does not add up to 100\");\r\n        for(uint i = 0; i < percentages.length; i++) {\r\n            subAccountPercentages[subAccounts[i]] = percentages[i];\r\n        }\r\n    }\r\n\r\n    // allocate donations based on balance.. do we need to change? to allocate each time someone donates\r\n    function allocateDonations(uint256 amtDonated) public payable {\r\n        // uint256 amtDonated = getBalance();\r\n        for (uint i =0; i < numberOfSubAccounts; i++) {\r\n            address subAccountAdd = subAccounts[i]; // subaccount in question currently\r\n            uint8 ratio = subAccountPercentages[subAccountAdd];\r\n            address payable subAccountAddPayable = payable(subAccountAdd);\r\n            subAccountAddPayable.transfer((ratio/100)*amtDonated);\r\n        }\r\n    }\r\n\r\n    //process donations: split donations and award donor with tokens\r\n    function processDonations(uint256 amtDonated, address donor) public payable {\r\n        this.allocateDonations(amtDonated); //allocate donations\r\n\r\n        //mint tokens to this contract, then send it to donor\r\n        tokenContract.getCredit(amtDonated);\r\n        uint256 tokensToAward = tokenContract.convertToCredits(amtDonated);\r\n        tokenContract.getErc20Contract().transfer(donor, tokensToAward); \r\n    }\r\n\r\n\r\n    function createCampaign() public ownerOnly() {\r\n        uint8[] memory percentages = new uint8[](getNumberOfAccounts());\r\n        bytes32[] memory names = new bytes32[](getNumberOfAccounts());\r\n        for (uint i = 0; i < getNumberOfAccounts(); i++) {\r\n            percentages[i] = subAccountPercentages[subAccounts[i]];\r\n            names[i] = subAccountNames[subAccounts[i]];\r\n        }\r\n        Campaign c = new Campaign(subAccounts, numberOfSubAccounts, percentages, names);\r\n        campaignContract = c;\r\n    }\r\n\r\n/* GETTERS */\r\n\r\n     // getter for allocation\r\n    function showAllocation() public {\r\n        for(uint i = 0; i < subAccounts.length; i++) {\r\n            address tempAddress = subAccounts[i];\r\n            uint8 tempAllocation = subAccountPercentages[tempAddress];\r\n            emit Allocation(tempAddress, tempAllocation);\r\n        }\r\n    }\r\n\r\n    // a general check on how much money the person has put, and how it has been spread\r\n    function getProportions() public view returns (uint[] memory xd) {\r\n        uint[] memory listOfProportions = new uint[](getNumberOfAccounts());\r\n        for (uint256 i = 0; i < getNumberOfAccounts(); i++) {\r\n            listOfProportions[i] = subAccountPercentages[subAccounts[i]] * amountDonated[msg.sender]; // \"Food, 100\" e.g.\r\n        }\r\n        return listOfProportions; // e.g. [100, 200, 300]\r\n    }\r\n    \r\n   \r\n    \r\n    function getAccountsInOrder() public view returns (bytes32[] memory xd) {\r\n        bytes32[] memory listOfAccounts = new bytes32[](getNumberOfAccounts());\r\n        for (uint256 i = 0; i < getNumberOfAccounts(); i++) {\r\n            listOfAccounts[i] = (subAccountNames[subAccounts[i]]); // \"Food, 100\" e.g.\r\n        }\r\n        return listOfAccounts; // e.g. [\"Food\", \"Water\", \"Air\"]. combine with getProportions() to find out amount of money in each sub wallet\r\n    }\r\n\r\n\r\n    // given an amount, how much is going to which acc? a way for donors to check where amounts are gg before they donate. \r\n    //combine with getAccountsInOrder() as well, to find out where in which account\r\n    function checkAmount(uint256 amt) public view returns (uint[] memory xd) {\r\n        uint[] memory listOfAmounts = new uint[](getNumberOfAccounts());\r\n        for (uint256 i = 0; i < getNumberOfAccounts(); i++) {\r\n            listOfAmounts[i] = (subAccountPercentages[subAccounts[i]] * amt);\r\n        }\r\n        return listOfAmounts;\r\n    }\r\n\r\n    function getNumberOfAccounts() public view returns (uint256) {\r\n        return numberOfSubAccounts;\r\n    }\r\n\r\n    // fall back function balance!\r\n    function getBalance() public view returns (uint) {\r\n        return address(this).balance;\r\n    }\r\n\r\n    function checkVoteOutcome() public payable returns(uint256[] memory vc) {\r\n        uint256[] memory voteCounts = new uint256[](getNumberOfAccounts());\r\n        for (uint256 i = 0; i < getNumberOfAccounts(); i++) {\r\n            uint256 currVoteCount = tokenContract.checkCreditGivenAddress(subAccounts[i]);\r\n            voteCounts[i] = currVoteCount;\r\n\r\n            //reset voteCount\r\n            tokenContract.getErc20Contract().transferFrom(subAccounts[i], address(this), currVoteCount); //simulate burn tokens by transferring from subaccount to charity\r\n\r\n        }\r\n\r\n        return voteCounts;        \r\n    }\r\n}",
  "sourcePath": "C:\\Users\\cheer\\Desktop\\IS4302 Labs\\Project\\charichain\\charichain\\code\\contracts\\Charity.sol",
  "compiler": {
    "name": "solc",
    "version": "0.8.13+commit.abaa5c0e.Emscripten.clang"
  },
  "schemaVersion": "3.4.4",
  "updatedAt": "2022-04-12T09:05:29.157Z",
  "devdoc": {
    "kind": "dev",
    "methods": {},
    "version": 1
  },
  "userdoc": {
    "kind": "user",
    "methods": {},
    "version": 1
  }
}