{
  "contractName": "Charity",
  "abi": [
    {
      "inputs": [],
      "stateMutability": "nonpayable",
      "type": "constructor"
    },
    {
      "anonymous": false,
      "inputs": [
        {
          "indexed": false,
          "internalType": "address",
          "name": "accountAddress",
          "type": "address"
        },
        {
          "indexed": false,
          "internalType": "uint8",
          "name": "percentages",
          "type": "uint8"
        }
      ],
      "name": "Allocation",
      "type": "event"
    },
    {
      "inputs": [
        {
          "internalType": "address",
          "name": "",
          "type": "address"
        }
      ],
      "name": "amountDonated",
      "outputs": [
        {
          "internalType": "uint256",
          "name": "",
          "type": "uint256"
        }
      ],
      "stateMutability": "view",
      "type": "function",
      "constant": true
    },
    {
      "inputs": [],
      "name": "numberOfSubAccounts",
      "outputs": [
        {
          "internalType": "uint8",
          "name": "",
          "type": "uint8"
        }
      ],
      "stateMutability": "view",
      "type": "function",
      "constant": true
    },
    {
      "inputs": [
        {
          "internalType": "address",
          "name": "",
          "type": "address"
        }
      ],
      "name": "subAccountNames",
      "outputs": [
        {
          "internalType": "bytes32",
          "name": "",
          "type": "bytes32"
        }
      ],
      "stateMutability": "view",
      "type": "function",
      "constant": true
    },
    {
      "inputs": [
        {
          "internalType": "address",
          "name": "",
          "type": "address"
        }
      ],
      "name": "subAccountPercentages",
      "outputs": [
        {
          "internalType": "uint8",
          "name": "",
          "type": "uint8"
        }
      ],
      "stateMutability": "view",
      "type": "function",
      "constant": true
    },
    {
      "inputs": [
        {
          "internalType": "uint256",
          "name": "",
          "type": "uint256"
        }
      ],
      "name": "subAccounts",
      "outputs": [
        {
          "internalType": "address",
          "name": "",
          "type": "address"
        }
      ],
      "stateMutability": "view",
      "type": "function",
      "constant": true
    },
    {
      "inputs": [
        {
          "internalType": "address",
          "name": "accountAddress",
          "type": "address"
        },
        {
          "internalType": "bytes32",
          "name": "accountName",
          "type": "bytes32"
        }
      ],
      "name": "createSubAccount",
      "outputs": [],
      "stateMutability": "nonpayable",
      "type": "function"
    },
    {
      "inputs": [
        {
          "internalType": "uint8[]",
          "name": "percentages",
          "type": "uint8[]"
        }
      ],
      "name": "allocatePercentages",
      "outputs": [],
      "stateMutability": "nonpayable",
      "type": "function"
    },
    {
      "inputs": [
        {
          "internalType": "uint256",
          "name": "amtDonated",
          "type": "uint256"
        }
      ],
      "name": "allocateDonations",
      "outputs": [],
      "stateMutability": "payable",
      "type": "function",
      "payable": true
    },
    {
      "inputs": [
        {
          "internalType": "uint256",
          "name": "amtDonated",
          "type": "uint256"
        },
        {
          "internalType": "address",
          "name": "donor",
          "type": "address"
        }
      ],
      "name": "processDonations",
      "outputs": [],
      "stateMutability": "payable",
      "type": "function",
      "payable": true
    },
    {
      "inputs": [
        {
          "internalType": "bytes32",
          "name": "campaignName",
          "type": "bytes32"
        }
      ],
      "name": "createCampaign",
      "outputs": [],
      "stateMutability": "nonpayable",
      "type": "function"
    },
    {
      "inputs": [
        {
          "internalType": "uint256[]",
          "name": "allocations",
          "type": "uint256[]"
        }
      ],
      "name": "addCampaignGoals",
      "outputs": [],
      "stateMutability": "nonpayable",
      "type": "function"
    },
    {
      "inputs": [
        {
          "internalType": "uint8",
          "name": "typeOfCampaign",
          "type": "uint8"
        }
      ],
      "name": "startCampaign",
      "outputs": [],
      "stateMutability": "nonpayable",
      "type": "function"
    },
    {
      "inputs": [
        {
          "internalType": "bytes32",
          "name": "subAccount",
          "type": "bytes32"
        }
      ],
      "name": "depositCampaign",
      "outputs": [],
      "stateMutability": "payable",
      "type": "function",
      "payable": true
    },
    {
      "inputs": [
        {
          "internalType": "bytes32",
          "name": "subAccount",
          "type": "bytes32"
        }
      ],
      "name": "withdrawCampaign",
      "outputs": [],
      "stateMutability": "nonpayable",
      "type": "function"
    },
    {
      "inputs": [],
      "name": "showAllocation",
      "outputs": [],
      "stateMutability": "nonpayable",
      "type": "function"
    },
    {
      "inputs": [],
      "name": "getProportions",
      "outputs": [
        {
          "internalType": "uint256[]",
          "name": "xd",
          "type": "uint256[]"
        }
      ],
      "stateMutability": "view",
      "type": "function",
      "constant": true
    },
    {
      "inputs": [],
      "name": "getAccountsInOrder",
      "outputs": [
        {
          "internalType": "bytes32[]",
          "name": "xd",
          "type": "bytes32[]"
        }
      ],
      "stateMutability": "view",
      "type": "function",
      "constant": true
    },
    {
      "inputs": [
        {
          "internalType": "uint256",
          "name": "amt",
          "type": "uint256"
        }
      ],
      "name": "checkAmount",
      "outputs": [
        {
          "internalType": "uint256[]",
          "name": "xd",
          "type": "uint256[]"
        }
      ],
      "stateMutability": "view",
      "type": "function",
      "constant": true
    },
    {
      "inputs": [],
      "name": "getNumberOfAccounts",
      "outputs": [
        {
          "internalType": "uint256",
          "name": "",
          "type": "uint256"
        }
      ],
      "stateMutability": "view",
      "type": "function",
      "constant": true
    },
    {
      "inputs": [],
      "name": "getBalance",
      "outputs": [
        {
          "internalType": "uint256",
          "name": "",
          "type": "uint256"
        }
      ],
      "stateMutability": "view",
      "type": "function",
      "constant": true
    },
    {
      "inputs": [
        {
          "internalType": "bytes32",
          "name": "subAccountName",
          "type": "bytes32"
        }
      ],
      "name": "getSubAccountBalance",
      "outputs": [
        {
          "internalType": "uint256",
          "name": "",
          "type": "uint256"
        }
      ],
      "stateMutability": "view",
      "type": "function",
      "constant": true
    },
    {
      "inputs": [],
      "name": "getCampaignType",
      "outputs": [
        {
          "internalType": "uint8",
          "name": "",
          "type": "uint8"
        }
      ],
      "stateMutability": "view",
      "type": "function",
      "constant": true
    },
    {
      "inputs": [],
      "name": "checkVoteOutcome",
      "outputs": [
        {
          "internalType": "uint256[]",
          "name": "vc",
          "type": "uint256[]"
        }
      ],
      "stateMutability": "payable",
      "type": "function",
      "payable": true
    }
  ],
  "bytecode": "0x608060405233600360006101000a81548173ffffffffffffffffffffffffffffffffffffffff021916908373ffffffffffffffffffffffffffffffffffffffff1602179055503480156200005257600080fd5b5060006040516200006390620000e6565b604051809103906000f08015801562000080573d6000803e3d6000fd5b509050806000806101000a81548173ffffffffffffffffffffffffffffffffffffffff021916908373ffffffffffffffffffffffffffffffffffffffff1602179055506000600360146101000a81548160ff021916908360ff16021790555050620000f4565b611e958062005cbd83390190565b615bb980620001046000396000f3fe6080604052600436106200015e5760003560e01c80637603cd7a11620000c7578063cdc7fcc21162000079578063cdc7fcc2146200047f578063d7ed7d2f14620004af578063dcd1e67014620004dd578063fa6b9a251462000521578063fbeb46ff1462000565578063fe91f6eb14620005a9576200015e565b80637603cd7a146200033557806378ad2c2f14620003795780639cbb9a0614620003a95780639dffb36714620003c9578063b4c0d9cc146200040d578063ca5b7c2e146200043b576200015e565b80633a8658e411620001215780633a8658e4146200022d5780633b926cbf146200025b5780633edfa595146200027b5780635b588ac614620002a95780635cccb48e14620002d95780635d598f1d1462000307576200015e565b8063021a3b221462000163578063099113f2146200018357806312065fe0146200019d578063309e36ef14620001cd5780633649aeed14620001fd575b600080fd5b6200018160048036038101906200017b919062001e8a565b620005cb565b005b3480156200019057600080fd5b506200019b6200065f565b005b348015620001aa57600080fd5b50620001b56200075d565b604051620001c4919062001ed7565b60405180910390f35b348015620001da57600080fd5b50620001e562000765565b604051620001f4919062001ed7565b60405180910390f35b3480156200020a57600080fd5b50620002156200077f565b60405162000224919062001fc2565b60405180910390f35b3480156200023a57600080fd5b5062000259600480360381019062000253919062001e8a565b620008b1565b005b62000279600480360381019062000273919062002017565b62000945565b005b3480156200028857600080fd5b50620002a76004803603810190620002a19190620020ae565b62000a82565b005b348015620002b657600080fd5b50620002c162000d34565b604051620002d0919062002113565b60405180910390f35b348015620002e657600080fd5b50620003056004803603810190620002ff919062002161565b62000dcf565b005b3480156200031457600080fd5b506200033360048036038101906200032d919062002308565b62000e63565b005b3480156200034257600080fd5b506200036160048036038101906200035b919062002359565b62001086565b6040516200037091906200239c565b60405180910390f35b3480156200038657600080fd5b50620003916200109e565b604051620003a0919062002113565b60405180910390f35b620003c76004803603810190620003c19190620023b9565b620010b1565b005b348015620003d657600080fd5b50620003f56004803603810190620003ef919062001e8a565b6200136d565b60405162000404919062001ed7565b60405180910390f35b3480156200041a57600080fd5b5062000439600480360381019062000433919062001e8a565b62001417565b005b3480156200044857600080fd5b5062000467600480360381019062000461919062002017565b62001752565b60405162000476919062002411565b60405180910390f35b3480156200048c57600080fd5b506200049762001792565b604051620004a69190620024fc565b60405180910390f35b348015620004bc57600080fd5b50620004db6004803603810190620004d59190620025f6565b62001920565b005b348015620004ea57600080fd5b5062000509600480360381019062000503919062002017565b620019b4565b604051620005189190620024fc565b60405180910390f35b3480156200052e57600080fd5b506200054d600480360381019062000547919062002359565b62001b05565b6040516200055c919062002113565b60405180910390f35b3480156200057257600080fd5b506200059160048036038101906200058b919062002359565b62001b25565b604051620005a0919062001ed7565b60405180910390f35b620005b362001b3d565b604051620005c29190620024fc565b60405180910390f35b600160009054906101000a900473ffffffffffffffffffffffffffffffffffffffff1673ffffffffffffffffffffffffffffffffffffffff1663021a3b22826040518263ffffffff1660e01b81526004016200062891906200239c565b600060405180830381600087803b1580156200064357600080fd5b505af115801562000658573d6000803e3d6000fd5b5050505050565b60005b6002805490508110156200075a5760006002828154811062000689576200068862002647565b5b9060005260206000200160009054906101000a900473ffffffffffffffffffffffffffffffffffffffff1690506000600460008373ffffffffffffffffffffffffffffffffffffffff1673ffffffffffffffffffffffffffffffffffffffff16815260200190815260200160002060009054906101000a900460ff1690507f1678b24f967a3843f4df73c502214e9713abcdddaae41eb0afe87d808a99e78582826040516200073a92919062002676565b60405180910390a1505080806200075190620026d2565b91505062000662565b50565b600047905090565b6000600360149054906101000a900460ff1660ff16905090565b606060006200078d62000765565b67ffffffffffffffff811115620007a957620007a8620021a9565b5b604051908082528060200260200182016040528015620007d85781602001602082028036833780820191505090505b50905060005b620007e862000765565b811015620008a95760056000600283815481106200080b576200080a62002647565b5b9060005260206000200160009054906101000a900473ffffffffffffffffffffffffffffffffffffffff1673ffffffffffffffffffffffffffffffffffffffff1673ffffffffffffffffffffffffffffffffffffffff1681526020019081526020016000205482828151811062000887576200088662002647565b5b6020026020010181815250508080620008a090620026d2565b915050620007de565b508091505090565b600160009054906101000a900473ffffffffffffffffffffffffffffffffffffffff1673ffffffffffffffffffffffffffffffffffffffff16633a8658e4826040518263ffffffff1660e01b81526004016200090e91906200239c565b600060405180830381600087803b1580156200092957600080fd5b505af11580156200093e573d6000803e3d6000fd5b5050505050565b60005b600360149054906101000a900460ff1660ff1681101562000a7e576000600282815481106200097c576200097b62002647565b5b9060005260206000200160009054906101000a900473ffffffffffffffffffffffffffffffffffffffff1690506000600460008373ffffffffffffffffffffffffffffffffffffffff1673ffffffffffffffffffffffffffffffffffffffff16815260200190815260200160002060009054906101000a900460ff16905060008290508073ffffffffffffffffffffffffffffffffffffffff166108fc8660648562000a2991906200274f565b60ff1662000a38919062002787565b9081150290604051600060405180830381858888f1935050505015801562000a64573d6000803e3d6000fd5b50505050808062000a7590620026d2565b91505062000948565b5050565b600360009054906101000a900473ffffffffffffffffffffffffffffffffffffffff1673ffffffffffffffffffffffffffffffffffffffff163373ffffffffffffffffffffffffffffffffffffffff161462000add57600080fd5b600080600090505b60028054905081101562000b83578373ffffffffffffffffffffffffffffffffffffffff166002828154811062000b215762000b2062002647565b5b9060005260206000200160009054906101000a900473ffffffffffffffffffffffffffffffffffffffff1673ffffffffffffffffffffffffffffffffffffffff16141562000b6d578391505b808062000b7a90620026d2565b91505062000ae5565b508273ffffffffffffffffffffffffffffffffffffffff168173ffffffffffffffffffffffffffffffffffffffff16141562000bf6576040517f08c379a000000000000000000000000000000000000000000000000000000000815260040162000bed906200286f565b60405180910390fd5b6002839080600181540180825580915050600190039060005260206000200160009091909190916101000a81548173ffffffffffffffffffffffffffffffffffffffff021916908373ffffffffffffffffffffffffffffffffffffffff1602179055506000600460008573ffffffffffffffffffffffffffffffffffffffff1673ffffffffffffffffffffffffffffffffffffffff16815260200190815260200160002060006101000a81548160ff021916908360ff16021790555081600560008573ffffffffffffffffffffffffffffffffffffffff1673ffffffffffffffffffffffffffffffffffffffff168152602001908152602001600020819055506001600360148282829054906101000a900460ff1662000d17919062002891565b92506101000a81548160ff021916908360ff160217905550505050565b6000600160009054906101000a900473ffffffffffffffffffffffffffffffffffffffff1673ffffffffffffffffffffffffffffffffffffffff16635b588ac66040518163ffffffff1660e01b8152600401602060405180830381865afa15801562000da4573d6000803e3d6000fd5b505050506040513d601f19601f8201168201806040525081019062000dca9190620028e6565b905090565b600160009054906101000a900473ffffffffffffffffffffffffffffffffffffffff1673ffffffffffffffffffffffffffffffffffffffff16635cccb48e826040518263ffffffff1660e01b815260040162000e2c919062002113565b600060405180830381600087803b15801562000e4757600080fd5b505af115801562000e5c573d6000803e3d6000fd5b5050505050565b600360009054906101000a900473ffffffffffffffffffffffffffffffffffffffff1673ffffffffffffffffffffffffffffffffffffffff163373ffffffffffffffffffffffffffffffffffffffff161462000ebe57600080fd5b60028054905081511462000f09576040517f08c379a000000000000000000000000000000000000000000000000000000000815260040162000f00906200298e565b60405180910390fd5b600080600090505b825181101562000f615782818151811062000f315762000f3062002647565b5b602002602001015160ff168262000f499190620029b0565b9150808062000f5890620026d2565b91505062000f11565b506064811462000fa8576040517f08c379a000000000000000000000000000000000000000000000000000000000815260040162000f9f9062002a83565b60405180910390fd5b60005b8251811015620010815782818151811062000fcb5762000fca62002647565b5b6020026020010151600460006002848154811062000fee5762000fed62002647565b5b9060005260206000200160009054906101000a900473ffffffffffffffffffffffffffffffffffffffff1673ffffffffffffffffffffffffffffffffffffffff1673ffffffffffffffffffffffffffffffffffffffff16815260200190815260200160002060006101000a81548160ff021916908360ff16021790555080806200107890620026d2565b91505062000fab565b505050565b60056020528060005260406000206000915090505481565b600360149054906101000a900460ff1681565b3073ffffffffffffffffffffffffffffffffffffffff16633b926cbf836040518263ffffffff1660e01b8152600401620010ec919062001ed7565b600060405180830381600087803b1580156200110757600080fd5b505af11580156200111c573d6000803e3d6000fd5b5050505060008054906101000a900473ffffffffffffffffffffffffffffffffffffffff1673ffffffffffffffffffffffffffffffffffffffff1663da304e4d836040518263ffffffff1660e01b81526004016200117b919062001ed7565b600060405180830381600087803b1580156200119657600080fd5b505af1158015620011ab573d6000803e3d6000fd5b5050505060008060009054906101000a900473ffffffffffffffffffffffffffffffffffffffff1673ffffffffffffffffffffffffffffffffffffffff166319e5ad38846040518263ffffffff1660e01b81526004016200120d919062001ed7565b602060405180830381865afa1580156200122b573d6000803e3d6000fd5b505050506040513d601f19601f8201168201806040525081019062001251919062002abc565b905060008054906101000a900473ffffffffffffffffffffffffffffffffffffffff1673ffffffffffffffffffffffffffffffffffffffff1663af55de6c6040518163ffffffff1660e01b8152600401602060405180830381865afa158015620012bf573d6000803e3d6000fd5b505050506040513d601f19601f82011682018060405250810190620012e5919062002b33565b73ffffffffffffffffffffffffffffffffffffffff1663a9059cbb83836040518363ffffffff1660e01b81526004016200132192919062002b65565b6020604051808303816000875af115801562001341573d6000803e3d6000fd5b505050506040513d601f19601f8201168201806040525081019062001367919062002bcf565b50505050565b6000600160009054906101000a900473ffffffffffffffffffffffffffffffffffffffff1673ffffffffffffffffffffffffffffffffffffffff16639dffb367836040518263ffffffff1660e01b8152600401620013cc91906200239c565b602060405180830381865afa158015620013ea573d6000803e3d6000fd5b505050506040513d601f19601f8201168201806040525081019062001410919062002abc565b9050919050565b600360009054906101000a900473ffffffffffffffffffffffffffffffffffffffff1673ffffffffffffffffffffffffffffffffffffffff163373ffffffffffffffffffffffffffffffffffffffff16146200147257600080fd5b60006200147e62000765565b67ffffffffffffffff8111156200149a5762001499620021a9565b5b604051908082528060200260200182016040528015620014c95781602001602082028036833780820191505090505b5090506000620014d862000765565b67ffffffffffffffff811115620014f457620014f3620021a9565b5b604051908082528060200260200182016040528015620015235781602001602082028036833780820191505090505b50905060005b6200153362000765565b811015620016ac57600460006002838154811062001556576200155562002647565b5b9060005260206000200160009054906101000a900473ffffffffffffffffffffffffffffffffffffffff1673ffffffffffffffffffffffffffffffffffffffff1673ffffffffffffffffffffffffffffffffffffffff16815260200190815260200160002060009054906101000a900460ff16838281518110620015df57620015de62002647565b5b602002602001019060ff16908160ff168152505060056000600283815481106200160e576200160d62002647565b5b9060005260206000200160009054906101000a900473ffffffffffffffffffffffffffffffffffffffff1673ffffffffffffffffffffffffffffffffffffffff1673ffffffffffffffffffffffffffffffffffffffff168152602001908152602001600020548282815181106200168a576200168962002647565b5b6020026020010181815250508080620016a390620026d2565b91505062001529565b5060006002905060006002600360149054906101000a900460ff1685858589604051620016d99062001e2d565b620016ea9695949392919062002e0b565b604051809103906000f08015801562001707573d6000803e3d6000fd5b50905080600160006101000a81548173ffffffffffffffffffffffffffffffffffffffff021916908373ffffffffffffffffffffffffffffffffffffffff1602179055505050505050565b600281815481106200176357600080fd5b906000526020600020016000915054906101000a900473ffffffffffffffffffffffffffffffffffffffff1681565b60606000620017a062000765565b67ffffffffffffffff811115620017bc57620017bb620021a9565b5b604051908082528060200260200182016040528015620017eb5781602001602082028036833780820191505090505b50905060005b620017fb62000765565b8110156200191857600660003373ffffffffffffffffffffffffffffffffffffffff1673ffffffffffffffffffffffffffffffffffffffff1681526020019081526020016000205460046000600284815481106200185e576200185d62002647565b5b9060005260206000200160009054906101000a900473ffffffffffffffffffffffffffffffffffffffff1673ffffffffffffffffffffffffffffffffffffffff1673ffffffffffffffffffffffffffffffffffffffff16815260200190815260200160002060009054906101000a900460ff1660ff16620018e0919062002787565b828281518110620018f657620018f562002647565b5b60200260200101818152505080806200190f90620026d2565b915050620017f1565b508091505090565b600160009054906101000a900473ffffffffffffffffffffffffffffffffffffffff1673ffffffffffffffffffffffffffffffffffffffff1663d7ed7d2f826040518263ffffffff1660e01b81526004016200197d9190620024fc565b600060405180830381600087803b1580156200199857600080fd5b505af1158015620019ad573d6000803e3d6000fd5b5050505050565b60606000620019c262000765565b67ffffffffffffffff811115620019de57620019dd620021a9565b5b60405190808252806020026020018201604052801562001a0d5781602001602082028036833780820191505090505b50905060005b62001a1d62000765565b81101562001afb5783600460006002848154811062001a415762001a4062002647565b5b9060005260206000200160009054906101000a900473ffffffffffffffffffffffffffffffffffffffff1673ffffffffffffffffffffffffffffffffffffffff1673ffffffffffffffffffffffffffffffffffffffff16815260200190815260200160002060009054906101000a900460ff1660ff1662001ac3919062002787565b82828151811062001ad95762001ad862002647565b5b602002602001018181525050808062001af290620026d2565b91505062001a13565b5080915050919050565b60046020528060005260406000206000915054906101000a900460ff1681565b60066020528060005260406000206000915090505481565b6060600062001b4b62000765565b67ffffffffffffffff81111562001b675762001b66620021a9565b5b60405190808252806020026020018201604052801562001b965781602001602082028036833780820191505090505b50905060005b62001ba662000765565b81101562001e255760008060009054906101000a900473ffffffffffffffffffffffffffffffffffffffff1673ffffffffffffffffffffffffffffffffffffffff1663d1014bee6002848154811062001c045762001c0362002647565b5b9060005260206000200160009054906101000a900473ffffffffffffffffffffffffffffffffffffffff166040518263ffffffff1660e01b815260040162001c4d919062002411565b602060405180830381865afa15801562001c6b573d6000803e3d6000fd5b505050506040513d601f19601f8201168201806040525081019062001c91919062002abc565b90508083838151811062001caa5762001ca962002647565b5b60200260200101818152505060008054906101000a900473ffffffffffffffffffffffffffffffffffffffff1673ffffffffffffffffffffffffffffffffffffffff1663af55de6c6040518163ffffffff1660e01b8152600401602060405180830381865afa15801562001d22573d6000803e3d6000fd5b505050506040513d601f19601f8201168201806040525081019062001d48919062002b33565b73ffffffffffffffffffffffffffffffffffffffff166323b872dd6002848154811062001d7a5762001d7962002647565b5b9060005260206000200160009054906101000a900473ffffffffffffffffffffffffffffffffffffffff1630846040518463ffffffff1660e01b815260040162001dc79392919062002e8d565b6020604051808303816000875af115801562001de7573d6000803e3d6000fd5b505050506040513d601f19601f8201168201806040525081019062001e0d919062002bcf565b5050808062001e1c90620026d2565b91505062001b9c565b508091505090565b612cb98062002ecb83390190565b6000604051905090565b600080fd5b600080fd5b6000819050919050565b62001e648162001e4f565b811462001e7057600080fd5b50565b60008135905062001e848162001e59565b92915050565b60006020828403121562001ea35762001ea262001e45565b5b600062001eb38482850162001e73565b91505092915050565b6000819050919050565b62001ed18162001ebc565b82525050565b600060208201905062001eee600083018462001ec6565b92915050565b600081519050919050565b600082825260208201905092915050565b6000819050602082019050919050565b62001f2b8162001e4f565b82525050565b600062001f3f838362001f20565b60208301905092915050565b6000602082019050919050565b600062001f658262001ef4565b62001f71818562001eff565b935062001f7e8362001f10565b8060005b8381101562001fb557815162001f99888262001f31565b975062001fa68362001f4b565b92505060018101905062001f82565b5085935050505092915050565b6000602082019050818103600083015262001fde818462001f58565b905092915050565b62001ff18162001ebc565b811462001ffd57600080fd5b50565b600081359050620020118162001fe6565b92915050565b60006020828403121562002030576200202f62001e45565b5b6000620020408482850162002000565b91505092915050565b600073ffffffffffffffffffffffffffffffffffffffff82169050919050565b6000620020768262002049565b9050919050565b620020888162002069565b81146200209457600080fd5b50565b600081359050620020a8816200207d565b92915050565b60008060408385031215620020c857620020c762001e45565b5b6000620020d88582860162002097565b9250506020620020eb8582860162001e73565b9150509250929050565b600060ff82169050919050565b6200210d81620020f5565b82525050565b60006020820190506200212a600083018462002102565b92915050565b6200213b81620020f5565b81146200214757600080fd5b50565b6000813590506200215b8162002130565b92915050565b6000602082840312156200217a576200217962001e45565b5b60006200218a848285016200214a565b91505092915050565b600080fd5b6000601f19601f8301169050919050565b7f4e487b7100000000000000000000000000000000000000000000000000000000600052604160045260246000fd5b620021e38262002198565b810181811067ffffffffffffffff82111715620022055762002204620021a9565b5b80604052505050565b60006200221a62001e3b565b9050620022288282620021d8565b919050565b600067ffffffffffffffff8211156200224b576200224a620021a9565b5b602082029050602081019050919050565b600080fd5b60006200227862002272846200222d565b6200220e565b905080838252602082019050602084028301858111156200229e576200229d6200225c565b5b835b81811015620022cb5780620022b688826200214a565b845260208401935050602081019050620022a0565b5050509392505050565b600082601f830112620022ed57620022ec62002193565b5b8135620022ff84826020860162002261565b91505092915050565b60006020828403121562002321576200232062001e45565b5b600082013567ffffffffffffffff81111562002342576200234162001e4a565b5b6200235084828501620022d5565b91505092915050565b60006020828403121562002372576200237162001e45565b5b6000620023828482850162002097565b91505092915050565b620023968162001e4f565b82525050565b6000602082019050620023b360008301846200238b565b92915050565b60008060408385031215620023d357620023d262001e45565b5b6000620023e38582860162002000565b9250506020620023f68582860162002097565b9150509250929050565b6200240b8162002069565b82525050565b600060208201905062002428600083018462002400565b92915050565b600081519050919050565b600082825260208201905092915050565b6000819050602082019050919050565b620024658162001ebc565b82525050565b60006200247983836200245a565b60208301905092915050565b6000602082019050919050565b60006200249f826200242e565b620024ab818562002439565b9350620024b8836200244a565b8060005b83811015620024ef578151620024d388826200246b565b9750620024e08362002485565b925050600181019050620024bc565b5085935050505092915050565b6000602082019050818103600083015262002518818462002492565b905092915050565b600067ffffffffffffffff8211156200253e576200253d620021a9565b5b602082029050602081019050919050565b600062002566620025608462002520565b6200220e565b905080838252602082019050602084028301858111156200258c576200258b6200225c565b5b835b81811015620025b95780620025a4888262002000565b8452602084019350506020810190506200258e565b5050509392505050565b600082601f830112620025db57620025da62002193565b5b8135620025ed8482602086016200254f565b91505092915050565b6000602082840312156200260f576200260e62001e45565b5b600082013567ffffffffffffffff81111562002630576200262f62001e4a565b5b6200263e84828501620025c3565b91505092915050565b7f4e487b7100000000000000000000000000000000000000000000000000000000600052603260045260246000fd5b60006040820190506200268d600083018562002400565b6200269c602083018462002102565b9392505050565b7f4e487b7100000000000000000000000000000000000000000000000000000000600052601160045260246000fd5b6000620026df8262001ebc565b91507fffffffffffffffffffffffffffffffffffffffffffffffffffffffffffffffff821415620027155762002714620026a3565b5b600182019050919050565b7f4e487b7100000000000000000000000000000000000000000000000000000000600052601260045260246000fd5b60006200275c82620020f5565b91506200276983620020f5565b9250826200277c576200277b62002720565b5b828204905092915050565b6000620027948262001ebc565b9150620027a18362001ebc565b9250817fffffffffffffffffffffffffffffffffffffffffffffffffffffffffffffffff0483118215151615620027dd57620027dc620026a3565b5b828202905092915050565b600082825260208201905092915050565b7f54686973206163636f756e742068617320616c7265616479206265656e20637260008201527f6561746564000000000000000000000000000000000000000000000000000000602082015250565b600062002857602583620027e8565b91506200286482620027f9565b604082019050919050565b600060208201905081810360008301526200288a8162002848565b9050919050565b60006200289e82620020f5565b9150620028ab83620020f5565b92508260ff03821115620028c457620028c3620026a3565b5b828201905092915050565b600081519050620028e08162002130565b92915050565b600060208284031215620028ff57620028fe62001e45565b5b60006200290f84828501620028cf565b91505092915050565b7f4c656e677468206f6620696e70757420646966666572732066726f6d206e756d60008201527f626572206f66207375622d6163636f756e747300000000000000000000000000602082015250565b600062002976603383620027e8565b9150620029838262002918565b604082019050919050565b60006020820190508181036000830152620029a98162002967565b9050919050565b6000620029bd8262001ebc565b9150620029ca8362001ebc565b9250827fffffffffffffffffffffffffffffffffffffffffffffffffffffffffffffffff0382111562002a025762002a01620026a3565b5b828201905092915050565b7f596f75722070657263656e746167657320646f6573206e6f742061646420757060008201527f20746f2031303000000000000000000000000000000000000000000000000000602082015250565b600062002a6b602783620027e8565b915062002a788262002a0d565b604082019050919050565b6000602082019050818103600083015262002a9e8162002a5c565b9050919050565b60008151905062002ab68162001fe6565b92915050565b60006020828403121562002ad55762002ad462001e45565b5b600062002ae58482850162002aa5565b91505092915050565b600062002afb8262002069565b9050919050565b62002b0d8162002aee565b811462002b1957600080fd5b50565b60008151905062002b2d8162002b02565b92915050565b60006020828403121562002b4c5762002b4b62001e45565b5b600062002b5c8482850162002b1c565b91505092915050565b600060408201905062002b7c600083018562002400565b62002b8b602083018462001ec6565b9392505050565b60008115159050919050565b62002ba98162002b92565b811462002bb557600080fd5b50565b60008151905062002bc98162002b9e565b92915050565b60006020828403121562002be85762002be762001e45565b5b600062002bf88482850162002bb8565b91505092915050565b600081549050919050565b600082825260208201905092915050565b60008190508160005260206000209050919050565b62002c3d8162002069565b82525050565b600062002c51838362002c32565b60208301905092915050565b60008160001c9050919050565b600073ffffffffffffffffffffffffffffffffffffffff82169050919050565b600062002ca162002c9b8362002c5d565b62002c6a565b9050919050565b600062002cb6825462002c8a565b9050919050565b6000600182019050919050565b600062002cd78262002c01565b62002ce3818562002c0c565b935062002cf08362002c1d565b8060005b8381101562002d305762002d088262002ca8565b62002d14888262002c43565b975062002d218362002cbd565b92505060018101905062002cf4565b5085935050505092915050565b600081519050919050565b600082825260208201905092915050565b6000819050602082019050919050565b62002d7481620020f5565b82525050565b600062002d88838362002d69565b60208301905092915050565b6000602082019050919050565b600062002dae8262002d3d565b62002dba818562002d48565b935062002dc78362002d59565b8060005b8381101562002dfe57815162002de2888262002d7a565b975062002def8362002d94565b92505060018101905062002dcb565b5085935050505092915050565b600060c082019050818103600083015262002e27818962002cca565b905062002e38602083018862002102565b818103604083015262002e4c818762002da1565b9050818103606083015262002e62818662001f58565b905062002e73608083018562002102565b62002e8260a08301846200238b565b979650505050505050565b600060608201905062002ea4600083018662002400565b62002eb3602083018562002400565b62002ec2604083018462001ec6565b94935050505056fe60806040523480156200001157600080fd5b5060405162002cb938038062002cb9833981810160405281019062000037919062000726565b33600d60006101000a81548173ffffffffffffffffffffffffffffffffffffffff021916908373ffffffffffffffffffffffffffffffffffffffff16021790555084600160006101000a81548160ff021916908360ff1602179055508560009080519060200190620000ab92919062000265565b5081600a60006101000a81548160ff021916908360ff16021790555080600b8190555060005b600160009054906101000a900460ff1660ff1681101562000258578481815181106200010257620001016200081f565b5b6020026020010151600260008084815481106200012457620001236200081f565b5b9060005260206000200160009054906101000a900473ffffffffffffffffffffffffffffffffffffffff1673ffffffffffffffffffffffffffffffffffffffff1673ffffffffffffffffffffffffffffffffffffffff16815260200190815260200160002060006101000a81548160ff021916908360ff160217905550838181518110620001b757620001b66200081f565b5b602002602001015160036000808481548110620001d957620001d86200081f565b5b9060005260206000200160009054906101000a900473ffffffffffffffffffffffffffffffffffffffff1673ffffffffffffffffffffffffffffffffffffffff1673ffffffffffffffffffffffffffffffffffffffff1681526020019081526020016000208190555080806200024f9062000887565b915050620000d1565b50505050505050620008d5565b828054828255906000526020600020908101928215620002e1579160200282015b82811115620002e05782518260006101000a81548173ffffffffffffffffffffffffffffffffffffffff021916908373ffffffffffffffffffffffffffffffffffffffff1602179055509160200191906001019062000286565b5b509050620002f09190620002f4565b5090565b5b808211156200030f576000816000905550600101620002f5565b5090565b6000604051905090565b600080fd5b600080fd5b600080fd5b6000601f19601f8301169050919050565b7f4e487b7100000000000000000000000000000000000000000000000000000000600052604160045260246000fd5b62000377826200032c565b810181811067ffffffffffffffff821117156200039957620003986200033d565b5b80604052505050565b6000620003ae62000313565b9050620003bc82826200036c565b919050565b600067ffffffffffffffff821115620003df57620003de6200033d565b5b602082029050602081019050919050565b600080fd5b600073ffffffffffffffffffffffffffffffffffffffff82169050919050565b60006200042282620003f5565b9050919050565b620004348162000415565b81146200044057600080fd5b50565b600081519050620004548162000429565b92915050565b6000620004716200046b84620003c1565b620003a2565b90508083825260208201905060208402830185811115620004975762000496620003f0565b5b835b81811015620004c45780620004af888262000443565b84526020840193505060208101905062000499565b5050509392505050565b600082601f830112620004e657620004e562000327565b5b8151620004f88482602086016200045a565b91505092915050565b600060ff82169050919050565b620005198162000501565b81146200052557600080fd5b50565b60008151905062000539816200050e565b92915050565b600067ffffffffffffffff8211156200055d576200055c6200033d565b5b602082029050602081019050919050565b6000620005856200057f846200053f565b620003a2565b90508083825260208201905060208402830185811115620005ab57620005aa620003f0565b5b835b81811015620005d85780620005c3888262000528565b845260208401935050602081019050620005ad565b5050509392505050565b600082601f830112620005fa57620005f962000327565b5b81516200060c8482602086016200056e565b91505092915050565b600067ffffffffffffffff8211156200063357620006326200033d565b5b602082029050602081019050919050565b6000819050919050565b620006598162000644565b81146200066557600080fd5b50565b60008151905062000679816200064e565b92915050565b600062000696620006908462000615565b620003a2565b90508083825260208201905060208402830185811115620006bc57620006bb620003f0565b5b835b81811015620006e95780620006d4888262000668565b845260208401935050602081019050620006be565b5050509392505050565b600082601f8301126200070b576200070a62000327565b5b81516200071d8482602086016200067f565b91505092915050565b60008060008060008060c087890312156200074657620007456200031d565b5b600087015167ffffffffffffffff81111562000767576200076662000322565b5b6200077589828a01620004ce565b96505060206200078889828a0162000528565b955050604087015167ffffffffffffffff811115620007ac57620007ab62000322565b5b620007ba89828a01620005e2565b945050606087015167ffffffffffffffff811115620007de57620007dd62000322565b5b620007ec89828a01620006f3565b9350506080620007ff89828a0162000528565b92505060a06200081289828a0162000668565b9150509295509295509295565b7f4e487b7100000000000000000000000000000000000000000000000000000000600052603260045260246000fd5b7f4e487b7100000000000000000000000000000000000000000000000000000000600052601160045260246000fd5b6000819050919050565b600062000894826200087d565b91507fffffffffffffffffffffffffffffffffffffffffffffffffffffffffffffffff821415620008ca57620008c96200084e565b5b600182019050919050565b6123d480620008e56000396000f3fe6080604052600436106100a75760003560e01c806378ad2c2f1161006457806378ad2c2f146101995780639dffb367146101c4578063ca5b7c2e14610201578063d7ed7d2f1461023e578063d8270dce14610267578063fa6b9a2514610292576100a7565b8063021a3b22146100ac5780633a8658e4146100c85780635b588ac6146100f15780635cccb48e1461011c57806371aac7f9146101455780637603cd7a1461015c575b600080fd5b6100c660048036038101906100c19190611c81565b6102cf565b005b3480156100d457600080fd5b506100ef60048036038101906100ea9190611c81565b610c37565b005b3480156100fd57600080fd5b5061010661171f565b6040516101139190611cca565b60405180910390f35b34801561012857600080fd5b50610143600480360381019061013e9190611d11565b611736565b005b34801561015157600080fd5b5061015a61188b565b005b34801561016857600080fd5b50610183600480360381019061017e9190611d9c565b6118e7565b6040516101909190611dd8565b60405180910390f35b3480156101a557600080fd5b506101ae6118ff565b6040516101bb9190611cca565b60405180910390f35b3480156101d057600080fd5b506101eb60048036038101906101e69190611c81565b611912565b6040516101f89190611e0c565b60405180910390f35b34801561020d57600080fd5b5061022860048036038101906102239190611e53565b611a54565b6040516102359190611e8f565b60405180910390f35b34801561024a57600080fd5b5061026560048036038101906102609190612003565b611a93565b005b34801561027357600080fd5b5061027c611c11565b6040516102899190611e0c565b60405180910390f35b34801561029e57600080fd5b506102b960048036038101906102b49190611d9c565b611c17565b6040516102c69190611cca565b60405180910390f35b60005b600160009054906101000a900460ff1660ff168110156106045760006002811115610300576102ff61204c565b5b600660008084815481106103175761031661207b565b5b9060005260206000200160009054906101000a900473ffffffffffffffffffffffffffffffffffffffff1673ffffffffffffffffffffffffffffffffffffffff1673ffffffffffffffffffffffffffffffffffffffff16815260200190815260200160002060009054906101000a900460ff16600281111561039c5761039b61204c565b5b1480156103b9575062093a80600c546103b591906120d9565b4210155b156105f1576002600660008084815481106103d7576103d661207b565b5b9060005260206000200160009054906101000a900473ffffffffffffffffffffffffffffffffffffffff1673ffffffffffffffffffffffffffffffffffffffff1673ffffffffffffffffffffffffffffffffffffffff16815260200190815260200160002060006101000a81548160ff0219169083600281111561045e5761045d61204c565b5b02179055507fe98097b6040eb0966e73fd39adf87f8715de85b3f660e6a7009ba2469d4fd86d600082815481106104985761049761207b565b5b9060005260206000200160009054906101000a900473ffffffffffffffffffffffffffffffffffffffff16600460008085815481106104da576104d961207b565b5b9060005260206000200160009054906101000a900473ffffffffffffffffffffffffffffffffffffffff1673ffffffffffffffffffffffffffffffffffffffff1673ffffffffffffffffffffffffffffffffffffffff16815260200190815260200160002054600360008086815481106105575761055661207b565b5b9060005260206000200160009054906101000a900473ffffffffffffffffffffffffffffffffffffffff1673ffffffffffffffffffffffffffffffffffffffff1673ffffffffffffffffffffffffffffffffffffffff168152602001908152602001600020546040516105cc9392919061212f565b60405180910390a16003600a60006101000a81548160ff021916908360ff1602179055505b80806105fc90612166565b9150506102d2565b50600080600090505b600160009054906101000a900460ff1660ff1681101561070057826003600080848154811061063f5761063e61207b565b5b9060005260206000200160009054906101000a900473ffffffffffffffffffffffffffffffffffffffff1673ffffffffffffffffffffffffffffffffffffffff1673ffffffffffffffffffffffffffffffffffffffff1681526020019081526020016000205414156106ed57600081815481106106bf576106be61207b565b5b9060005260206000200160009054906101000a900473ffffffffffffffffffffffffffffffffffffffff1691505b80806106f890612166565b91505061060d565b50600060028111156107155761071461204c565b5b600660008373ffffffffffffffffffffffffffffffffffffffff1673ffffffffffffffffffffffffffffffffffffffff16815260200190815260200160002060009054906101000a900460ff1660028111156107745761077361204c565b5b146107b4576040517f08c379a00000000000000000000000000000000000000000000000000000000081526004016107ab90612232565b60405180910390fd5b6000600460008373ffffffffffffffffffffffffffffffffffffffff1673ffffffffffffffffffffffffffffffffffffffff1681526020019081526020016000205490506000811461081357348161080c91906120d9565b9050610817565b3490505b80600460008473ffffffffffffffffffffffffffffffffffffffff1673ffffffffffffffffffffffffffffffffffffffff16815260200190815260200160002081905550600560008373ffffffffffffffffffffffffffffffffffffffff1673ffffffffffffffffffffffffffffffffffffffff168152602001908152602001600020548110610945576001600660008473ffffffffffffffffffffffffffffffffffffffff1673ffffffffffffffffffffffffffffffffffffffff16815260200190815260200160002060006101000a81548160ff021916908360028111156109045761090361204c565b5b02179055507f84ce75384538250d1691d23fcf41bb86189a077b16f707a9abf1d1c3e1285aa382828560405161093c9392919061212f565b60405180910390a15b60011515600860008473ffffffffffffffffffffffffffffffffffffffff1673ffffffffffffffffffffffffffffffffffffffff16815260200190815260200160002060003373ffffffffffffffffffffffffffffffffffffffff1673ffffffffffffffffffffffffffffffffffffffff16815260200190815260200160002060009054906101000a900460ff16151514610b10576001600860008473ffffffffffffffffffffffffffffffffffffffff1673ffffffffffffffffffffffffffffffffffffffff16815260200190815260200160002060003373ffffffffffffffffffffffffffffffffffffffff1673ffffffffffffffffffffffffffffffffffffffff16815260200190815260200160002060006101000a81548160ff021916908315150217905550600960008373ffffffffffffffffffffffffffffffffffffffff1673ffffffffffffffffffffffffffffffffffffffff168152602001908152602001600020339080600181540180825580915050600190039060005260206000200160009091909190916101000a81548173ffffffffffffffffffffffffffffffffffffffff021916908373ffffffffffffffffffffffffffffffffffffffff1602179055505b6000600760008473ffffffffffffffffffffffffffffffffffffffff1673ffffffffffffffffffffffffffffffffffffffff16815260200190815260200160002060003373ffffffffffffffffffffffffffffffffffffffff1673ffffffffffffffffffffffffffffffffffffffff16815260200190815260200160002054905060008114610bac573481610ba591906120d9565b9050610bb0565b3490505b80600760008573ffffffffffffffffffffffffffffffffffffffff1673ffffffffffffffffffffffffffffffffffffffff16815260200190815260200160002060003373ffffffffffffffffffffffffffffffffffffffff1673ffffffffffffffffffffffffffffffffffffffff1681526020019081526020016000208190555050505050565b60005b600160009054906101000a900460ff1660ff16811015610f6c5760006002811115610c6857610c6761204c565b5b60066000808481548110610c7f57610c7e61207b565b5b9060005260206000200160009054906101000a900473ffffffffffffffffffffffffffffffffffffffff1673ffffffffffffffffffffffffffffffffffffffff1673ffffffffffffffffffffffffffffffffffffffff16815260200190815260200160002060009054906101000a900460ff166002811115610d0457610d0361204c565b5b148015610d21575062093a80600c54610d1d91906120d9565b4210155b15610f5957600260066000808481548110610d3f57610d3e61207b565b5b9060005260206000200160009054906101000a900473ffffffffffffffffffffffffffffffffffffffff1673ffffffffffffffffffffffffffffffffffffffff1673ffffffffffffffffffffffffffffffffffffffff16815260200190815260200160002060006101000a81548160ff02191690836002811115610dc657610dc561204c565b5b02179055507fe98097b6040eb0966e73fd39adf87f8715de85b3f660e6a7009ba2469d4fd86d60008281548110610e0057610dff61207b565b5b9060005260206000200160009054906101000a900473ffffffffffffffffffffffffffffffffffffffff1660046000808581548110610e4257610e4161207b565b5b9060005260206000200160009054906101000a900473ffffffffffffffffffffffffffffffffffffffff1673ffffffffffffffffffffffffffffffffffffffff1673ffffffffffffffffffffffffffffffffffffffff1681526020019081526020016000205460036000808681548110610ebf57610ebe61207b565b5b9060005260206000200160009054906101000a900473ffffffffffffffffffffffffffffffffffffffff1673ffffffffffffffffffffffffffffffffffffffff1673ffffffffffffffffffffffffffffffffffffffff16815260200190815260200160002054604051610f349392919061212f565b60405180910390a16003600a60006101000a81548160ff021916908360ff1602179055505b8080610f6490612166565b915050610c3a565b50600d60009054906101000a900473ffffffffffffffffffffffffffffffffffffffff1673ffffffffffffffffffffffffffffffffffffffff163373ffffffffffffffffffffffffffffffffffffffff1614610fc757600080fd5b600080600090505b600160009054906101000a900460ff1660ff168110156110c25782600360008084815481106110015761100061207b565b5b9060005260206000200160009054906101000a900473ffffffffffffffffffffffffffffffffffffffff1673ffffffffffffffffffffffffffffffffffffffff1673ffffffffffffffffffffffffffffffffffffffff1681526020019081526020016000205414156110af57600081815481106110815761108061207b565b5b9060005260206000200160009054906101000a900473ffffffffffffffffffffffffffffffffffffffff1691505b80806110ba90612166565b915050610fcf565b50600160028111156110d7576110d661204c565b5b600660008373ffffffffffffffffffffffffffffffffffffffff1673ffffffffffffffffffffffffffffffffffffffff16815260200190815260200160002060009054906101000a900460ff1660028111156111365761113561204c565b5b14156111d3576000600460008373ffffffffffffffffffffffffffffffffffffffff1673ffffffffffffffffffffffffffffffffffffffff16815260200190815260200160002054905060008290508073ffffffffffffffffffffffffffffffffffffffff166108fc839081150290604051600060405180830381858888f193505050501580156111cb573d6000803e3d6000fd5b50505061171b565b6002808111156111e6576111e561204c565b5b600660008373ffffffffffffffffffffffffffffffffffffffff1673ffffffffffffffffffffffffffffffffffffffff16815260200190815260200160002060009054906101000a900460ff1660028111156112455761124461204c565b5b1415611673576000600460008373ffffffffffffffffffffffffffffffffffffffff1673ffffffffffffffffffffffffffffffffffffffff1681526020019081526020016000205490506000811461166d576000600a60009054906101000a900460ff1660ff161415611429576000600460008473ffffffffffffffffffffffffffffffffffffffff1673ffffffffffffffffffffffffffffffffffffffff16815260200190815260200160002054905060005b600160009054906101000a900460ff1660ff168110156114225760008082815481106113285761132761207b565b5b9060005260206000200160009054906101000a900473ffffffffffffffffffffffffffffffffffffffff1690506000600260008373ffffffffffffffffffffffffffffffffffffffff1673ffffffffffffffffffffffffffffffffffffffff16815260200190815260200160002060009054906101000a900460ff16905060008290508073ffffffffffffffffffffffffffffffffffffffff166108fc866064856113d39190612281565b60ff166113e091906122b2565b9081150290604051600060405180830381858888f1935050505015801561140b573d6000803e3d6000fd5b50505050808061141a90612166565b9150506112f9565b505061166c565b6001600a60009054906101000a900460ff1660ff16141561166b5760005b600960008473ffffffffffffffffffffffffffffffffffffffff1673ffffffffffffffffffffffffffffffffffffffff16815260200190815260200160002080549050811015611669576000600760008573ffffffffffffffffffffffffffffffffffffffff1673ffffffffffffffffffffffffffffffffffffffff1681526020019081526020016000206000600960008773ffffffffffffffffffffffffffffffffffffffff1673ffffffffffffffffffffffffffffffffffffffff16815260200190815260200160002084815481106115255761152461207b565b5b9060005260206000200160009054906101000a900473ffffffffffffffffffffffffffffffffffffffff1673ffffffffffffffffffffffffffffffffffffffff1673ffffffffffffffffffffffffffffffffffffffff1681526020019081526020016000205490506000600960008673ffffffffffffffffffffffffffffffffffffffff1673ffffffffffffffffffffffffffffffffffffffff16815260200190815260200160002083815481106115e0576115df61207b565b5b9060005260206000200160009054906101000a900473ffffffffffffffffffffffffffffffffffffffff1690508073ffffffffffffffffffffffffffffffffffffffff166108fc839081150290604051600060405180830381858888f19350505050158015611653573d6000803e3d6000fd5b505050808061166190612166565b915050611447565b505b5b5b5061171a565b600060028111156116875761168661204c565b5b600660008373ffffffffffffffffffffffffffffffffffffffff1673ffffffffffffffffffffffffffffffffffffffff16815260200190815260200160002060009054906101000a900460ff1660028111156116e6576116e561204c565b5b1415611719577f64d12556a85cdd58f632c188b5b6bdb51b11dff496b036e63e193315cbc6019f60405160405180910390a15b5b5b5050565b6000600a60009054906101000a900460ff16905090565b600d60009054906101000a900473ffffffffffffffffffffffffffffffffffffffff1673ffffffffffffffffffffffffffffffffffffffff163373ffffffffffffffffffffffffffffffffffffffff161461179057600080fd5b60005b600160009054906101000a900460ff1660ff16811015611865576000600660008084815481106117c6576117c561207b565b5b9060005260206000200160009054906101000a900473ffffffffffffffffffffffffffffffffffffffff1673ffffffffffffffffffffffffffffffffffffffff1673ffffffffffffffffffffffffffffffffffffffff16815260200190815260200160002060006101000a81548160ff0219169083600281111561184d5761184c61204c565b5b0217905550808061185d90612166565b915050611793565b5042600c8190555080600a60006101000a81548160ff021916908360ff16021790555050565b600d60009054906101000a900473ffffffffffffffffffffffffffffffffffffffff1673ffffffffffffffffffffffffffffffffffffffff163373ffffffffffffffffffffffffffffffffffffffff16146118e557600080fd5b565b60036020528060005260406000206000915090505481565b600160009054906101000a900460ff1681565b60008060005b600160009054906101000a900460ff1660ff16811015611a0b57836003600080848154811061194a5761194961207b565b5b9060005260206000200160009054906101000a900473ffffffffffffffffffffffffffffffffffffffff1673ffffffffffffffffffffffffffffffffffffffff1673ffffffffffffffffffffffffffffffffffffffff1681526020019081526020016000205414156119f857600081815481106119ca576119c961207b565b5b9060005260206000200160009054906101000a900473ffffffffffffffffffffffffffffffffffffffff1691505b8080611a0390612166565b915050611918565b50600460008273ffffffffffffffffffffffffffffffffffffffff1673ffffffffffffffffffffffffffffffffffffffff16815260200190815260200160002054915050919050565b60008181548110611a6457600080fd5b906000526020600020016000915054906101000a900473ffffffffffffffffffffffffffffffffffffffff1681565b600d60009054906101000a900473ffffffffffffffffffffffffffffffffffffffff1673ffffffffffffffffffffffffffffffffffffffff163373ffffffffffffffffffffffffffffffffffffffff1614611aed57600080fd5b600160009054906101000a900460ff1660ff16815114611b42576040517f08c379a0000000000000000000000000000000000000000000000000000000008152600401611b399061237e565b60405180910390fd5b60005b600160009054906101000a900460ff1660ff16811015611c0d57818181518110611b7257611b7161207b565b5b602002602001015160056000808481548110611b9157611b9061207b565b5b9060005260206000200160009054906101000a900473ffffffffffffffffffffffffffffffffffffffff1673ffffffffffffffffffffffffffffffffffffffff1673ffffffffffffffffffffffffffffffffffffffff168152602001908152602001600020819055508080611c0590612166565b915050611b45565b5050565b600c5481565b60026020528060005260406000206000915054906101000a900460ff1681565b6000604051905090565b600080fd5b600080fd5b6000819050919050565b611c5e81611c4b565b8114611c6957600080fd5b50565b600081359050611c7b81611c55565b92915050565b600060208284031215611c9757611c96611c41565b5b6000611ca584828501611c6c565b91505092915050565b600060ff82169050919050565b611cc481611cae565b82525050565b6000602082019050611cdf6000830184611cbb565b92915050565b611cee81611cae565b8114611cf957600080fd5b50565b600081359050611d0b81611ce5565b92915050565b600060208284031215611d2757611d26611c41565b5b6000611d3584828501611cfc565b91505092915050565b600073ffffffffffffffffffffffffffffffffffffffff82169050919050565b6000611d6982611d3e565b9050919050565b611d7981611d5e565b8114611d8457600080fd5b50565b600081359050611d9681611d70565b92915050565b600060208284031215611db257611db1611c41565b5b6000611dc084828501611d87565b91505092915050565b611dd281611c4b565b82525050565b6000602082019050611ded6000830184611dc9565b92915050565b6000819050919050565b611e0681611df3565b82525050565b6000602082019050611e216000830184611dfd565b92915050565b611e3081611df3565b8114611e3b57600080fd5b50565b600081359050611e4d81611e27565b92915050565b600060208284031215611e6957611e68611c41565b5b6000611e7784828501611e3e565b91505092915050565b611e8981611d5e565b82525050565b6000602082019050611ea46000830184611e80565b92915050565b600080fd5b6000601f19601f8301169050919050565b7f4e487b7100000000000000000000000000000000000000000000000000000000600052604160045260246000fd5b611ef882611eaf565b810181811067ffffffffffffffff82111715611f1757611f16611ec0565b5b80604052505050565b6000611f2a611c37565b9050611f368282611eef565b919050565b600067ffffffffffffffff821115611f5657611f55611ec0565b5b602082029050602081019050919050565b600080fd5b6000611f7f611f7a84611f3b565b611f20565b90508083825260208201905060208402830185811115611fa257611fa1611f67565b5b835b81811015611fcb5780611fb78882611e3e565b845260208401935050602081019050611fa4565b5050509392505050565b600082601f830112611fea57611fe9611eaa565b5b8135611ffa848260208601611f6c565b91505092915050565b60006020828403121561201957612018611c41565b5b600082013567ffffffffffffffff81111561203757612036611c46565b5b61204384828501611fd5565b91505092915050565b7f4e487b7100000000000000000000000000000000000000000000000000000000600052602160045260246000fd5b7f4e487b7100000000000000000000000000000000000000000000000000000000600052603260045260246000fd5b7f4e487b7100000000000000000000000000000000000000000000000000000000600052601160045260246000fd5b60006120e482611df3565b91506120ef83611df3565b9250827fffffffffffffffffffffffffffffffffffffffffffffffffffffffffffffffff03821115612124576121236120aa565b5b828201905092915050565b60006060820190506121446000830186611e80565b6121516020830185611dfd565b61215e6040830184611dc9565b949350505050565b600061217182611df3565b91507fffffffffffffffffffffffffffffffffffffffffffffffffffffffffffffffff8214156121a4576121a36120aa565b5b600182019050919050565b600082825260208201905092915050565b7f5468652063616d706169676e20686173206569746865722066696e697368656460008201527f206f7220686173206265656e2066756c66696c6c65642e000000000000000000602082015250565b600061221c6037836121af565b9150612227826121c0565b604082019050919050565b6000602082019050818103600083015261224b8161220f565b9050919050565b7f4e487b7100000000000000000000000000000000000000000000000000000000600052601260045260246000fd5b600061228c82611cae565b915061229783611cae565b9250826122a7576122a6612252565b5b828204905092915050565b60006122bd82611df3565b91506122c883611df3565b9250817fffffffffffffffffffffffffffffffffffffffffffffffffffffffffffffffff0483118215151615612301576123006120aa565b5b828202905092915050565b7f596f75206e65656420746f20637265617465206120676f616c20666f7220656160008201527f6368207375622d6163636f756e74210000000000000000000000000000000000602082015250565b6000612368602f836121af565b91506123738261230c565b604082019050919050565b600060208201905081810360008301526123978161235b565b905091905056fea26469706673582212207c4c7947e0eb0bb804426e273a31688f45e15b232786b85a755199d31eecfc0c64736f6c634300080b0033a2646970667358221220517bc6a13fbcd141202d43f51b609d17bf3afdb5b34b986258473d8c56c0797864736f6c634300080b0033608060405234801561001057600080fd5b50600060405161001f906100cf565b604051809103906000f08015801561003b573d6000803e3d6000fd5b509050806000806101000a81548173ffffffffffffffffffffffffffffffffffffffff021916908373ffffffffffffffffffffffffffffffffffffffff16021790555033600360006101000a81548173ffffffffffffffffffffffffffffffffffffffff021916908373ffffffffffffffffffffffffffffffffffffffff160217905550620186a0600181905550506100dc565b6115248061097183390190565b610886806100eb6000396000f3fe60806040526004361061004a5760003560e01c806319e5ad381461004f5780636cba62901461008c578063af55de6c146100b7578063d1014bee146100e2578063da304e4d1461011f575b600080fd5b34801561005b57600080fd5b5061007660048036038101906100719190610498565b61013b565b60405161008391906104d4565b60405180910390f35b34801561009857600080fd5b506100a1610157565b6040516100ae91906104d4565b60405180910390f35b3480156100c357600080fd5b506100cc6101f9565b6040516100d9919061056e565b60405180910390f35b3480156100ee57600080fd5b50610109600480360381019061010491906105c7565b610222565b60405161011691906104d4565b60405180910390f35b61013960048036038101906101349190610498565b6102c6565b005b6000662386f26fc10000826101509190610652565b9050919050565b60008060009054906101000a900473ffffffffffffffffffffffffffffffffffffffff1673ffffffffffffffffffffffffffffffffffffffff166370a08231336040518263ffffffff1660e01b81526004016101b39190610692565b602060405180830381865afa1580156101d0573d6000803e3d6000fd5b505050506040513d601f19601f820116820180604052508101906101f491906106c2565b905090565b60008060009054906101000a900473ffffffffffffffffffffffffffffffffffffffff16905090565b60008060009054906101000a900473ffffffffffffffffffffffffffffffffffffffff1673ffffffffffffffffffffffffffffffffffffffff166370a08231836040518263ffffffff1660e01b815260040161027e9190610692565b602060405180830381865afa15801561029b573d6000803e3d6000fd5b505050506040513d601f19601f820116820180604052508101906102bf91906106c2565b9050919050565b6000662386f26fc10000826102db9190610652565b90506001548160008054906101000a900473ffffffffffffffffffffffffffffffffffffffff1673ffffffffffffffffffffffffffffffffffffffff166318160ddd6040518163ffffffff1660e01b8152600401602060405180830381865afa15801561034c573d6000803e3d6000fd5b505050506040513d601f19601f8201168201806040525081019061037091906106c2565b61037a91906106ef565b106103ba576040517f08c379a00000000000000000000000000000000000000000000000000000000081526004016103b1906107a2565b60405180910390fd5b60008054906101000a900473ffffffffffffffffffffffffffffffffffffffff1673ffffffffffffffffffffffffffffffffffffffff166340c10f1933836040518363ffffffff1660e01b81526004016104159291906107c2565b6020604051808303816000875af1158015610434573d6000803e3d6000fd5b505050506040513d601f19601f820116820180604052508101906104589190610823565b505050565b600080fd5b6000819050919050565b61047581610462565b811461048057600080fd5b50565b6000813590506104928161046c565b92915050565b6000602082840312156104ae576104ad61045d565b5b60006104bc84828501610483565b91505092915050565b6104ce81610462565b82525050565b60006020820190506104e960008301846104c5565b92915050565b600073ffffffffffffffffffffffffffffffffffffffff82169050919050565b6000819050919050565b600061053461052f61052a846104ef565b61050f565b6104ef565b9050919050565b600061054682610519565b9050919050565b60006105588261053b565b9050919050565b6105688161054d565b82525050565b6000602082019050610583600083018461055f565b92915050565b6000610594826104ef565b9050919050565b6105a481610589565b81146105af57600080fd5b50565b6000813590506105c18161059b565b92915050565b6000602082840312156105dd576105dc61045d565b5b60006105eb848285016105b2565b91505092915050565b7f4e487b7100000000000000000000000000000000000000000000000000000000600052601260045260246000fd5b7f4e487b7100000000000000000000000000000000000000000000000000000000600052601160045260246000fd5b600061065d82610462565b915061066883610462565b925082610678576106776105f4565b5b828204905092915050565b61068c81610589565b82525050565b60006020820190506106a76000830184610683565b92915050565b6000815190506106bc8161046c565b92915050565b6000602082840312156106d8576106d761045d565b5b60006106e6848285016106ad565b91505092915050565b60006106fa82610462565b915061070583610462565b9250827fffffffffffffffffffffffffffffffffffffffffffffffffffffffffffffffff0382111561073a57610739610623565b5b828201905092915050565b600082825260208201905092915050565b7f435420737570706c79206973206e6f7420656e6f756768210000000000000000600082015250565b600061078c601883610745565b915061079782610756565b602082019050919050565b600060208201905081810360008301526107bb8161077f565b9050919050565b60006040820190506107d76000830185610683565b6107e460208301846104c5565b9392505050565b60008115159050919050565b610800816107eb565b811461080b57600080fd5b50565b60008151905061081d816107f7565b92915050565b6000602082840312156108395761083861045d565b5b60006108478482850161080e565b9150509291505056fea2646970667358221220b1b3b42052d82636ba1cbaca154e1658beb5636c935e4e6c3a845a531cd640dd64736f6c634300080b0033608060405260008060006101000a81548160ff02191690831515021790555033600060016101000a81548173ffffffffffffffffffffffffffffffffffffffff021916908373ffffffffffffffffffffffffffffffffffffffff16021790555034801561006b57600080fd5b506114a98061007b6000396000f3fe608060405234801561001057600080fd5b50600436106100ea5760003560e01c806370a082311161008c5780638da5cb5b116100665780638da5cb5b1461026357806395d89b4114610281578063a9059cbb1461029f578063dd62ed3e146102cf576100ea565b806370a08231146101f75780637d64bcb414610227578063893d20e814610245576100ea565b806318160ddd116100c857806318160ddd1461015b57806323b872dd14610179578063313ce567146101a957806340c10f19146101c7576100ea565b806305d2035b146100ef57806306fdde031461010d578063095ea7b31461012b575b600080fd5b6100f76102ff565b6040516101049190610f27565b60405180910390f35b610115610310565b6040516101229190610fdb565b60405180910390f35b61014560048036038101906101409190611096565b610349565b6040516101529190610f27565b60405180910390f35b61016361043b565b60405161017091906110e5565b60405180910390f35b610193600480360381019061018e9190611100565b610445565b6040516101a09190610f27565b60405180910390f35b6101b161086a565b6040516101be919061116f565b60405180910390f35b6101e160048036038101906101dc9190611096565b61086f565b6040516101ee9190610f27565b60405180910390f35b610211600480360381019061020c919061118a565b610a50565b60405161021e91906110e5565b60405180910390f35b61022f610a99565b60405161023c9190610f27565b60405180910390f35b61024d610b59565b60405161025a91906111c6565b60405180910390f35b61026b610b82565b60405161027891906111c6565b60405180910390f35b610289610ba8565b6040516102969190610fdb565b60405180910390f35b6102b960048036038101906102b49190611096565b610be1565b6040516102c69190610f27565b60405180910390f35b6102e960048036038101906102e491906111e1565b610e37565b6040516102f691906110e5565b60405180910390f35b60008054906101000a900460ff1681565b6040518060400160405280600981526020017f44696365546f6b656e000000000000000000000000000000000000000000000081525081565b600081600160003373ffffffffffffffffffffffffffffffffffffffff1673ffffffffffffffffffffffffffffffffffffffff16815260200190815260200160002060008573ffffffffffffffffffffffffffffffffffffffff1673ffffffffffffffffffffffffffffffffffffffff168152602001908152602001600020819055508273ffffffffffffffffffffffffffffffffffffffff163373ffffffffffffffffffffffffffffffffffffffff167f8c5be1e5ebec7d5bd14f71427d1e84f3dd0314c0f7b2291e5b200ac8c7c3b9258460405161042991906110e5565b60405180910390a36001905092915050565b6000600354905090565b60008073ffffffffffffffffffffffffffffffffffffffff168373ffffffffffffffffffffffffffffffffffffffff16141561048057600080fd5b600260008573ffffffffffffffffffffffffffffffffffffffff1673ffffffffffffffffffffffffffffffffffffffff16815260200190815260200160002054821115610502576040517f08c379a00000000000000000000000000000000000000000000000000000000081526004016104f99061126d565b60405180910390fd5b600160008573ffffffffffffffffffffffffffffffffffffffff1673ffffffffffffffffffffffffffffffffffffffff16815260200190815260200160002060003273ffffffffffffffffffffffffffffffffffffffff1673ffffffffffffffffffffffffffffffffffffffff168152602001908152602001600020548211156105c1576040517f08c379a00000000000000000000000000000000000000000000000000000000081526004016105b8906112d9565b60405180910390fd5b61061382600260008773ffffffffffffffffffffffffffffffffffffffff1673ffffffffffffffffffffffffffffffffffffffff16815260200190815260200160002054610ebe90919063ffffffff16565b600260008673ffffffffffffffffffffffffffffffffffffffff1673ffffffffffffffffffffffffffffffffffffffff168152602001908152602001600020819055506106a882600260008673ffffffffffffffffffffffffffffffffffffffff1673ffffffffffffffffffffffffffffffffffffffff16815260200190815260200160002054610ee590919063ffffffff16565b600260008573ffffffffffffffffffffffffffffffffffffffff1673ffffffffffffffffffffffffffffffffffffffff1681526020019081526020016000208190555061077a82600160008773ffffffffffffffffffffffffffffffffffffffff1673ffffffffffffffffffffffffffffffffffffffff16815260200190815260200160002060003273ffffffffffffffffffffffffffffffffffffffff1673ffffffffffffffffffffffffffffffffffffffff16815260200190815260200160002054610ebe90919063ffffffff16565b600160008673ffffffffffffffffffffffffffffffffffffffff1673ffffffffffffffffffffffffffffffffffffffff16815260200190815260200160002060003273ffffffffffffffffffffffffffffffffffffffff1673ffffffffffffffffffffffffffffffffffffffff168152602001908152602001600020819055508273ffffffffffffffffffffffffffffffffffffffff168473ffffffffffffffffffffffffffffffffffffffff167fddf252ad1be2c89b69c2b068fc378daa952ba7f163c4a11628f55a4df523b3ef8460405161085791906110e5565b60405180910390a3600190509392505050565b601281565b60008060019054906101000a900473ffffffffffffffffffffffffffffffffffffffff1673ffffffffffffffffffffffffffffffffffffffff163373ffffffffffffffffffffffffffffffffffffffff16146108ca57600080fd5b60008054906101000a900460ff16156108e257600080fd5b6108f782600354610ee590919063ffffffff16565b60038190555061094f82600260008673ffffffffffffffffffffffffffffffffffffffff1673ffffffffffffffffffffffffffffffffffffffff16815260200190815260200160002054610ee590919063ffffffff16565b600260008573ffffffffffffffffffffffffffffffffffffffff1673ffffffffffffffffffffffffffffffffffffffff168152602001908152602001600020819055508273ffffffffffffffffffffffffffffffffffffffff167f0f6798a560793a54c3bcfe86a93cde1e73087d944c0ea20544137d4121396885836040516109d891906110e5565b60405180910390a28273ffffffffffffffffffffffffffffffffffffffff16600073ffffffffffffffffffffffffffffffffffffffff167fddf252ad1be2c89b69c2b068fc378daa952ba7f163c4a11628f55a4df523b3ef84604051610a3e91906110e5565b60405180910390a36001905092915050565b6000600260008373ffffffffffffffffffffffffffffffffffffffff1673ffffffffffffffffffffffffffffffffffffffff168152602001908152602001600020549050919050565b60008060019054906101000a900473ffffffffffffffffffffffffffffffffffffffff1673ffffffffffffffffffffffffffffffffffffffff163373ffffffffffffffffffffffffffffffffffffffff1614610af457600080fd5b60008054906101000a900460ff1615610b0c57600080fd5b60016000806101000a81548160ff0219169083151502179055507fae5184fba832cb2b1f702aca6117b8d265eaf03ad33eb133f19dde0f5920fa0860405160405180910390a16001905090565b60008060019054906101000a900473ffffffffffffffffffffffffffffffffffffffff16905090565b600060019054906101000a900473ffffffffffffffffffffffffffffffffffffffff1681565b6040518060400160405280600281526020017f445400000000000000000000000000000000000000000000000000000000000081525081565b60008073ffffffffffffffffffffffffffffffffffffffff168373ffffffffffffffffffffffffffffffffffffffff161415610c1c57600080fd5b600260003273ffffffffffffffffffffffffffffffffffffffff1673ffffffffffffffffffffffffffffffffffffffff16815260200190815260200160002054821115610c9e576040517f08c379a0000000000000000000000000000000000000000000000000000000008152600401610c959061136b565b60405180910390fd5b610cf082600260003273ffffffffffffffffffffffffffffffffffffffff1673ffffffffffffffffffffffffffffffffffffffff16815260200190815260200160002054610ebe90919063ffffffff16565b600260003273ffffffffffffffffffffffffffffffffffffffff1673ffffffffffffffffffffffffffffffffffffffff16815260200190815260200160002081905550610d8582600260008673ffffffffffffffffffffffffffffffffffffffff1673ffffffffffffffffffffffffffffffffffffffff16815260200190815260200160002054610ee590919063ffffffff16565b600260008573ffffffffffffffffffffffffffffffffffffffff1673ffffffffffffffffffffffffffffffffffffffff168152602001908152602001600020819055508273ffffffffffffffffffffffffffffffffffffffff163273ffffffffffffffffffffffffffffffffffffffff167fddf252ad1be2c89b69c2b068fc378daa952ba7f163c4a11628f55a4df523b3ef84604051610e2591906110e5565b60405180910390a36001905092915050565b6000600160008473ffffffffffffffffffffffffffffffffffffffff1673ffffffffffffffffffffffffffffffffffffffff16815260200190815260200160002060008373ffffffffffffffffffffffffffffffffffffffff1673ffffffffffffffffffffffffffffffffffffffff16815260200190815260200160002054905092915050565b600082821115610ed157610ed061138b565b5b8183610edd91906113e9565b905092915050565b60008183610ef3919061141d565b905082811015610f0657610f0561138b565b5b92915050565b60008115159050919050565b610f2181610f0c565b82525050565b6000602082019050610f3c6000830184610f18565b92915050565b600081519050919050565b600082825260208201905092915050565b60005b83811015610f7c578082015181840152602081019050610f61565b83811115610f8b576000848401525b50505050565b6000601f19601f8301169050919050565b6000610fad82610f42565b610fb78185610f4d565b9350610fc7818560208601610f5e565b610fd081610f91565b840191505092915050565b60006020820190508181036000830152610ff58184610fa2565b905092915050565b600080fd5b600073ffffffffffffffffffffffffffffffffffffffff82169050919050565b600061102d82611002565b9050919050565b61103d81611022565b811461104857600080fd5b50565b60008135905061105a81611034565b92915050565b6000819050919050565b61107381611060565b811461107e57600080fd5b50565b6000813590506110908161106a565b92915050565b600080604083850312156110ad576110ac610ffd565b5b60006110bb8582860161104b565b92505060206110cc85828601611081565b9150509250929050565b6110df81611060565b82525050565b60006020820190506110fa60008301846110d6565b92915050565b60008060006060848603121561111957611118610ffd565b5b60006111278682870161104b565b93505060206111388682870161104b565b925050604061114986828701611081565b9150509250925092565b600060ff82169050919050565b61116981611153565b82525050565b60006020820190506111846000830184611160565b92915050565b6000602082840312156111a05761119f610ffd565b5b60006111ae8482850161104b565b91505092915050565b6111c081611022565b82525050565b60006020820190506111db60008301846111b7565b92915050565b600080604083850312156111f8576111f7610ffd565b5b60006112068582860161104b565b92505060206112178582860161104b565b9150509250929050565b7f46726f6d20646f65736e2774206861766520656e6f7567682062616c616e6365600082015250565b6000611257602083610f4d565b915061126282611221565b602082019050919050565b600060208201905081810360008301526112868161124a565b9050919050565b7f4e6f7420616c6c6f77656420746f207370656e642074686973206d7563680000600082015250565b60006112c3601e83610f4d565b91506112ce8261128d565b602082019050919050565b600060208201905081810360008301526112f2816112b6565b9050919050565b7f6d73672e73656e64657220646f65736e2774206861766520656e6f756768206260008201527f616c616e63650000000000000000000000000000000000000000000000000000602082015250565b6000611355602683610f4d565b9150611360826112f9565b604082019050919050565b6000602082019050818103600083015261138481611348565b9050919050565b7f4e487b7100000000000000000000000000000000000000000000000000000000600052600160045260246000fd5b7f4e487b7100000000000000000000000000000000000000000000000000000000600052601160045260246000fd5b60006113f482611060565b91506113ff83611060565b925082821015611412576114116113ba565b5b828203905092915050565b600061142882611060565b915061143383611060565b9250827fffffffffffffffffffffffffffffffffffffffffffffffffffffffffffffffff03821115611468576114676113ba565b5b82820190509291505056fea2646970667358221220cbf496be2af7ffbaae39325f3c4d5ec426ead8d5d6071f9f7ad5200e799c0a6064736f6c634300080b0033",
  "immutableReferences": {},
  "source": "// SPDX-License-Identifier: MIT\npragma solidity >=0.8.0;\npragma abicoder v2;\n\nimport \"./ChariToken.sol\";\nimport \"./Campaign.sol\";\n\ncontract Charity {\n    ChariToken tokenContract;\n    Campaign campaignContract;\n    address[] public subAccounts;\n    address _owner = msg.sender;\n    uint8 public numberOfSubAccounts; //subaccounts sld not exceed 255\n    mapping(address => uint8) public subAccountPercentages; // mapping of proportion of amount donated, for each sub-account [0.1, 0.2, 0.3, 0.4] etc\n    mapping(address => bytes32) public subAccountNames; // same size as mapping above, stores the name of each subaccount for that charity\n    // mapping(address => uint256) public subAccountVotes; //same size as mapping above, tracks num. of votes per subaccount for that charity\n    mapping(address => uint256) public amountDonated; // mapping for amount that each person donates\n\n\n    constructor() {\n        ChariToken ct = new ChariToken();\n        tokenContract = ct;\n        numberOfSubAccounts = 0;\n    }\n\n    event Allocation(address accountAddress, uint8 percentages);\n    \n    modifier ownerOnly() {\n        require(msg.sender == _owner);\n        _;\n    }\n    // Function to receive Ether. msg.data must be empty\n    // receive() external payable {} // might need to change imo.... because we need to store senders\n\n    // // Fallback function is called when msg.data is not empty\n    // fallback() external payable {}\n\n    // creation of sub-accounts for a single charity\n    function createSubAccount(address accountAddress, bytes32 accountName) public ownerOnly{\n        address temp;\n        for(uint i = 0; i < subAccounts.length; i++) {\n            if (subAccounts[i] == accountAddress) {\n                temp = accountAddress;\n            }\n        }\n        require(temp != accountAddress, \"This account has already been created\");\n        subAccounts.push(accountAddress);\n        subAccountPercentages[accountAddress] = 0;\n        subAccountNames[accountAddress] = accountName;\n        numberOfSubAccounts += 1;\n    }\n\n    // allocate percentages based on sub-account addresses. Feed in array of percentages\n    function allocatePercentages(uint8[] memory percentages) public ownerOnly() {\n        require(percentages.length == subAccounts.length, \"Length of input differs from number of sub-accounts\");\n        uint temp;\n        for(uint i = 0; i < percentages.length; i++) {\n            temp += percentages[i];\n        }\n        require(temp == 100, \"Your percentages does not add up to 100\");\n        for(uint i = 0; i < percentages.length; i++) {\n            subAccountPercentages[subAccounts[i]] = percentages[i];\n        }\n    }\n\n    // allocate donations based on balance.. do we need to change? to allocate each time someone donates\n    function allocateDonations(uint256 amtDonated) public payable {\n        // uint256 amtDonated = getBalance();\n        for (uint i =0; i < numberOfSubAccounts; i++) {\n            address subAccountAdd = subAccounts[i]; // subaccount in question currently\n            uint8 ratio = subAccountPercentages[subAccountAdd];\n            address payable subAccountAddPayable = payable(subAccountAdd);\n            subAccountAddPayable.transfer((ratio/100)*amtDonated);\n        }\n    }\n\n    //process donations: split donations and award donor with tokens\n    function processDonations(uint256 amtDonated, address donor) public payable {\n        this.allocateDonations(amtDonated); //allocate donations\n\n        //mint tokens to this contract, then send it to donor\n        tokenContract.getCredit(amtDonated);\n        uint256 tokensToAward = tokenContract.convertToCredits(amtDonated);\n        tokenContract.getErc20Contract().transfer(donor, tokensToAward); \n    }\n\n\n    function createCampaign(bytes32 campaignName) public ownerOnly() {\n        uint8[] memory percentages = new uint8[](getNumberOfAccounts());\n        bytes32[] memory names = new bytes32[](getNumberOfAccounts());\n        for (uint i = 0; i < getNumberOfAccounts(); i++) {\n            percentages[i] = subAccountPercentages[subAccounts[i]];\n            names[i] = subAccountNames[subAccounts[i]];\n        }\n        uint8 campaignType = 2;\n        Campaign c = new Campaign(subAccounts, numberOfSubAccounts, percentages, names, campaignType, campaignName);\n        campaignContract = c;\n    }\n\n/* Campaign section */\n\n    function addCampaignGoals(uint256[] memory allocations) public{\n        campaignContract.addCampaignGoals(allocations);\n    }\n\n    function startCampaign(uint8 typeOfCampaign) public {\n        campaignContract.startCampaign(typeOfCampaign);\n    }\n\n    function depositCampaign(bytes32 subAccount) public payable {\n        campaignContract.depositCampaign(subAccount);\n    }\n\n    function withdrawCampaign(bytes32 subAccount) public {\n        campaignContract.withdrawCampaign(subAccount);\n    }\n\n\n/* GETTERS */\n\n     // getter for allocation\n    function showAllocation() public {\n        for(uint i = 0; i < subAccounts.length; i++) {\n            address tempAddress = subAccounts[i];\n            uint8 tempAllocation = subAccountPercentages[tempAddress];\n            emit Allocation(tempAddress, tempAllocation);\n        }\n    }\n\n    // a general check on how much money the person has put, and how it has been spread\n    function getProportions() public view returns (uint[] memory xd) {\n        uint[] memory listOfProportions = new uint[](getNumberOfAccounts());\n        for (uint256 i = 0; i < getNumberOfAccounts(); i++) {\n            listOfProportions[i] = subAccountPercentages[subAccounts[i]] * amountDonated[msg.sender]; // \"Food, 100\" e.g.\n        }\n        return listOfProportions; // e.g. [100, 200, 300]\n    }\n    \n   \n    \n    function getAccountsInOrder() public view returns (bytes32[] memory xd) {\n        bytes32[] memory listOfAccounts = new bytes32[](getNumberOfAccounts());\n        for (uint256 i = 0; i < getNumberOfAccounts(); i++) {\n            listOfAccounts[i] = (subAccountNames[subAccounts[i]]); // \"Food, 100\" e.g.\n        }\n        return listOfAccounts; // e.g. [\"Food\", \"Water\", \"Air\"]. combine with getProportions() to find out amount of money in each sub wallet\n    }\n\n\n    // given an amount, how much is going to which acc? a way for donors to check where amounts are gg before they donate. \n    //combine with getAccountsInOrder() as well, to find out where in which account\n    function checkAmount(uint256 amt) public view returns (uint[] memory xd) {\n        uint[] memory listOfAmounts = new uint[](getNumberOfAccounts());\n        for (uint256 i = 0; i < getNumberOfAccounts(); i++) {\n            listOfAmounts[i] = (subAccountPercentages[subAccounts[i]] * amt);\n        }\n        return listOfAmounts;\n    }\n\n    function getNumberOfAccounts() public view returns (uint256) {\n        return numberOfSubAccounts;\n    }\n\n    // fall back function balance!\n    function getBalance() public view returns (uint) {\n        return address(this).balance;\n    }\n\n    function getSubAccountBalance(bytes32 subAccountName) public view returns(uint256) {\n        return campaignContract.getSubAccountBalance(subAccountName);\n    }\n\n     function getCampaignType() public view returns (uint8) {\n         return campaignContract.getCampaignType();\n     }\n    function checkVoteOutcome() public payable returns(uint256[] memory vc) {\n        uint256[] memory voteCounts = new uint256[](getNumberOfAccounts());\n        for (uint256 i = 0; i < getNumberOfAccounts(); i++) {\n            uint256 currVoteCount = tokenContract.checkCreditGivenAddress(subAccounts[i]);\n            voteCounts[i] = currVoteCount;\n\n            //reset voteCount\n            tokenContract.getErc20Contract().transferFrom(subAccounts[i], address(this), currVoteCount); //simulate burn tokens by transferring from subaccount to charity\n\n        }\n\n        return voteCounts;        \n    }\n}",
  "sourcePath": "/Users/ngxianghan/Documents/Y2S2/IS4302/charichain/code/contracts/Charity.sol",
  "compiler": {
    "name": "solc",
    "version": "0.8.11+commit.d7f03943.Emscripten.clang"
  },
  "schemaVersion": "3.4.7",
  "updatedAt": "2022-04-12T11:53:32.567Z",
  "networkType": "ethereum",
  "devdoc": {
    "kind": "dev",
    "methods": {},
    "version": 1
  },
  "userdoc": {
    "kind": "user",
    "methods": {},
    "version": 1
  }
}