{
  "contractName": "Charity",
  "abi": [
    {
      "inputs": [],
      "stateMutability": "nonpayable",
      "type": "constructor"
    },
    {
      "anonymous": false,
      "inputs": [
        {
          "indexed": false,
          "internalType": "address",
          "name": "accountAddress",
          "type": "address"
        },
        {
          "indexed": false,
          "internalType": "uint8",
          "name": "percentages",
          "type": "uint8"
        }
      ],
      "name": "Allocation",
      "type": "event"
    },
    {
      "inputs": [
        {
          "internalType": "address",
          "name": "",
          "type": "address"
        }
      ],
      "name": "amountDonated",
      "outputs": [
        {
          "internalType": "uint256",
          "name": "",
          "type": "uint256"
        }
      ],
      "stateMutability": "view",
      "type": "function"
    },
    {
      "inputs": [],
      "name": "numberOfSubAccounts",
      "outputs": [
        {
          "internalType": "uint8",
          "name": "",
          "type": "uint8"
        }
      ],
      "stateMutability": "view",
      "type": "function"
    },
    {
      "inputs": [
        {
          "internalType": "address",
          "name": "",
          "type": "address"
        }
      ],
      "name": "subAccountNames",
      "outputs": [
        {
          "internalType": "bytes32",
          "name": "",
          "type": "bytes32"
        }
      ],
      "stateMutability": "view",
      "type": "function"
    },
    {
      "inputs": [
        {
          "internalType": "address",
          "name": "",
          "type": "address"
        }
      ],
      "name": "subAccountPercentages",
      "outputs": [
        {
          "internalType": "uint8",
          "name": "",
          "type": "uint8"
        }
      ],
      "stateMutability": "view",
      "type": "function"
    },
    {
      "inputs": [
        {
          "internalType": "uint256",
          "name": "",
          "type": "uint256"
        }
      ],
      "name": "subAccounts",
      "outputs": [
        {
          "internalType": "address",
          "name": "",
          "type": "address"
        }
      ],
      "stateMutability": "view",
      "type": "function"
    },
    {
      "inputs": [
        {
          "internalType": "address",
          "name": "accountAddress",
          "type": "address"
        },
        {
          "internalType": "bytes32",
          "name": "accountName",
          "type": "bytes32"
        }
      ],
      "name": "createSubAccount",
      "outputs": [],
      "stateMutability": "nonpayable",
      "type": "function"
    },
    {
      "inputs": [
        {
          "internalType": "uint8[]",
          "name": "percentages",
          "type": "uint8[]"
        }
      ],
      "name": "allocatePercentages",
      "outputs": [],
      "stateMutability": "nonpayable",
      "type": "function"
    },
    {
      "inputs": [
        {
          "internalType": "uint256",
          "name": "amtDonated",
          "type": "uint256"
        }
      ],
      "name": "allocateDonations",
      "outputs": [],
      "stateMutability": "payable",
      "type": "function"
    },
    {
      "inputs": [
        {
          "internalType": "uint256",
          "name": "amtDonated",
          "type": "uint256"
        },
        {
          "internalType": "address",
          "name": "donor",
          "type": "address"
        }
      ],
      "name": "processDonations",
      "outputs": [],
      "stateMutability": "payable",
      "type": "function"
    },
    {
      "inputs": [
        {
          "internalType": "bytes32",
          "name": "campaignName",
          "type": "bytes32"
        }
      ],
      "name": "createCampaign",
      "outputs": [],
      "stateMutability": "nonpayable",
      "type": "function"
    },
    {
      "inputs": [
        {
          "internalType": "uint256[]",
          "name": "allocations",
          "type": "uint256[]"
        }
      ],
      "name": "addCampaignGoals",
      "outputs": [],
      "stateMutability": "nonpayable",
      "type": "function"
    },
    {
      "inputs": [
        {
          "internalType": "uint8",
          "name": "typeOfCampaign",
          "type": "uint8"
        }
      ],
      "name": "startCampaign",
      "outputs": [],
      "stateMutability": "nonpayable",
      "type": "function"
    },
    {
      "inputs": [
        {
          "internalType": "bytes32",
          "name": "subAccount",
          "type": "bytes32"
        }
      ],
      "name": "depositCampaign",
      "outputs": [],
      "stateMutability": "payable",
      "type": "function"
    },
    {
      "inputs": [
        {
          "internalType": "bytes32",
          "name": "subAccount",
          "type": "bytes32"
        }
      ],
      "name": "withdrawCampaign",
      "outputs": [],
      "stateMutability": "nonpayable",
      "type": "function"
    },
    {
      "inputs": [],
      "name": "showAllocation",
      "outputs": [],
      "stateMutability": "nonpayable",
      "type": "function"
    },
    {
      "inputs": [],
      "name": "getProportions",
      "outputs": [
        {
          "internalType": "uint256[]",
          "name": "xd",
          "type": "uint256[]"
        }
      ],
      "stateMutability": "view",
      "type": "function"
    },
    {
      "inputs": [],
      "name": "getAccountsInOrder",
      "outputs": [
        {
          "internalType": "bytes32[]",
          "name": "xd",
          "type": "bytes32[]"
        }
      ],
      "stateMutability": "view",
      "type": "function"
    },
    {
      "inputs": [
        {
          "internalType": "uint256",
          "name": "amt",
          "type": "uint256"
        }
      ],
      "name": "checkAmount",
      "outputs": [
        {
          "internalType": "uint256[]",
          "name": "xd",
          "type": "uint256[]"
        }
      ],
      "stateMutability": "view",
      "type": "function"
    },
    {
      "inputs": [],
      "name": "getNumberOfAccounts",
      "outputs": [
        {
          "internalType": "uint256",
          "name": "",
          "type": "uint256"
        }
      ],
      "stateMutability": "view",
      "type": "function"
    },
    {
      "inputs": [],
      "name": "getBalance",
      "outputs": [
        {
          "internalType": "uint256",
          "name": "",
          "type": "uint256"
        }
      ],
      "stateMutability": "view",
      "type": "function"
    },
    {
      "inputs": [
        {
          "internalType": "bytes32",
          "name": "subAccountName",
          "type": "bytes32"
        }
      ],
      "name": "getSubAccountBalance",
      "outputs": [
        {
          "internalType": "uint256",
          "name": "",
          "type": "uint256"
        }
      ],
      "stateMutability": "view",
      "type": "function"
    },
    {
      "inputs": [],
      "name": "getCampaignType",
      "outputs": [
        {
          "internalType": "uint8",
          "name": "",
          "type": "uint8"
        }
      ],
      "stateMutability": "view",
      "type": "function"
    },
    {
      "inputs": [],
      "name": "checkVoteOutcome",
      "outputs": [
        {
          "internalType": "uint256[]",
          "name": "vc",
          "type": "uint256[]"
        }
      ],
      "stateMutability": "payable",
      "type": "function"
    }
  ],
  "bytecode": "0x608060405233600360006101000a81548173ffffffffffffffffffffffffffffffffffffffff021916908373ffffffffffffffffffffffffffffffffffffffff1602179055503480156200005257600080fd5b5060006040516200006390620000e6565b604051809103906000f08015801562000080573d6000803e3d6000fd5b509050806000806101000a81548173ffffffffffffffffffffffffffffffffffffffff021916908373ffffffffffffffffffffffffffffffffffffffff1602179055506000600360146101000a81548160ff021916908360ff16021790555050620000f4565b611e938062005cb083390190565b615bac80620001046000396000f3fe6080604052600436106200015e5760003560e01c80637603cd7a11620000c7578063cdc7fcc21162000079578063cdc7fcc2146200047f578063d7ed7d2f14620004af578063dcd1e67014620004dd578063fa6b9a251462000521578063fbeb46ff1462000565578063fe91f6eb14620005a9576200015e565b80637603cd7a146200033557806378ad2c2f14620003795780639cbb9a0614620003a95780639dffb36714620003c9578063b4c0d9cc146200040d578063ca5b7c2e146200043b576200015e565b80633a8658e411620001215780633a8658e4146200022d5780633b926cbf146200025b5780633edfa595146200027b5780635b588ac614620002a95780635cccb48e14620002d95780635d598f1d1462000307576200015e565b8063021a3b221462000163578063099113f2146200018357806312065fe0146200019d578063309e36ef14620001cd5780633649aeed14620001fd575b600080fd5b6200018160048036038101906200017b919062001e88565b620005cb565b005b3480156200019057600080fd5b506200019b6200065f565b005b348015620001aa57600080fd5b50620001b56200075d565b604051620001c4919062001ed5565b60405180910390f35b348015620001da57600080fd5b50620001e562000765565b604051620001f4919062001ed5565b60405180910390f35b3480156200020a57600080fd5b50620002156200077f565b60405162000224919062001fc0565b60405180910390f35b3480156200023a57600080fd5b5062000259600480360381019062000253919062001e88565b620008b1565b005b62000279600480360381019062000273919062002015565b62000945565b005b3480156200028857600080fd5b50620002a76004803603810190620002a19190620020ac565b62000a82565b005b348015620002b657600080fd5b50620002c162000d32565b604051620002d0919062002111565b60405180910390f35b348015620002e657600080fd5b50620003056004803603810190620002ff91906200215f565b62000dcd565b005b3480156200031457600080fd5b506200033360048036038101906200032d919062002306565b62000e61565b005b3480156200034257600080fd5b506200036160048036038101906200035b919062002357565b62001084565b6040516200037091906200239a565b60405180910390f35b3480156200038657600080fd5b50620003916200109c565b604051620003a0919062002111565b60405180910390f35b620003c76004803603810190620003c19190620023b7565b620010af565b005b348015620003d657600080fd5b50620003f56004803603810190620003ef919062001e88565b6200136b565b60405162000404919062001ed5565b60405180910390f35b3480156200041a57600080fd5b5062000439600480360381019062000433919062001e88565b62001415565b005b3480156200044857600080fd5b5062000467600480360381019062000461919062002015565b62001750565b6040516200047691906200240f565b60405180910390f35b3480156200048c57600080fd5b506200049762001790565b604051620004a69190620024fa565b60405180910390f35b348015620004bc57600080fd5b50620004db6004803603810190620004d59190620025f4565b6200191e565b005b348015620004ea57600080fd5b5062000509600480360381019062000503919062002015565b620019b2565b604051620005189190620024fa565b60405180910390f35b3480156200052e57600080fd5b506200054d600480360381019062000547919062002357565b62001b03565b6040516200055c919062002111565b60405180910390f35b3480156200057257600080fd5b506200059160048036038101906200058b919062002357565b62001b23565b604051620005a0919062001ed5565b60405180910390f35b620005b362001b3b565b604051620005c29190620024fa565b60405180910390f35b600160009054906101000a900473ffffffffffffffffffffffffffffffffffffffff1673ffffffffffffffffffffffffffffffffffffffff1663021a3b22826040518263ffffffff1660e01b81526004016200062891906200239a565b600060405180830381600087803b1580156200064357600080fd5b505af115801562000658573d6000803e3d6000fd5b5050505050565b60005b6002805490508110156200075a5760006002828154811062000689576200068862002645565b5b9060005260206000200160009054906101000a900473ffffffffffffffffffffffffffffffffffffffff1690506000600460008373ffffffffffffffffffffffffffffffffffffffff1673ffffffffffffffffffffffffffffffffffffffff16815260200190815260200160002060009054906101000a900460ff1690507f1678b24f967a3843f4df73c502214e9713abcdddaae41eb0afe87d808a99e78582826040516200073a92919062002674565b60405180910390a1505080806200075190620026d0565b91505062000662565b50565b600047905090565b6000600360149054906101000a900460ff1660ff16905090565b606060006200078d62000765565b67ffffffffffffffff811115620007a957620007a8620021a7565b5b604051908082528060200260200182016040528015620007d85781602001602082028036833780820191505090505b50905060005b620007e862000765565b811015620008a95760056000600283815481106200080b576200080a62002645565b5b9060005260206000200160009054906101000a900473ffffffffffffffffffffffffffffffffffffffff1673ffffffffffffffffffffffffffffffffffffffff1673ffffffffffffffffffffffffffffffffffffffff1681526020019081526020016000205482828151811062000887576200088662002645565b5b6020026020010181815250508080620008a090620026d0565b915050620007de565b508091505090565b600160009054906101000a900473ffffffffffffffffffffffffffffffffffffffff1673ffffffffffffffffffffffffffffffffffffffff16633a8658e4826040518263ffffffff1660e01b81526004016200090e91906200239a565b600060405180830381600087803b1580156200092957600080fd5b505af11580156200093e573d6000803e3d6000fd5b5050505050565b60005b600360149054906101000a900460ff1660ff1681101562000a7e576000600282815481106200097c576200097b62002645565b5b9060005260206000200160009054906101000a900473ffffffffffffffffffffffffffffffffffffffff1690506000600460008373ffffffffffffffffffffffffffffffffffffffff1673ffffffffffffffffffffffffffffffffffffffff16815260200190815260200160002060009054906101000a900460ff16905060008290508073ffffffffffffffffffffffffffffffffffffffff166108fc8660648562000a2991906200274c565b60ff1662000a38919062002784565b9081150290604051600060405180830381858888f1935050505015801562000a64573d6000803e3d6000fd5b50505050808062000a7590620026d0565b91505062000948565b5050565b600360009054906101000a900473ffffffffffffffffffffffffffffffffffffffff1673ffffffffffffffffffffffffffffffffffffffff163373ffffffffffffffffffffffffffffffffffffffff161462000add57600080fd5b600080600090505b60028054905081101562000b82578373ffffffffffffffffffffffffffffffffffffffff166002828154811062000b215762000b2062002645565b5b9060005260206000200160009054906101000a900473ffffffffffffffffffffffffffffffffffffffff1673ffffffffffffffffffffffffffffffffffffffff160362000b6c578391505b808062000b7990620026d0565b91505062000ae5565b508273ffffffffffffffffffffffffffffffffffffffff168173ffffffffffffffffffffffffffffffffffffffff160362000bf4576040517f08c379a000000000000000000000000000000000000000000000000000000000815260040162000beb906200286c565b60405180910390fd5b6002839080600181540180825580915050600190039060005260206000200160009091909190916101000a81548173ffffffffffffffffffffffffffffffffffffffff021916908373ffffffffffffffffffffffffffffffffffffffff1602179055506000600460008573ffffffffffffffffffffffffffffffffffffffff1673ffffffffffffffffffffffffffffffffffffffff16815260200190815260200160002060006101000a81548160ff021916908360ff16021790555081600560008573ffffffffffffffffffffffffffffffffffffffff1673ffffffffffffffffffffffffffffffffffffffff168152602001908152602001600020819055506001600360148282829054906101000a900460ff1662000d1591906200288e565b92506101000a81548160ff021916908360ff160217905550505050565b6000600160009054906101000a900473ffffffffffffffffffffffffffffffffffffffff1673ffffffffffffffffffffffffffffffffffffffff16635b588ac66040518163ffffffff1660e01b8152600401602060405180830381865afa15801562000da2573d6000803e3d6000fd5b505050506040513d601f19601f8201168201806040525081019062000dc89190620028e3565b905090565b600160009054906101000a900473ffffffffffffffffffffffffffffffffffffffff1673ffffffffffffffffffffffffffffffffffffffff16635cccb48e826040518263ffffffff1660e01b815260040162000e2a919062002111565b600060405180830381600087803b15801562000e4557600080fd5b505af115801562000e5a573d6000803e3d6000fd5b5050505050565b600360009054906101000a900473ffffffffffffffffffffffffffffffffffffffff1673ffffffffffffffffffffffffffffffffffffffff163373ffffffffffffffffffffffffffffffffffffffff161462000ebc57600080fd5b60028054905081511462000f07576040517f08c379a000000000000000000000000000000000000000000000000000000000815260040162000efe906200298b565b60405180910390fd5b600080600090505b825181101562000f5f5782818151811062000f2f5762000f2e62002645565b5b602002602001015160ff168262000f479190620029ad565b9150808062000f5690620026d0565b91505062000f0f565b506064811462000fa6576040517f08c379a000000000000000000000000000000000000000000000000000000000815260040162000f9d9062002a80565b60405180910390fd5b60005b82518110156200107f5782818151811062000fc95762000fc862002645565b5b6020026020010151600460006002848154811062000fec5762000feb62002645565b5b9060005260206000200160009054906101000a900473ffffffffffffffffffffffffffffffffffffffff1673ffffffffffffffffffffffffffffffffffffffff1673ffffffffffffffffffffffffffffffffffffffff16815260200190815260200160002060006101000a81548160ff021916908360ff16021790555080806200107690620026d0565b91505062000fa9565b505050565b60056020528060005260406000206000915090505481565b600360149054906101000a900460ff1681565b3073ffffffffffffffffffffffffffffffffffffffff16633b926cbf836040518263ffffffff1660e01b8152600401620010ea919062001ed5565b600060405180830381600087803b1580156200110557600080fd5b505af11580156200111a573d6000803e3d6000fd5b5050505060008054906101000a900473ffffffffffffffffffffffffffffffffffffffff1673ffffffffffffffffffffffffffffffffffffffff1663da304e4d836040518263ffffffff1660e01b815260040162001179919062001ed5565b600060405180830381600087803b1580156200119457600080fd5b505af1158015620011a9573d6000803e3d6000fd5b5050505060008060009054906101000a900473ffffffffffffffffffffffffffffffffffffffff1673ffffffffffffffffffffffffffffffffffffffff166319e5ad38846040518263ffffffff1660e01b81526004016200120b919062001ed5565b602060405180830381865afa15801562001229573d6000803e3d6000fd5b505050506040513d601f19601f820116820180604052508101906200124f919062002ab9565b905060008054906101000a900473ffffffffffffffffffffffffffffffffffffffff1673ffffffffffffffffffffffffffffffffffffffff1663af55de6c6040518163ffffffff1660e01b8152600401602060405180830381865afa158015620012bd573d6000803e3d6000fd5b505050506040513d601f19601f82011682018060405250810190620012e3919062002b30565b73ffffffffffffffffffffffffffffffffffffffff1663a9059cbb83836040518363ffffffff1660e01b81526004016200131f92919062002b62565b6020604051808303816000875af11580156200133f573d6000803e3d6000fd5b505050506040513d601f19601f8201168201806040525081019062001365919062002bcc565b50505050565b6000600160009054906101000a900473ffffffffffffffffffffffffffffffffffffffff1673ffffffffffffffffffffffffffffffffffffffff16639dffb367836040518263ffffffff1660e01b8152600401620013ca91906200239a565b602060405180830381865afa158015620013e8573d6000803e3d6000fd5b505050506040513d601f19601f820116820180604052508101906200140e919062002ab9565b9050919050565b600360009054906101000a900473ffffffffffffffffffffffffffffffffffffffff1673ffffffffffffffffffffffffffffffffffffffff163373ffffffffffffffffffffffffffffffffffffffff16146200147057600080fd5b60006200147c62000765565b67ffffffffffffffff811115620014985762001497620021a7565b5b604051908082528060200260200182016040528015620014c75781602001602082028036833780820191505090505b5090506000620014d662000765565b67ffffffffffffffff811115620014f257620014f1620021a7565b5b604051908082528060200260200182016040528015620015215781602001602082028036833780820191505090505b50905060005b6200153162000765565b811015620016aa57600460006002838154811062001554576200155362002645565b5b9060005260206000200160009054906101000a900473ffffffffffffffffffffffffffffffffffffffff1673ffffffffffffffffffffffffffffffffffffffff1673ffffffffffffffffffffffffffffffffffffffff16815260200190815260200160002060009054906101000a900460ff16838281518110620015dd57620015dc62002645565b5b602002602001019060ff16908160ff168152505060056000600283815481106200160c576200160b62002645565b5b9060005260206000200160009054906101000a900473ffffffffffffffffffffffffffffffffffffffff1673ffffffffffffffffffffffffffffffffffffffff1673ffffffffffffffffffffffffffffffffffffffff1681526020019081526020016000205482828151811062001688576200168762002645565b5b6020026020010181815250508080620016a190620026d0565b91505062001527565b5060006002905060006002600360149054906101000a900460ff1685858589604051620016d79062001e2b565b620016e89695949392919062002e08565b604051809103906000f08015801562001705573d6000803e3d6000fd5b50905080600160006101000a81548173ffffffffffffffffffffffffffffffffffffffff021916908373ffffffffffffffffffffffffffffffffffffffff1602179055505050505050565b600281815481106200176157600080fd5b906000526020600020016000915054906101000a900473ffffffffffffffffffffffffffffffffffffffff1681565b606060006200179e62000765565b67ffffffffffffffff811115620017ba57620017b9620021a7565b5b604051908082528060200260200182016040528015620017e95781602001602082028036833780820191505090505b50905060005b620017f962000765565b8110156200191657600660003373ffffffffffffffffffffffffffffffffffffffff1673ffffffffffffffffffffffffffffffffffffffff1681526020019081526020016000205460046000600284815481106200185c576200185b62002645565b5b9060005260206000200160009054906101000a900473ffffffffffffffffffffffffffffffffffffffff1673ffffffffffffffffffffffffffffffffffffffff1673ffffffffffffffffffffffffffffffffffffffff16815260200190815260200160002060009054906101000a900460ff1660ff16620018de919062002784565b828281518110620018f457620018f362002645565b5b60200260200101818152505080806200190d90620026d0565b915050620017ef565b508091505090565b600160009054906101000a900473ffffffffffffffffffffffffffffffffffffffff1673ffffffffffffffffffffffffffffffffffffffff1663d7ed7d2f826040518263ffffffff1660e01b81526004016200197b9190620024fa565b600060405180830381600087803b1580156200199657600080fd5b505af1158015620019ab573d6000803e3d6000fd5b5050505050565b60606000620019c062000765565b67ffffffffffffffff811115620019dc57620019db620021a7565b5b60405190808252806020026020018201604052801562001a0b5781602001602082028036833780820191505090505b50905060005b62001a1b62000765565b81101562001af95783600460006002848154811062001a3f5762001a3e62002645565b5b9060005260206000200160009054906101000a900473ffffffffffffffffffffffffffffffffffffffff1673ffffffffffffffffffffffffffffffffffffffff1673ffffffffffffffffffffffffffffffffffffffff16815260200190815260200160002060009054906101000a900460ff1660ff1662001ac1919062002784565b82828151811062001ad75762001ad662002645565b5b602002602001018181525050808062001af090620026d0565b91505062001a11565b5080915050919050565b60046020528060005260406000206000915054906101000a900460ff1681565b60066020528060005260406000206000915090505481565b6060600062001b4962000765565b67ffffffffffffffff81111562001b655762001b64620021a7565b5b60405190808252806020026020018201604052801562001b945781602001602082028036833780820191505090505b50905060005b62001ba462000765565b81101562001e235760008060009054906101000a900473ffffffffffffffffffffffffffffffffffffffff1673ffffffffffffffffffffffffffffffffffffffff1663d1014bee6002848154811062001c025762001c0162002645565b5b9060005260206000200160009054906101000a900473ffffffffffffffffffffffffffffffffffffffff166040518263ffffffff1660e01b815260040162001c4b91906200240f565b602060405180830381865afa15801562001c69573d6000803e3d6000fd5b505050506040513d601f19601f8201168201806040525081019062001c8f919062002ab9565b90508083838151811062001ca85762001ca762002645565b5b60200260200101818152505060008054906101000a900473ffffffffffffffffffffffffffffffffffffffff1673ffffffffffffffffffffffffffffffffffffffff1663af55de6c6040518163ffffffff1660e01b8152600401602060405180830381865afa15801562001d20573d6000803e3d6000fd5b505050506040513d601f19601f8201168201806040525081019062001d46919062002b30565b73ffffffffffffffffffffffffffffffffffffffff166323b872dd6002848154811062001d785762001d7762002645565b5b9060005260206000200160009054906101000a900473ffffffffffffffffffffffffffffffffffffffff1630846040518463ffffffff1660e01b815260040162001dc59392919062002e8a565b6020604051808303816000875af115801562001de5573d6000803e3d6000fd5b505050506040513d601f19601f8201168201806040525081019062001e0b919062002bcc565b5050808062001e1a90620026d0565b91505062001b9a565b508091505090565b612caf8062002ec883390190565b6000604051905090565b600080fd5b600080fd5b6000819050919050565b62001e628162001e4d565b811462001e6e57600080fd5b50565b60008135905062001e828162001e57565b92915050565b60006020828403121562001ea15762001ea062001e43565b5b600062001eb18482850162001e71565b91505092915050565b6000819050919050565b62001ecf8162001eba565b82525050565b600060208201905062001eec600083018462001ec4565b92915050565b600081519050919050565b600082825260208201905092915050565b6000819050602082019050919050565b62001f298162001e4d565b82525050565b600062001f3d838362001f1e565b60208301905092915050565b6000602082019050919050565b600062001f638262001ef2565b62001f6f818562001efd565b935062001f7c8362001f0e565b8060005b8381101562001fb357815162001f97888262001f2f565b975062001fa48362001f49565b92505060018101905062001f80565b5085935050505092915050565b6000602082019050818103600083015262001fdc818462001f56565b905092915050565b62001fef8162001eba565b811462001ffb57600080fd5b50565b6000813590506200200f8162001fe4565b92915050565b6000602082840312156200202e576200202d62001e43565b5b60006200203e8482850162001ffe565b91505092915050565b600073ffffffffffffffffffffffffffffffffffffffff82169050919050565b6000620020748262002047565b9050919050565b620020868162002067565b81146200209257600080fd5b50565b600081359050620020a6816200207b565b92915050565b60008060408385031215620020c657620020c562001e43565b5b6000620020d68582860162002095565b9250506020620020e98582860162001e71565b9150509250929050565b600060ff82169050919050565b6200210b81620020f3565b82525050565b600060208201905062002128600083018462002100565b92915050565b6200213981620020f3565b81146200214557600080fd5b50565b60008135905062002159816200212e565b92915050565b60006020828403121562002178576200217762001e43565b5b6000620021888482850162002148565b91505092915050565b600080fd5b6000601f19601f8301169050919050565b7f4e487b7100000000000000000000000000000000000000000000000000000000600052604160045260246000fd5b620021e18262002196565b810181811067ffffffffffffffff82111715620022035762002202620021a7565b5b80604052505050565b60006200221862001e39565b9050620022268282620021d6565b919050565b600067ffffffffffffffff821115620022495762002248620021a7565b5b602082029050602081019050919050565b600080fd5b60006200227662002270846200222b565b6200220c565b905080838252602082019050602084028301858111156200229c576200229b6200225a565b5b835b81811015620022c95780620022b4888262002148565b8452602084019350506020810190506200229e565b5050509392505050565b600082601f830112620022eb57620022ea62002191565b5b8135620022fd8482602086016200225f565b91505092915050565b6000602082840312156200231f576200231e62001e43565b5b600082013567ffffffffffffffff81111562002340576200233f62001e48565b5b6200234e84828501620022d3565b91505092915050565b60006020828403121562002370576200236f62001e43565b5b6000620023808482850162002095565b91505092915050565b620023948162001e4d565b82525050565b6000602082019050620023b1600083018462002389565b92915050565b60008060408385031215620023d157620023d062001e43565b5b6000620023e18582860162001ffe565b9250506020620023f48582860162002095565b9150509250929050565b620024098162002067565b82525050565b6000602082019050620024266000830184620023fe565b92915050565b600081519050919050565b600082825260208201905092915050565b6000819050602082019050919050565b620024638162001eba565b82525050565b600062002477838362002458565b60208301905092915050565b6000602082019050919050565b60006200249d826200242c565b620024a9818562002437565b9350620024b68362002448565b8060005b83811015620024ed578151620024d1888262002469565b9750620024de8362002483565b925050600181019050620024ba565b5085935050505092915050565b6000602082019050818103600083015262002516818462002490565b905092915050565b600067ffffffffffffffff8211156200253c576200253b620021a7565b5b602082029050602081019050919050565b6000620025646200255e846200251e565b6200220c565b905080838252602082019050602084028301858111156200258a57620025896200225a565b5b835b81811015620025b75780620025a2888262001ffe565b8452602084019350506020810190506200258c565b5050509392505050565b600082601f830112620025d957620025d862002191565b5b8135620025eb8482602086016200254d565b91505092915050565b6000602082840312156200260d576200260c62001e43565b5b600082013567ffffffffffffffff8111156200262e576200262d62001e48565b5b6200263c84828501620025c1565b91505092915050565b7f4e487b7100000000000000000000000000000000000000000000000000000000600052603260045260246000fd5b60006040820190506200268b6000830185620023fe565b6200269a602083018462002100565b9392505050565b7f4e487b7100000000000000000000000000000000000000000000000000000000600052601160045260246000fd5b6000620026dd8262001eba565b91507fffffffffffffffffffffffffffffffffffffffffffffffffffffffffffffffff8203620027125762002711620026a1565b5b600182019050919050565b7f4e487b7100000000000000000000000000000000000000000000000000000000600052601260045260246000fd5b60006200275982620020f3565b91506200276683620020f3565b9250826200277957620027786200271d565b5b828204905092915050565b6000620027918262001eba565b91506200279e8362001eba565b9250817fffffffffffffffffffffffffffffffffffffffffffffffffffffffffffffffff0483118215151615620027da57620027d9620026a1565b5b828202905092915050565b600082825260208201905092915050565b7f54686973206163636f756e742068617320616c7265616479206265656e20637260008201527f6561746564000000000000000000000000000000000000000000000000000000602082015250565b600062002854602583620027e5565b91506200286182620027f6565b604082019050919050565b60006020820190508181036000830152620028878162002845565b9050919050565b60006200289b82620020f3565b9150620028a883620020f3565b92508260ff03821115620028c157620028c0620026a1565b5b828201905092915050565b600081519050620028dd816200212e565b92915050565b600060208284031215620028fc57620028fb62001e43565b5b60006200290c84828501620028cc565b91505092915050565b7f4c656e677468206f6620696e70757420646966666572732066726f6d206e756d60008201527f626572206f66207375622d6163636f756e747300000000000000000000000000602082015250565b600062002973603383620027e5565b9150620029808262002915565b604082019050919050565b60006020820190508181036000830152620029a68162002964565b9050919050565b6000620029ba8262001eba565b9150620029c78362001eba565b9250827fffffffffffffffffffffffffffffffffffffffffffffffffffffffffffffffff03821115620029ff57620029fe620026a1565b5b828201905092915050565b7f596f75722070657263656e746167657320646f6573206e6f742061646420757060008201527f20746f2031303000000000000000000000000000000000000000000000000000602082015250565b600062002a68602783620027e5565b915062002a758262002a0a565b604082019050919050565b6000602082019050818103600083015262002a9b8162002a59565b9050919050565b60008151905062002ab38162001fe4565b92915050565b60006020828403121562002ad25762002ad162001e43565b5b600062002ae28482850162002aa2565b91505092915050565b600062002af88262002067565b9050919050565b62002b0a8162002aeb565b811462002b1657600080fd5b50565b60008151905062002b2a8162002aff565b92915050565b60006020828403121562002b495762002b4862001e43565b5b600062002b598482850162002b19565b91505092915050565b600060408201905062002b796000830185620023fe565b62002b88602083018462001ec4565b9392505050565b60008115159050919050565b62002ba68162002b8f565b811462002bb257600080fd5b50565b60008151905062002bc68162002b9b565b92915050565b60006020828403121562002be55762002be462001e43565b5b600062002bf58482850162002bb5565b91505092915050565b600081549050919050565b600082825260208201905092915050565b60008190508160005260206000209050919050565b62002c3a8162002067565b82525050565b600062002c4e838362002c2f565b60208301905092915050565b60008160001c9050919050565b600073ffffffffffffffffffffffffffffffffffffffff82169050919050565b600062002c9e62002c988362002c5a565b62002c67565b9050919050565b600062002cb3825462002c87565b9050919050565b6000600182019050919050565b600062002cd48262002bfe565b62002ce0818562002c09565b935062002ced8362002c1a565b8060005b8381101562002d2d5762002d058262002ca5565b62002d11888262002c40565b975062002d1e8362002cba565b92505060018101905062002cf1565b5085935050505092915050565b600081519050919050565b600082825260208201905092915050565b6000819050602082019050919050565b62002d7181620020f3565b82525050565b600062002d85838362002d66565b60208301905092915050565b6000602082019050919050565b600062002dab8262002d3a565b62002db7818562002d45565b935062002dc48362002d56565b8060005b8381101562002dfb57815162002ddf888262002d77565b975062002dec8362002d91565b92505060018101905062002dc8565b5085935050505092915050565b600060c082019050818103600083015262002e24818962002cc7565b905062002e35602083018862002100565b818103604083015262002e49818762002d9e565b9050818103606083015262002e5f818662001f56565b905062002e70608083018562002100565b62002e7f60a083018462002389565b979650505050505050565b600060608201905062002ea16000830186620023fe565b62002eb06020830185620023fe565b62002ebf604083018462001ec4565b94935050505056fe60806040523480156200001157600080fd5b5060405162002caf38038062002caf833981810160405281019062000037919062000726565b33600d60006101000a81548173ffffffffffffffffffffffffffffffffffffffff021916908373ffffffffffffffffffffffffffffffffffffffff16021790555084600160006101000a81548160ff021916908360ff1602179055508560009080519060200190620000ab92919062000265565b5081600a60006101000a81548160ff021916908360ff16021790555080600b8190555060005b600160009054906101000a900460ff1660ff1681101562000258578481815181106200010257620001016200081f565b5b6020026020010151600260008084815481106200012457620001236200081f565b5b9060005260206000200160009054906101000a900473ffffffffffffffffffffffffffffffffffffffff1673ffffffffffffffffffffffffffffffffffffffff1673ffffffffffffffffffffffffffffffffffffffff16815260200190815260200160002060006101000a81548160ff021916908360ff160217905550838181518110620001b757620001b66200081f565b5b602002602001015160036000808481548110620001d957620001d86200081f565b5b9060005260206000200160009054906101000a900473ffffffffffffffffffffffffffffffffffffffff1673ffffffffffffffffffffffffffffffffffffffff1673ffffffffffffffffffffffffffffffffffffffff1681526020019081526020016000208190555080806200024f9062000887565b915050620000d1565b50505050505050620008d4565b828054828255906000526020600020908101928215620002e1579160200282015b82811115620002e05782518260006101000a81548173ffffffffffffffffffffffffffffffffffffffff021916908373ffffffffffffffffffffffffffffffffffffffff1602179055509160200191906001019062000286565b5b509050620002f09190620002f4565b5090565b5b808211156200030f576000816000905550600101620002f5565b5090565b6000604051905090565b600080fd5b600080fd5b600080fd5b6000601f19601f8301169050919050565b7f4e487b7100000000000000000000000000000000000000000000000000000000600052604160045260246000fd5b62000377826200032c565b810181811067ffffffffffffffff821117156200039957620003986200033d565b5b80604052505050565b6000620003ae62000313565b9050620003bc82826200036c565b919050565b600067ffffffffffffffff821115620003df57620003de6200033d565b5b602082029050602081019050919050565b600080fd5b600073ffffffffffffffffffffffffffffffffffffffff82169050919050565b60006200042282620003f5565b9050919050565b620004348162000415565b81146200044057600080fd5b50565b600081519050620004548162000429565b92915050565b6000620004716200046b84620003c1565b620003a2565b90508083825260208201905060208402830185811115620004975762000496620003f0565b5b835b81811015620004c45780620004af888262000443565b84526020840193505060208101905062000499565b5050509392505050565b600082601f830112620004e657620004e562000327565b5b8151620004f88482602086016200045a565b91505092915050565b600060ff82169050919050565b620005198162000501565b81146200052557600080fd5b50565b60008151905062000539816200050e565b92915050565b600067ffffffffffffffff8211156200055d576200055c6200033d565b5b602082029050602081019050919050565b6000620005856200057f846200053f565b620003a2565b90508083825260208201905060208402830185811115620005ab57620005aa620003f0565b5b835b81811015620005d85780620005c3888262000528565b845260208401935050602081019050620005ad565b5050509392505050565b600082601f830112620005fa57620005f962000327565b5b81516200060c8482602086016200056e565b91505092915050565b600067ffffffffffffffff8211156200063357620006326200033d565b5b602082029050602081019050919050565b6000819050919050565b620006598162000644565b81146200066557600080fd5b50565b60008151905062000679816200064e565b92915050565b600062000696620006908462000615565b620003a2565b90508083825260208201905060208402830185811115620006bc57620006bb620003f0565b5b835b81811015620006e95780620006d4888262000668565b845260208401935050602081019050620006be565b5050509392505050565b600082601f8301126200070b576200070a62000327565b5b81516200071d8482602086016200067f565b91505092915050565b60008060008060008060c087890312156200074657620007456200031d565b5b600087015167ffffffffffffffff81111562000767576200076662000322565b5b6200077589828a01620004ce565b96505060206200078889828a0162000528565b955050604087015167ffffffffffffffff811115620007ac57620007ab62000322565b5b620007ba89828a01620005e2565b945050606087015167ffffffffffffffff811115620007de57620007dd62000322565b5b620007ec89828a01620006f3565b9350506080620007ff89828a0162000528565b92505060a06200081289828a0162000668565b9150509295509295509295565b7f4e487b7100000000000000000000000000000000000000000000000000000000600052603260045260246000fd5b7f4e487b7100000000000000000000000000000000000000000000000000000000600052601160045260246000fd5b6000819050919050565b600062000894826200087d565b91507fffffffffffffffffffffffffffffffffffffffffffffffffffffffffffffffff8203620008c957620008c86200084e565b5b600182019050919050565b6123cb80620008e46000396000f3fe6080604052600436106100a75760003560e01c806378ad2c2f1161006457806378ad2c2f146101995780639dffb367146101c4578063ca5b7c2e14610201578063d7ed7d2f1461023e578063d8270dce14610267578063fa6b9a2514610292576100a7565b8063021a3b22146100ac5780633a8658e4146100c85780635b588ac6146100f15780635cccb48e1461011c57806371aac7f9146101455780637603cd7a1461015c575b600080fd5b6100c660048036038101906100c19190611c79565b6102cf565b005b3480156100d457600080fd5b506100ef60048036038101906100ea9190611c79565b610c36565b005b3480156100fd57600080fd5b50610106611718565b6040516101139190611cc2565b60405180910390f35b34801561012857600080fd5b50610143600480360381019061013e9190611d09565b61172f565b005b34801561015157600080fd5b5061015a611884565b005b34801561016857600080fd5b50610183600480360381019061017e9190611d94565b6118e0565b6040516101909190611dd0565b60405180910390f35b3480156101a557600080fd5b506101ae6118f8565b6040516101bb9190611cc2565b60405180910390f35b3480156101d057600080fd5b506101eb60048036038101906101e69190611c79565b61190b565b6040516101f89190611e04565b60405180910390f35b34801561020d57600080fd5b5061022860048036038101906102239190611e4b565b611a4c565b6040516102359190611e87565b60405180910390f35b34801561024a57600080fd5b5061026560048036038101906102609190611ffb565b611a8b565b005b34801561027357600080fd5b5061027c611c09565b6040516102899190611e04565b60405180910390f35b34801561029e57600080fd5b506102b960048036038101906102b49190611d94565b611c0f565b6040516102c69190611cc2565b60405180910390f35b60005b600160009054906101000a900460ff1660ff168110156106045760006002811115610300576102ff612044565b5b6006600080848154811061031757610316612073565b5b9060005260206000200160009054906101000a900473ffffffffffffffffffffffffffffffffffffffff1673ffffffffffffffffffffffffffffffffffffffff1673ffffffffffffffffffffffffffffffffffffffff16815260200190815260200160002060009054906101000a900460ff16600281111561039c5761039b612044565b5b1480156103b9575062093a80600c546103b591906120d1565b4210155b156105f1576002600660008084815481106103d7576103d6612073565b5b9060005260206000200160009054906101000a900473ffffffffffffffffffffffffffffffffffffffff1673ffffffffffffffffffffffffffffffffffffffff1673ffffffffffffffffffffffffffffffffffffffff16815260200190815260200160002060006101000a81548160ff0219169083600281111561045e5761045d612044565b5b02179055507fe98097b6040eb0966e73fd39adf87f8715de85b3f660e6a7009ba2469d4fd86d6000828154811061049857610497612073565b5b9060005260206000200160009054906101000a900473ffffffffffffffffffffffffffffffffffffffff16600460008085815481106104da576104d9612073565b5b9060005260206000200160009054906101000a900473ffffffffffffffffffffffffffffffffffffffff1673ffffffffffffffffffffffffffffffffffffffff1673ffffffffffffffffffffffffffffffffffffffff168152602001908152602001600020546003600080868154811061055757610556612073565b5b9060005260206000200160009054906101000a900473ffffffffffffffffffffffffffffffffffffffff1673ffffffffffffffffffffffffffffffffffffffff1673ffffffffffffffffffffffffffffffffffffffff168152602001908152602001600020546040516105cc93929190612127565b60405180910390a16003600a60006101000a81548160ff021916908360ff1602179055505b80806105fc9061215e565b9150506102d2565b50600080600090505b600160009054906101000a900460ff1660ff168110156106ff57826003600080848154811061063f5761063e612073565b5b9060005260206000200160009054906101000a900473ffffffffffffffffffffffffffffffffffffffff1673ffffffffffffffffffffffffffffffffffffffff1673ffffffffffffffffffffffffffffffffffffffff16815260200190815260200160002054036106ec57600081815481106106be576106bd612073565b5b9060005260206000200160009054906101000a900473ffffffffffffffffffffffffffffffffffffffff1691505b80806106f79061215e565b91505061060d565b506000600281111561071457610713612044565b5b600660008373ffffffffffffffffffffffffffffffffffffffff1673ffffffffffffffffffffffffffffffffffffffff16815260200190815260200160002060009054906101000a900460ff16600281111561077357610772612044565b5b146107b3576040517f08c379a00000000000000000000000000000000000000000000000000000000081526004016107aa90612229565b60405180910390fd5b6000600460008373ffffffffffffffffffffffffffffffffffffffff1673ffffffffffffffffffffffffffffffffffffffff1681526020019081526020016000205490506000811461081257348161080b91906120d1565b9050610816565b3490505b80600460008473ffffffffffffffffffffffffffffffffffffffff1673ffffffffffffffffffffffffffffffffffffffff16815260200190815260200160002081905550600560008373ffffffffffffffffffffffffffffffffffffffff1673ffffffffffffffffffffffffffffffffffffffff168152602001908152602001600020548110610944576001600660008473ffffffffffffffffffffffffffffffffffffffff1673ffffffffffffffffffffffffffffffffffffffff16815260200190815260200160002060006101000a81548160ff0219169083600281111561090357610902612044565b5b02179055507f84ce75384538250d1691d23fcf41bb86189a077b16f707a9abf1d1c3e1285aa382828560405161093b93929190612127565b60405180910390a15b60011515600860008473ffffffffffffffffffffffffffffffffffffffff1673ffffffffffffffffffffffffffffffffffffffff16815260200190815260200160002060003373ffffffffffffffffffffffffffffffffffffffff1673ffffffffffffffffffffffffffffffffffffffff16815260200190815260200160002060009054906101000a900460ff16151514610b0f576001600860008473ffffffffffffffffffffffffffffffffffffffff1673ffffffffffffffffffffffffffffffffffffffff16815260200190815260200160002060003373ffffffffffffffffffffffffffffffffffffffff1673ffffffffffffffffffffffffffffffffffffffff16815260200190815260200160002060006101000a81548160ff021916908315150217905550600960008373ffffffffffffffffffffffffffffffffffffffff1673ffffffffffffffffffffffffffffffffffffffff168152602001908152602001600020339080600181540180825580915050600190039060005260206000200160009091909190916101000a81548173ffffffffffffffffffffffffffffffffffffffff021916908373ffffffffffffffffffffffffffffffffffffffff1602179055505b6000600760008473ffffffffffffffffffffffffffffffffffffffff1673ffffffffffffffffffffffffffffffffffffffff16815260200190815260200160002060003373ffffffffffffffffffffffffffffffffffffffff1673ffffffffffffffffffffffffffffffffffffffff16815260200190815260200160002054905060008114610bab573481610ba491906120d1565b9050610baf565b3490505b80600760008573ffffffffffffffffffffffffffffffffffffffff1673ffffffffffffffffffffffffffffffffffffffff16815260200190815260200160002060003373ffffffffffffffffffffffffffffffffffffffff1673ffffffffffffffffffffffffffffffffffffffff1681526020019081526020016000208190555050505050565b60005b600160009054906101000a900460ff1660ff16811015610f6b5760006002811115610c6757610c66612044565b5b60066000808481548110610c7e57610c7d612073565b5b9060005260206000200160009054906101000a900473ffffffffffffffffffffffffffffffffffffffff1673ffffffffffffffffffffffffffffffffffffffff1673ffffffffffffffffffffffffffffffffffffffff16815260200190815260200160002060009054906101000a900460ff166002811115610d0357610d02612044565b5b148015610d20575062093a80600c54610d1c91906120d1565b4210155b15610f5857600260066000808481548110610d3e57610d3d612073565b5b9060005260206000200160009054906101000a900473ffffffffffffffffffffffffffffffffffffffff1673ffffffffffffffffffffffffffffffffffffffff1673ffffffffffffffffffffffffffffffffffffffff16815260200190815260200160002060006101000a81548160ff02191690836002811115610dc557610dc4612044565b5b02179055507fe98097b6040eb0966e73fd39adf87f8715de85b3f660e6a7009ba2469d4fd86d60008281548110610dff57610dfe612073565b5b9060005260206000200160009054906101000a900473ffffffffffffffffffffffffffffffffffffffff1660046000808581548110610e4157610e40612073565b5b9060005260206000200160009054906101000a900473ffffffffffffffffffffffffffffffffffffffff1673ffffffffffffffffffffffffffffffffffffffff1673ffffffffffffffffffffffffffffffffffffffff1681526020019081526020016000205460036000808681548110610ebe57610ebd612073565b5b9060005260206000200160009054906101000a900473ffffffffffffffffffffffffffffffffffffffff1673ffffffffffffffffffffffffffffffffffffffff1673ffffffffffffffffffffffffffffffffffffffff16815260200190815260200160002054604051610f3393929190612127565b60405180910390a16003600a60006101000a81548160ff021916908360ff1602179055505b8080610f639061215e565b915050610c39565b50600d60009054906101000a900473ffffffffffffffffffffffffffffffffffffffff1673ffffffffffffffffffffffffffffffffffffffff163373ffffffffffffffffffffffffffffffffffffffff1614610fc657600080fd5b600080600090505b600160009054906101000a900460ff1660ff168110156110c057826003600080848154811061100057610fff612073565b5b9060005260206000200160009054906101000a900473ffffffffffffffffffffffffffffffffffffffff1673ffffffffffffffffffffffffffffffffffffffff1673ffffffffffffffffffffffffffffffffffffffff16815260200190815260200160002054036110ad576000818154811061107f5761107e612073565b5b9060005260206000200160009054906101000a900473ffffffffffffffffffffffffffffffffffffffff1691505b80806110b89061215e565b915050610fce565b50600160028111156110d5576110d4612044565b5b600660008373ffffffffffffffffffffffffffffffffffffffff1673ffffffffffffffffffffffffffffffffffffffff16815260200190815260200160002060009054906101000a900460ff16600281111561113457611133612044565b5b036111d0576000600460008373ffffffffffffffffffffffffffffffffffffffff1673ffffffffffffffffffffffffffffffffffffffff16815260200190815260200160002054905060008290508073ffffffffffffffffffffffffffffffffffffffff166108fc839081150290604051600060405180830381858888f193505050501580156111c8573d6000803e3d6000fd5b505050611714565b6002808111156111e3576111e2612044565b5b600660008373ffffffffffffffffffffffffffffffffffffffff1673ffffffffffffffffffffffffffffffffffffffff16815260200190815260200160002060009054906101000a900460ff16600281111561124257611241612044565b5b0361166d576000600460008373ffffffffffffffffffffffffffffffffffffffff1673ffffffffffffffffffffffffffffffffffffffff16815260200190815260200160002054905060008114611667576000600a60009054906101000a900460ff1660ff1603611424576000600460008473ffffffffffffffffffffffffffffffffffffffff1673ffffffffffffffffffffffffffffffffffffffff16815260200190815260200160002054905060005b600160009054906101000a900460ff1660ff1681101561141d57600080828154811061132357611322612073565b5b9060005260206000200160009054906101000a900473ffffffffffffffffffffffffffffffffffffffff1690506000600260008373ffffffffffffffffffffffffffffffffffffffff1673ffffffffffffffffffffffffffffffffffffffff16815260200190815260200160002060009054906101000a900460ff16905060008290508073ffffffffffffffffffffffffffffffffffffffff166108fc866064856113ce9190612278565b60ff166113db91906122a9565b9081150290604051600060405180830381858888f19350505050158015611406573d6000803e3d6000fd5b5050505080806114159061215e565b9150506112f4565b5050611666565b6001600a60009054906101000a900460ff1660ff16036116655760005b600960008473ffffffffffffffffffffffffffffffffffffffff1673ffffffffffffffffffffffffffffffffffffffff16815260200190815260200160002080549050811015611663576000600760008573ffffffffffffffffffffffffffffffffffffffff1673ffffffffffffffffffffffffffffffffffffffff1681526020019081526020016000206000600960008773ffffffffffffffffffffffffffffffffffffffff1673ffffffffffffffffffffffffffffffffffffffff168152602001908152602001600020848154811061151f5761151e612073565b5b9060005260206000200160009054906101000a900473ffffffffffffffffffffffffffffffffffffffff1673ffffffffffffffffffffffffffffffffffffffff1673ffffffffffffffffffffffffffffffffffffffff1681526020019081526020016000205490506000600960008673ffffffffffffffffffffffffffffffffffffffff1673ffffffffffffffffffffffffffffffffffffffff16815260200190815260200160002083815481106115da576115d9612073565b5b9060005260206000200160009054906101000a900473ffffffffffffffffffffffffffffffffffffffff1690508073ffffffffffffffffffffffffffffffffffffffff166108fc839081150290604051600060405180830381858888f1935050505015801561164d573d6000803e3d6000fd5b505050808061165b9061215e565b915050611441565b505b5b5b50611713565b6000600281111561168157611680612044565b5b600660008373ffffffffffffffffffffffffffffffffffffffff1673ffffffffffffffffffffffffffffffffffffffff16815260200190815260200160002060009054906101000a900460ff1660028111156116e0576116df612044565b5b03611712577f64d12556a85cdd58f632c188b5b6bdb51b11dff496b036e63e193315cbc6019f60405160405180910390a15b5b5b5050565b6000600a60009054906101000a900460ff16905090565b600d60009054906101000a900473ffffffffffffffffffffffffffffffffffffffff1673ffffffffffffffffffffffffffffffffffffffff163373ffffffffffffffffffffffffffffffffffffffff161461178957600080fd5b60005b600160009054906101000a900460ff1660ff1681101561185e576000600660008084815481106117bf576117be612073565b5b9060005260206000200160009054906101000a900473ffffffffffffffffffffffffffffffffffffffff1673ffffffffffffffffffffffffffffffffffffffff1673ffffffffffffffffffffffffffffffffffffffff16815260200190815260200160002060006101000a81548160ff0219169083600281111561184657611845612044565b5b021790555080806118569061215e565b91505061178c565b5042600c8190555080600a60006101000a81548160ff021916908360ff16021790555050565b600d60009054906101000a900473ffffffffffffffffffffffffffffffffffffffff1673ffffffffffffffffffffffffffffffffffffffff163373ffffffffffffffffffffffffffffffffffffffff16146118de57600080fd5b565b60036020528060005260406000206000915090505481565b600160009054906101000a900460ff1681565b60008060005b600160009054906101000a900460ff1660ff16811015611a0357836003600080848154811061194357611942612073565b5b9060005260206000200160009054906101000a900473ffffffffffffffffffffffffffffffffffffffff1673ffffffffffffffffffffffffffffffffffffffff1673ffffffffffffffffffffffffffffffffffffffff16815260200190815260200160002054036119f057600081815481106119c2576119c1612073565b5b9060005260206000200160009054906101000a900473ffffffffffffffffffffffffffffffffffffffff1691505b80806119fb9061215e565b915050611911565b50600460008273ffffffffffffffffffffffffffffffffffffffff1673ffffffffffffffffffffffffffffffffffffffff16815260200190815260200160002054915050919050565b60008181548110611a5c57600080fd5b906000526020600020016000915054906101000a900473ffffffffffffffffffffffffffffffffffffffff1681565b600d60009054906101000a900473ffffffffffffffffffffffffffffffffffffffff1673ffffffffffffffffffffffffffffffffffffffff163373ffffffffffffffffffffffffffffffffffffffff1614611ae557600080fd5b600160009054906101000a900460ff1660ff16815114611b3a576040517f08c379a0000000000000000000000000000000000000000000000000000000008152600401611b3190612375565b60405180910390fd5b60005b600160009054906101000a900460ff1660ff16811015611c0557818181518110611b6a57611b69612073565b5b602002602001015160056000808481548110611b8957611b88612073565b5b9060005260206000200160009054906101000a900473ffffffffffffffffffffffffffffffffffffffff1673ffffffffffffffffffffffffffffffffffffffff1673ffffffffffffffffffffffffffffffffffffffff168152602001908152602001600020819055508080611bfd9061215e565b915050611b3d565b5050565b600c5481565b60026020528060005260406000206000915054906101000a900460ff1681565b6000604051905090565b600080fd5b600080fd5b6000819050919050565b611c5681611c43565b8114611c6157600080fd5b50565b600081359050611c7381611c4d565b92915050565b600060208284031215611c8f57611c8e611c39565b5b6000611c9d84828501611c64565b91505092915050565b600060ff82169050919050565b611cbc81611ca6565b82525050565b6000602082019050611cd76000830184611cb3565b92915050565b611ce681611ca6565b8114611cf157600080fd5b50565b600081359050611d0381611cdd565b92915050565b600060208284031215611d1f57611d1e611c39565b5b6000611d2d84828501611cf4565b91505092915050565b600073ffffffffffffffffffffffffffffffffffffffff82169050919050565b6000611d6182611d36565b9050919050565b611d7181611d56565b8114611d7c57600080fd5b50565b600081359050611d8e81611d68565b92915050565b600060208284031215611daa57611da9611c39565b5b6000611db884828501611d7f565b91505092915050565b611dca81611c43565b82525050565b6000602082019050611de56000830184611dc1565b92915050565b6000819050919050565b611dfe81611deb565b82525050565b6000602082019050611e196000830184611df5565b92915050565b611e2881611deb565b8114611e3357600080fd5b50565b600081359050611e4581611e1f565b92915050565b600060208284031215611e6157611e60611c39565b5b6000611e6f84828501611e36565b91505092915050565b611e8181611d56565b82525050565b6000602082019050611e9c6000830184611e78565b92915050565b600080fd5b6000601f19601f8301169050919050565b7f4e487b7100000000000000000000000000000000000000000000000000000000600052604160045260246000fd5b611ef082611ea7565b810181811067ffffffffffffffff82111715611f0f57611f0e611eb8565b5b80604052505050565b6000611f22611c2f565b9050611f2e8282611ee7565b919050565b600067ffffffffffffffff821115611f4e57611f4d611eb8565b5b602082029050602081019050919050565b600080fd5b6000611f77611f7284611f33565b611f18565b90508083825260208201905060208402830185811115611f9a57611f99611f5f565b5b835b81811015611fc35780611faf8882611e36565b845260208401935050602081019050611f9c565b5050509392505050565b600082601f830112611fe257611fe1611ea2565b5b8135611ff2848260208601611f64565b91505092915050565b60006020828403121561201157612010611c39565b5b600082013567ffffffffffffffff81111561202f5761202e611c3e565b5b61203b84828501611fcd565b91505092915050565b7f4e487b7100000000000000000000000000000000000000000000000000000000600052602160045260246000fd5b7f4e487b7100000000000000000000000000000000000000000000000000000000600052603260045260246000fd5b7f4e487b7100000000000000000000000000000000000000000000000000000000600052601160045260246000fd5b60006120dc82611deb565b91506120e783611deb565b9250827fffffffffffffffffffffffffffffffffffffffffffffffffffffffffffffffff0382111561211c5761211b6120a2565b5b828201905092915050565b600060608201905061213c6000830186611e78565b6121496020830185611df5565b6121566040830184611dc1565b949350505050565b600061216982611deb565b91507fffffffffffffffffffffffffffffffffffffffffffffffffffffffffffffffff820361219b5761219a6120a2565b5b600182019050919050565b600082825260208201905092915050565b7f5468652063616d706169676e20686173206569746865722066696e697368656460008201527f206f7220686173206265656e2066756c66696c6c65642e000000000000000000602082015250565b60006122136037836121a6565b915061221e826121b7565b604082019050919050565b6000602082019050818103600083015261224281612206565b9050919050565b7f4e487b7100000000000000000000000000000000000000000000000000000000600052601260045260246000fd5b600061228382611ca6565b915061228e83611ca6565b92508261229e5761229d612249565b5b828204905092915050565b60006122b482611deb565b91506122bf83611deb565b9250817fffffffffffffffffffffffffffffffffffffffffffffffffffffffffffffffff04831182151516156122f8576122f76120a2565b5b828202905092915050565b7f596f75206e65656420746f20637265617465206120676f616c20666f7220656160008201527f6368207375622d6163636f756e74210000000000000000000000000000000000602082015250565b600061235f602f836121a6565b915061236a82612303565b604082019050919050565b6000602082019050818103600083015261238e81612352565b905091905056fea2646970667358221220168a4abee3b243edcce4d70ab326e13b6ded0fc298da533bec0962f0bdaa817d64736f6c634300080d0033a2646970667358221220fb200b5978737f265bcb420bf98d69ea866ab915a1c5aba357c87d4324fc6d2d64736f6c634300080d0033608060405234801561001057600080fd5b50600060405161001f906100cf565b604051809103906000f08015801561003b573d6000803e3d6000fd5b509050806000806101000a81548173ffffffffffffffffffffffffffffffffffffffff021916908373ffffffffffffffffffffffffffffffffffffffff16021790555033600360006101000a81548173ffffffffffffffffffffffffffffffffffffffff021916908373ffffffffffffffffffffffffffffffffffffffff160217905550620186a0600181905550506100dc565b6115228061097183390190565b610886806100eb6000396000f3fe60806040526004361061004a5760003560e01c806319e5ad381461004f5780636cba62901461008c578063af55de6c146100b7578063d1014bee146100e2578063da304e4d1461011f575b600080fd5b34801561005b57600080fd5b5061007660048036038101906100719190610498565b61013b565b60405161008391906104d4565b60405180910390f35b34801561009857600080fd5b506100a1610157565b6040516100ae91906104d4565b60405180910390f35b3480156100c357600080fd5b506100cc6101f9565b6040516100d9919061056e565b60405180910390f35b3480156100ee57600080fd5b50610109600480360381019061010491906105c7565b610222565b60405161011691906104d4565b60405180910390f35b61013960048036038101906101349190610498565b6102c6565b005b6000662386f26fc10000826101509190610652565b9050919050565b60008060009054906101000a900473ffffffffffffffffffffffffffffffffffffffff1673ffffffffffffffffffffffffffffffffffffffff166370a08231336040518263ffffffff1660e01b81526004016101b39190610692565b602060405180830381865afa1580156101d0573d6000803e3d6000fd5b505050506040513d601f19601f820116820180604052508101906101f491906106c2565b905090565b60008060009054906101000a900473ffffffffffffffffffffffffffffffffffffffff16905090565b60008060009054906101000a900473ffffffffffffffffffffffffffffffffffffffff1673ffffffffffffffffffffffffffffffffffffffff166370a08231836040518263ffffffff1660e01b815260040161027e9190610692565b602060405180830381865afa15801561029b573d6000803e3d6000fd5b505050506040513d601f19601f820116820180604052508101906102bf91906106c2565b9050919050565b6000662386f26fc10000826102db9190610652565b90506001548160008054906101000a900473ffffffffffffffffffffffffffffffffffffffff1673ffffffffffffffffffffffffffffffffffffffff166318160ddd6040518163ffffffff1660e01b8152600401602060405180830381865afa15801561034c573d6000803e3d6000fd5b505050506040513d601f19601f8201168201806040525081019061037091906106c2565b61037a91906106ef565b106103ba576040517f08c379a00000000000000000000000000000000000000000000000000000000081526004016103b1906107a2565b60405180910390fd5b60008054906101000a900473ffffffffffffffffffffffffffffffffffffffff1673ffffffffffffffffffffffffffffffffffffffff166340c10f1933836040518363ffffffff1660e01b81526004016104159291906107c2565b6020604051808303816000875af1158015610434573d6000803e3d6000fd5b505050506040513d601f19601f820116820180604052508101906104589190610823565b505050565b600080fd5b6000819050919050565b61047581610462565b811461048057600080fd5b50565b6000813590506104928161046c565b92915050565b6000602082840312156104ae576104ad61045d565b5b60006104bc84828501610483565b91505092915050565b6104ce81610462565b82525050565b60006020820190506104e960008301846104c5565b92915050565b600073ffffffffffffffffffffffffffffffffffffffff82169050919050565b6000819050919050565b600061053461052f61052a846104ef565b61050f565b6104ef565b9050919050565b600061054682610519565b9050919050565b60006105588261053b565b9050919050565b6105688161054d565b82525050565b6000602082019050610583600083018461055f565b92915050565b6000610594826104ef565b9050919050565b6105a481610589565b81146105af57600080fd5b50565b6000813590506105c18161059b565b92915050565b6000602082840312156105dd576105dc61045d565b5b60006105eb848285016105b2565b91505092915050565b7f4e487b7100000000000000000000000000000000000000000000000000000000600052601260045260246000fd5b7f4e487b7100000000000000000000000000000000000000000000000000000000600052601160045260246000fd5b600061065d82610462565b915061066883610462565b925082610678576106776105f4565b5b828204905092915050565b61068c81610589565b82525050565b60006020820190506106a76000830184610683565b92915050565b6000815190506106bc8161046c565b92915050565b6000602082840312156106d8576106d761045d565b5b60006106e6848285016106ad565b91505092915050565b60006106fa82610462565b915061070583610462565b9250827fffffffffffffffffffffffffffffffffffffffffffffffffffffffffffffffff0382111561073a57610739610623565b5b828201905092915050565b600082825260208201905092915050565b7f435420737570706c79206973206e6f7420656e6f756768210000000000000000600082015250565b600061078c601883610745565b915061079782610756565b602082019050919050565b600060208201905081810360008301526107bb8161077f565b9050919050565b60006040820190506107d76000830185610683565b6107e460208301846104c5565b9392505050565b60008115159050919050565b610800816107eb565b811461080b57600080fd5b50565b60008151905061081d816107f7565b92915050565b6000602082840312156108395761083861045d565b5b60006108478482850161080e565b9150509291505056fea264697066735822122063caf944aebf0dde4a7574ae9dd344d10aa8ab2143da7d1cdf8b0c384fc2760664736f6c634300080d0033608060405260008060006101000a81548160ff02191690831515021790555033600060016101000a81548173ffffffffffffffffffffffffffffffffffffffff021916908373ffffffffffffffffffffffffffffffffffffffff16021790555034801561006b57600080fd5b506114a78061007b6000396000f3fe608060405234801561001057600080fd5b50600436106100ea5760003560e01c806370a082311161008c5780638da5cb5b116100665780638da5cb5b1461026357806395d89b4114610281578063a9059cbb1461029f578063dd62ed3e146102cf576100ea565b806370a08231146101f75780637d64bcb414610227578063893d20e814610245576100ea565b806318160ddd116100c857806318160ddd1461015b57806323b872dd14610179578063313ce567146101a957806340c10f19146101c7576100ea565b806305d2035b146100ef57806306fdde031461010d578063095ea7b31461012b575b600080fd5b6100f76102ff565b6040516101049190610f25565b60405180910390f35b610115610310565b6040516101229190610fd9565b60405180910390f35b61014560048036038101906101409190611094565b610349565b6040516101529190610f25565b60405180910390f35b61016361043b565b60405161017091906110e3565b60405180910390f35b610193600480360381019061018e91906110fe565b610445565b6040516101a09190610f25565b60405180910390f35b6101b1610869565b6040516101be919061116d565b60405180910390f35b6101e160048036038101906101dc9190611094565b61086e565b6040516101ee9190610f25565b60405180910390f35b610211600480360381019061020c9190611188565b610a4f565b60405161021e91906110e3565b60405180910390f35b61022f610a98565b60405161023c9190610f25565b60405180910390f35b61024d610b58565b60405161025a91906111c4565b60405180910390f35b61026b610b81565b60405161027891906111c4565b60405180910390f35b610289610ba7565b6040516102969190610fd9565b60405180910390f35b6102b960048036038101906102b49190611094565b610be0565b6040516102c69190610f25565b60405180910390f35b6102e960048036038101906102e491906111df565b610e35565b6040516102f691906110e3565b60405180910390f35b60008054906101000a900460ff1681565b6040518060400160405280600981526020017f44696365546f6b656e000000000000000000000000000000000000000000000081525081565b600081600160003373ffffffffffffffffffffffffffffffffffffffff1673ffffffffffffffffffffffffffffffffffffffff16815260200190815260200160002060008573ffffffffffffffffffffffffffffffffffffffff1673ffffffffffffffffffffffffffffffffffffffff168152602001908152602001600020819055508273ffffffffffffffffffffffffffffffffffffffff163373ffffffffffffffffffffffffffffffffffffffff167f8c5be1e5ebec7d5bd14f71427d1e84f3dd0314c0f7b2291e5b200ac8c7c3b9258460405161042991906110e3565b60405180910390a36001905092915050565b6000600354905090565b60008073ffffffffffffffffffffffffffffffffffffffff168373ffffffffffffffffffffffffffffffffffffffff160361047f57600080fd5b600260008573ffffffffffffffffffffffffffffffffffffffff1673ffffffffffffffffffffffffffffffffffffffff16815260200190815260200160002054821115610501576040517f08c379a00000000000000000000000000000000000000000000000000000000081526004016104f89061126b565b60405180910390fd5b600160008573ffffffffffffffffffffffffffffffffffffffff1673ffffffffffffffffffffffffffffffffffffffff16815260200190815260200160002060003273ffffffffffffffffffffffffffffffffffffffff1673ffffffffffffffffffffffffffffffffffffffff168152602001908152602001600020548211156105c0576040517f08c379a00000000000000000000000000000000000000000000000000000000081526004016105b7906112d7565b60405180910390fd5b61061282600260008773ffffffffffffffffffffffffffffffffffffffff1673ffffffffffffffffffffffffffffffffffffffff16815260200190815260200160002054610ebc90919063ffffffff16565b600260008673ffffffffffffffffffffffffffffffffffffffff1673ffffffffffffffffffffffffffffffffffffffff168152602001908152602001600020819055506106a782600260008673ffffffffffffffffffffffffffffffffffffffff1673ffffffffffffffffffffffffffffffffffffffff16815260200190815260200160002054610ee390919063ffffffff16565b600260008573ffffffffffffffffffffffffffffffffffffffff1673ffffffffffffffffffffffffffffffffffffffff1681526020019081526020016000208190555061077982600160008773ffffffffffffffffffffffffffffffffffffffff1673ffffffffffffffffffffffffffffffffffffffff16815260200190815260200160002060003273ffffffffffffffffffffffffffffffffffffffff1673ffffffffffffffffffffffffffffffffffffffff16815260200190815260200160002054610ebc90919063ffffffff16565b600160008673ffffffffffffffffffffffffffffffffffffffff1673ffffffffffffffffffffffffffffffffffffffff16815260200190815260200160002060003273ffffffffffffffffffffffffffffffffffffffff1673ffffffffffffffffffffffffffffffffffffffff168152602001908152602001600020819055508273ffffffffffffffffffffffffffffffffffffffff168473ffffffffffffffffffffffffffffffffffffffff167fddf252ad1be2c89b69c2b068fc378daa952ba7f163c4a11628f55a4df523b3ef8460405161085691906110e3565b60405180910390a3600190509392505050565b601281565b60008060019054906101000a900473ffffffffffffffffffffffffffffffffffffffff1673ffffffffffffffffffffffffffffffffffffffff163373ffffffffffffffffffffffffffffffffffffffff16146108c957600080fd5b60008054906101000a900460ff16156108e157600080fd5b6108f682600354610ee390919063ffffffff16565b60038190555061094e82600260008673ffffffffffffffffffffffffffffffffffffffff1673ffffffffffffffffffffffffffffffffffffffff16815260200190815260200160002054610ee390919063ffffffff16565b600260008573ffffffffffffffffffffffffffffffffffffffff1673ffffffffffffffffffffffffffffffffffffffff168152602001908152602001600020819055508273ffffffffffffffffffffffffffffffffffffffff167f0f6798a560793a54c3bcfe86a93cde1e73087d944c0ea20544137d4121396885836040516109d791906110e3565b60405180910390a28273ffffffffffffffffffffffffffffffffffffffff16600073ffffffffffffffffffffffffffffffffffffffff167fddf252ad1be2c89b69c2b068fc378daa952ba7f163c4a11628f55a4df523b3ef84604051610a3d91906110e3565b60405180910390a36001905092915050565b6000600260008373ffffffffffffffffffffffffffffffffffffffff1673ffffffffffffffffffffffffffffffffffffffff168152602001908152602001600020549050919050565b60008060019054906101000a900473ffffffffffffffffffffffffffffffffffffffff1673ffffffffffffffffffffffffffffffffffffffff163373ffffffffffffffffffffffffffffffffffffffff1614610af357600080fd5b60008054906101000a900460ff1615610b0b57600080fd5b60016000806101000a81548160ff0219169083151502179055507fae5184fba832cb2b1f702aca6117b8d265eaf03ad33eb133f19dde0f5920fa0860405160405180910390a16001905090565b60008060019054906101000a900473ffffffffffffffffffffffffffffffffffffffff16905090565b600060019054906101000a900473ffffffffffffffffffffffffffffffffffffffff1681565b6040518060400160405280600281526020017f445400000000000000000000000000000000000000000000000000000000000081525081565b60008073ffffffffffffffffffffffffffffffffffffffff168373ffffffffffffffffffffffffffffffffffffffff1603610c1a57600080fd5b600260003273ffffffffffffffffffffffffffffffffffffffff1673ffffffffffffffffffffffffffffffffffffffff16815260200190815260200160002054821115610c9c576040517f08c379a0000000000000000000000000000000000000000000000000000000008152600401610c9390611369565b60405180910390fd5b610cee82600260003273ffffffffffffffffffffffffffffffffffffffff1673ffffffffffffffffffffffffffffffffffffffff16815260200190815260200160002054610ebc90919063ffffffff16565b600260003273ffffffffffffffffffffffffffffffffffffffff1673ffffffffffffffffffffffffffffffffffffffff16815260200190815260200160002081905550610d8382600260008673ffffffffffffffffffffffffffffffffffffffff1673ffffffffffffffffffffffffffffffffffffffff16815260200190815260200160002054610ee390919063ffffffff16565b600260008573ffffffffffffffffffffffffffffffffffffffff1673ffffffffffffffffffffffffffffffffffffffff168152602001908152602001600020819055508273ffffffffffffffffffffffffffffffffffffffff163273ffffffffffffffffffffffffffffffffffffffff167fddf252ad1be2c89b69c2b068fc378daa952ba7f163c4a11628f55a4df523b3ef84604051610e2391906110e3565b60405180910390a36001905092915050565b6000600160008473ffffffffffffffffffffffffffffffffffffffff1673ffffffffffffffffffffffffffffffffffffffff16815260200190815260200160002060008373ffffffffffffffffffffffffffffffffffffffff1673ffffffffffffffffffffffffffffffffffffffff16815260200190815260200160002054905092915050565b600082821115610ecf57610ece611389565b5b8183610edb91906113e7565b905092915050565b60008183610ef1919061141b565b905082811015610f0457610f03611389565b5b92915050565b60008115159050919050565b610f1f81610f0a565b82525050565b6000602082019050610f3a6000830184610f16565b92915050565b600081519050919050565b600082825260208201905092915050565b60005b83811015610f7a578082015181840152602081019050610f5f565b83811115610f89576000848401525b50505050565b6000601f19601f8301169050919050565b6000610fab82610f40565b610fb58185610f4b565b9350610fc5818560208601610f5c565b610fce81610f8f565b840191505092915050565b60006020820190508181036000830152610ff38184610fa0565b905092915050565b600080fd5b600073ffffffffffffffffffffffffffffffffffffffff82169050919050565b600061102b82611000565b9050919050565b61103b81611020565b811461104657600080fd5b50565b60008135905061105881611032565b92915050565b6000819050919050565b6110718161105e565b811461107c57600080fd5b50565b60008135905061108e81611068565b92915050565b600080604083850312156110ab576110aa610ffb565b5b60006110b985828601611049565b92505060206110ca8582860161107f565b9150509250929050565b6110dd8161105e565b82525050565b60006020820190506110f860008301846110d4565b92915050565b60008060006060848603121561111757611116610ffb565b5b600061112586828701611049565b935050602061113686828701611049565b92505060406111478682870161107f565b9150509250925092565b600060ff82169050919050565b61116781611151565b82525050565b6000602082019050611182600083018461115e565b92915050565b60006020828403121561119e5761119d610ffb565b5b60006111ac84828501611049565b91505092915050565b6111be81611020565b82525050565b60006020820190506111d960008301846111b5565b92915050565b600080604083850312156111f6576111f5610ffb565b5b600061120485828601611049565b925050602061121585828601611049565b9150509250929050565b7f46726f6d20646f65736e2774206861766520656e6f7567682062616c616e6365600082015250565b6000611255602083610f4b565b91506112608261121f565b602082019050919050565b6000602082019050818103600083015261128481611248565b9050919050565b7f4e6f7420616c6c6f77656420746f207370656e642074686973206d7563680000600082015250565b60006112c1601e83610f4b565b91506112cc8261128b565b602082019050919050565b600060208201905081810360008301526112f0816112b4565b9050919050565b7f6d73672e73656e64657220646f65736e2774206861766520656e6f756768206260008201527f616c616e63650000000000000000000000000000000000000000000000000000602082015250565b6000611353602683610f4b565b915061135e826112f7565b604082019050919050565b6000602082019050818103600083015261138281611346565b9050919050565b7f4e487b7100000000000000000000000000000000000000000000000000000000600052600160045260246000fd5b7f4e487b7100000000000000000000000000000000000000000000000000000000600052601160045260246000fd5b60006113f28261105e565b91506113fd8361105e565b9250828210156114105761140f6113b8565b5b828203905092915050565b60006114268261105e565b91506114318361105e565b9250827fffffffffffffffffffffffffffffffffffffffffffffffffffffffffffffffff03821115611466576114656113b8565b5b82820190509291505056fea2646970667358221220848d4fe9a6cdd4cb0779a596e6d88882ce3cfff4bbb6a6288eee308acebfa5c664736f6c634300080d0033",
  "immutableReferences": {},
  "source": "// SPDX-License-Identifier: MIT\r\npragma solidity >=0.8.0;\r\npragma abicoder v2;\r\n\r\nimport \"./ChariToken.sol\";\r\nimport \"./Campaign.sol\";\r\n\r\ncontract Charity {\r\n    ChariToken tokenContract;\r\n    Campaign campaignContract;\r\n    address[] public subAccounts;\r\n    address _owner = msg.sender;\r\n    uint8 public numberOfSubAccounts; //subaccounts sld not exceed 255\r\n    mapping(address => uint8) public subAccountPercentages; // mapping of proportion of amount donated, for each sub-account [0.1, 0.2, 0.3, 0.4] etc\r\n    mapping(address => bytes32) public subAccountNames; // same size as mapping above, stores the name of each subaccount for that charity\r\n    // mapping(address => uint256) public subAccountVotes; //same size as mapping above, tracks num. of votes per subaccount for that charity\r\n    mapping(address => uint256) public amountDonated; // mapping for amount that each person donates\r\n\r\n\r\n    constructor() {\r\n        ChariToken ct = new ChariToken();\r\n        tokenContract = ct;\r\n        numberOfSubAccounts = 0;\r\n    }\r\n\r\n    event Allocation(address accountAddress, uint8 percentages);\r\n    \r\n    modifier ownerOnly() {\r\n        require(msg.sender == _owner);\r\n        _;\r\n    }\r\n    // Function to receive Ether. msg.data must be empty\r\n    // receive() external payable {} // might need to change imo.... because we need to store senders\r\n\r\n    // // Fallback function is called when msg.data is not empty\r\n    // fallback() external payable {}\r\n\r\n    // creation of sub-accounts for a single charity\r\n    function createSubAccount(address accountAddress, bytes32 accountName) public ownerOnly{\r\n        address temp;\r\n        for(uint i = 0; i < subAccounts.length; i++) {\r\n            if (subAccounts[i] == accountAddress) {\r\n                temp = accountAddress;\r\n            }\r\n        }\r\n        require(temp != accountAddress, \"This account has already been created\");\r\n        subAccounts.push(accountAddress);\r\n        subAccountPercentages[accountAddress] = 0;\r\n        subAccountNames[accountAddress] = accountName;\r\n        numberOfSubAccounts += 1;\r\n    }\r\n\r\n    // allocate percentages based on sub-account addresses. Feed in array of percentages\r\n    function allocatePercentages(uint8[] memory percentages) public ownerOnly() {\r\n        require(percentages.length == subAccounts.length, \"Length of input differs from number of sub-accounts\");\r\n        uint temp;\r\n        for(uint i = 0; i < percentages.length; i++) {\r\n            temp += percentages[i];\r\n        }\r\n        require(temp == 100, \"Your percentages does not add up to 100\");\r\n        for(uint i = 0; i < percentages.length; i++) {\r\n            subAccountPercentages[subAccounts[i]] = percentages[i];\r\n        }\r\n    }\r\n\r\n    // allocate donations based on balance.. do we need to change? to allocate each time someone donates\r\n    function allocateDonations(uint256 amtDonated) public payable {\r\n        // uint256 amtDonated = getBalance();\r\n        for (uint i =0; i < numberOfSubAccounts; i++) {\r\n            address subAccountAdd = subAccounts[i]; // subaccount in question currently\r\n            uint8 ratio = subAccountPercentages[subAccountAdd];\r\n            address payable subAccountAddPayable = payable(subAccountAdd);\r\n            subAccountAddPayable.transfer((ratio/100)*amtDonated);\r\n        }\r\n    }\r\n\r\n    //process donations: split donations and award donor with tokens\r\n    function processDonations(uint256 amtDonated, address donor) public payable {\r\n        this.allocateDonations(amtDonated); //allocate donations\r\n\r\n        //mint tokens to this contract, then send it to donor\r\n        tokenContract.getCredit(amtDonated);\r\n        uint256 tokensToAward = tokenContract.convertToCredits(amtDonated);\r\n        tokenContract.getErc20Contract().transfer(donor, tokensToAward); \r\n    }\r\n\r\n\r\n    function createCampaign(bytes32 campaignName) public ownerOnly() {\r\n        uint8[] memory percentages = new uint8[](getNumberOfAccounts());\r\n        bytes32[] memory names = new bytes32[](getNumberOfAccounts());\r\n        for (uint i = 0; i < getNumberOfAccounts(); i++) {\r\n            percentages[i] = subAccountPercentages[subAccounts[i]];\r\n            names[i] = subAccountNames[subAccounts[i]];\r\n        }\r\n        uint8 campaignType = 2;\r\n        Campaign c = new Campaign(subAccounts, numberOfSubAccounts, percentages, names, campaignType, campaignName);\r\n        campaignContract = c;\r\n    }\r\n\r\n/* Campaign section */\r\n\r\n    function addCampaignGoals(uint256[] memory allocations) public{\r\n        campaignContract.addCampaignGoals(allocations);\r\n    }\r\n\r\n    function startCampaign(uint8 typeOfCampaign) public {\r\n        campaignContract.startCampaign(typeOfCampaign);\r\n    }\r\n\r\n    function depositCampaign(bytes32 subAccount) public payable {\r\n        campaignContract.depositCampaign(subAccount);\r\n    }\r\n\r\n    function withdrawCampaign(bytes32 subAccount) public {\r\n        campaignContract.withdrawCampaign(subAccount);\r\n    }\r\n\r\n\r\n/* GETTERS */\r\n\r\n     // getter for allocation\r\n    function showAllocation() public {\r\n        for(uint i = 0; i < subAccounts.length; i++) {\r\n            address tempAddress = subAccounts[i];\r\n            uint8 tempAllocation = subAccountPercentages[tempAddress];\r\n            emit Allocation(tempAddress, tempAllocation);\r\n        }\r\n    }\r\n\r\n    // a general check on how much money the person has put, and how it has been spread\r\n    function getProportions() public view returns (uint[] memory xd) {\r\n        uint[] memory listOfProportions = new uint[](getNumberOfAccounts());\r\n        for (uint256 i = 0; i < getNumberOfAccounts(); i++) {\r\n            listOfProportions[i] = subAccountPercentages[subAccounts[i]] * amountDonated[msg.sender]; // \"Food, 100\" e.g.\r\n        }\r\n        return listOfProportions; // e.g. [100, 200, 300]\r\n    }\r\n    \r\n   \r\n    \r\n    function getAccountsInOrder() public view returns (bytes32[] memory xd) {\r\n        bytes32[] memory listOfAccounts = new bytes32[](getNumberOfAccounts());\r\n        for (uint256 i = 0; i < getNumberOfAccounts(); i++) {\r\n            listOfAccounts[i] = (subAccountNames[subAccounts[i]]); // \"Food, 100\" e.g.\r\n        }\r\n        return listOfAccounts; // e.g. [\"Food\", \"Water\", \"Air\"]. combine with getProportions() to find out amount of money in each sub wallet\r\n    }\r\n\r\n\r\n    // given an amount, how much is going to which acc? a way for donors to check where amounts are gg before they donate. \r\n    //combine with getAccountsInOrder() as well, to find out where in which account\r\n    function checkAmount(uint256 amt) public view returns (uint[] memory xd) {\r\n        uint[] memory listOfAmounts = new uint[](getNumberOfAccounts());\r\n        for (uint256 i = 0; i < getNumberOfAccounts(); i++) {\r\n            listOfAmounts[i] = (subAccountPercentages[subAccounts[i]] * amt);\r\n        }\r\n        return listOfAmounts;\r\n    }\r\n\r\n    function getNumberOfAccounts() public view returns (uint256) {\r\n        return numberOfSubAccounts;\r\n    }\r\n\r\n    // fall back function balance!\r\n    function getBalance() public view returns (uint) {\r\n        return address(this).balance;\r\n    }\r\n\r\n    function getSubAccountBalance(bytes32 subAccountName) public view returns(uint256) {\r\n        return campaignContract.getSubAccountBalance(subAccountName);\r\n    }\r\n\r\n     function getCampaignType() public view returns (uint8) {\r\n         return campaignContract.getCampaignType();\r\n     }\r\n    function checkVoteOutcome() public payable returns(uint256[] memory vc) {\r\n        uint256[] memory voteCounts = new uint256[](getNumberOfAccounts());\r\n        for (uint256 i = 0; i < getNumberOfAccounts(); i++) {\r\n            uint256 currVoteCount = tokenContract.checkCreditGivenAddress(subAccounts[i]);\r\n            voteCounts[i] = currVoteCount;\r\n\r\n            //reset voteCount\r\n            tokenContract.getErc20Contract().transferFrom(subAccounts[i], address(this), currVoteCount); //simulate burn tokens by transferring from subaccount to charity\r\n\r\n        }\r\n\r\n        return voteCounts;        \r\n    }\r\n}",
  "sourcePath": "C:\\Users\\cheer\\Desktop\\IS4302 Labs\\Project\\charichain\\charichain\\code\\contracts\\Charity.sol",
  "compiler": {
    "name": "solc",
    "version": "0.8.13+commit.abaa5c0e.Emscripten.clang"
  },
  "schemaVersion": "3.4.4",
  "updatedAt": "2022-04-12T09:18:45.989Z",
  "devdoc": {
    "kind": "dev",
    "methods": {},
    "version": 1
  },
  "userdoc": {
    "kind": "user",
    "methods": {},
    "version": 1
  }
}