{
  "contractName": "Donor",
  "abi": [
    {
      "inputs": [
        {
          "internalType": "uint256",
          "name": "userId",
          "type": "uint256"
        },
        {
          "internalType": "contract Charity",
          "name": "charityAddress",
          "type": "address"
        },
        {
          "internalType": "contract ChariToken",
          "name": "chariTokenAddress",
          "type": "address"
        }
      ],
      "stateMutability": "nonpayable",
      "type": "constructor"
    },
    {
      "inputs": [
        {
          "internalType": "address",
          "name": "charity",
          "type": "address"
        }
      ],
      "name": "donate",
      "outputs": [],
      "stateMutability": "payable",
      "type": "function"
    },
    {
      "inputs": [
        {
          "internalType": "address",
          "name": "subAccount",
          "type": "address"
        },
        {
          "internalType": "uint256",
          "name": "voteAmt",
          "type": "uint256"
        }
      ],
      "name": "vote",
      "outputs": [],
      "stateMutability": "payable",
      "type": "function"
    }
  ],
  "bytecode": "0x608060405233600360006101000a81548173ffffffffffffffffffffffffffffffffffffffff021916908373ffffffffffffffffffffffffffffffffffffffff16021790555034801561005157600080fd5b5060405161093d38038061093d833981810160405281019061007391906101ec565b82600281905550816000806101000a81548173ffffffffffffffffffffffffffffffffffffffff021916908373ffffffffffffffffffffffffffffffffffffffff16021790555080600160006101000a81548173ffffffffffffffffffffffffffffffffffffffff021916908373ffffffffffffffffffffffffffffffffffffffff16021790555050505061023f565b600080fd5b6000819050919050565b61011b81610108565b811461012657600080fd5b50565b60008151905061013881610112565b92915050565b600073ffffffffffffffffffffffffffffffffffffffff82169050919050565b60006101698261013e565b9050919050565b600061017b8261015e565b9050919050565b61018b81610170565b811461019657600080fd5b50565b6000815190506101a881610182565b92915050565b60006101b98261015e565b9050919050565b6101c9816101ae565b81146101d457600080fd5b50565b6000815190506101e6816101c0565b92915050565b60008060006060848603121561020557610204610103565b5b600061021386828701610129565b935050602061022486828701610199565b9250506040610235868287016101d7565b9150509250925092565b6106ef8061024e6000396000f3fe6080604052600436106100285760003560e01c8062362a951461002d5780635f74bbde14610049575b600080fd5b610047600480360381019061004291906103f1565b610065565b005b610063600480360381019061005e9190610454565b610148565b005b600034905060008290508073ffffffffffffffffffffffffffffffffffffffff166108fc839081150290604051600060405180830381858888f193505050501580156100b5573d6000803e3d6000fd5b5060008054906101000a900473ffffffffffffffffffffffffffffffffffffffff1673ffffffffffffffffffffffffffffffffffffffff16639cbb9a0683306040518363ffffffff1660e01b81526004016101119291906104b2565b600060405180830381600087803b15801561012b57600080fd5b505af115801561013f573d6000803e3d6000fd5b50505050505050565b600360009054906101000a900473ffffffffffffffffffffffffffffffffffffffff1673ffffffffffffffffffffffffffffffffffffffff163373ffffffffffffffffffffffffffffffffffffffff16146101a257600080fd5b6000600160009054906101000a900473ffffffffffffffffffffffffffffffffffffffff1673ffffffffffffffffffffffffffffffffffffffff16636cba62906040518163ffffffff1660e01b8152600401602060405180830381865afa158015610211573d6000803e3d6000fd5b505050506040513d601f19601f8201168201806040525081019061023591906104f0565b90506000811161027a576040517f08c379a0000000000000000000000000000000000000000000000000000000008152600401610271906105a0565b60405180910390fd5b600160009054906101000a900473ffffffffffffffffffffffffffffffffffffffff1673ffffffffffffffffffffffffffffffffffffffff1663af55de6c6040518163ffffffff1660e01b8152600401602060405180830381865afa1580156102e7573d6000803e3d6000fd5b505050506040513d601f19601f8201168201806040525081019061030b91906105fe565b73ffffffffffffffffffffffffffffffffffffffff1663a9059cbb84846040518363ffffffff1660e01b815260040161034592919061062b565b6020604051808303816000875af1158015610364573d6000803e3d6000fd5b505050506040513d601f19601f82011682018060405250810190610388919061068c565b50505050565b600080fd5b600073ffffffffffffffffffffffffffffffffffffffff82169050919050565b60006103be82610393565b9050919050565b6103ce816103b3565b81146103d957600080fd5b50565b6000813590506103eb816103c5565b92915050565b6000602082840312156104075761040661038e565b5b6000610415848285016103dc565b91505092915050565b6000819050919050565b6104318161041e565b811461043c57600080fd5b50565b60008135905061044e81610428565b92915050565b6000806040838503121561046b5761046a61038e565b5b6000610479858286016103dc565b925050602061048a8582860161043f565b9150509250929050565b61049d8161041e565b82525050565b6104ac816103b3565b82525050565b60006040820190506104c76000830185610494565b6104d460208301846104a3565b9392505050565b6000815190506104ea81610428565b92915050565b6000602082840312156105065761050561038e565b5b6000610514848285016104db565b91505092915050565b600082825260208201905092915050565b7f596f7520646f6e2774206861766520616e79204368617269546f6b656e73207460008201527f6f20766f74650000000000000000000000000000000000000000000000000000602082015250565b600061058a60268361051d565b91506105958261052e565b604082019050919050565b600060208201905081810360008301526105b98161057d565b9050919050565b60006105cb826103b3565b9050919050565b6105db816105c0565b81146105e657600080fd5b50565b6000815190506105f8816105d2565b92915050565b6000602082840312156106145761061361038e565b5b6000610622848285016105e9565b91505092915050565b600060408201905061064060008301856104a3565b61064d6020830184610494565b9392505050565b60008115159050919050565b61066981610654565b811461067457600080fd5b50565b60008151905061068681610660565b92915050565b6000602082840312156106a2576106a161038e565b5b60006106b084828501610677565b9150509291505056fea2646970667358221220f563205d08050741142496b2a35c773271d6f9c5c6f6c298ed42c4d24a1a15c264736f6c634300080d0033",
  "immutableReferences": {},
  "source": "// SPDX-License-Identifier: MIT\r\npragma solidity >=0.8.0;\r\n// pragma abicoder v2;\r\nimport \"./Charity.sol\";\r\nimport \"./ChariToken.sol\";\r\n\r\ncontract Donor {\r\n    Charity charityContract;\r\n    ChariToken chariTokenContract;\r\n    uint256 id;\r\n    address _owner = msg.sender;\r\n\r\n    constructor(uint256 userId, Charity charityAddress, ChariToken chariTokenAddress) {\r\n        id = userId;\r\n        charityContract = charityAddress;\r\n        chariTokenContract = chariTokenAddress;\r\n    }\r\n\r\n    modifier ownerOnly() {\r\n        require(msg.sender == _owner);\r\n        _;\r\n    }\r\n\r\n\r\n    function donate(address charity) public payable {\r\n        uint256 amtDonated = msg.value;\r\n        address payable charityAddress = payable(charity);\r\n        charityAddress.transfer(amtDonated);\r\n\r\n        charityContract.processDonations(amtDonated, address(this));\r\n    }\r\n\r\n    function vote(address subAccount, uint256 voteAmt) public payable ownerOnly {\r\n        uint256 tokenBalance = chariTokenContract.checkCredit();\r\n        require(tokenBalance > 0, \"You don't have any ChariTokens to vote\");\r\n        chariTokenContract.getErc20Contract().transfer(subAccount, voteAmt); \r\n    }\r\n}",
  "sourcePath": "C:\\Users\\cheer\\Desktop\\IS4302 Labs\\Project\\charichain\\charichain\\code\\contracts\\Donor.sol",
  "compiler": {
    "name": "solc",
    "version": "0.8.13+commit.abaa5c0e.Emscripten.clang"
  },
  "schemaVersion": "3.4.4",
  "updatedAt": "2022-04-12T09:18:46.011Z",
  "devdoc": {
    "kind": "dev",
    "methods": {},
    "version": 1
  },
  "userdoc": {
    "kind": "user",
    "methods": {},
    "version": 1
  }
}