{
  "contractName": "Campaign",
  "abi": [
    {
      "inputs": [
        {
          "internalType": "address[]",
          "name": "sub",
          "type": "address[]"
        },
        {
          "internalType": "uint8",
          "name": "numberOfSub",
          "type": "uint8"
        },
        {
          "internalType": "uint8[]",
          "name": "percentages",
          "type": "uint8[]"
        },
        {
          "internalType": "bytes32[]",
          "name": "names",
          "type": "bytes32[]"
        },
        {
          "internalType": "uint8",
          "name": "campaign",
          "type": "uint8"
        },
        {
          "internalType": "bytes32",
          "name": "nameOfCampaign",
          "type": "bytes32"
        }
      ],
      "stateMutability": "nonpayable",
      "type": "constructor"
    },
    {
      "anonymous": false,
      "inputs": [
        {
          "indexed": false,
          "internalType": "address",
          "name": "account",
          "type": "address"
        },
        {
          "indexed": false,
          "internalType": "uint256",
          "name": "balance",
          "type": "uint256"
        },
        {
          "indexed": false,
          "internalType": "bytes32",
          "name": "accountName",
          "type": "bytes32"
        }
      ],
      "name": "accountGoalHit",
      "type": "event"
    },
    {
      "anonymous": false,
      "inputs": [
        {
          "indexed": false,
          "internalType": "address",
          "name": "account",
          "type": "address"
        },
        {
          "indexed": false,
          "internalType": "uint256",
          "name": "balance",
          "type": "uint256"
        },
        {
          "indexed": false,
          "internalType": "bytes32",
          "name": "accountName",
          "type": "bytes32"
        }
      ],
      "name": "accountGoalNotHit",
      "type": "event"
    },
    {
      "anonymous": false,
      "inputs": [],
      "name": "cannotWithdraw",
      "type": "event"
    },
    {
      "inputs": [],
      "name": "creationTime",
      "outputs": [
        {
          "internalType": "uint256",
          "name": "",
          "type": "uint256"
        }
      ],
      "stateMutability": "view",
      "type": "function",
      "constant": true
    },
    {
      "inputs": [],
      "name": "numberOfSubAccounts",
      "outputs": [
        {
          "internalType": "uint8",
          "name": "",
          "type": "uint8"
        }
      ],
      "stateMutability": "view",
      "type": "function",
      "constant": true
    },
    {
      "inputs": [
        {
          "internalType": "address",
          "name": "",
          "type": "address"
        }
      ],
      "name": "subAccountNames",
      "outputs": [
        {
          "internalType": "bytes32",
          "name": "",
          "type": "bytes32"
        }
      ],
      "stateMutability": "view",
      "type": "function",
      "constant": true
    },
    {
      "inputs": [
        {
          "internalType": "address",
          "name": "",
          "type": "address"
        }
      ],
      "name": "subAccountPercentages",
      "outputs": [
        {
          "internalType": "uint8",
          "name": "",
          "type": "uint8"
        }
      ],
      "stateMutability": "view",
      "type": "function",
      "constant": true
    },
    {
      "inputs": [
        {
          "internalType": "uint256",
          "name": "",
          "type": "uint256"
        }
      ],
      "name": "subAccounts",
      "outputs": [
        {
          "internalType": "address",
          "name": "",
          "type": "address"
        }
      ],
      "stateMutability": "view",
      "type": "function",
      "constant": true
    },
    {
      "inputs": [
        {
          "internalType": "uint256[]",
          "name": "allocations",
          "type": "uint256[]"
        }
      ],
      "name": "addCampaignGoals",
      "outputs": [],
      "stateMutability": "nonpayable",
      "type": "function"
    },
    {
      "inputs": [
        {
          "internalType": "uint8",
          "name": "typeOfCampaign",
          "type": "uint8"
        }
      ],
      "name": "startCampaign",
      "outputs": [],
      "stateMutability": "nonpayable",
      "type": "function"
    },
    {
      "inputs": [
        {
          "internalType": "bytes32",
          "name": "subAccount",
          "type": "bytes32"
        }
      ],
      "name": "depositCampaign",
      "outputs": [],
      "stateMutability": "payable",
      "type": "function",
      "payable": true
    },
    {
      "inputs": [
        {
          "internalType": "bytes32",
          "name": "subAccount",
          "type": "bytes32"
        }
      ],
      "name": "withdrawCampaign",
      "outputs": [],
      "stateMutability": "nonpayable",
      "type": "function"
    },
    {
      "inputs": [],
      "name": "endCampaign",
      "outputs": [],
      "stateMutability": "nonpayable",
      "type": "function"
    },
    {
      "inputs": [
        {
          "internalType": "bytes32",
          "name": "subAccountName",
          "type": "bytes32"
        }
      ],
      "name": "getSubAccountBalance",
      "outputs": [
        {
          "internalType": "uint256",
          "name": "",
          "type": "uint256"
        }
      ],
      "stateMutability": "view",
      "type": "function",
      "constant": true
    },
    {
      "inputs": [],
      "name": "getCampaignType",
      "outputs": [
        {
          "internalType": "uint8",
          "name": "",
          "type": "uint8"
        }
      ],
      "stateMutability": "view",
      "type": "function",
      "constant": true
    }
  ],
  "bytecode": "0x60806040523480156200001157600080fd5b50604051620016e7380380620016e7833981016040819052620000349162000376565b600d8054600160a060020a031916331790556001805460ff871660ff1990911617905585516200006c9060009060208901906200017e565b50600a805460ff191660ff8416179055600b81905560005b60015460ff168110156200017157848181518110620000a757620000a7620004a6565b602002602001015160026000808481548110620000c857620000c8620004a6565b600091825260208083209190910154600160a060020a031683528201929092526040019020805460ff191660ff929092169190911790558351849082908110620001165762000116620004a6565b602002602001015160036000808481548110620001375762000137620004a6565b6000918252602080832090910154600160a060020a03168352820192909252604001902055806200016881620004d5565b91505062000084565b5050505050505062000518565b828054828255906000526020600020908101928215620001d6579160200282015b82811115620001d65782518254600160a060020a031916600160a060020a039091161782556020909201916001909101906200019f565b50620001e4929150620001e8565b5090565b5b80821115620001e45760008155600101620001e9565b7f4e487b7100000000000000000000000000000000000000000000000000000000600052604160045260246000fd5b604051601f8201601f191681016001604060020a0381118282101715620002595762000259620001ff565b604052919050565b60006001604060020a038211156200027d576200027d620001ff565b5060209081020190565b805160ff811681146200029957600080fd5b919050565b600082601f830112620002b057600080fd5b81516020620002c9620002c38362000261565b6200022e565b82815291810284018101918181019086841115620002e657600080fd5b8286015b848110156200030c57620002fe8162000287565b8352918301918301620002ea565b509695505050505050565b600082601f8301126200032957600080fd5b815160206200033c620002c38362000261565b828152918102840181019181810190868411156200035957600080fd5b8286015b848110156200030c57805183529183019183016200035d565b60008060008060008060c087890312156200039057600080fd5b86516001604060020a0380821115620003a857600080fd5b818901915089601f830112620003bd57600080fd5b81516020620003d0620002c38362000261565b8281529181028401810191818101908d841115620003ed57600080fd5b948201945b8386101562000424578551600160a060020a0381168114620004145760008081fd5b82529482019490820190620003f2565b9a506200043590508b820162000287565b9850505060408901519150808211156200044e57600080fd5b6200045c8a838b016200029e565b955060608901519150808211156200047357600080fd5b506200048289828a0162000317565b935050620004936080880162000287565b915060a087015190509295509295509295565b7f4e487b7100000000000000000000000000000000000000000000000000000000600052603260045260246000fd5b600060001982141562000511577f4e487b7100000000000000000000000000000000000000000000000000000000600052601160045260246000fd5b5060010190565b6111bf80620005286000396000f3fe60806040526004361061009a5760e060020a6000350463021a3b22811461009f5780633a8658e4146100b45780635b588ac6146100d45780635cccb48e146100ff57806371aac7f91461011f5780637603cd7a1461013457806378ad2c2f1461016f5780639dffb36714610189578063ca5b7c2e146101a9578063d7ed7d2f146101e1578063d8270dce14610201578063fa6b9a2514610217575b600080fd5b6100b26100ad366004610f32565b610247565b005b3480156100c057600080fd5b506100b26100cf366004610f32565b6106fd565b3480156100e057600080fd5b50600a5460ff165b60405160ff90911681526020015b60405180910390f35b34801561010b57600080fd5b506100b261011a366004610f4b565b610c8c565b34801561012b57600080fd5b506100b2610d3b565b34801561014057600080fd5b5061016161014f366004610f75565b60036020526000908152604090205481565b6040519081526020016100f6565b34801561017b57600080fd5b506001546100e89060ff1681565b34801561019557600080fd5b506101616101a4366004610f32565b610d54565b3480156101b557600080fd5b506101c96101c4366004610f32565b610e05565b604051600160a060020a0390911681526020016100f6565b3480156101ed57600080fd5b506100b26101fc366004610fb8565b610e2f565b34801561020d57600080fd5b50610161600c5481565b34801561022357600080fd5b506100e8610232366004610f75565b60026020526000908152604090205460ff1681565b60005b60015460ff168110156104105760006006600080848154811061026f5761026f61108e565b6000918252602080832090910154600160a060020a0316835282019290925260400190205460ff1660028111156102a8576102a8611074565b1480156102c45750600c546102c09062093a806110c2565b4210155b156103fe576002600660008084815481106102e1576102e161108e565b6000918252602080832090910154600160a060020a031683528201929092526040019020805460ff1916600183600281111561031f5761031f611074565b021790555060008051602061116a833981519152600082815481106103465761034661108e565b60009182526020822001548154600160a060020a03909116916004918190869081106103745761037461108e565b6000918252602080832090910154600160a060020a03168352820192909252604001812054815490916003918190879081106103b2576103b261108e565b6000918252602080832090910154600160a060020a0316835282019290925260409081019091205490516103e8939291906110da565b60405180910390a1600a805460ff191660031790555b80610408816110fb565b91505061024a565b506000805b60015460ff168110156104a15782600360008084815481106104395761043961108e565b6000918252602080832090910154600160a060020a03168352820192909252604001902054141561048f57600081815481106104775761047761108e565b600091825260209091200154600160a060020a031691505b80610499816110fb565b915050610415565b50600160a060020a03811660009081526006602052604081205460ff1660028111156104cf576104cf611074565b146105475760405160e560020a62461bcd02815260206004820152603760248201527f5468652063616d706169676e20686173206569746865722066696e69736865646044820152604960020a761037b9103430b9903132b2b710333ab63334b63632b2170260648201526084015b60405180910390fd5b600160a060020a03811660009081526004602052604090205480156105775761057034826110c2565b905061057a565b50345b600160a060020a03821660009081526004602090815260408083208490556005909152902054811061060657600160a060020a03821660009081526006602052604090819020805460ff19166001179055517f84ce75384538250d1691d23fcf41bb86189a077b16f707a9abf1d1c3e1285aa3906105fd908490849087906110da565b60405180910390a15b600160a060020a038216600090815260086020908152604080832033845290915290205460ff16151560011461069357600160a060020a038216600081815260086020908152604080832033808552908352818420805460ff191660019081179091559484526009835290832080549485018155835291209091018054600160a060020a03191690911790555b600160a060020a038216600090815260076020908152604080832033845290915290205480156106ce576106c734826110c2565b90506106d1565b50345b600160a060020a0390921660009081526007602090815260408083203384529091529020919091555050565b60005b60015460ff168110156108c6576000600660008084815481106107255761072561108e565b6000918252602080832090910154600160a060020a0316835282019290925260400190205460ff16600281111561075e5761075e611074565b14801561077a5750600c546107769062093a806110c2565b4210155b156108b4576002600660008084815481106107975761079761108e565b6000918252602080832090910154600160a060020a031683528201929092526040019020805460ff191660018360028111156107d5576107d5611074565b021790555060008051602061116a833981519152600082815481106107fc576107fc61108e565b60009182526020822001548154600160a060020a039091169160049181908690811061082a5761082a61108e565b6000918252602080832090910154600160a060020a03168352820192909252604001812054815490916003918190879081106108685761086861108e565b6000918252602080832090910154600160a060020a03168352820192909252604090810190912054905161089e939291906110da565b60405180910390a1600a805460ff191660031790555b806108be816110fb565b915050610700565b50600d54600160a060020a031633146108de57600080fd5b6000805b60015460ff1681101561096e5782600360008084815481106109065761090661108e565b6000918252602080832090910154600160a060020a03168352820192909252604001902054141561095c57600081815481106109445761094461108e565b600091825260209091200154600160a060020a031691505b80610966816110fb565b9150506108e2565b506001600160a060020a03821660009081526006602052604090205460ff16600281111561099e5761099e611074565b14156109f457600160a060020a03811660008181526004602052604080822054905190928492909184156108fc0291859190818181858888f193505050501580156109ed573d6000803e3d6000fd5b5050505050565b6002600160a060020a03821660009081526006602052604090205460ff166002811115610a2357610a23611074565b1415610c2b57600160a060020a0381166000908152600460205260409020548015610c2657600a5460ff16610b1657600160a060020a038216600090815260046020526040812054905b60015460ff168110156109ed576000808281548110610a8e57610a8e61108e565b6000918252602080832090910154600160a060020a0316808352600290915260409091205490915060ff1681806108fc86610aca606486611116565b60ff16610ad7919061114a565b6040518115909202916000818181858888f19350505050158015610aff573d6000803e3d6000fd5b505050508080610b0e906110fb565b915050610a6d565b600a5460ff1660011415610c265760005b600160a060020a038316600090815260096020526040902054811015610c2457600160a060020a038316600090815260076020908152604080832060099092528220805483919085908110610b7e57610b7e61108e565b6000918252602080832090910154600160a060020a0390811684528382019490945260409283018220549388168252600990529081208054929350909184908110610bcb57610bcb61108e565b6000918252602082200154604051600160a060020a039091169250829184156108fc02918591818181858888f19350505050158015610c0e573d6000803e3d6000fd5b5050508080610c1c906110fb565b915050610b27565b505b505050565b600160a060020a03811660009081526006602052604081205460ff166002811115610c5857610c58611074565b1415610c88576040517f64d12556a85cdd58f632c188b5b6bdb51b11dff496b036e63e193315cbc6019f90600090a15b5050565b600d54600160a060020a03163314610ca357600080fd5b60005b60015460ff16811015610d2057600060066000808481548110610ccb57610ccb61108e565b6000918252602080832090910154600160a060020a031683528201929092526040019020805460ff19166001836002811115610d0957610d09611074565b021790555080610d18816110fb565b915050610ca6565b5042600c55600a805460ff191660ff92909216919091179055565b600d54600160a060020a03163314610d5257600080fd5b565b60008060005b60015460ff16811015610de6578360036000808481548110610d7e57610d7e61108e565b6000918252602080832090910154600160a060020a031683528201929092526040019020541415610dd45760008181548110610dbc57610dbc61108e565b600091825260209091200154600160a060020a031691505b80610dde816110fb565b915050610d5a565b50600160a060020a031660009081526004602052604090205492915050565b60008181548110610e1557600080fd5b600091825260209091200154600160a060020a0316905081565b600d54600160a060020a03163314610e4657600080fd5b600154815160ff90911614610ebb5760405160e560020a62461bcd02815260206004820152602f60248201527f596f75206e65656420746f20637265617465206120676f616c20666f722065616044820152608860020a6e6368207375622d6163636f756e742102606482015260840161053e565b60005b60015460ff16811015610c8857818181518110610edd57610edd61108e565b602002602001015160056000808481548110610efb57610efb61108e565b6000918252602080832090910154600160a060020a0316835282019290925260400190205580610f2a816110fb565b915050610ebe565b600060208284031215610f4457600080fd5b5035919050565b600060208284031215610f5d57600080fd5b813560ff81168114610f6e57600080fd5b9392505050565b600060208284031215610f8757600080fd5b8135600160a060020a0381168114610f6e57600080fd5b60e060020a634e487b710260009081526041600452602490fd5b60006020808385031215610fcb57600080fd5b82356001604060020a0380821115610fe257600080fd5b818501915085601f830112610ff657600080fd5b81358181111561100857611008610f9e565b838102604051601f19603f8301168101818110858211171561102c5761102c610f9e565b60405291825284820192508381018501918883111561104a57600080fd5b938501935b828510156110685784358452938501939285019261104f565b98975050505050505050565b60e060020a634e487b710260009081526021600452602490fd5b60e060020a634e487b710260009081526032600452602490fd5b60e060020a634e487b710260009081526011600452602490fd5b600082198211156110d5576110d56110a8565b500190565b600160a060020a039390931683526020830191909152604082015260600190565b600060001982141561110f5761110f6110a8565b5060010190565b600060ff83168061113b5760e060020a634e487b710260009081526012600452602490fd5b8060ff84160491505092915050565b6000816000190483118215151615611164576111646110a8565b50029056fee98097b6040eb0966e73fd39adf87f8715de85b3f660e6a7009ba2469d4fd86da264697066735822122000c5d2e94260db1377348d7c2b73aba7087a3df35d33a46f7e532cdfc0716e2464736f6c634300080b0033",
  "immutableReferences": {},
  "source": "// SPDX-License-Identifier: MIT\npragma solidity >= 0.8.0;\n\n// Charities should be able to declare a new campaign\n// whereby delayed release of funds is implemented.\n// Also should be able to query status of funds per sub-account.\n\n// Declaring a campaign means setting goals for pre-created sub-accounts.\n// After a certain time, if goal not met money returned to donors. (We can add that this creates incentive to donate immediately)\n// Else if goal hit, funds become available for the charity to use\n// A more complicated implementation would be automating the ending of a campaign after a given time, for now we assume charity manually calls function\n\ncontract Campaign {\n    address[] public subAccounts;\n    uint8 public numberOfSubAccounts; //subaccounts sld not exceed 255\n    mapping(address => uint8) public subAccountPercentages; // mapping of proportion of amount donated, for each sub-account [0.1, 0.2, 0.3, 0.4] etc\n    mapping(address => bytes32) public subAccountNames; // same size as mapping above, stores the name of each subaccount for that charity\n    mapping(address => uint256) subAccountBalance; // Maps name of account => account balance. Can switch to address => balance mapping if that is used more (one less conversion step).\n    mapping(address => uint256) campaignGoals; // Maps account => goal for that account.\n    mapping(address => Stages) campaignAccountStatus; // Maps address to current stage.\n    mapping(address => mapping(address => uint256)) donorsBalance; // how much each donor has donated\n    mapping(address => mapping(address => bool)) hasDonated;\n    mapping(address => address[]) donorList;\n    //address[] public donorList;\n    uint8 campaignType; // 0 for split if not met, 1 for return to donors if not met, 2 for not started yet, 3 for done already.\n    bytes32 campaignName;\n\n    uint public creationTime;\n    enum Stages {\n        AcceptingDeposits,\n        ReleasingDeposits,\n        ElapsedDeposits\n    }\n\n    address charityOwner;\n\n    // TODO add all the events as per midterm test for testing\n    event cannotWithdraw();\n    event accountGoalHit(address account, uint256 balance, bytes32 accountName);\n    event accountGoalNotHit(address account, uint256 balance, bytes32 accountName);\n\n    constructor(address[] memory sub, uint8 numberOfSub, uint8[] memory percentages, bytes32[] memory names, uint8 campaign, bytes32 nameOfCampaign) {\n        charityOwner = msg.sender;\n        numberOfSubAccounts = numberOfSub;\n        subAccounts = sub;\n        campaignType = campaign;\n        campaignName = nameOfCampaign;\n        for (uint i = 0; i < numberOfSubAccounts; i++) {\n            subAccountPercentages[subAccounts[i]] = percentages[i];\n            subAccountNames[subAccounts[i]] = names[i];\n        }\n    }\n\n    // Modifiers\n    modifier ownerOnly() {\n        require(msg.sender == charityOwner); // has to be instantiated by charity\n        _;\n    }\n\n    modifier timedTransitions() {\n        for (uint i = 0; i < numberOfSubAccounts; i++) {\n            if (campaignAccountStatus[subAccounts[i]] == Stages.AcceptingDeposits && block.timestamp >= creationTime + 7 days) {\n                campaignAccountStatus[subAccounts[i]] = Stages.ElapsedDeposits;\n                emit accountGoalNotHit(subAccounts[i], subAccountBalance[subAccounts[i]], subAccountNames[subAccounts[i]]);\n                campaignType = 3;\n            }\n        }\n        _;\n    }\n\n    function addCampaignGoals(uint256[] memory allocations) public ownerOnly {\n        require(allocations.length == numberOfSubAccounts, \"You need to create a goal for each sub-account!\");\n        for (uint i = 0; i < numberOfSubAccounts; i++) {\n            campaignGoals[subAccounts[i]] = allocations[i]; // allocate\n        }\n    }\n\n    function startCampaign(uint8 typeOfCampaign) public ownerOnly {\n        for (uint i = 0; i < numberOfSubAccounts; i++) {\n            campaignAccountStatus[subAccounts[i]] = Stages.AcceptingDeposits;\n        }\n        creationTime = block.timestamp; // start timer\n        campaignType = typeOfCampaign;\n    }\n\n    function depositCampaign(bytes32 subAccount) public payable timedTransitions {\n        address temp;\n        for (uint i = 0; i < numberOfSubAccounts; i++) {\n            if (subAccountNames[subAccounts[i]] == subAccount) {\n                temp = subAccounts[i]; // finding account address using string, since that is fed\n            }\n        }\n        require(campaignAccountStatus[temp] == Stages.AcceptingDeposits, \"The campaign has either finished or has been fulfilled.\");\n        uint256 existingBalance = subAccountBalance[temp]; // update sub account\n        if (existingBalance != 0) {\n            existingBalance += msg.value;\n        } else {\n            existingBalance = msg.value;\n        }\n        subAccountBalance[temp] = existingBalance;\n        if (existingBalance >= campaignGoals[temp]) {\n            campaignAccountStatus[temp] = Stages.ReleasingDeposits; // met the criteria already. release now? or wait for cue\n            emit accountGoalHit(temp, existingBalance, subAccount);\n        }\n        if (hasDonated[temp][msg.sender] != true) {\n            hasDonated[temp][msg.sender] = true;\n            donorList[temp].push(msg.sender); // add to address list\n        }\n        uint256 donorBalance = donorsBalance[temp][msg.sender]; // update amount donated\n        if (donorBalance != 0) {\n            donorBalance += msg.value;\n        } else {\n            donorBalance = msg.value;\n        }\n        donorsBalance[temp][msg.sender] = donorBalance;\n    }\n\n    function withdrawCampaign(bytes32 subAccount) public timedTransitions ownerOnly { // if charity wants to withdraw\n        address temp;\n        for (uint i = 0; i < numberOfSubAccounts; i++) {\n            if (subAccountNames[subAccounts[i]] == subAccount) {\n                temp = subAccounts[i]; // finding account address using bytes32, since that is fed\n            }\n        }\n        if (campaignAccountStatus[temp] == Stages.ReleasingDeposits) {\n            uint amount = subAccountBalance[temp];\n            address payable accountPayable = payable(temp);\n            accountPayable.transfer(amount); // transfer is done if target is hit AND the charity rq's for transfer\n        } else if (campaignAccountStatus[temp] == Stages.ElapsedDeposits) { // its over without hitting the target.\n            uint amount = subAccountBalance[temp];\n            if (amount != 0) {\n                // two situations: split OR return to donors\n                if (campaignType == 0) {\n                    uint256 amtDonated = subAccountBalance[temp];\n                    for (uint j =0; j < numberOfSubAccounts; j++) {\n                        address subAccountAdd = subAccounts[j];\n                        uint8 ratio = subAccountPercentages[subAccountAdd];\n                        address payable subAccountAddPayable = payable(subAccountAdd);\n                        subAccountAddPayable.transfer((ratio / 100) * amtDonated);\n                    }\n                } else if (campaignType == 1) { // return to donors.\n                    for (uint k = 0; k < donorList[temp].length; k++) {\n                        uint256 amtToReturn = donorsBalance[temp][donorList[temp][k]];\n                        address payable accountPayable = payable(donorList[temp][k]);\n                        accountPayable.transfer(amtToReturn);\n                    } \n                }\n            }\n        } else if (campaignAccountStatus[temp] == Stages.AcceptingDeposits) {\n            emit cannotWithdraw();\n        }\n    }\n\n    /* Check if bytes32 as function paramater is fine (special case for gas usage)\n    function createSubAccount(bytes32 subAccountName, address subAccountAddress) public ownerOnly() {\n        // TODO, make sure to check subAccount does not already exist\n    }*/\n\n    function endCampaign() public ownerOnly() {\n        // Check if elapsed time has passed\n        // Cycle through campaignGoals and check if goal hit. If yes, release funds else return funds. Same as midterm exam.\n        // (We have to take this approach and used fixed price token because otherwise very costly to transfer to main account then transfer to sub account with normal eth)\n        // Reset campaignGoals, campaignGoalsReached for specific campaigns whose duration has elapsed\n    }\n\n\n    // Getters & Setters\n    function getSubAccountBalance(bytes32 subAccountName) public view returns(uint256) {\n        address temp;\n        for (uint i = 0; i < numberOfSubAccounts; i++) {\n            if (subAccountNames[subAccounts[i]] == subAccountName) {\n                temp = subAccounts[i]; // finding account address using bytes32, since that is fed\n            }\n        }\n        return subAccountBalance[temp];\n    }\n\n    function getCampaignType() public view returns (uint8) {\n        return campaignType;\n    }\n    // Any ownerOnly functions that want to use funds from subAccount first checks that account not in campaignGoals and if it is, then at least campaignGoal is met\n}",
  "sourcePath": "/Users/ngxianghan/Documents/Y2S2/IS4302/charichain/contracts/Campaign.sol",
  "compiler": {
    "name": "solc",
    "version": "0.8.11+commit.d7f03943.Emscripten.clang"
  },
  "schemaVersion": "3.4.4",
  "updatedAt": "2022-04-13T10:16:12.356Z",
  "networkType": "ethereum",
  "devdoc": {
    "kind": "dev",
    "methods": {},
    "version": 1
  },
  "userdoc": {
    "kind": "user",
    "methods": {},
    "version": 1
  }
}