{
  "contractName": "Charity",
  "abi": [
    {
      "inputs": [],
      "stateMutability": "nonpayable",
      "type": "constructor"
    },
    {
      "anonymous": false,
      "inputs": [
        {
          "indexed": false,
          "internalType": "address",
          "name": "accountAddress",
          "type": "address"
        },
        {
          "indexed": false,
          "internalType": "uint8",
          "name": "percentages",
          "type": "uint8"
        }
      ],
      "name": "Allocation",
      "type": "event"
    },
    {
      "anonymous": false,
      "inputs": [
        {
          "indexed": false,
          "internalType": "address",
          "name": "mainAccount",
          "type": "address"
        }
      ],
      "name": "Donated",
      "type": "event"
    },
    {
      "anonymous": false,
      "inputs": [
        {
          "indexed": false,
          "internalType": "address",
          "name": "to",
          "type": "address"
        },
        {
          "indexed": false,
          "internalType": "uint256",
          "name": "amount",
          "type": "uint256"
        }
      ],
      "name": "GetCT",
      "type": "event"
    },
    {
      "anonymous": false,
      "inputs": [
        {
          "indexed": false,
          "internalType": "address",
          "name": "to",
          "type": "address"
        },
        {
          "indexed": false,
          "internalType": "uint256",
          "name": "amount",
          "type": "uint256"
        }
      ],
      "name": "Transfer",
      "type": "event"
    },
    {
      "anonymous": false,
      "inputs": [
        {
          "indexed": false,
          "internalType": "address",
          "name": "to",
          "type": "address"
        },
        {
          "indexed": false,
          "internalType": "uint256",
          "name": "amount",
          "type": "uint256"
        }
      ],
      "name": "TransferViaVote",
      "type": "event"
    },
    {
      "anonymous": false,
      "inputs": [
        {
          "indexed": false,
          "internalType": "address",
          "name": "subaccount",
          "type": "address"
        }
      ],
      "name": "Voted",
      "type": "event"
    },
    {
      "anonymous": false,
      "inputs": [
        {
          "indexed": false,
          "internalType": "address",
          "name": "account",
          "type": "address"
        },
        {
          "indexed": false,
          "internalType": "uint256",
          "name": "balance",
          "type": "uint256"
        },
        {
          "indexed": false,
          "internalType": "bytes32",
          "name": "accountName",
          "type": "bytes32"
        }
      ],
      "name": "accountGoalHit",
      "type": "event"
    },
    {
      "anonymous": false,
      "inputs": [
        {
          "indexed": false,
          "internalType": "address",
          "name": "account",
          "type": "address"
        },
        {
          "indexed": false,
          "internalType": "uint256",
          "name": "balance",
          "type": "uint256"
        },
        {
          "indexed": false,
          "internalType": "bytes32",
          "name": "accountName",
          "type": "bytes32"
        }
      ],
      "name": "accountGoalNotHit",
      "type": "event"
    },
    {
      "anonymous": false,
      "inputs": [],
      "name": "cannotWithdraw",
      "type": "event"
    },
    {
      "anonymous": false,
      "inputs": [
        {
          "indexed": false,
          "internalType": "bytes32",
          "name": "nameOfCampaign",
          "type": "bytes32"
        }
      ],
      "name": "createdCampaign",
      "type": "event"
    },
    {
      "inputs": [
        {
          "internalType": "address",
          "name": "",
          "type": "address"
        }
      ],
      "name": "amountDonated",
      "outputs": [
        {
          "internalType": "uint256",
          "name": "",
          "type": "uint256"
        }
      ],
      "stateMutability": "view",
      "type": "function",
      "constant": true
    },
    {
      "inputs": [],
      "name": "creationTime",
      "outputs": [
        {
          "internalType": "uint256",
          "name": "",
          "type": "uint256"
        }
      ],
      "stateMutability": "view",
      "type": "function",
      "constant": true
    },
    {
      "inputs": [],
      "name": "numberOfSubAccounts",
      "outputs": [
        {
          "internalType": "uint8",
          "name": "",
          "type": "uint8"
        }
      ],
      "stateMutability": "view",
      "type": "function",
      "constant": true
    },
    {
      "inputs": [
        {
          "internalType": "address",
          "name": "",
          "type": "address"
        }
      ],
      "name": "subAccountNames",
      "outputs": [
        {
          "internalType": "bytes32",
          "name": "",
          "type": "bytes32"
        }
      ],
      "stateMutability": "view",
      "type": "function",
      "constant": true
    },
    {
      "inputs": [
        {
          "internalType": "address",
          "name": "",
          "type": "address"
        }
      ],
      "name": "subAccountPercentages",
      "outputs": [
        {
          "internalType": "uint8",
          "name": "",
          "type": "uint8"
        }
      ],
      "stateMutability": "view",
      "type": "function",
      "constant": true
    },
    {
      "inputs": [
        {
          "internalType": "uint256",
          "name": "",
          "type": "uint256"
        }
      ],
      "name": "subAccounts",
      "outputs": [
        {
          "internalType": "address",
          "name": "",
          "type": "address"
        }
      ],
      "stateMutability": "view",
      "type": "function",
      "constant": true
    },
    {
      "inputs": [
        {
          "internalType": "address",
          "name": "accountAddress",
          "type": "address"
        },
        {
          "internalType": "bytes32",
          "name": "accountName",
          "type": "bytes32"
        }
      ],
      "name": "createSubAccount",
      "outputs": [],
      "stateMutability": "nonpayable",
      "type": "function"
    },
    {
      "inputs": [
        {
          "internalType": "uint8[]",
          "name": "percentages",
          "type": "uint8[]"
        }
      ],
      "name": "allocatePercentages",
      "outputs": [],
      "stateMutability": "nonpayable",
      "type": "function"
    },
    {
      "inputs": [
        {
          "internalType": "uint256",
          "name": "amt",
          "type": "uint256"
        }
      ],
      "name": "getCT",
      "outputs": [],
      "stateMutability": "payable",
      "type": "function",
      "payable": true
    },
    {
      "inputs": [
        {
          "internalType": "address",
          "name": "to",
          "type": "address"
        },
        {
          "internalType": "uint256",
          "name": "amount",
          "type": "uint256"
        }
      ],
      "name": "transferCT",
      "outputs": [],
      "stateMutability": "nonpayable",
      "type": "function"
    },
    {
      "inputs": [
        {
          "internalType": "address",
          "name": "from",
          "type": "address"
        },
        {
          "internalType": "address",
          "name": "to",
          "type": "address"
        },
        {
          "internalType": "uint256",
          "name": "amount",
          "type": "uint256"
        }
      ],
      "name": "transferCTViaVote",
      "outputs": [],
      "stateMutability": "nonpayable",
      "type": "function"
    },
    {
      "inputs": [],
      "name": "donate",
      "outputs": [],
      "stateMutability": "payable",
      "type": "function",
      "payable": true
    },
    {
      "inputs": [
        {
          "internalType": "address",
          "name": "subAccount",
          "type": "address"
        },
        {
          "internalType": "uint256",
          "name": "voteAmt",
          "type": "uint256"
        }
      ],
      "name": "vote",
      "outputs": [],
      "stateMutability": "payable",
      "type": "function",
      "payable": true
    },
    {
      "inputs": [
        {
          "internalType": "uint256",
          "name": "amtDonated",
          "type": "uint256"
        }
      ],
      "name": "allocateDonations",
      "outputs": [],
      "stateMutability": "payable",
      "type": "function",
      "payable": true
    },
    {
      "inputs": [
        {
          "internalType": "uint256",
          "name": "etherAmount",
          "type": "uint256"
        }
      ],
      "name": "convertToCredits",
      "outputs": [
        {
          "internalType": "uint256",
          "name": "",
          "type": "uint256"
        }
      ],
      "stateMutability": "pure",
      "type": "function",
      "constant": true
    },
    {
      "inputs": [
        {
          "internalType": "address",
          "name": "user",
          "type": "address"
        }
      ],
      "name": "checkCTBalance",
      "outputs": [
        {
          "internalType": "uint256",
          "name": "",
          "type": "uint256"
        }
      ],
      "stateMutability": "view",
      "type": "function",
      "constant": true
    },
    {
      "inputs": [
        {
          "internalType": "bytes32",
          "name": "nameOfCampaign",
          "type": "bytes32"
        }
      ],
      "name": "createCampaign",
      "outputs": [],
      "stateMutability": "nonpayable",
      "type": "function"
    },
    {
      "inputs": [
        {
          "internalType": "uint256[]",
          "name": "allocations",
          "type": "uint256[]"
        }
      ],
      "name": "addCampaignGoals",
      "outputs": [],
      "stateMutability": "nonpayable",
      "type": "function"
    },
    {
      "inputs": [
        {
          "internalType": "uint8",
          "name": "typeOfCampaign",
          "type": "uint8"
        }
      ],
      "name": "startCampaign",
      "outputs": [],
      "stateMutability": "nonpayable",
      "type": "function"
    },
    {
      "inputs": [
        {
          "internalType": "bytes32",
          "name": "subAccount",
          "type": "bytes32"
        }
      ],
      "name": "depositCampaign",
      "outputs": [],
      "stateMutability": "payable",
      "type": "function",
      "payable": true
    },
    {
      "inputs": [
        {
          "internalType": "bytes32",
          "name": "subAccount",
          "type": "bytes32"
        }
      ],
      "name": "withdrawCampaign",
      "outputs": [],
      "stateMutability": "nonpayable",
      "type": "function"
    },
    {
      "inputs": [],
      "name": "getContractOwner",
      "outputs": [
        {
          "internalType": "address",
          "name": "",
          "type": "address"
        }
      ],
      "stateMutability": "view",
      "type": "function",
      "constant": true
    },
    {
      "inputs": [],
      "name": "showAllocation",
      "outputs": [],
      "stateMutability": "nonpayable",
      "type": "function"
    },
    {
      "inputs": [],
      "name": "getProportions",
      "outputs": [
        {
          "internalType": "uint256[]",
          "name": "xd",
          "type": "uint256[]"
        }
      ],
      "stateMutability": "view",
      "type": "function",
      "constant": true
    },
    {
      "inputs": [],
      "name": "getAccountsInOrder",
      "outputs": [
        {
          "internalType": "bytes32[]",
          "name": "xd",
          "type": "bytes32[]"
        }
      ],
      "stateMutability": "view",
      "type": "function",
      "constant": true
    },
    {
      "inputs": [
        {
          "internalType": "uint256",
          "name": "amt",
          "type": "uint256"
        }
      ],
      "name": "checkAmount",
      "outputs": [
        {
          "internalType": "uint256[]",
          "name": "xd",
          "type": "uint256[]"
        }
      ],
      "stateMutability": "view",
      "type": "function",
      "constant": true
    },
    {
      "inputs": [],
      "name": "getNumberOfAccounts",
      "outputs": [
        {
          "internalType": "uint256",
          "name": "",
          "type": "uint256"
        }
      ],
      "stateMutability": "view",
      "type": "function",
      "constant": true
    },
    {
      "inputs": [],
      "name": "getBalance",
      "outputs": [
        {
          "internalType": "uint256",
          "name": "",
          "type": "uint256"
        }
      ],
      "stateMutability": "view",
      "type": "function",
      "constant": true
    },
    {
      "inputs": [
        {
          "internalType": "bytes32",
          "name": "subAccountName",
          "type": "bytes32"
        }
      ],
      "name": "getSubAccountBalance",
      "outputs": [
        {
          "internalType": "uint256",
          "name": "",
          "type": "uint256"
        }
      ],
      "stateMutability": "view",
      "type": "function",
      "constant": true
    },
    {
      "inputs": [],
      "name": "getCampaignType",
      "outputs": [
        {
          "internalType": "uint8",
          "name": "",
          "type": "uint8"
        }
      ],
      "stateMutability": "view",
      "type": "function",
      "constant": true
    },
    {
      "inputs": [],
      "name": "getCampaignGoals",
      "outputs": [
        {
          "internalType": "uint256[]",
          "name": "tc",
          "type": "uint256[]"
        }
      ],
      "stateMutability": "view",
      "type": "function",
      "constant": true
    },
    {
      "inputs": [],
      "name": "checkVoteOutcome",
      "outputs": [
        {
          "internalType": "uint256[]",
          "name": "vc",
          "type": "uint256[]"
        }
      ],
      "stateMutability": "payable",
      "type": "function",
      "payable": true
    }
  ],
  "bytecode": "0x608060405260018054600160a060020a031916331790553480156200002357600080fd5b50604051620000329062000095565b604051809103906000f0801580156200004f573d6000803e3d6000fd5b50600e8054600160a060020a0392909216600160a060020a03199092169190911790556001805460a060020a60ff0219169055600b805460ff19166003179055620000a3565b61095f806200297083390190565b6128bd80620000b36000396000f3fe6080604052600436106101765760e060020a6000350463021a3b22811461017b578063099113f2146101905780630eee4f2f146101a557806312065fe0146101b857806319e5ad38146101db5780632e3a438b146101fb578063309e36ef1461021d5780633649aeed146102325780633a8658e4146102475780633b926cbf146102675780633edfa5951461027a57806342e3f1ed1461029a578063442890d5146102ba5780635b588ac6146102e15780635cccb48e146103075780635d598f1d146103275780635f74bbde146103475780637603cd7a1461035a57806378ad2c2f14610387578063917a43ac146103a85780639dffb367146103c8578063b4c0d9cc146103e8578063ca5b7c2e14610408578063cdc7fcc214610428578063d7ed7d2f1461043d578063d8270dce1461045d578063dcd1e67014610473578063e9772c5214610493578063ed88c68e146104b3578063fa6b9a25146104bb578063fbeb46ff146104eb578063fe91f6eb14610518575b600080fd5b61018e61018936600461239c565b610520565b005b34801561019c57600080fd5b5061018e6109e4565b61018e6101b336600461239c565b610a83565b3480156101c457600080fd5b5030315b6040519081526020015b60405180910390f35b3480156101e757600080fd5b506101c86101f636600461239c565b610be1565b34801561020757600080fd5b50610210610bfa565b6040516101d291906123b5565b34801561022957600080fd5b506101c8610cd5565b34801561023e57600080fd5b50610210610ce5565b34801561025357600080fd5b5061018e61026236600461239c565b610db2565b61018e61027536600461239c565b61136c565b34801561028657600080fd5b5061018e610295366004612415565b61141f565b3480156102a657600080fd5b5061018e6102b5366004612415565b6115c5565b3480156102c657600080fd5b50600154600160a060020a03165b6040516101d2919061243f565b3480156102ed57600080fd5b50600b5460ff165b60405160ff90911681526020016101d2565b34801561031357600080fd5b5061018e610322366004612464565b61166f565b34801561033357600080fd5b5061018e6103423660046124f3565b61173b565b61018e610355366004612415565b611911565b34801561036657600080fd5b506101c861037536600461258c565b60036020526000908152604090205481565b34801561039357600080fd5b506001546102f59060a060020a900460ff1681565b3480156103b457600080fd5b506101c86103c336600461258c565b611a2c565b3480156103d457600080fd5b506101c86103e336600461239c565b611aa1565b3480156103f457600080fd5b5061018e61040336600461239c565b611b59565b34801561041457600080fd5b506102d461042336600461239c565b611c37565b34801561043457600080fd5b50610210611c61565b34801561044957600080fd5b5061018e6104583660046125a7565b611d4c565b34801561046957600080fd5b506101c8600d5481565b34801561047f57600080fd5b5061021061048e36600461239c565b611eef565b34801561049f57600080fd5b5061018e6104ae366004612629565b611fcf565b61018e61217a565b3480156104c757600080fd5b506102f56104d636600461258c565b60026020526000908152604090205460ff1681565b3480156104f757600080fd5b506101c861050636600461258c565b60046020526000908152604090205481565b61021061222f565b60005b60015460a060020a900460ff168110156106f05760006007600080848154811061054f5761054f61267f565b6000918252602080832090910154600160a060020a0316835282019290925260400190205460ff16600281111561058857610588612665565b1480156105a45750600d546105a09062093a806126b3565b4210155b156106de576002600760008084815481106105c1576105c161267f565b6000918252602080832090910154600160a060020a031683528201929092526040019020805460ff191660018360028111156105ff576105ff612665565b0217905550600080516020612868833981519152600082815481106106265761062661267f565b60009182526020822001548154600160a060020a03909116916005918190869081106106545761065461267f565b6000918252602080832090910154600160a060020a03168352820192909252604001812054815490916003918190879081106106925761069261267f565b6000918252602080832090910154600160a060020a0316835282019290925260409081019091205490516106c8939291906126cb565b60405180910390a1600b805460ff191660031790555b806106e8816126ec565b915050610523565b506000805b60015460a060020a900460ff168110156107885782600360008084815481106107205761072061267f565b6000918252602080832090910154600160a060020a031683528201929092526040019020541415610776576000818154811061075e5761075e61267f565b600091825260209091200154600160a060020a031691505b80610780816126ec565b9150506106f5565b50600160a060020a03811660009081526007602052604081205460ff1660028111156107b6576107b6612665565b1461082e5760405160e560020a62461bcd02815260206004820152603760248201527f5468652063616d706169676e20686173206569746865722066696e69736865646044820152604960020a761037b9103430b9903132b2b710333ab63334b63632b2170260648201526084015b60405180910390fd5b600160a060020a038116600090815260056020526040902054801561085e5761085734826126b3565b9050610861565b50345b600160a060020a0382166000908152600560209081526040808320849055600690915290205481106108ed57600160a060020a03821660009081526007602052604090819020805460ff19166001179055517f84ce75384538250d1691d23fcf41bb86189a077b16f707a9abf1d1c3e1285aa3906108e4908490849087906126cb565b60405180910390a15b600160a060020a038216600090815260096020908152604080832033845290915290205460ff16151560011461097a57600160a060020a038216600081815260096020908152604080832033808552908352818420805460ff19166001908117909155948452600a835290832080549485018155835291209091018054600160a060020a03191690911790555b600160a060020a038216600090815260086020908152604080832033845290915290205480156109b5576109ae34826126b3565b90506109b8565b50345b600160a060020a0390921660009081526008602090815260408083203384529091529020919091555050565b60005b600054811015610a80576000808281548110610a0557610a0561267f565b600091825260208083209190910154600160a060020a03168083526002825260409283902054835182815260ff90911692810183905290935090917f1678b24f967a3843f4df73c502214e9713abcdddaae41eb0afe87d808a99e785910160405180910390a150508080610a78906126ec565b9150506109e7565b50565b600154600160a060020a03163314610ab05760405160e560020a62461bcd02815260040161082590612707565b662386f26fc10000811015610b175760405160e560020a62461bcd02815260206004820152602160248201527f4174206c6561737420302e3031455448206e656564656420746f206765742043604482015260fa60020a6015026064820152608401610825565b6000610b2a662386f26fc1000083612775565b600e5460405160e060020a6340c10f19028152919250600160a060020a0316906340c10f1990610b609033908590600401612789565b6020604051808303816000875af1158015610b7f573d6000803e3d6000fd5b505050506040513d601f19601f82011682018060405250810190610ba391906127a2565b507fdbc07349ff099ef130fa7a5897745980f288735cb5e10425d95c20fb1dc2ece33382604051610bd5929190612789565b60405180910390a15050565b6000610bf4662386f26fc1000083612775565b92915050565b60606000610c06610cd5565b6001604060020a03811115610c1d57610c1d612486565b604051908082528060200260200182016040528015610c46578160200160208202803683370190505b50905060005b610c54610cd5565b811015610ccf57600060066000808481548110610c7357610c7361267f565b6000918252602080832090910154600160a060020a0316835282019290925260400190205483519091508190849084908110610cb157610cb161267f565b60209081029190910101525080610cc7816126ec565b915050610c4c565b50919050565b60015460a060020a900460ff1690565b60606000610cf1610cd5565b6001604060020a03811115610d0857610d08612486565b604051908082528060200260200182016040528015610d31578160200160208202803683370190505b50905060005b610d3f610cd5565b811015610ccf5760036000808381548110610d5c57610d5c61267f565b6000918252602080832090910154600160a060020a031683528201929092526040019020548251839083908110610d9557610d9561267f565b602090810291909101015280610daa816126ec565b915050610d37565b60005b60015460a060020a900460ff16811015610f8257600060076000808481548110610de157610de161267f565b6000918252602080832090910154600160a060020a0316835282019290925260400190205460ff166002811115610e1a57610e1a612665565b148015610e365750600d54610e329062093a806126b3565b4210155b15610f7057600260076000808481548110610e5357610e5361267f565b6000918252602080832090910154600160a060020a031683528201929092526040019020805460ff19166001836002811115610e9157610e91612665565b021790555060008051602061286883398151915260008281548110610eb857610eb861267f565b60009182526020822001548154600160a060020a0390911691600591819086908110610ee657610ee661267f565b6000918252602080832090910154600160a060020a0316835282019290925260400181205481549091600391819087908110610f2457610f2461267f565b6000918252602080832090910154600160a060020a031683528201929092526040908101909120549051610f5a939291906126cb565b60405180910390a1600b805460ff191660031790555b80610f7a816126ec565b915050610db5565b50600154600160a060020a03163314610fb05760405160e560020a62461bcd02815260040161082590612707565b6000805b60015460a060020a900460ff16811015611047578260036000808481548110610fdf57610fdf61267f565b6000918252602080832090910154600160a060020a031683528201929092526040019020541415611035576000818154811061101d5761101d61267f565b600091825260209091200154600160a060020a031691505b8061103f816126ec565b915050610fb4565b506001600160a060020a03821660009081526007602052604090205460ff16600281111561107757611077612665565b14156110cd57600160a060020a03811660008181526005602052604080822054905190928492909184156108fc0291859190818181858888f193505050501580156110c6573d6000803e3d6000fd5b5050505050565b6002600160a060020a03821660009081526007602052604090205460ff1660028111156110fc576110fc612665565b141561130b57600160a060020a038116600090815260056020526040902054801561130657600b5460ff166111f657600160a060020a038216600090815260056020526040812054905b60015460a060020a900460ff168110156110c657600080828154811061116e5761116e61267f565b6000918252602080832090910154600160a060020a0316808352600290915260409091205490915060ff1681806108fc866111aa6064866127c4565b60ff166111b791906127e6565b6040518115909202916000818181858888f193505050501580156111df573d6000803e3d6000fd5b5050505080806111ee906126ec565b915050611146565b600b5460ff16600114156113065760005b600160a060020a0383166000908152600a602052604090205481101561130457600160a060020a0383166000908152600860209081526040808320600a909252822080548391908590811061125e5761125e61267f565b6000918252602080832090910154600160a060020a0390811684528382019490945260409283018220549388168252600a905290812080549293509091849081106112ab576112ab61267f565b6000918252602082200154604051600160a060020a039091169250829184156108fc02918591818181858888f193505050501580156112ee573d6000803e3d6000fd5b50505080806112fc906126ec565b915050611207565b505b505050565b600160a060020a03811660009081526007602052604081205460ff16600281111561133857611338612665565b1415611368576040517f64d12556a85cdd58f632c188b5b6bdb51b11dff496b036e63e193315cbc6019f90600090a15b5050565b60005b60015460a060020a900460ff168110156113685760008082815481106113975761139761267f565b6000918252602080832090910154600160a060020a0316808352600290915260409091205490915060ff1681806108fc866113d36064866127c4565b60ff166113e091906127e6565b6040518115909202916000818181858888f19350505050158015611408573d6000803e3d6000fd5b505050508080611417906126ec565b91505061136f565b600154600160a060020a0316331461144c5760405160e560020a62461bcd02815260040161082590612707565b6000805b6000548110156114a85783600160a060020a0316600082815481106114775761147761267f565b600091825260209091200154600160a060020a03161415611496578391505b806114a0816126ec565b915050611450565b5082600160a060020a031681600160a060020a0316141561151f5760405160e560020a62461bcd02815260206004820152602560248201527f54686973206163636f756e742068617320616c7265616479206265656e206372604482015260da60020a6419585d1959026064820152608401610825565b60008054600181810183557f290decd9548b62a8d60345a988386fc84ba6bc95484008f6362f93160ef3e5639091018054600160a060020a038716600160a060020a031990911681179091558252600260209081526040808420805460ff191690556003909152909120839055805481906014906115a890839060a060020a900460ff16612805565b92506101000a81548160ff021916908360ff160217905550505050565b600e5460405160e060020a63a9059cbb028152600160a060020a039091169063a9059cbb906115fa9085908590600401612789565b6020604051808303816000875af1158015611619573d6000803e3d6000fd5b505050506040513d601f19601f8201168201806040525081019061163d91906127a2565b507f69ca02dd4edd7bf0a4abb9ed3b7af3f14778db5d61921c7dc7cd545266326de28282604051610bd5929190612789565b600154600160a060020a0316331461169c5760405160e560020a62461bcd02815260040161082590612707565b60005b60015460a060020a900460ff16811015611720576000600760008084815481106116cb576116cb61267f565b6000918252602080832090910154600160a060020a031683528201929092526040019020805460ff1916600183600281111561170957611709612665565b021790555080611718816126ec565b91505061169f565b5042600d55600b805460ff191660ff92909216919091179055565b600154600160a060020a031633146117685760405160e560020a62461bcd02815260040161082590612707565b6000548151146117dc5760405160e560020a62461bcd02815260206004820152603360248201527f4c656e677468206f6620696e70757420646966666572732066726f6d206e756d6044820152606860020a72626572206f66207375622d6163636f756e7473026064820152608401610825565b6000805b8251811015611825578281815181106117fb576117fb61267f565b602002602001015160ff168261181191906126b3565b91508061181d816126ec565b9150506117e0565b508060641461188c5760405160e560020a62461bcd02815260206004820152602760248201527f596f75722070657263656e746167657320646f6573206e6f7420616464207570604482015260cc60020a66020746f2031303026064820152608401610825565b60005b8251811015611306578281815181106118aa576118aa61267f565b6020026020010151600260008084815481106118c8576118c861267f565b600091825260208083209190910154600160a060020a031683528201929092526040019020805460ff191660ff9290921691909117905580611909816126ec565b91505061188f565b60405160e260020a63245e90eb0281523390600090309063917a43ac9061193c90859060040161243f565b602060405180830381865afa158015611959573d6000803e3d6000fd5b505050506040513d601f19601f8201168201806040525081019061197d919061282a565b9050600081116119e45760405160e560020a62461bcd02815260206004820152602660248201527f596f7520646f6e2774206861766520616e79204368617269546f6b656e732074604482015260d060020a656f20766f7465026064820152608401610825565b6119ef828585611fcf565b7f16a9aa39af49f169911e977347975198c503525f7240d6892a626f0227642fce84604051611a1e919061243f565b60405180910390a150505050565b600e5460405160e060020a6370a08231028152600091600160a060020a0316906370a0823190611a6090859060040161243f565b602060405180830381865afa158015611a7d573d6000803e3d6000fd5b505050506040513d601f19601f82011682018060405250810190610bf4919061282a565b60008060005b60015460a060020a900460ff16811015611b3a578360036000808481548110611ad257611ad261267f565b6000918252602080832090910154600160a060020a031683528201929092526040019020541415611b285760008181548110611b1057611b1061267f565b600091825260209091200154600160a060020a031691505b80611b32816126ec565b915050611aa7565b50600160a060020a031660009081526005602052604090205492915050565b600154600160a060020a03163314611b865760405160e560020a62461bcd02815260040161082590612707565b600b5460ff16600314611bf25760405160e560020a62461bcd02815260206004820152602860248201527f546865726520697320616e6f746865722063616d706169676e207374696c6c20604482015260c160020a67393ab73734b73397026064820152608401610825565b600b805460ff19166002908117909155600c8290556040518281527f32df5be6e61958b5d191ae74e0e248433e277a82557e5936e90f78f83ee3e86e90602001610bd5565b60008181548110611c4757600080fd5b600091825260209091200154600160a060020a0316905081565b60606000611c6d610cd5565b6001604060020a03811115611c8457611c84612486565b604051908082528060200260200182016040528015611cad578160200160208202803683370190505b50905060005b611cbb610cd5565b811015610ccf573360009081526004602052604081205481549091600291819085908110611ceb57611ceb61267f565b6000918252602080832090910154600160a060020a03168352820192909252604001902054611d1d919060ff166127e6565b828281518110611d2f57611d2f61267f565b602090810291909101015280611d44816126ec565b915050611cb3565b600154600160a060020a03163314611d795760405160e560020a62461bcd02815260040161082590612707565b600154815160a060020a90910460ff1614611df45760405160e560020a62461bcd02815260206004820152602f60248201527f596f75206e65656420746f20637265617465206120676f616c20666f722065616044820152608860020a6e6368207375622d6163636f756e7421026064820152608401610825565b600b5460ff16600214611e715760405160e560020a62461bcd02815260206004820152603960248201527f5468652063616d706169676e20686173206e6f74206265656e206372656174656044820152603860020a7864206f722068617320616c7265616479207374617274656421026064820152608401610825565b60005b60015460a060020a900460ff1681101561136857818181518110611e9a57611e9a61267f565b602002602001015160066000808481548110611eb857611eb861267f565b6000918252602080832090910154600160a060020a0316835282019290925260400190205580611ee7816126ec565b915050611e74565b60606000611efb610cd5565b6001604060020a03811115611f1257611f12612486565b604051908082528060200260200182016040528015611f3b578160200160208202803683370190505b50905060005b611f49610cd5565b811015611fc8578360026000808481548110611f6757611f6761267f565b6000918252602080832090910154600160a060020a03168352820192909252604001902054611f99919060ff166127e6565b828281518110611fab57611fab61267f565b602090810291909101015280611fc0816126ec565b915050611f41565b5092915050565b600e5460405160e060020a63095ea7b3028152600160a060020a039091169063095ea7b3906120049030908590600401612789565b6020604051808303816000875af1158015612023573d6000803e3d6000fd5b505050506040513d601f19601f8201168201806040525081019061204791906127a2565b50600e5460405160e060020a63095ea7b3028152600160a060020a039091169063095ea7b39061207d9086908590600401612789565b6020604051808303816000875af115801561209c573d6000803e3d6000fd5b505050506040513d601f19601f820116820180604052508101906120c091906127a2565b50600e5460405160e060020a6323b872dd028152600160a060020a03909116906323b872dd906120f890869086908690600401612843565b6020604051808303816000875af1158015612117573d6000803e3d6000fd5b505050506040513d601f19601f8201168201806040525081019061213b91906127a2565b507fa973846bd7f7b7646779266b098fff2b1230da803e26243c05dff2e4e846dfc2828260405161216d929190612789565b60405180910390a1505050565b33346121858161136c565b61218e81610a83565b60405160e360020a63033cb5a70281526004810182905260009030906319e5ad3890602401602060405180830381865afa1580156121d0573d6000803e3d6000fd5b505050506040513d601f19601f820116820180604052508101906121f4919061282a565b905061220083826115c5565b7fcfa00a08822b6229f7f7b6756172e046099f46a53f39da101f0f65cd8f9832c93060405161216d919061243f565b6060600061223b610cd5565b6001604060020a0381111561225257612252612486565b60405190808252806020026020018201604052801561227b578160200160208202803683370190505b50905060005b612289610cd5565b811015610ccf5760006122c2600083815481106122a8576122a861267f565b600091825260209091200154600160a060020a0316611a2c565b9050808383815181106122d7576122d761267f565b6020908102919091010152600e5460008054600160a060020a03909216916323b872dd91908590811061230c5761230c61267f565b60009182526020909120015460405160e060020a63ffffffff841602815261234491600160a060020a03169030908690600401612843565b6020604051808303816000875af1158015612363573d6000803e3d6000fd5b505050506040513d601f19601f8201168201806040525081019061238791906127a2565b50508080612394906126ec565b915050612281565b6000602082840312156123ae57600080fd5b5035919050565b6020808252825182820181905260009190848201906040850190845b818110156123ed578351835292840192918401916001016123d1565b50909695505050505050565b8035600160a060020a038116811461241057600080fd5b919050565b6000806040838503121561242857600080fd5b612431836123f9565b946020939093013593505050565b600160a060020a0391909116815260200190565b803560ff8116811461241057600080fd5b60006020828403121561247657600080fd5b61247f82612453565b9392505050565b60e060020a634e487b710260009081526041600452602490fd5b604051601f8201601f191681016001604060020a03811182821017156124c8576124c8612486565b604052919050565b60006001604060020a038211156124e9576124e9612486565b5060209081020190565b6000602080838503121561250657600080fd5b82356001604060020a0381111561251c57600080fd5b8301601f8101851361252d57600080fd5b803561254061253b826124d0565b6124a0565b8181529083028201830190838101908783111561255c57600080fd5b928401925b828410156125815761257284612453565b82529284019290840190612561565b979650505050505050565b60006020828403121561259e57600080fd5b61247f826123f9565b600060208083850312156125ba57600080fd5b82356001604060020a038111156125d057600080fd5b8301601f810185136125e157600080fd5b80356125ef61253b826124d0565b8181529083028201830190838101908783111561260b57600080fd5b928401925b8284101561258157833582529284019290840190612610565b60008060006060848603121561263e57600080fd5b612647846123f9565b9250612655602085016123f9565b9150604084013590509250925092565b60e060020a634e487b710260009081526021600452602490fd5b60e060020a634e487b710260009081526032600452602490fd5b60e060020a634e487b710260009081526011600452602490fd5b600082198211156126c6576126c6612699565b500190565b600160a060020a039390931683526020830191909152604082015260600190565b600060001982141561270057612700612699565b5060010190565b60208082526031908201527f54686973206d6574686f6420726571756972657320746865206f776e657220746040820152607860020a706f20696e7374616e74696174652069742102606082015260800190565b60e060020a634e487b710260009081526012600452602490fd5b6000826127845761278461275b565b500490565b600160a060020a03929092168252602082015260400190565b6000602082840312156127b457600080fd5b8151801515811461247f57600080fd5b600060ff8316806127d7576127d761275b565b8060ff84160491505092915050565b600081600019048311821515161561280057612800612699565b500290565b600060ff821660ff84168060ff0382111561282257612822612699565b019392505050565b60006020828403121561283c57600080fd5b5051919050565b600160a060020a03938416815291909216602082015260408101919091526060019056fee98097b6040eb0966e73fd39adf87f8715de85b3f660e6a7009ba2469d4fd86da2646970667358221220eea590bd3a2f3a79c41640e4242e4e98591b275c08c278f5bff8b8e1b92c59c864736f6c634300080b0033608060405260008054600160a860020a031916610100330217905534801561002657600080fd5b50610929806100366000396000f3fe608060405234801561001057600080fd5b50600436106100bd5760e060020a600035046305d2035b81146100c257806306fdde03146100e4578063095ea7b31461011c57806318160ddd1461012f57806323b872dd14610141578063313ce5671461015457806340c10f191461016e57806370a08231146101815780637d64bcb4146101aa578063893d20e8146101b25780638da5cb5b146101dc57806395d89b41146101f4578063a9059cbb14610218578063dd62ed3e1461022b575b600080fd5b6000546100cf9060ff1681565b60405190151581526020015b60405180910390f35b61010f60405180604001604052806009815260200160b960020a682234b1b2aa37b5b2b70281525081565b6040516100db919061074b565b6100cf61012a3660046107bc565b610264565b6003545b6040519081526020016100db565b6100cf61014f3660046107e6565b6102d1565b61015c601281565b60405160ff90911681526020016100db565b6100cf61017c3660046107bc565b6104b2565b61013361018f366004610822565b600160a060020a031660009081526002602052604090205490565b6100cf610595565b6000546101009004600160a060020a03165b604051600160a060020a0390911681526020016100db565b6000546101c4906101009004600160a060020a031681565b61010f60405180604001604052806002815260200160f260020a6111150281525081565b6100cf6102263660046107bc565b6105fc565b61013361023936600461083d565b600160a060020a03918216600090815260016020908152604080832093909416825291909152205490565b336000818152600160209081526040808320600160a060020a038716808552925280832085905551919290917f8c5be1e5ebec7d5bd14f71427d1e84f3dd0314c0f7b2291e5b200ac8c7c3b925906102bf9086815260200190565b60405180910390a35060015b92915050565b6000600160a060020a0383166102e657600080fd5b600160a060020a0384166000908152600260205260409020548211156103565760405160e560020a62461bcd02815260206004820181905260248201527f46726f6d20646f65736e2774206861766520656e6f7567682062616c616e636560448201526064015b60405180910390fd5b600160a060020a03841660009081526001602090815260408083203284529091529020548211156103cc5760405160e560020a62461bcd02815260206004820152601e60248201527f4e6f7420616c6c6f77656420746f207370656e642074686973206d7563680000604482015260640161034d565b600160a060020a0384166000908152600260205260409020546103ef908361070a565b600160a060020a03808616600090815260026020526040808220939093559085168152205461041e908361072d565b600160a060020a03808516600090815260026020908152604080832094909455918716815260018252828120328252909152205461045c908361070a565b600160a060020a03858116600081815260016020908152604080832032845282529182902094909455518581529186169290916000805160206108d4833981519152910160405180910390a35060019392505050565b600080546101009004600160a060020a031633146104cf57600080fd5b60005460ff16156104df57600080fd5b6003546104ec908361072d565b600355600160a060020a038316600090815260026020526040902054610512908361072d565b600160a060020a038416600081815260026020526040908190209290925590517f0f6798a560793a54c3bcfe86a93cde1e73087d944c0ea20544137d4121396885906105619085815260200190565b60405180910390a2604051828152600160a060020a038416906000906000805160206108d4833981519152906020016102bf565b600080546101009004600160a060020a031633146105b257600080fd5b60005460ff16156105c257600080fd5b6000805460ff191660011781556040517fae5184fba832cb2b1f702aca6117b8d265eaf03ad33eb133f19dde0f5920fa089190a150600190565b6000600160a060020a03831661061157600080fd5b326000908152600260205260409020548211156106855760405160e560020a62461bcd02815260206004820152602660248201527f6d73672e73656e64657220646f65736e2774206861766520656e6f7567682062604482015260d060020a65616c616e636502606482015260840161034d565b3260009081526002602052604090205461069f908361070a565b3260009081526002602052604080822092909255600160a060020a038516815220546106cb908361072d565b600160a060020a0384166000818152600260205260409081902092909255905132906000805160206108d4833981519152906102bf9086815260200190565b60008282111561071c5761071c610870565b61072682846108a4565b9392505050565b600061073982846108bb565b9050828110156102cb576102cb610870565b600060208083528351808285015260005b818110156107785785810183015185820160400152820161075c565b8181111561078a576000604083870101525b50601f01601f1916929092016040019392505050565b8035600160a060020a03811681146107b757600080fd5b919050565b600080604083850312156107cf57600080fd5b6107d8836107a0565b946020939093013593505050565b6000806000606084860312156107fb57600080fd5b610804846107a0565b9250610812602085016107a0565b9150604084013590509250925092565b60006020828403121561083457600080fd5b610726826107a0565b6000806040838503121561085057600080fd5b610859836107a0565b9150610867602084016107a0565b90509250929050565b60e060020a634e487b710260009081526001600452602490fd5b60e060020a634e487b710260009081526011600452602490fd5b6000828210156108b6576108b661088a565b500390565b600082198211156108ce576108ce61088a565b50019056feddf252ad1be2c89b69c2b068fc378daa952ba7f163c4a11628f55a4df523b3efa2646970667358221220180178765af589b6697d6894ed8743130a5712336b6200bbb1af92302d4ee92464736f6c634300080b0033",
  "immutableReferences": {},
  "source": "// SPDX-License-Identifier: MIT\npragma solidity >=0.8.0;\npragma abicoder v2;\n\n// import \"./ChariToken.sol\";\nimport './ERC20.sol';\n\ncontract Charity {\n    // ChariToken tokenContract;\n    //Campaign campaignContract;\n    address[] public subAccounts;\n    address _owner = msg.sender;\n    uint8 public numberOfSubAccounts; //subaccounts sld not exceed 255\n    mapping(address => uint8) public subAccountPercentages; // mapping of proportion of amount donated, for each sub-account [0.1, 0.2, 0.3, 0.4] etc\n    mapping(address => bytes32) public subAccountNames; // same size as mapping above, stores the name of each subaccount for that charity\n    // mapping(address => uint256) public subAccountVotes; //same size as mapping above, tracks num. of votes per subaccount for that charity\n    mapping(address => uint256) public amountDonated; // mapping for amount that each person donates\n\n    // campaign vars\n    mapping(address => uint256) subAccountBalance; // Maps addreess of account => account balance. Can switch to address => balance mapping if that is used more (one less conversion step).\n    mapping(address => uint256) campaignGoals; // Maps account => goal for that account.\n    mapping(address => Stages) campaignAccountStatus; // Maps address to current stage.\n    mapping(address => mapping(address => uint256)) donorsBalance; // how much each donor has donated\n    mapping(address => mapping(address => bool)) hasDonated;\n    mapping(address => address[]) donorList;\n    //address[] public donorList;\n    uint8 campaignType; // 0 for split if not met, 1 for return to donors if not met, 2 for not started yet, 3 for done already.\n    bytes32 campaignName;\n\n    uint public creationTime;\n    enum Stages {\n        AcceptingDeposits,\n        ReleasingDeposits,\n        ElapsedDeposits\n    }\n\n    //Token integration\n    ERC20 erc20instance;\n\n    constructor() {\n        erc20instance = new ERC20();\n        numberOfSubAccounts = 0;\n        campaignType = 3;\n    }\n\n    event Allocation(address accountAddress, uint8 percentages);\n\n    event Transfer(address to, uint256 amount); //event of Charity sending CT to donor\n    event GetCT(address to, uint256 amount); //event of this contract getting CT with Eth\n    event TransferViaVote(address to, uint256 amount); //event of Donor voting to sub account\n    // event TokenSent(address sender, uint256 amt); //event of Charity sending CT to donor\n    event Donated(address mainAccount); //event of voting for a sub-account\n    event Voted(address subaccount); //event of voting for a sub-account\n    \n    // campaign events\n    event cannotWithdraw();\n    event accountGoalHit(address account, uint256 balance, bytes32 accountName);\n    event accountGoalNotHit(address account, uint256 balance, bytes32 accountName);\n    event createdCampaign(bytes32 nameOfCampaign);\n    modifier ownerOnly() {\n        require(msg.sender == _owner, \"This method requires the owner to instantiate it!\");\n        _;\n    }\n\n    modifier timedTransitions() {\n        for (uint i = 0; i < numberOfSubAccounts; i++) {\n            if (campaignAccountStatus[subAccounts[i]] == Stages.AcceptingDeposits && block.timestamp >= creationTime + 7 days) {\n                campaignAccountStatus[subAccounts[i]] = Stages.ElapsedDeposits;\n                emit accountGoalNotHit(subAccounts[i], subAccountBalance[subAccounts[i]], subAccountNames[subAccounts[i]]);\n                campaignType = 3;\n            }\n        }\n        _;\n    }\n    // Function to receive Ether. msg.data must be empty\n    // receive() external payable {} // might need to change imo.... because we need to store senders\n\n    // // Fallback function is called when msg.data is not empty\n    // fallback() external payable {}\n    \n    // creation of sub-accounts for a single charity\n    function createSubAccount(address accountAddress, bytes32 accountName) public ownerOnly{\n        address temp;\n        for(uint i = 0; i < subAccounts.length; i++) {\n            if (subAccounts[i] == accountAddress) {\n                temp = accountAddress;\n            }\n        }\n        require(temp != accountAddress, \"This account has already been created\");\n        subAccounts.push(accountAddress);\n        subAccountPercentages[accountAddress] = 0;\n        subAccountNames[accountAddress] = accountName;\n        numberOfSubAccounts += 1;\n    }\n\n    // allocate percentages based on sub-account addresses. Feed in array of percentages\n    function allocatePercentages(uint8[] memory percentages) public ownerOnly() {\n        require(percentages.length == subAccounts.length, \"Length of input differs from number of sub-accounts\");\n        uint temp;\n        for(uint i = 0; i < percentages.length; i++) {\n            temp += percentages[i];\n        }\n        require(temp == 100, \"Your percentages does not add up to 100\");\n        for(uint i = 0; i < percentages.length; i++) {\n            subAccountPercentages[subAccounts[i]] = percentages[i];\n        }\n    }\n\n    //token integration\n    function getCT(uint256 amt) public payable ownerOnly { //an address gets CT with Eth\n        require(amt >= 1E16, \"At least 0.01ETH needed to get CT\");\n        uint256 val = amt/ 1E16;\n        erc20instance.mint(msg.sender, val);\n        emit GetCT(msg.sender, val);\n    }\n\n    function transferCT(address to, uint256 amount) public {\n        erc20instance.transfer(to, amount);\n        emit Transfer(to, amount);\n    }\n\n    function transferCTViaVote(address from, address to, uint256 amount) public { \n        erc20instance.approve(address(this), amount);\n        erc20instance.approve(from, amount);\n        erc20instance.transferFrom(from, to, amount);\n        emit TransferViaVote(to, amount);\n    }\n\n    function donate() public payable {\n        address donor = msg.sender;\n        uint256 amtDonated = msg.value;\n        // address payable charityAddress = address(this);\n        // charityAddress.transfer(amtDonated);\n\n        allocateDonations(amtDonated); //allocate donations\n\n        //mint tokens to this contract, then send it to donor\n        getCT(amtDonated);\n        uint256 tokensToAward = this.convertToCredits(amtDonated);\n        transferCT(donor, tokensToAward);\n        emit Donated(address(this));\n    }\n\n    function vote(address subAccount, uint256 voteAmt) public payable {\n        address donor = msg.sender;\n        uint256 tokenBalance = this.checkCTBalance(donor);\n        require(tokenBalance > 0, \"You don't have any ChariTokens to vote\");\n        \n        transferCTViaVote(donor, subAccount, voteAmt); \n        emit Voted(subAccount);\n    }\n\n    // allocate donations based on balance.. do we need to change? to allocate each time someone donates\n    function allocateDonations(uint256 amtDonated) public payable {\n        // uint256 amtDonated = getBalance();\n        for (uint i =0; i < numberOfSubAccounts; i++) {\n            address subAccountAdd = subAccounts[i]; // subaccount in question currently\n            uint8 ratio = subAccountPercentages[subAccountAdd];\n            address payable subAccountAddPayable = payable(subAccountAdd);\n            subAccountAddPayable.transfer((ratio/100)*amtDonated);\n        }\n    }\n\n\n\n    //this is a unit conversion function that converts amount of ether into DTs\n    function convertToCredits(uint256 etherAmount) public pure returns(uint256) {\n        return(etherAmount / 10000000000000000);\n    }\n\n    function checkCTBalance(address user) public view returns(uint256) {\n        return erc20instance.balanceOf(user);\n    }\n\n\n    //process donations: split donations and award donor with tokens\n    // function processDonations(uint256 amtDonated, address donor) public payable {\n    //     this.allocateDonations(amtDonated); //allocate donations\n\n    //     //mint tokens to this contract, then send it to donor\n    //     tokenContract.getCredit(amtDonated);\n    //     uint256 tokensToAward = tokenContract.convertToCredits(amtDonated);\n    //     tokenContract.getErc20Contract().transfer(donor, tokensToAward); \n    // }\n\n\n    function createCampaign(bytes32 nameOfCampaign) public ownerOnly {\n        require(campaignType == 3, \"There is another campaign still running.\");\n        uint8 typeOfCampaign = 2;\n        campaignType = typeOfCampaign;\n        campaignName = nameOfCampaign;\n        emit createdCampaign(nameOfCampaign);\n    }\n\n/* Campaign section */\n\n    function addCampaignGoals(uint256[] memory allocations) public ownerOnly {\n        require(allocations.length == numberOfSubAccounts, \"You need to create a goal for each sub-account!\");\n        require(campaignType == 2, \"The campaign has not been created or has already started!\");\n        for (uint i = 0; i < numberOfSubAccounts; i++) {\n            campaignGoals[subAccounts[i]] = allocations[i]; // allocate\n        }\n    }\n\n    function startCampaign(uint8 typeOfCampaign) public ownerOnly {\n        for (uint i = 0; i < numberOfSubAccounts; i++) {\n            campaignAccountStatus[subAccounts[i]] = Stages.AcceptingDeposits;\n        }\n        creationTime = block.timestamp; // start timer\n        campaignType = typeOfCampaign;\n    }\n\n    function depositCampaign(bytes32 subAccount) public payable timedTransitions {\n        address temp;\n        for (uint i = 0; i < numberOfSubAccounts; i++) {\n            if (subAccountNames[subAccounts[i]] == subAccount) {\n                temp = subAccounts[i]; // finding account address using string, since that is fed\n            }\n        }\n        require(campaignAccountStatus[temp] == Stages.AcceptingDeposits, \"The campaign has either finished or has been fulfilled.\");\n        uint256 existingBalance = subAccountBalance[temp]; // update sub account\n        if (existingBalance != 0) {\n            existingBalance += msg.value;\n        } else {\n            existingBalance = msg.value;\n        }\n        subAccountBalance[temp] = existingBalance;\n        if (existingBalance >= campaignGoals[temp]) {\n            campaignAccountStatus[temp] = Stages.ReleasingDeposits; // met the criteria already. release now? or wait for cue\n            emit accountGoalHit(temp, existingBalance, subAccount);\n        }\n        if (hasDonated[temp][msg.sender] != true) {\n            hasDonated[temp][msg.sender] = true;\n            donorList[temp].push(msg.sender); // add to address list\n        }\n        uint256 donorBalance = donorsBalance[temp][msg.sender]; // update amount donated\n        if (donorBalance != 0) {\n            donorBalance += msg.value;\n        } else {\n            donorBalance = msg.value;\n        }\n        donorsBalance[temp][msg.sender] = donorBalance;\n    }\n\n    function withdrawCampaign(bytes32 subAccount) public timedTransitions ownerOnly { // if charity wants to withdraw\n        address temp;\n        for (uint i = 0; i < numberOfSubAccounts; i++) {\n            if (subAccountNames[subAccounts[i]] == subAccount) {\n                temp = subAccounts[i]; // finding account address using bytes32, since that is fed\n            }\n        }\n        if (campaignAccountStatus[temp] == Stages.ReleasingDeposits) {\n            uint amount = subAccountBalance[temp];\n            address payable accountPayable = payable(temp);\n            accountPayable.transfer(amount); // transfer is done if target is hit AND the charity rq's for transfer\n        } else if (campaignAccountStatus[temp] == Stages.ElapsedDeposits) { // its over without hitting the target.\n            uint amount = subAccountBalance[temp];\n            if (amount != 0) {\n                // two situations: split OR return to donors\n                if (campaignType == 0) {\n                    uint256 amtDonated = subAccountBalance[temp];\n                    for (uint j =0; j < numberOfSubAccounts; j++) {\n                        address subAccountAdd = subAccounts[j];\n                        uint8 ratio = subAccountPercentages[subAccountAdd];\n                        address payable subAccountAddPayable = payable(subAccountAdd);\n                        subAccountAddPayable.transfer((ratio / 100) * amtDonated);\n                    }\n                } else if (campaignType == 1) { // return to donors.\n                    for (uint k = 0; k < donorList[temp].length; k++) {\n                        uint256 amtToReturn = donorsBalance[temp][donorList[temp][k]];\n                        address payable accountPayable = payable(donorList[temp][k]);\n                        accountPayable.transfer(amtToReturn);\n                    } \n                }\n            }\n        } else if (campaignAccountStatus[temp] == Stages.AcceptingDeposits) {\n            emit cannotWithdraw();\n        }\n    }\n\n\n/* GETTERS */\n    //Add relevant getters and setters\n    function getContractOwner() public view returns(address){\n        return _owner;\n    }\n\n\n     // getter for allocation\n    function showAllocation() public {\n        for(uint i = 0; i < subAccounts.length; i++) {\n            address tempAddress = subAccounts[i];\n            uint8 tempAllocation = subAccountPercentages[tempAddress];\n            emit Allocation(tempAddress, tempAllocation);\n        }\n    }\n\n    // a general check on how much money the person has put, and how it has been spread\n    function getProportions() public view returns (uint[] memory xd) {\n        uint[] memory listOfProportions = new uint[](getNumberOfAccounts());\n        for (uint256 i = 0; i < getNumberOfAccounts(); i++) {\n            listOfProportions[i] = subAccountPercentages[subAccounts[i]] * amountDonated[msg.sender]; // \"Food, 100\" e.g.\n        }\n        return listOfProportions; // e.g. [100, 200, 300]\n    }\n    \n   \n    \n    function getAccountsInOrder() public view returns (bytes32[] memory xd) {\n        bytes32[] memory listOfAccounts = new bytes32[](getNumberOfAccounts());\n        for (uint256 i = 0; i < getNumberOfAccounts(); i++) {\n            listOfAccounts[i] = (subAccountNames[subAccounts[i]]); // \"Food, 100\" e.g.\n        }\n        return listOfAccounts; // e.g. [\"Food\", \"Water\", \"Air\"]. combine with getProportions() to find out amount of money in each sub wallet\n    }\n\n\n    // given an amount, how much is going to which acc? a way for donors to check where amounts are gg before they donate. \n    //combine with getAccountsInOrder() as well, to find out where in which account\n    function checkAmount(uint256 amt) public view returns (uint[] memory xd) {\n        uint[] memory listOfAmounts = new uint[](getNumberOfAccounts());\n        for (uint256 i = 0; i < getNumberOfAccounts(); i++) {\n            listOfAmounts[i] = (subAccountPercentages[subAccounts[i]] * amt);\n        }\n        return listOfAmounts;\n    }\n\n    function getNumberOfAccounts() public view returns (uint256) {\n        return numberOfSubAccounts;\n    }\n\n    // fall back function balance!\n    function getBalance() public view returns (uint) {\n        return address(this).balance;\n    }\n\n    function getSubAccountBalance(bytes32 subAccountName) public view returns(uint256) {\n        address temp;\n        for (uint i = 0; i < numberOfSubAccounts; i++) {\n            if (subAccountNames[subAccounts[i]] == subAccountName) {\n                temp = subAccounts[i]; // finding account address using bytes32, since that is fed\n            }\n        }\n        return subAccountBalance[temp];\n    }\n\n    function getCampaignType() public view returns (uint8) {\n        return campaignType;\n    }\n\n    function getCampaignGoals() public view returns (uint256[] memory tc) {\n        uint256[] memory goals = new uint256[](getNumberOfAccounts());\n        for (uint256 i = 0; i < getNumberOfAccounts(); i++) {\n            uint256 currentGoal = campaignGoals[subAccounts[i]];\n            goals[i] = currentGoal;\n        }\n        return goals;\n    }\n\n    function checkVoteOutcome() public payable returns(uint256[] memory vc) {\n        uint256[] memory voteCounts = new uint256[](getNumberOfAccounts());\n        for (uint256 i = 0; i < getNumberOfAccounts(); i++) {\n            uint256 currVoteCount = checkCTBalance(subAccounts[i]);\n            voteCounts[i] = currVoteCount;\n\n            //reset voteCount\n            erc20instance.transferFrom(subAccounts[i], address(this), currVoteCount); //simulate burn tokens by transferring from subaccount to charity\n\n        }\n\n        return voteCounts;        \n    }\n}",
  "sourcePath": "/Users/ngxianghan/Documents/Y2S2/IS4302/charichain/contracts/Charity.sol",
  "compiler": {
    "name": "solc",
    "version": "0.8.11+commit.d7f03943.Emscripten.clang"
  },
  "schemaVersion": "3.4.7",
  "updatedAt": "2022-04-13T13:35:58.408Z",
  "networkType": "ethereum",
  "devdoc": {
    "kind": "dev",
    "methods": {},
    "version": 1
  },
  "userdoc": {
    "kind": "user",
    "methods": {},
    "version": 1
  }
}