{
  "contractName": "Charity",
  "abi": [
    {
      "inputs": [],
      "stateMutability": "nonpayable",
      "type": "constructor"
    },
    {
      "anonymous": false,
      "inputs": [
        {
          "indexed": false,
          "internalType": "address",
          "name": "accountAddress",
          "type": "address"
        },
        {
          "indexed": false,
          "internalType": "uint8",
          "name": "percentages",
          "type": "uint8"
        }
      ],
      "name": "Allocation",
      "type": "event"
    },
    {
      "anonymous": false,
      "inputs": [
        {
          "indexed": false,
          "internalType": "address",
          "name": "mainAccount",
          "type": "address"
        }
      ],
      "name": "Donated",
      "type": "event"
    },
    {
      "anonymous": false,
      "inputs": [
        {
          "indexed": false,
          "internalType": "address",
          "name": "to",
          "type": "address"
        },
        {
          "indexed": false,
          "internalType": "uint256",
          "name": "amount",
          "type": "uint256"
        }
      ],
      "name": "GetCT",
      "type": "event"
    },
    {
      "anonymous": false,
      "inputs": [
        {
          "indexed": false,
          "internalType": "uint256",
          "name": "amountTransferred",
          "type": "uint256"
        },
        {
          "indexed": false,
          "internalType": "address",
          "name": "account",
          "type": "address"
        }
      ],
      "name": "ReleasingDepositsTransfer",
      "type": "event"
    },
    {
      "anonymous": false,
      "inputs": [
        {
          "indexed": false,
          "internalType": "address",
          "name": "to",
          "type": "address"
        },
        {
          "indexed": false,
          "internalType": "uint256",
          "name": "amount",
          "type": "uint256"
        }
      ],
      "name": "Transfer",
      "type": "event"
    },
    {
      "anonymous": false,
      "inputs": [
        {
          "indexed": false,
          "internalType": "address",
          "name": "to",
          "type": "address"
        },
        {
          "indexed": false,
          "internalType": "uint256",
          "name": "amount",
          "type": "uint256"
        }
      ],
      "name": "TransferViaVote",
      "type": "event"
    },
    {
      "anonymous": false,
      "inputs": [
        {
          "indexed": false,
          "internalType": "address",
          "name": "subaccount",
          "type": "address"
        }
      ],
      "name": "Voted",
      "type": "event"
    },
    {
      "anonymous": false,
      "inputs": [
        {
          "indexed": false,
          "internalType": "address",
          "name": "account",
          "type": "address"
        },
        {
          "indexed": false,
          "internalType": "uint256",
          "name": "balance",
          "type": "uint256"
        },
        {
          "indexed": false,
          "internalType": "bytes32",
          "name": "accountName",
          "type": "bytes32"
        }
      ],
      "name": "accountGoalHit",
      "type": "event"
    },
    {
      "anonymous": false,
      "inputs": [
        {
          "indexed": false,
          "internalType": "address",
          "name": "account",
          "type": "address"
        },
        {
          "indexed": false,
          "internalType": "uint256",
          "name": "balance",
          "type": "uint256"
        },
        {
          "indexed": false,
          "internalType": "bytes32",
          "name": "accountName",
          "type": "bytes32"
        }
      ],
      "name": "accountGoalNotHit",
      "type": "event"
    },
    {
      "anonymous": false,
      "inputs": [
        {
          "indexed": false,
          "internalType": "bytes32",
          "name": "nameOfCampaign",
          "type": "bytes32"
        }
      ],
      "name": "createdCampaign",
      "type": "event"
    },
    {
      "anonymous": false,
      "inputs": [
        {
          "indexed": false,
          "internalType": "uint256[]",
          "name": "splitArray",
          "type": "uint256[]"
        }
      ],
      "name": "elapsedDepositsTransfer",
      "type": "event"
    },
    {
      "stateMutability": "payable",
      "type": "fallback"
    },
    {
      "inputs": [
        {
          "internalType": "address",
          "name": "",
          "type": "address"
        }
      ],
      "name": "amountDonated",
      "outputs": [
        {
          "internalType": "uint256",
          "name": "",
          "type": "uint256"
        }
      ],
      "stateMutability": "view",
      "type": "function"
    },
    {
      "inputs": [],
      "name": "creationTime",
      "outputs": [
        {
          "internalType": "uint256",
          "name": "",
          "type": "uint256"
        }
      ],
      "stateMutability": "view",
      "type": "function"
    },
    {
      "inputs": [],
      "name": "numberOfSubAccounts",
      "outputs": [
        {
          "internalType": "uint8",
          "name": "",
          "type": "uint8"
        }
      ],
      "stateMutability": "view",
      "type": "function"
    },
    {
      "inputs": [
        {
          "internalType": "address",
          "name": "",
          "type": "address"
        }
      ],
      "name": "subAccountNames",
      "outputs": [
        {
          "internalType": "bytes32",
          "name": "",
          "type": "bytes32"
        }
      ],
      "stateMutability": "view",
      "type": "function"
    },
    {
      "inputs": [
        {
          "internalType": "address",
          "name": "",
          "type": "address"
        }
      ],
      "name": "subAccountPercentages",
      "outputs": [
        {
          "internalType": "uint8",
          "name": "",
          "type": "uint8"
        }
      ],
      "stateMutability": "view",
      "type": "function"
    },
    {
      "inputs": [
        {
          "internalType": "address",
          "name": "",
          "type": "address"
        }
      ],
      "name": "subAccountVotes",
      "outputs": [
        {
          "internalType": "uint256",
          "name": "",
          "type": "uint256"
        }
      ],
      "stateMutability": "view",
      "type": "function"
    },
    {
      "inputs": [
        {
          "internalType": "uint256",
          "name": "",
          "type": "uint256"
        }
      ],
      "name": "subAccounts",
      "outputs": [
        {
          "internalType": "address",
          "name": "",
          "type": "address"
        }
      ],
      "stateMutability": "view",
      "type": "function"
    },
    {
      "stateMutability": "payable",
      "type": "receive"
    },
    {
      "inputs": [
        {
          "internalType": "address",
          "name": "accountAddress",
          "type": "address"
        },
        {
          "internalType": "bytes32",
          "name": "accountName",
          "type": "bytes32"
        }
      ],
      "name": "createSubAccount",
      "outputs": [],
      "stateMutability": "nonpayable",
      "type": "function"
    },
    {
      "inputs": [
        {
          "internalType": "uint8[]",
          "name": "percentages",
          "type": "uint8[]"
        }
      ],
      "name": "allocatePercentages",
      "outputs": [],
      "stateMutability": "nonpayable",
      "type": "function"
    },
    {
      "inputs": [
        {
          "internalType": "uint256",
          "name": "amt",
          "type": "uint256"
        }
      ],
      "name": "getCT",
      "outputs": [],
      "stateMutability": "payable",
      "type": "function"
    },
    {
      "inputs": [
        {
          "internalType": "address",
          "name": "to",
          "type": "address"
        },
        {
          "internalType": "uint256",
          "name": "amount",
          "type": "uint256"
        }
      ],
      "name": "transferCTViaVote",
      "outputs": [],
      "stateMutability": "nonpayable",
      "type": "function"
    },
    {
      "inputs": [],
      "name": "donate",
      "outputs": [],
      "stateMutability": "payable",
      "type": "function"
    },
    {
      "inputs": [
        {
          "internalType": "address",
          "name": "subAccount",
          "type": "address"
        },
        {
          "internalType": "uint256",
          "name": "voteAmt",
          "type": "uint256"
        }
      ],
      "name": "vote",
      "outputs": [],
      "stateMutability": "payable",
      "type": "function"
    },
    {
      "inputs": [
        {
          "internalType": "uint256",
          "name": "amtDonated",
          "type": "uint256"
        }
      ],
      "name": "allocateDonations",
      "outputs": [],
      "stateMutability": "payable",
      "type": "function"
    },
    {
      "inputs": [
        {
          "internalType": "uint256",
          "name": "etherAmount",
          "type": "uint256"
        }
      ],
      "name": "convertToCredits",
      "outputs": [
        {
          "internalType": "uint256",
          "name": "",
          "type": "uint256"
        }
      ],
      "stateMutability": "pure",
      "type": "function"
    },
    {
      "inputs": [
        {
          "internalType": "address",
          "name": "user",
          "type": "address"
        }
      ],
      "name": "checkCTBalance",
      "outputs": [
        {
          "internalType": "uint256",
          "name": "",
          "type": "uint256"
        }
      ],
      "stateMutability": "view",
      "type": "function"
    },
    {
      "inputs": [
        {
          "internalType": "bytes32",
          "name": "nameOfCampaign",
          "type": "bytes32"
        }
      ],
      "name": "createCampaign",
      "outputs": [],
      "stateMutability": "nonpayable",
      "type": "function"
    },
    {
      "inputs": [
        {
          "internalType": "uint256[]",
          "name": "allocations",
          "type": "uint256[]"
        }
      ],
      "name": "addCampaignGoals",
      "outputs": [],
      "stateMutability": "nonpayable",
      "type": "function"
    },
    {
      "inputs": [
        {
          "internalType": "uint8",
          "name": "typeOfCampaign",
          "type": "uint8"
        }
      ],
      "name": "startCampaign",
      "outputs": [],
      "stateMutability": "nonpayable",
      "type": "function"
    },
    {
      "inputs": [
        {
          "internalType": "bytes32",
          "name": "subAccount",
          "type": "bytes32"
        }
      ],
      "name": "depositCampaign",
      "outputs": [],
      "stateMutability": "payable",
      "type": "function"
    },
    {
      "inputs": [
        {
          "internalType": "bytes32",
          "name": "subAccount",
          "type": "bytes32"
        }
      ],
      "name": "withdrawCampaign",
      "outputs": [],
      "stateMutability": "nonpayable",
      "type": "function"
    },
    {
      "inputs": [],
      "name": "fastForwardCampaignStates",
      "outputs": [],
      "stateMutability": "nonpayable",
      "type": "function"
    },
    {
      "inputs": [],
      "name": "getContractOwner",
      "outputs": [
        {
          "internalType": "address",
          "name": "",
          "type": "address"
        }
      ],
      "stateMutability": "view",
      "type": "function"
    },
    {
      "inputs": [],
      "name": "getContractAddress",
      "outputs": [
        {
          "internalType": "address",
          "name": "",
          "type": "address"
        }
      ],
      "stateMutability": "view",
      "type": "function"
    },
    {
      "inputs": [],
      "name": "showAllocation",
      "outputs": [
        {
          "internalType": "uint8[]",
          "name": "allocations",
          "type": "uint8[]"
        }
      ],
      "stateMutability": "nonpayable",
      "type": "function"
    },
    {
      "inputs": [],
      "name": "getProportions",
      "outputs": [
        {
          "internalType": "uint256[]",
          "name": "proportions",
          "type": "uint256[]"
        }
      ],
      "stateMutability": "view",
      "type": "function"
    },
    {
      "inputs": [],
      "name": "getAccountsInOrder",
      "outputs": [
        {
          "internalType": "bytes32[]",
          "name": "accounts",
          "type": "bytes32[]"
        }
      ],
      "stateMutability": "view",
      "type": "function"
    },
    {
      "inputs": [
        {
          "internalType": "uint256",
          "name": "amt",
          "type": "uint256"
        }
      ],
      "name": "checkAmount",
      "outputs": [
        {
          "internalType": "uint256[]",
          "name": "amounts",
          "type": "uint256[]"
        }
      ],
      "stateMutability": "view",
      "type": "function"
    },
    {
      "inputs": [],
      "name": "getNumberOfAccounts",
      "outputs": [
        {
          "internalType": "uint256",
          "name": "",
          "type": "uint256"
        }
      ],
      "stateMutability": "view",
      "type": "function"
    },
    {
      "inputs": [],
      "name": "getBalance",
      "outputs": [
        {
          "internalType": "uint256",
          "name": "",
          "type": "uint256"
        }
      ],
      "stateMutability": "view",
      "type": "function"
    },
    {
      "inputs": [
        {
          "internalType": "bytes32",
          "name": "subAccountName",
          "type": "bytes32"
        }
      ],
      "name": "getSubAccountBalance",
      "outputs": [
        {
          "internalType": "uint256",
          "name": "",
          "type": "uint256"
        }
      ],
      "stateMutability": "view",
      "type": "function"
    },
    {
      "inputs": [],
      "name": "getCampaignStatus",
      "outputs": [
        {
          "internalType": "uint8",
          "name": "",
          "type": "uint8"
        }
      ],
      "stateMutability": "view",
      "type": "function"
    },
    {
      "inputs": [],
      "name": "getCampaignType",
      "outputs": [
        {
          "internalType": "uint8",
          "name": "",
          "type": "uint8"
        }
      ],
      "stateMutability": "view",
      "type": "function"
    },
    {
      "inputs": [],
      "name": "getCampaignGoals",
      "outputs": [
        {
          "internalType": "uint256[]",
          "name": "tc",
          "type": "uint256[]"
        }
      ],
      "stateMutability": "view",
      "type": "function"
    },
    {
      "inputs": [
        {
          "internalType": "bytes32",
          "name": "subAccountName",
          "type": "bytes32"
        },
        {
          "internalType": "address",
          "name": "sender",
          "type": "address"
        }
      ],
      "name": "getDonorsBalance",
      "outputs": [
        {
          "internalType": "uint256",
          "name": "",
          "type": "uint256"
        }
      ],
      "stateMutability": "view",
      "type": "function"
    },
    {
      "inputs": [],
      "name": "getStages",
      "outputs": [
        {
          "internalType": "bytes32[]",
          "name": "listOfStages",
          "type": "bytes32[]"
        }
      ],
      "stateMutability": "view",
      "type": "function"
    },
    {
      "inputs": [
        {
          "internalType": "address",
          "name": "subAccount",
          "type": "address"
        }
      ],
      "name": "getDonorListLength",
      "outputs": [
        {
          "internalType": "uint256",
          "name": "",
          "type": "uint256"
        }
      ],
      "stateMutability": "view",
      "type": "function"
    },
    {
      "inputs": [],
      "name": "endvote",
      "outputs": [],
      "stateMutability": "payable",
      "type": "function"
    },
    {
      "inputs": [],
      "name": "checkVoteOutcome",
      "outputs": [
        {
          "internalType": "uint256[]",
          "name": "vc",
          "type": "uint256[]"
        }
      ],
      "stateMutability": "payable",
      "type": "function"
    }
  ],
  "bytecode": "0x608060405260018054600160a060020a031916331790553480156200002357600080fd5b50604051620000329062000095565b604051809103906000f0801580156200004f573d6000803e3d6000fd5b50600f8054600160a060020a0392909216600160a060020a03199092169190911790556001805460a060020a60ff0219169055600c805460ff19166003179055620000a3565b61095f8062002e5a83390190565b612da780620000b36000396000f3fe6080604052600436106101c45760e060020a6000350463021a3b2281146101cd578063099113f2146101e05780630eee4f2f1461020b578063105505151461021e57806312065fe01461024457806319e5ad38146102625780632e3a438b14610282578063309e36ef146102a457806332a2c5d0146102b95780633649aeed146102d55780633a8658e4146102ea5780633b926cbf1461030a5780633edfa5951461031d578063442890d51461033d5780635b588ac61461035b5780635cccb48e146103785780635d598f1d146103985780635f74bbde146103b85780637603cd7a146103cb57806378ad2c2f146103f857806379655bd01461041957806383cf53011461042e578063917a43ac1461044e5780639a9d95861461046e5780639dffb36714610476578063b4c0d9cc14610496578063b9c2b2f1146104b6578063bda9abf9146104d6578063ca5b7c2e14610503578063cdc7fcc214610523578063d7ed7d2f14610538578063d8270dce14610558578063dcd1e6701461056e578063e10554b91461058e578063ed88c68e146105ae578063ee23dbda146105b6578063fa6b9a25146105cb578063fbeb46ff146105fb578063fe91f6eb1461062857005b366101cb57005b005b6101cb6101db366004612868565b610630565b3480156101ec57600080fd5b506101f5610af3565b6040516102029190612881565b60405180910390f35b6101cb610219366004612868565b610c19565b34801561022a57600080fd5b50600c5460ff165b60405160ff9091168152602001610202565b34801561025057600080fd5b5030315b604051908152602001610202565b34801561026e57600080fd5b5061025461027d366004612868565b610d4a565b34801561028e57600080fd5b50610297610d63565b60405161020291906128c8565b3480156102b057600080fd5b50610254610e38565b3480156102c557600080fd5b50305b6040516102029190612900565b3480156102e157600080fd5b50610297610e48565b3480156102f657600080fd5b506101cb610305366004612868565b610f15565b6101cb610318366004612868565b6116a9565b34801561032957600080fd5b506101cb610338366004612930565b611759565b34801561034957600080fd5b50600154600160a060020a03166102c8565b34801561036757600080fd5b50600c54610100900460ff16610232565b34801561038457600080fd5b506101cb61039336600461296b565b6118fd565b3480156103a457600080fd5b506101cb6103b33660046129fa565b6119d4565b6101cb6103c6366004612930565b611baa565b3480156103d757600080fd5b506102546103e6366004612a93565b60036020526000908152604090205481565b34801561040457600080fd5b506001546102329060a060020a900460ff1681565b34801561042557600080fd5b50610297611cb8565b34801561043a57600080fd5b50610254610449366004612aae565b611e95565b34801561045a57600080fd5b50610254610469366004612a93565b611f5c565b6101cb611fd1565b34801561048257600080fd5b50610254610491366004612868565b61206a565b3480156104a257600080fd5b506101cb6104b1366004612868565b612121565b3480156104c257600080fd5b506102546104d1366004612a93565b612209565b3480156104e257600080fd5b506102546104f1366004612a93565b60046020526000908152604090205481565b34801561050f57600080fd5b506102c861051e366004612868565b612224565b34801561052f57600080fd5b5061029761224e565b34801561054457600080fd5b506101cb610553366004612ada565b612339565b34801561056457600080fd5b50610254600e5481565b34801561057a57600080fd5b50610297610589366004612868565b6124dc565b34801561059a57600080fd5b506101cb6105a9366004612930565b6125bc565b6101cb612666565b3480156105c257600080fd5b506101cb6126a8565b3480156105d757600080fd5b506102326105e6366004612a93565b60026020526000908152604090205460ff1681565b34801561060757600080fd5b50610254610616366004612a93565b60056020526000908152604090205481565b610297612793565b60005b60015460a060020a900460ff168110156108005760006008600080848154811061065f5761065f612b76565b6000918252602080832090910154600160a060020a0316835282019290925260400190205460ff16600281111561069857610698612b5c565b1480156106b45750600e546106b09062093a80612baa565b4210155b156107ee576002600860008084815481106106d1576106d1612b76565b6000918252602080832090910154600160a060020a031683528201929092526040019020805460ff1916600183600281111561070f5761070f612b5c565b0217905550600080516020612d528339815191526000828154811061073657610736612b76565b60009182526020822001548154600160a060020a039091169160069181908690811061076457610764612b76565b6000918252602080832090910154600160a060020a03168352820192909252604001812054815490916003918190879081106107a2576107a2612b76565b6000918252602080832090910154600160a060020a0316835282019290925260409081019091205490516107d893929190612bc2565b60405180910390a1600c805460ff191660031790555b806107f881612be3565b915050610633565b506000805b60015460a060020a900460ff1681101561089757826003600080848154811061083057610830612b76565b6000918252602080832090910154600160a060020a0316835282019290925260400190205403610885576000818154811061086d5761086d612b76565b600091825260209091200154600160a060020a031691505b8061088f81612be3565b915050610805565b50600160a060020a03811660009081526008602052604081205460ff1660028111156108c5576108c5612b5c565b1461093d5760405160e560020a62461bcd02815260206004820152603760248201527f5468652063616d706169676e20686173206569746865722066696e69736865646044820152604960020a761037b9103430b9903132b2b710333ab63334b63632b2170260648201526084015b60405180910390fd5b600160a060020a038116600090815260066020526040902054801561096d576109663482612baa565b9050610970565b50345b600160a060020a0382166000908152600660209081526040808320849055600790915290205481106109fc57600160a060020a03821660009081526008602052604090819020805460ff19166001179055517f84ce75384538250d1691d23fcf41bb86189a077b16f707a9abf1d1c3e1285aa3906109f390849084908790612bc2565b60405180910390a15b600160a060020a0382166000908152600a6020908152604080832033845290915290205460ff161515600114610a8957600160a060020a0382166000818152600a6020908152604080832033808552908352818420805460ff19166001908117909155948452600b835290832080549485018155835291209091018054600160a060020a03191690911790555b600160a060020a03821660009081526009602090815260408083203384529091529020548015610ac457610abd3482612baa565b9050610ac7565b50345b600160a060020a0390921660009081526009602090815260408083203384529091529020919091555050565b60606000610aff610e38565b6001604060020a03811115610b1657610b1661298d565b604051908082528060200260200182016040528015610b3f578160200160208202803683370190505b50905060005b600054811015610c13576000808281548110610b6357610b63612b76565b6000918252602080832090910154600160a060020a03168083526002909152604090912054845191925060ff16908190859085908110610ba557610ba5612b76565b60ff92831660209182029290920181019190915260408051600160a060020a0386168152928416918301919091527f1678b24f967a3843f4df73c502214e9713abcdddaae41eb0afe87d808a99e785910160405180910390a150508080610c0b90612be3565b915050610b45565b50919050565b662386f26fc10000811015610c805760405160e560020a62461bcd02815260206004820152602160248201527f4174206c6561737420302e3031455448206e656564656420746f206765742043604482015260fa60020a6015026064820152608401610934565b6000610c93662386f26fc1000083612bfc565b600f5460405160e060020a6340c10f19028152919250600160a060020a0316906340c10f1990610cc99033908590600401612c22565b6020604051808303816000875af1158015610ce8573d6000803e3d6000fd5b505050506040513d601f19601f82011682018060405250810190610d0c9190612c3b565b507fdbc07349ff099ef130fa7a5897745980f288735cb5e10425d95c20fb1dc2ece33382604051610d3e929190612c22565b60405180910390a15050565b6000610d5d662386f26fc1000083612bfc565b92915050565b60606000610d6f610e38565b6001604060020a03811115610d8657610d8661298d565b604051908082528060200260200182016040528015610daf578160200160208202803683370190505b50905060005b610dbd610e38565b811015610c1357600060076000808481548110610ddc57610ddc612b76565b6000918252602080832090910154600160a060020a0316835282019290925260400190205483519091508190849084908110610e1a57610e1a612b76565b60209081029190910101525080610e3081612be3565b915050610db5565b60015460a060020a900460ff1690565b60606000610e54610e38565b6001604060020a03811115610e6b57610e6b61298d565b604051908082528060200260200182016040528015610e94578160200160208202803683370190505b50905060005b610ea2610e38565b811015610c135760036000808381548110610ebf57610ebf612b76565b6000918252602080832090910154600160a060020a031683528201929092526040019020548251839083908110610ef857610ef8612b76565b602090810291909101015280610f0d81612be3565b915050610e9a565b60005b60015460a060020a900460ff168110156110e557600060086000808481548110610f4457610f44612b76565b6000918252602080832090910154600160a060020a0316835282019290925260400190205460ff166002811115610f7d57610f7d612b5c565b148015610f995750600e54610f959062093a80612baa565b4210155b156110d357600260086000808481548110610fb657610fb6612b76565b6000918252602080832090910154600160a060020a031683528201929092526040019020805460ff19166001836002811115610ff457610ff4612b5c565b0217905550600080516020612d528339815191526000828154811061101b5761101b612b76565b60009182526020822001548154600160a060020a039091169160069181908690811061104957611049612b76565b6000918252602080832090910154600160a060020a031683528201929092526040018120548154909160039181908790811061108757611087612b76565b6000918252602080832090910154600160a060020a0316835282019290925260409081019091205490516110bd93929190612bc2565b60405180910390a1600c805460ff191660031790555b806110dd81612be3565b915050610f18565b50600154600160a060020a031633146111135760405160e560020a62461bcd02815260040161093490612c5d565b6000805b60015460a060020a900460ff168110156111a957826003600080848154811061114257611142612b76565b6000918252602080832090910154600160a060020a0316835282019290925260400190205403611197576000818154811061117f5761117f612b76565b600091825260209091200154600160a060020a031691505b806111a181612be3565b915050611117565b50600160a060020a03811660009081526008602052604081205460ff1660028111156111d7576111d7612b5c565b036112625760405160e560020a62461bcd02815260206004820152604960248201527f546865207375622d6163636f756e7420686173206e6f7420686974206974732060448201527f7461726765742c20616e64207468652074696d6520686173206e6f7420656c61606482015260b960020a683839b2b2103cb2ba1702608482015260a401610934565b6001600160a060020a03821660009081526008602052604090205460ff16600281111561129157611291612b5c565b0361132857600160a060020a03811660008181526006602052604080822054905190928492909184156108fc0291859190818181858888f193505050501580156112df573d6000803e3d6000fd5b5060408051838152600160a060020a03851660208201527f1a022ab81741941cb74ecf251c45a03da1e5aeacbe0d3453f593f241beee6ac591015b60405180910390a150505050565b6002600160a060020a03821660009081526008602052604090205460ff16600281111561135757611357612b5c565b036116a557600160a060020a03811660009081526006602052604090205480156116a357600c54610100900460ff1660000361150657600160a060020a038216600090815260066020526040812054906113af610e38565b6001604060020a038111156113c6576113c661298d565b6040519080825280602002602001820160405280156113ef578160200160208202803683370190505b50905060005b60015460a060020a900460ff168110156114d957600080828154811061141d5761141d612b76565b6000918252602080832090910154600160a060020a0316808352600290915260409091205490915060ff1681806108fc60646114598986612cb1565b6114639190612bfc565b6040518115909202916000818181858888f1935050505015801561148b573d6000803e3d6000fd5b50606461149b8760ff8516612cb1565b6114a59190612bfc565b8585815181106114b7576114b7612b76565b60200260200101818152505050505080806114d190612be3565b9150506113f5565b50600080516020612d32833981519152816040516114f791906128c8565b60405180910390a150506116a3565b600c54610100900460ff166001036116a357600061152383612209565b6001604060020a0381111561153a5761153a61298d565b604051908082528060200260200182016040528015611563578160200160208202803683370190505b50905060005b600160a060020a0384166000908152600b602052604090205481101561168557600160a060020a0384166000908152600960209081526040808320600b90925282208054839190859081106115c0576115c0612b76565b6000918252602080832090910154600160a060020a0390811684528382019490945260409283018220549389168252600b9052908120805492935090918490811061160d5761160d612b76565b6000918252602082200154604051600160a060020a039091169250829184156108fc02918591818181858888f19350505050158015611650573d6000803e3d6000fd5b508184848151811061166457611664612b76565b6020026020010181815250505050808061167d90612be3565b915050611569565b50600080516020612d328339815191528160405161131a91906128c8565b505b5050565b60005b60015460a060020a900460ff168110156116a55760008082815481106116d4576116d4612b76565b6000918252602080832090910154600160a060020a0316808352600290915260409091205490915060ff1681806108fc60646117108886612cb1565b61171a9190612bfc565b6040518115909202916000818181858888f19350505050158015611742573d6000803e3d6000fd5b50505050808061175190612be3565b9150506116ac565b600154600160a060020a031633146117865760405160e560020a62461bcd02815260040161093490612c5d565b6000805b6000548110156117e15783600160a060020a0316600082815481106117b1576117b1612b76565b600091825260209091200154600160a060020a0316036117cf578391505b806117d981612be3565b91505061178a565b5082600160a060020a031681600160a060020a0316036118575760405160e560020a62461bcd02815260206004820152602560248201527f54686973206163636f756e742068617320616c7265616479206265656e206372604482015260da60020a6419585d1959026064820152608401610934565b60008054600181810183557f290decd9548b62a8d60345a988386fc84ba6bc95484008f6362f93160ef3e5639091018054600160a060020a038716600160a060020a031990911681179091558252600260209081526040808420805460ff191690556003909152909120839055805481906014906118e090839060a060020a900460ff16612cd0565b92506101000a81548160ff021916908360ff160217905550505050565b600154600160a060020a0316331461192a5760405160e560020a62461bcd02815260040161093490612c5d565b60005b60015460a060020a900460ff168110156119ae5760006008600080848154811061195957611959612b76565b6000918252602080832090910154600160a060020a031683528201929092526040019020805460ff1916600183600281111561199757611997612b5c565b0217905550806119a681612be3565b91505061192d565b5042600e55600c805461ffff191661010060ff9390931692830260ff1916179091179055565b600154600160a060020a03163314611a015760405160e560020a62461bcd02815260040161093490612c5d565b600054815114611a755760405160e560020a62461bcd02815260206004820152603360248201527f4c656e677468206f6620696e70757420646966666572732066726f6d206e756d6044820152606860020a72626572206f66207375622d6163636f756e7473026064820152608401610934565b6000805b8251811015611abe57828181518110611a9457611a94612b76565b602002602001015160ff1682611aaa9190612baa565b915080611ab681612be3565b915050611a79565b5080606414611b255760405160e560020a62461bcd02815260206004820152602760248201527f596f75722070657263656e746167657320646f6573206e6f7420616464207570604482015260cc60020a66020746f2031303026064820152608401610934565b60005b82518110156116a357828181518110611b4357611b43612b76565b602002602001015160026000808481548110611b6157611b61612b76565b600091825260208083209190910154600160a060020a031683528201929092526040019020805460ff191660ff9290921691909117905580611ba281612be3565b915050611b28565b60405160e260020a63245e90eb0281523390600090309063917a43ac90611bd5908590600401612900565b602060405180830381865afa158015611bf2573d6000803e3d6000fd5b505050506040513d601f19601f82011682018060405250810190611c169190612cf5565b9050828111611c7f5760405160e560020a62461bcd02815260206004820152602960248201527f596f7520646f6e2774206861766520656e6f756768204368617269546f6b656e604482015260b860020a687320746f20766f7465026064820152608401610934565b611c8984846125bc565b7f16a9aa39af49f169911e977347975198c503525f7240d6892a626f0227642fce8460405161131a9190612900565b60606000611cc4610e38565b6001604060020a03811115611cdb57611cdb61298d565b604051908082528060200260200182016040528015611d04578160200160208202803683370190505b50905060005b60015460a060020a900460ff16811015610c13576060600060086000808581548110611d3857611d38612b76565b6000918252602080832090910154600160a060020a0316835282019290925260400190205460ff166002811115611d7157611d71612b5c565b03611da857506040805180820190915260128152607060020a71416363657074696e67204465706f73697473026020820152611e5c565b600160086000808581548110611dc057611dc0612b76565b6000918252602080832090910154600160a060020a0316835282019290925260400190205460ff166002811115611df957611df9612b5c565b03611e3057506040805180820190915260128152607060020a7152656c656173696e67204465706f73697473026020820152611e5c565b506040805180820190915260108152608060020a6f456c6170736564204465706f736974730260208201525b611e6581612d0e565b838381518110611e7757611e77612b76565b60209081029190910101525080611e8d81612be3565b915050611d0a565b60008060005b60015460a060020a900460ff16811015611f2d578460036000808481548110611ec657611ec6612b76565b6000918252602080832090910154600160a060020a0316835282019290925260400190205403611f1b5760008181548110611f0357611f03612b76565b600091825260209091200154600160a060020a031691505b80611f2581612be3565b915050611e9b565b50600160a060020a03908116600090815260096020908152604080832093861683529290522054905092915050565b600f5460405160e060020a6370a08231028152600091600160a060020a0316906370a0823190611f90908590600401612900565b602060405180830381865afa158015611fad573d6000803e3d6000fd5b505050506040513d601f19601f82011682018060405250810190610d5d9190612cf5565b6000611fdc33611f5c565b33600090815260046020819052604091829020839055600f54915160e060020a63a9059cbb028152929350600160a060020a039091169163a9059cbb91612027913091869101612c22565b6020604051808303816000875af1158015612046573d6000803e3d6000fd5b505050506040513d601f19601f820116820180604052508101906116a59190612c3b565b60008060005b60015460a060020a900460ff1681101561210257836003600080848154811061209b5761209b612b76565b6000918252602080832090910154600160a060020a03168352820192909252604001902054036120f057600081815481106120d8576120d8612b76565b600091825260209091200154600160a060020a031691505b806120fa81612be3565b915050612070565b50600160a060020a031660009081526006602052604090205492915050565b600154600160a060020a0316331461214e5760405160e560020a62461bcd02815260040161093490612c5d565b600c5460ff166003146121ba5760405160e560020a62461bcd02815260206004820152602860248201527f546865726520697320616e6f746865722063616d706169676e207374696c6c20604482015260c160020a67393ab73734b73397026064820152608401610934565b600c805460ff19166002179055600d8190556040517f32df5be6e61958b5d191ae74e0e248433e277a82557e5936e90f78f83ee3e86e906121fe9083815260200190565b60405180910390a150565b600160a060020a03166000908152600b602052604090205490565b6000818154811061223457600080fd5b600091825260209091200154600160a060020a0316905081565b6060600061225a610e38565b6001604060020a038111156122715761227161298d565b60405190808252806020026020018201604052801561229a578160200160208202803683370190505b50905060005b6122a8610e38565b811015610c135733600090815260056020526040812054815490916002918190859081106122d8576122d8612b76565b6000918252602080832090910154600160a060020a0316835282019290925260400190205461230a919060ff16612cb1565b82828151811061231c5761231c612b76565b60209081029190910101528061233181612be3565b9150506122a0565b600154600160a060020a031633146123665760405160e560020a62461bcd02815260040161093490612c5d565b600154815160a060020a90910460ff16146123e15760405160e560020a62461bcd02815260206004820152602f60248201527f596f75206e65656420746f20637265617465206120676f616c20666f722065616044820152608860020a6e6368207375622d6163636f756e7421026064820152608401610934565b600c5460ff1660021461245e5760405160e560020a62461bcd02815260206004820152603960248201527f5468652063616d706169676e20686173206e6f74206265656e206372656174656044820152603860020a7864206f722068617320616c7265616479207374617274656421026064820152608401610934565b60005b60015460a060020a900460ff168110156116a55781818151811061248757612487612b76565b6020026020010151600760008084815481106124a5576124a5612b76565b6000918252602080832090910154600160a060020a03168352820192909252604001902055806124d481612be3565b915050612461565b606060006124e8610e38565b6001604060020a038111156124ff576124ff61298d565b604051908082528060200260200182016040528015612528578160200160208202803683370190505b50905060005b612536610e38565b8110156125b557836002600080848154811061255457612554612b76565b6000918252602080832090910154600160a060020a03168352820192909252604001902054612586919060ff16612cb1565b82828151811061259857612598612b76565b6020908102919091010152806125ad81612be3565b91505061252e565b5092915050565b600f5460405160e060020a63a9059cbb028152600160a060020a039091169063a9059cbb906125f19085908590600401612c22565b6020604051808303816000875af1158015612610573d6000803e3d6000fd5b505050506040513d601f19601f820116820180604052508101906126349190612c3b565b507fa973846bd7f7b7646779266b098fff2b1230da803e26243c05dff2e4e846dfc28282604051610d3e929190612c22565b34612670816116a9565b61267981610c19565b7fcfa00a08822b6229f7f7b6756172e046099f46a53f39da101f0f65cd8f9832c9306040516121fe9190612900565b60005b60015460a060020a900460ff16811015612783576000600860008084815481106126d7576126d7612b76565b6000918252602080832090910154600160a060020a0316835282019290925260400190205460ff16600281111561271057612710612b5c565b036127715760026008600080848154811061272d5761272d612b76565b6000918252602080832090910154600160a060020a031683528201929092526040019020805460ff1916600183600281111561276b5761276b612b5c565b02179055505b8061277b81612be3565b9150506126ab565b50600c805460ff19166003179055565b6060600061279f610e38565b6001604060020a038111156127b6576127b661298d565b6040519080825280602002602001820160405280156127df578160200160208202803683370190505b50905060005b6127ed610e38565b811015610c135760006004600080848154811061280c5761280c612b76565b6000918252602080832090910154600160a060020a031683528201929092526040019020548351909150819084908490811061284a5761284a612b76565b6020908102919091010152508061286081612be3565b9150506127e5565b60006020828403121561287a57600080fd5b5035919050565b6020808252825182820181905260009190848201906040850190845b818110156128bc57835160ff168352928401929184019160010161289d565b50909695505050505050565b6020808252825182820181905260009190848201906040850190845b818110156128bc578351835292840192918401916001016128e4565b600160a060020a0391909116815260200190565b8035600160a060020a038116811461292b57600080fd5b919050565b6000806040838503121561294357600080fd5b61294c83612914565b946020939093013593505050565b803560ff8116811461292b57600080fd5b60006020828403121561297d57600080fd5b6129868261295a565b9392505050565b60e060020a634e487b710260009081526041600452602490fd5b604051601f8201601f191681016001604060020a03811182821017156129cf576129cf61298d565b604052919050565b60006001604060020a038211156129f0576129f061298d565b5060209081020190565b60006020808385031215612a0d57600080fd5b82356001604060020a03811115612a2357600080fd5b8301601f81018513612a3457600080fd5b8035612a47612a42826129d7565b6129a7565b81815290830282018301908381019087831115612a6357600080fd5b928401925b82841015612a8857612a798461295a565b82529284019290840190612a68565b979650505050505050565b600060208284031215612aa557600080fd5b61298682612914565b60008060408385031215612ac157600080fd5b82359150612ad160208401612914565b90509250929050565b60006020808385031215612aed57600080fd5b82356001604060020a03811115612b0357600080fd5b8301601f81018513612b1457600080fd5b8035612b22612a42826129d7565b81815290830282018301908381019087831115612b3e57600080fd5b928401925b82841015612a8857833582529284019290840190612b43565b60e060020a634e487b710260009081526021600452602490fd5b60e060020a634e487b710260009081526032600452602490fd5b60e060020a634e487b710260009081526011600452602490fd5b60008219821115612bbd57612bbd612b90565b500190565b600160a060020a039390931683526020830191909152604082015260600190565b600060018201612bf557612bf5612b90565b5060010190565b600082612c1d5760e060020a634e487b710260009081526012600452602490fd5b500490565b600160a060020a03929092168252602082015260400190565b600060208284031215612c4d57600080fd5b8151801515811461298657600080fd5b60208082526031908201527f54686973206d6574686f6420726571756972657320746865206f776e657220746040820152607860020a706f20696e7374616e74696174652069742102606082015260800190565b6000816000190483118215151615612ccb57612ccb612b90565b500290565b600060ff821660ff84168060ff03821115612ced57612ced612b90565b019392505050565b600060208284031215612d0757600080fd5b5051919050565b80516020808301519190811015610c135760200360080260020a6000031691905056fe144e36e63361892b5a60dc209986d56de9bc263cca7f0bd8db5d8ea63d37c534e98097b6040eb0966e73fd39adf87f8715de85b3f660e6a7009ba2469d4fd86da2646970667358221220275064dcd36889c3c1dde1d6995dd67ccf24cb2a10576bb7a4483788aed115a564736f6c634300080d0033608060405260008054600160a860020a031916610100330217905534801561002657600080fd5b50610929806100366000396000f3fe608060405234801561001057600080fd5b50600436106100bd5760e060020a600035046305d2035b81146100c257806306fdde03146100e4578063095ea7b31461011c57806318160ddd1461012f57806323b872dd14610141578063313ce5671461015457806340c10f191461016e57806370a08231146101815780637d64bcb4146101aa578063893d20e8146101b25780638da5cb5b146101dc57806395d89b41146101f4578063a9059cbb14610218578063dd62ed3e1461022b575b600080fd5b6000546100cf9060ff1681565b60405190151581526020015b60405180910390f35b61010f60405180604001604052806009815260200160b960020a682234b1b2aa37b5b2b70281525081565b6040516100db919061074b565b6100cf61012a3660046107bc565b610264565b6003545b6040519081526020016100db565b6100cf61014f3660046107e6565b6102d1565b61015c601281565b60405160ff90911681526020016100db565b6100cf61017c3660046107bc565b6104b2565b61013361018f366004610822565b600160a060020a031660009081526002602052604090205490565b6100cf610595565b6000546101009004600160a060020a03165b604051600160a060020a0390911681526020016100db565b6000546101c4906101009004600160a060020a031681565b61010f60405180604001604052806002815260200160f260020a6111150281525081565b6100cf6102263660046107bc565b6105fc565b61013361023936600461083d565b600160a060020a03918216600090815260016020908152604080832093909416825291909152205490565b336000818152600160209081526040808320600160a060020a038716808552925280832085905551919290917f8c5be1e5ebec7d5bd14f71427d1e84f3dd0314c0f7b2291e5b200ac8c7c3b925906102bf9086815260200190565b60405180910390a35060015b92915050565b6000600160a060020a0383166102e657600080fd5b600160a060020a0384166000908152600260205260409020548211156103565760405160e560020a62461bcd02815260206004820181905260248201527f46726f6d20646f65736e2774206861766520656e6f7567682062616c616e636560448201526064015b60405180910390fd5b600160a060020a03841660009081526001602090815260408083203284529091529020548211156103cc5760405160e560020a62461bcd02815260206004820152601e60248201527f4e6f7420616c6c6f77656420746f207370656e642074686973206d7563680000604482015260640161034d565b600160a060020a0384166000908152600260205260409020546103ef908361070a565b600160a060020a03808616600090815260026020526040808220939093559085168152205461041e908361072d565b600160a060020a03808516600090815260026020908152604080832094909455918716815260018252828120328252909152205461045c908361070a565b600160a060020a03858116600081815260016020908152604080832032845282529182902094909455518581529186169290916000805160206108d4833981519152910160405180910390a35060019392505050565b600080546101009004600160a060020a031633146104cf57600080fd5b60005460ff16156104df57600080fd5b6003546104ec908361072d565b600355600160a060020a038316600090815260026020526040902054610512908361072d565b600160a060020a038416600081815260026020526040908190209290925590517f0f6798a560793a54c3bcfe86a93cde1e73087d944c0ea20544137d4121396885906105619085815260200190565b60405180910390a2604051828152600160a060020a038416906000906000805160206108d4833981519152906020016102bf565b600080546101009004600160a060020a031633146105b257600080fd5b60005460ff16156105c257600080fd5b6000805460ff191660011781556040517fae5184fba832cb2b1f702aca6117b8d265eaf03ad33eb133f19dde0f5920fa089190a150600190565b6000600160a060020a03831661061157600080fd5b326000908152600260205260409020548211156106855760405160e560020a62461bcd02815260206004820152602660248201527f6d73672e73656e64657220646f65736e2774206861766520656e6f7567682062604482015260d060020a65616c616e636502606482015260840161034d565b3260009081526002602052604090205461069f908361070a565b3260009081526002602052604080822092909255600160a060020a038516815220546106cb908361072d565b600160a060020a0384166000818152600260205260409081902092909255905132906000805160206108d4833981519152906102bf9086815260200190565b60008282111561071c5761071c610870565b61072682846108a4565b9392505050565b600061073982846108bb565b9050828110156102cb576102cb610870565b600060208083528351808285015260005b818110156107785785810183015185820160400152820161075c565b8181111561078a576000604083870101525b50601f01601f1916929092016040019392505050565b8035600160a060020a03811681146107b757600080fd5b919050565b600080604083850312156107cf57600080fd5b6107d8836107a0565b946020939093013593505050565b6000806000606084860312156107fb57600080fd5b610804846107a0565b9250610812602085016107a0565b9150604084013590509250925092565b60006020828403121561083457600080fd5b610726826107a0565b6000806040838503121561085057600080fd5b610859836107a0565b9150610867602084016107a0565b90509250929050565b60e060020a634e487b710260009081526001600452602490fd5b60e060020a634e487b710260009081526011600452602490fd5b6000828210156108b6576108b661088a565b500390565b600082198211156108ce576108ce61088a565b50019056feddf252ad1be2c89b69c2b068fc378daa952ba7f163c4a11628f55a4df523b3efa26469706673582212206ca69f99d4095f97a12fe24e4412e7bd9fe79cdcfadc5885e71ded173d6c7b9764736f6c634300080d0033",
  "immutableReferences": {},
  "source": "// SPDX-License-Identifier: MIT\r\npragma solidity >=0.8.0;\r\npragma abicoder v2;\r\n\r\n// import \"./ChariToken.sol\";\r\nimport './ERC20.sol';\r\n\r\ncontract Charity {\r\n    // ChariToken tokenContract;\r\n    //Campaign campaignContract;\r\n    address[] public subAccounts;\r\n    address _owner = msg.sender;\r\n    uint8 public numberOfSubAccounts; //subaccounts sld not exceed 255\r\n    mapping(address => uint8) public subAccountPercentages; // mapping of proportion of amount donated, for each sub-account [10, 20, 30, 40] etc\r\n    mapping(address => bytes32) public subAccountNames; // same size as mapping above, stores the name of each subaccount for that charity\r\n    mapping(address => uint256) public subAccountVotes; //same size as mapping above, tracks num. of votes per subaccount for that charity\r\n    mapping(address => uint256) public amountDonated; // mapping for amount that each person donates\r\n\r\n    // campaign vars\r\n    mapping(address => uint256) subAccountBalance; // Maps addreess of account => account balance. Can switch to address => balance mapping if that is used more (one less conversion step).\r\n    mapping(address => uint256) campaignGoals; // Maps account => goal for that account.\r\n    mapping(address => Stages) campaignAccountStatus; // Maps address to current stage.\r\n    mapping(address => mapping(address => uint256)) donorsBalance; // how much each donor has donated\r\n    mapping(address => mapping(address => bool)) hasDonated;\r\n    mapping(address => address[]) donorList;\r\n    //address[] public donorList;\r\n    uint8 campaignStatus; // 0 for split if not met, 1 for return to donors if not met, 2 for not started yet, 3 for done already.\r\n    uint8 campaignType;\r\n    bytes32 campaignName;\r\n\r\n    uint public creationTime;\r\n    enum Stages {\r\n        AcceptingDeposits,\r\n        ReleasingDeposits,\r\n        ElapsedDeposits\r\n    }\r\n\r\n    //Token integration\r\n    ERC20 erc20instance;\r\n\r\n    constructor() {\r\n        erc20instance = new ERC20();\r\n        numberOfSubAccounts = 0;\r\n        campaignStatus = 3;\r\n    }\r\n\r\n    event Allocation(address accountAddress, uint8 percentages);\r\n\r\n    event Transfer(address to, uint256 amount); //event of Charity sending CT to donor\r\n    event GetCT(address to, uint256 amount); //event of this contract getting CT with Eth\r\n    event TransferViaVote(address to, uint256 amount); //event of Donor voting to sub account\r\n    // event TokenSent(address sender, uint256 amt); //event of Charity sending CT to donor\r\n    event Donated(address mainAccount); //event of voting for a sub-account\r\n    event Voted(address subaccount); //event of voting for a sub-account\r\n    // event Amount(uint256 amt);\r\n    \r\n    // campaign events\r\n    event accountGoalHit(address account, uint256 balance, bytes32 accountName);\r\n    event accountGoalNotHit(address account, uint256 balance, bytes32 accountName);\r\n    event createdCampaign(bytes32 nameOfCampaign);\r\n    event ReleasingDepositsTransfer(uint256 amountTransferred, address account);\r\n    event elapsedDepositsTransfer(uint256[] splitArray);\r\n    modifier ownerOnly() {\r\n        require(msg.sender == _owner, \"This method requires the owner to instantiate it!\");\r\n        _;\r\n    }\r\n\r\n    modifier timedTransitions() {\r\n        for (uint i = 0; i < numberOfSubAccounts; i++) {\r\n            if (campaignAccountStatus[subAccounts[i]] == Stages.AcceptingDeposits && block.timestamp >= creationTime + 7 days) {\r\n                campaignAccountStatus[subAccounts[i]] = Stages.ElapsedDeposits;\r\n                emit accountGoalNotHit(subAccounts[i], subAccountBalance[subAccounts[i]], subAccountNames[subAccounts[i]]);\r\n                campaignStatus = 3;\r\n            }\r\n        }\r\n        _;\r\n    }\r\n    // Function to receive Ether. msg.data must be empty\r\n    receive() external payable {} // might need to change imo.... because we need to store senders\r\n\r\n    // Fallback function is called when msg.data is not empty\r\n    fallback() external payable {}\r\n    \r\n    // creation of sub-accounts for a single charity\r\n    function createSubAccount(address accountAddress, bytes32 accountName) public ownerOnly{\r\n        address temp;\r\n        for(uint i = 0; i < subAccounts.length; i++) {\r\n            if (subAccounts[i] == accountAddress) {\r\n                temp = accountAddress;\r\n            }\r\n        }\r\n        require(temp != accountAddress, \"This account has already been created\");\r\n        subAccounts.push(accountAddress);\r\n        subAccountPercentages[accountAddress] = 0;\r\n        subAccountNames[accountAddress] = accountName;\r\n        numberOfSubAccounts += 1;\r\n    }\r\n\r\n    // allocate percentages based on sub-account addresses. Feed in array of percentages\r\n    function allocatePercentages(uint8[] memory percentages) public ownerOnly() {\r\n        require(percentages.length == subAccounts.length, \"Length of input differs from number of sub-accounts\");\r\n        uint temp;\r\n        for(uint i = 0; i < percentages.length; i++) {\r\n            temp += percentages[i];\r\n        }\r\n        require(temp == 100, \"Your percentages does not add up to 100\");\r\n        for(uint i = 0; i < percentages.length; i++) {\r\n            subAccountPercentages[subAccounts[i]] = percentages[i];\r\n        }\r\n    }\r\n\r\n    //token integration\r\n    function getCT(uint256 amt) public payable { //an address gets CT with Eth\r\n        require(amt >= 1E16, \"At least 0.01ETH needed to get CT\");\r\n        uint256 val = amt/ 1E16;\r\n        erc20instance.mint(msg.sender, val);\r\n        emit GetCT(msg.sender, val);\r\n    }\r\n\r\n    // function transferCT(address to, uint256 amount) public {\r\n    //     erc20instance.transfer(to, amount);\r\n    //     emit Transfer(to, amount);\r\n    // }\r\n\r\n    function transferCTViaVote(address to, uint256 amount) public { //called by donor\r\n        // erc20instance.approve(address(this), amount);\r\n        // erc20instance.approve(from, amount);\r\n        erc20instance.transfer(to, amount);\r\n        emit TransferViaVote(to, amount);\r\n    }\r\n\r\n    function donate() public payable {\r\n        uint256 amtDonated = msg.value;\r\n\r\n        //allocate donations\r\n        allocateDonations(amtDonated); \r\n\r\n        //mint tokens to donor\r\n        getCT(amtDonated);\r\n\r\n        emit Donated(address(this));\r\n    }\r\n\r\n    function vote(address subAccount, uint256 voteAmt) public payable { //called by donor\r\n        address donor = msg.sender;\r\n        uint256 tokenBalance = this.checkCTBalance(donor);\r\n        require(tokenBalance > voteAmt, \"You don't have enough ChariTokens to vote\");\r\n        \r\n        transferCTViaVote(subAccount, voteAmt); \r\n        emit Voted(subAccount);\r\n    }\r\n\r\n    // allocate donations based on balance.\r\n    function allocateDonations(uint256 amtDonated) public payable {\r\n        // uint256 amtDonated = getBalance();\r\n        for (uint i =0; i < numberOfSubAccounts; i++) {\r\n            address subAccountAdd = subAccounts[i]; // subaccount in question currently\r\n            uint8 ratio = subAccountPercentages[subAccountAdd];\r\n            address payable subAccountAddPayable = payable(subAccountAdd);\r\n            subAccountAddPayable.transfer(ratio * amtDonated / 100);\r\n            \r\n            // emit Amount(subAccountAddPayable.balance);\r\n        }\r\n    }\r\n\r\n    //this is a unit conversion function that converts amount of ether into DTs\r\n    function convertToCredits(uint256 etherAmount) public pure returns(uint256) {\r\n        return(etherAmount / 10000000000000000);\r\n    }\r\n\r\n    function checkCTBalance(address user) public view returns(uint256) {\r\n        return erc20instance.balanceOf(user);\r\n    }\r\n\r\n    function createCampaign(bytes32 nameOfCampaign) public ownerOnly {\r\n        require(campaignStatus == 3, \"There is another campaign still running.\");\r\n        campaignStatus = 2; // created but not running.\r\n        campaignName = nameOfCampaign;\r\n        emit createdCampaign(nameOfCampaign);\r\n    }\r\n\r\n/* Campaign section */\r\n\r\n    function addCampaignGoals(uint256[] memory allocations) public ownerOnly {\r\n        require(allocations.length == numberOfSubAccounts, \"You need to create a goal for each sub-account!\");\r\n        require(campaignStatus == 2, \"The campaign has not been created or has already started!\");\r\n        for (uint i = 0; i < numberOfSubAccounts; i++) {\r\n            campaignGoals[subAccounts[i]] = allocations[i]; // allocate\r\n        }\r\n    }\r\n\r\n    function startCampaign(uint8 typeOfCampaign) public ownerOnly {\r\n        for (uint i = 0; i < numberOfSubAccounts; i++) {\r\n            campaignAccountStatus[subAccounts[i]] = Stages.AcceptingDeposits;\r\n        }\r\n        creationTime = block.timestamp; // start timer\r\n        campaignType = typeOfCampaign;\r\n        campaignStatus = typeOfCampaign;\r\n    }\r\n\r\n    function depositCampaign(bytes32 subAccount) public payable timedTransitions {\r\n        address temp;\r\n        for (uint i = 0; i < numberOfSubAccounts; i++) {\r\n            if (subAccountNames[subAccounts[i]] == subAccount) {\r\n                temp = subAccounts[i]; // finding account address using string, since that is fed\r\n            }\r\n        }\r\n        require(campaignAccountStatus[temp] == Stages.AcceptingDeposits, \"The campaign has either finished or has been fulfilled.\");\r\n        uint256 existingBalance = subAccountBalance[temp]; // update sub account\r\n        if (existingBalance != 0) {\r\n            existingBalance += msg.value;\r\n        } else {\r\n            existingBalance = msg.value;\r\n        }\r\n        subAccountBalance[temp] = existingBalance;\r\n        if (existingBalance >= campaignGoals[temp]) {\r\n            campaignAccountStatus[temp] = Stages.ReleasingDeposits; // met the criteria already. release now? or wait for cue\r\n            emit accountGoalHit(temp, existingBalance, subAccount);\r\n        }\r\n        if (hasDonated[temp][msg.sender] != true) {\r\n            hasDonated[temp][msg.sender] = true;\r\n            donorList[temp].push(msg.sender); // add to address list\r\n        }\r\n        uint256 donorBalance = donorsBalance[temp][msg.sender]; // update amount donated\r\n        if (donorBalance != 0) {\r\n            donorBalance += msg.value;\r\n        } else {\r\n            donorBalance = msg.value;\r\n        }\r\n        donorsBalance[temp][msg.sender] = donorBalance;\r\n    }\r\n\r\n    function withdrawCampaign(bytes32 subAccount) public timedTransitions ownerOnly { // if charity wants to withdraw\r\n        address temp;\r\n        for (uint i = 0; i < numberOfSubAccounts; i++) {\r\n            if (subAccountNames[subAccounts[i]] == subAccount) {\r\n                temp = subAccounts[i]; // finding account address using bytes32, since that is fed\r\n            }\r\n        }\r\n        require(campaignAccountStatus[temp] != Stages.AcceptingDeposits, \"The sub-account has not hit its target, and the time has not elapsed yet.\");\r\n        if (campaignAccountStatus[temp] == Stages.ReleasingDeposits) {\r\n            uint256 amount = subAccountBalance[temp];\r\n            address payable accountPayable = payable(temp);\r\n            accountPayable.transfer(amount); // transfer is done if target is hit AND the charity rq's for transfer\r\n            emit ReleasingDepositsTransfer(amount, temp);\r\n        } else if (campaignAccountStatus[temp] == Stages.ElapsedDeposits) { // its over without hitting the target.\r\n            uint256 amount = subAccountBalance[temp];\r\n            if (amount != 0) {\r\n                // two situations: split OR return to donors\r\n                if (campaignType == 0) {\r\n                    uint256 amtDonated = subAccountBalance[temp];\r\n                    uint256[] memory splitArray = new uint256[](getNumberOfAccounts());\r\n                    for (uint j =0; j < numberOfSubAccounts; j++) {\r\n                        address subAccountAdd = subAccounts[j];\r\n                        uint8 ratio = subAccountPercentages[subAccountAdd];\r\n                        address payable subAccountAddPayable = payable(subAccountAdd);\r\n                        subAccountAddPayable.transfer((ratio * amtDonated / 100));\r\n                        splitArray[j] = (ratio * amtDonated / 100) ;\r\n                    }\r\n                    emit elapsedDepositsTransfer(splitArray);\r\n                } else if (campaignType == 1) { // return to donors.\r\n                    uint256[] memory splitArray = new uint256[](getDonorListLength(temp));\r\n                    for (uint k = 0; k < donorList[temp].length; k++) {\r\n                        uint256 amtToReturn = donorsBalance[temp][donorList[temp][k]];\r\n                        address payable accountPayable = payable(donorList[temp][k]);\r\n                        accountPayable.transfer(amtToReturn);\r\n                        splitArray[k] = amtToReturn;\r\n                    }\r\n                    emit elapsedDepositsTransfer(splitArray);\r\n                }\r\n            }\r\n        } \r\n    }\r\n    // function purely for demo purposes!\r\n\r\n    function fastForwardCampaignStates() public {\r\n        for (uint i = 0; i < numberOfSubAccounts; i++) {\r\n            if (campaignAccountStatus[subAccounts[i]] == Stages.AcceptingDeposits) {\r\n                campaignAccountStatus[subAccounts[i]] = Stages.ElapsedDeposits;\r\n            }\r\n        }\r\n        campaignStatus = 3;\r\n    }\r\n\r\n\r\n/* GETTERS */\r\n    //Add relevant getters and setters\r\n    function getContractOwner() public view returns(address){\r\n        return _owner;\r\n    }\r\n\r\n    function getContractAddress() public view returns(address){\r\n        return address(this);\r\n    }\r\n\r\n\r\n     // getter for allocation\r\n    function showAllocation() public returns (uint8[] memory allocations){\r\n        uint8[] memory listOfAllocations = new uint8[](getNumberOfAccounts());\r\n        for(uint i = 0; i < subAccounts.length; i++) {\r\n            address tempAddress = subAccounts[i];\r\n            uint8 tempAllocation = subAccountPercentages[tempAddress];\r\n            listOfAllocations[i] = tempAllocation;\r\n            emit Allocation(tempAddress, tempAllocation);\r\n        }\r\n        return listOfAllocations;\r\n    }\r\n\r\n    // a general check on how much money the person has put, and how it has been spread\r\n    function getProportions() public view returns (uint[] memory proportions) {\r\n        uint[] memory listOfProportions = new uint[](getNumberOfAccounts());\r\n        for (uint256 i = 0; i < getNumberOfAccounts(); i++) {\r\n            listOfProportions[i] = subAccountPercentages[subAccounts[i]] * amountDonated[msg.sender]; // \"Food, 100\" e.g.\r\n        }\r\n        return listOfProportions; // e.g. [100, 200, 300]\r\n    }\r\n    \r\n   \r\n    \r\n    function getAccountsInOrder() public view returns (bytes32[] memory accounts) {\r\n        bytes32[] memory listOfAccounts = new bytes32[](getNumberOfAccounts());\r\n        for (uint256 i = 0; i < getNumberOfAccounts(); i++) {\r\n            listOfAccounts[i] = (subAccountNames[subAccounts[i]]); // \"Food, 100\" e.g.\r\n        }\r\n        return listOfAccounts; // e.g. [\"Food\", \"Water\", \"Air\"]. combine with getProportions() to find out amount of money in each sub wallet\r\n    }\r\n\r\n\r\n    // given an amount, how much is going to which acc? a way for donors to check where amounts are gg before they donate. \r\n    //combine with getAccountsInOrder() as well, to find out where in which account\r\n    function checkAmount(uint256 amt) public view returns (uint[] memory amounts) {\r\n        uint[] memory listOfAmounts = new uint[](getNumberOfAccounts());\r\n        for (uint256 i = 0; i < getNumberOfAccounts(); i++) {\r\n            listOfAmounts[i] = (subAccountPercentages[subAccounts[i]] * amt);\r\n        }\r\n        return listOfAmounts;\r\n    }\r\n\r\n    function getNumberOfAccounts() public view returns (uint256) {\r\n        return numberOfSubAccounts;\r\n    }\r\n\r\n    // fall back function balance!\r\n    function getBalance() public view returns (uint) {\r\n        return address(this).balance;\r\n    }\r\n\r\n    function getSubAccountBalance(bytes32 subAccountName) public view returns(uint256) {\r\n        address temp;\r\n        for (uint i = 0; i < numberOfSubAccounts; i++) {\r\n            if (subAccountNames[subAccounts[i]] == subAccountName) {\r\n                temp = subAccounts[i]; // finding account address using bytes32, since that is fed\r\n            }\r\n        }\r\n        return subAccountBalance[temp];\r\n    }\r\n\r\n    function getCampaignStatus() public view returns (uint8) {\r\n        return campaignStatus;\r\n    }\r\n\r\n    function getCampaignType() public view returns (uint8) {\r\n        return campaignType;\r\n    }\r\n\r\n    function getCampaignGoals() public view returns (uint256[] memory tc) {\r\n        uint256[] memory goals = new uint256[](getNumberOfAccounts());\r\n        for (uint256 i = 0; i < getNumberOfAccounts(); i++) {\r\n            uint256 currentGoal = campaignGoals[subAccounts[i]];\r\n            goals[i] = currentGoal;\r\n        }\r\n        return goals;\r\n    }\r\n\r\n    function getDonorsBalance(bytes32 subAccountName, address sender) public view returns (uint256) {\r\n        address temp;\r\n        for (uint i = 0; i < numberOfSubAccounts; i++) {\r\n            if (subAccountNames[subAccounts[i]] == subAccountName) {\r\n                temp = subAccounts[i]; // finding account address using bytes32, since that is fed\r\n            }\r\n        }\r\n        return donorsBalance[temp][sender];\r\n    }\r\n\r\n    function getStages() public view returns (bytes32[] memory listOfStages) { // used for charity and donors to monitor status.\r\n        bytes32[] memory stageList = new bytes32[](getNumberOfAccounts());\r\n        for (uint i = 0; i < numberOfSubAccounts; i++) {\r\n            string memory text;\r\n            if (campaignAccountStatus[subAccounts[i]] == Stages.AcceptingDeposits) {\r\n                text = \"Accepting Deposits\";\r\n            } else if (campaignAccountStatus[subAccounts[i]] == Stages.ReleasingDeposits) {\r\n                text = \"Releasing Deposits\";\r\n            } else {\r\n                text = \"Elapsed Deposits\";\r\n            }\r\n            stageList[i] = bytes32(bytes(text));\r\n        }\r\n        return stageList;\r\n    }\r\n\r\n    function getDonorListLength(address subAccount) public view returns (uint256) {\r\n        return donorList[subAccount].length;\r\n    }\r\n\r\n    //EACH sub-account call this before checkVoteOutcome is called, to reset their votes\r\n    function endvote() public payable {\r\n        uint256 currVoteCount = checkCTBalance(msg.sender);\r\n        subAccountVotes[msg.sender] = currVoteCount;\r\n\r\n        //reset voteCount\r\n        //simulate burn tokens by transferring from subaccount to charity\r\n        erc20instance.transfer(address(this), currVoteCount); \r\n    }\r\n\r\n    function checkVoteOutcome() public payable returns(uint256[] memory vc) {\r\n        uint256[] memory voteCounts = new uint256[](getNumberOfAccounts());\r\n        for (uint256 i = 0; i < getNumberOfAccounts(); i++) {\r\n            uint256 currVoteCount = subAccountVotes[subAccounts[i]];\r\n            voteCounts[i] = currVoteCount;\r\n        }\r\n\r\n        return voteCounts;        \r\n    }\r\n}",
  "sourcePath": "C:\\Users\\cheer\\Desktop\\IS4302 Labs\\Project\\charichain\\charichain\\contracts\\Charity.sol",
  "compiler": {
    "name": "solc",
    "version": "0.8.13+commit.abaa5c0e.Emscripten.clang"
  },
  "schemaVersion": "3.4.4",
  "updatedAt": "2022-04-14T02:45:12.484Z",
  "devdoc": {
    "kind": "dev",
    "methods": {},
    "version": 1
  },
  "userdoc": {
    "kind": "user",
    "methods": {},
    "version": 1
  }
}