{
  "contractName": "Charity",
  "abi": [
    {
      "inputs": [],
      "stateMutability": "nonpayable",
      "type": "constructor"
    },
    {
      "anonymous": false,
      "inputs": [
        {
          "indexed": false,
          "internalType": "address",
          "name": "accountAddress",
          "type": "address"
        },
        {
          "indexed": false,
          "internalType": "uint8",
          "name": "percentages",
          "type": "uint8"
        }
      ],
      "name": "Allocation",
      "type": "event"
    },
    {
      "anonymous": false,
      "inputs": [
        {
          "indexed": false,
          "internalType": "address",
          "name": "to",
          "type": "address"
        },
        {
          "indexed": false,
          "internalType": "uint256",
          "name": "amount",
          "type": "uint256"
        }
      ],
      "name": "AwardCT",
      "type": "event"
    },
    {
      "anonymous": false,
      "inputs": [
        {
          "indexed": false,
          "internalType": "address",
          "name": "to",
          "type": "address"
        },
        {
          "indexed": false,
          "internalType": "uint256",
          "name": "amount",
          "type": "uint256"
        }
      ],
      "name": "Transfer",
      "type": "event"
    },
    {
      "anonymous": false,
      "inputs": [
        {
          "indexed": false,
          "internalType": "address",
          "name": "subAccount",
          "type": "address"
        }
      ],
      "name": "Voted",
      "type": "event"
    },
    {
      "inputs": [
        {
          "internalType": "address",
          "name": "",
          "type": "address"
        }
      ],
      "name": "amountDonated",
      "outputs": [
        {
          "internalType": "uint256",
          "name": "",
          "type": "uint256"
        }
      ],
      "stateMutability": "view",
      "type": "function"
    },
    {
      "inputs": [],
      "name": "numberOfSubAccounts",
      "outputs": [
        {
          "internalType": "uint8",
          "name": "",
          "type": "uint8"
        }
      ],
      "stateMutability": "view",
      "type": "function"
    },
    {
      "inputs": [
        {
          "internalType": "address",
          "name": "",
          "type": "address"
        }
      ],
      "name": "subAccountNames",
      "outputs": [
        {
          "internalType": "bytes32",
          "name": "",
          "type": "bytes32"
        }
      ],
      "stateMutability": "view",
      "type": "function"
    },
    {
      "inputs": [
        {
          "internalType": "address",
          "name": "",
          "type": "address"
        }
      ],
      "name": "subAccountPercentages",
      "outputs": [
        {
          "internalType": "uint8",
          "name": "",
          "type": "uint8"
        }
      ],
      "stateMutability": "view",
      "type": "function"
    },
    {
      "inputs": [
        {
          "internalType": "uint256",
          "name": "",
          "type": "uint256"
        }
      ],
      "name": "subAccounts",
      "outputs": [
        {
          "internalType": "address",
          "name": "",
          "type": "address"
        }
      ],
      "stateMutability": "view",
      "type": "function"
    },
    {
      "inputs": [
        {
          "internalType": "address",
          "name": "accountAddress",
          "type": "address"
        },
        {
          "internalType": "bytes32",
          "name": "accountName",
          "type": "bytes32"
        }
      ],
      "name": "createSubAccount",
      "outputs": [],
      "stateMutability": "nonpayable",
      "type": "function"
    },
    {
      "inputs": [
        {
          "internalType": "uint8[]",
          "name": "percentages",
          "type": "uint8[]"
        }
      ],
      "name": "allocatePercentages",
      "outputs": [],
      "stateMutability": "nonpayable",
      "type": "function"
    },
    {
      "inputs": [
        {
          "internalType": "uint256",
          "name": "amtDonated",
          "type": "uint256"
        }
      ],
      "name": "allocateDonations",
      "outputs": [],
      "stateMutability": "payable",
      "type": "function"
    },
    {
      "inputs": [
        {
          "internalType": "uint256",
          "name": "amtDonated",
          "type": "uint256"
        },
        {
          "internalType": "address",
          "name": "donor",
          "type": "address"
        }
      ],
      "name": "processDonations",
      "outputs": [],
      "stateMutability": "payable",
      "type": "function"
    },
    {
      "inputs": [
        {
          "internalType": "bytes32",
          "name": "campaignName",
          "type": "bytes32"
        }
      ],
      "name": "createCampaign",
      "outputs": [],
      "stateMutability": "nonpayable",
      "type": "function"
    },
    {
      "inputs": [
        {
          "internalType": "uint256[]",
          "name": "allocations",
          "type": "uint256[]"
        }
      ],
      "name": "addCampaignGoals",
      "outputs": [],
      "stateMutability": "nonpayable",
      "type": "function"
    },
    {
      "inputs": [
        {
          "internalType": "uint8",
          "name": "typeOfCampaign",
          "type": "uint8"
        }
      ],
      "name": "startCampaign",
      "outputs": [],
      "stateMutability": "nonpayable",
      "type": "function"
    },
    {
      "inputs": [
        {
          "internalType": "bytes32",
          "name": "subAccount",
          "type": "bytes32"
        }
      ],
      "name": "depositCampaign",
      "outputs": [],
      "stateMutability": "payable",
      "type": "function"
    },
    {
      "inputs": [
        {
          "internalType": "bytes32",
          "name": "subAccount",
          "type": "bytes32"
        }
      ],
      "name": "withdrawCampaign",
      "outputs": [],
      "stateMutability": "nonpayable",
      "type": "function"
    },
    {
      "inputs": [],
      "name": "getContractOwner",
      "outputs": [
        {
          "internalType": "address",
          "name": "",
          "type": "address"
        }
      ],
      "stateMutability": "view",
      "type": "function"
    },
    {
      "inputs": [],
      "name": "showAllocation",
      "outputs": [],
      "stateMutability": "nonpayable",
      "type": "function"
    },
    {
      "inputs": [],
      "name": "getProportions",
      "outputs": [
        {
          "internalType": "uint256[]",
          "name": "xd",
          "type": "uint256[]"
        }
      ],
      "stateMutability": "view",
      "type": "function"
    },
    {
      "inputs": [],
      "name": "getAccountsInOrder",
      "outputs": [
        {
          "internalType": "bytes32[]",
          "name": "xd",
          "type": "bytes32[]"
        }
      ],
      "stateMutability": "view",
      "type": "function"
    },
    {
      "inputs": [
        {
          "internalType": "uint256",
          "name": "amt",
          "type": "uint256"
        }
      ],
      "name": "checkAmount",
      "outputs": [
        {
          "internalType": "uint256[]",
          "name": "xd",
          "type": "uint256[]"
        }
      ],
      "stateMutability": "view",
      "type": "function"
    },
    {
      "inputs": [],
      "name": "getNumberOfAccounts",
      "outputs": [
        {
          "internalType": "uint256",
          "name": "",
          "type": "uint256"
        }
      ],
      "stateMutability": "view",
      "type": "function"
    },
    {
      "inputs": [],
      "name": "getBalance",
      "outputs": [
        {
          "internalType": "uint256",
          "name": "",
          "type": "uint256"
        }
      ],
      "stateMutability": "view",
      "type": "function"
    },
    {
      "inputs": [
        {
          "internalType": "bytes32",
          "name": "subAccountName",
          "type": "bytes32"
        }
      ],
      "name": "getSubAccountBalance",
      "outputs": [
        {
          "internalType": "uint256",
          "name": "",
          "type": "uint256"
        }
      ],
      "stateMutability": "view",
      "type": "function"
    },
    {
      "inputs": [],
      "name": "getCampaignType",
      "outputs": [
        {
          "internalType": "uint8",
          "name": "",
          "type": "uint8"
        }
      ],
      "stateMutability": "view",
      "type": "function"
    },
    {
      "inputs": [],
      "name": "checkVoteOutcome",
      "outputs": [
        {
          "internalType": "uint256[]",
          "name": "vc",
          "type": "uint256[]"
        }
      ],
      "stateMutability": "payable",
      "type": "function"
    }
  ],
  "bytecode": "0x608060405233600360006101000a81548173ffffffffffffffffffffffffffffffffffffffff021916908373ffffffffffffffffffffffffffffffffffffffff1602179055503480156200005257600080fd5b5060006040516200006390620000e6565b604051809103906000f08015801562000080573d6000803e3d6000fd5b509050806000806101000a81548173ffffffffffffffffffffffffffffffffffffffff021916908373ffffffffffffffffffffffffffffffffffffffff1602179055506000600360146101000a81548160ff021916908360ff16021790555050620000f4565b611e938062005d1683390190565b615c1280620001046000396000f3fe6080604052600436106200016a5760003560e01c80637603cd7a11620000c7578063cdc7fcc21162000079578063cdc7fcc214620004bb578063d7ed7d2f14620004eb578063dcd1e6701462000519578063fa6b9a25146200055d578063fbeb46ff14620005a1578063fe91f6eb14620005e5576200016a565b80637603cd7a146200037157806378ad2c2f14620003b55780639cbb9a0614620003e55780639dffb3671462000405578063b4c0d9cc1462000449578063ca5b7c2e1462000477576200016a565b80633b926cbf11620001215780633b926cbf14620002675780633edfa5951462000287578063442890d514620002b55780635b588ac614620002e55780635cccb48e14620003155780635d598f1d1462000343576200016a565b8063021a3b22146200016f578063099113f2146200018f57806312065fe014620001a9578063309e36ef14620001d95780633649aeed14620002095780633a8658e41462000239575b600080fd5b6200018d600480360381019062000187919062001eee565b62000607565b005b3480156200019c57600080fd5b50620001a76200069b565b005b348015620001b657600080fd5b50620001c162000799565b604051620001d0919062001f3b565b60405180910390f35b348015620001e657600080fd5b50620001f1620007a1565b60405162000200919062001f3b565b60405180910390f35b3480156200021657600080fd5b5062000221620007bb565b60405162000230919062002026565b60405180910390f35b3480156200024657600080fd5b506200026560048036038101906200025f919062001eee565b620008ed565b005b6200028560048036038101906200027f91906200207b565b62000981565b005b3480156200029457600080fd5b50620002b36004803603810190620002ad919062002112565b62000abe565b005b348015620002c257600080fd5b50620002cd62000d6e565b604051620002dc91906200216a565b60405180910390f35b348015620002f257600080fd5b50620002fd62000d98565b6040516200030c9190620021a5565b60405180910390f35b3480156200032257600080fd5b506200034160048036038101906200033b9190620021f3565b62000e33565b005b3480156200035057600080fd5b506200036f60048036038101906200036991906200239a565b62000ec7565b005b3480156200037e57600080fd5b506200039d6004803603810190620003979190620023eb565b620010ea565b604051620003ac91906200242e565b60405180910390f35b348015620003c257600080fd5b50620003cd62001102565b604051620003dc9190620021a5565b60405180910390f35b620004036004803603810190620003fd91906200244b565b62001115565b005b3480156200041257600080fd5b506200043160048036038101906200042b919062001eee565b620013d1565b60405162000440919062001f3b565b60405180910390f35b3480156200045657600080fd5b506200047560048036038101906200046f919062001eee565b6200147b565b005b3480156200048457600080fd5b50620004a360048036038101906200049d91906200207b565b620017b6565b604051620004b291906200216a565b60405180910390f35b348015620004c857600080fd5b50620004d3620017f6565b604051620004e2919062002560565b60405180910390f35b348015620004f857600080fd5b506200051760048036038101906200051191906200265a565b62001984565b005b3480156200052657600080fd5b506200054560048036038101906200053f91906200207b565b62001a18565b60405162000554919062002560565b60405180910390f35b3480156200056a57600080fd5b50620005896004803603810190620005839190620023eb565b62001b69565b604051620005989190620021a5565b60405180910390f35b348015620005ae57600080fd5b50620005cd6004803603810190620005c79190620023eb565b62001b89565b604051620005dc919062001f3b565b60405180910390f35b620005ef62001ba1565b604051620005fe919062002560565b60405180910390f35b600160009054906101000a900473ffffffffffffffffffffffffffffffffffffffff1673ffffffffffffffffffffffffffffffffffffffff1663021a3b22826040518263ffffffff1660e01b81526004016200066491906200242e565b600060405180830381600087803b1580156200067f57600080fd5b505af115801562000694573d6000803e3d6000fd5b5050505050565b60005b6002805490508110156200079657600060028281548110620006c557620006c4620026ab565b5b9060005260206000200160009054906101000a900473ffffffffffffffffffffffffffffffffffffffff1690506000600460008373ffffffffffffffffffffffffffffffffffffffff1673ffffffffffffffffffffffffffffffffffffffff16815260200190815260200160002060009054906101000a900460ff1690507f1678b24f967a3843f4df73c502214e9713abcdddaae41eb0afe87d808a99e785828260405162000776929190620026da565b60405180910390a1505080806200078d9062002736565b9150506200069e565b50565b600047905090565b6000600360149054906101000a900460ff1660ff16905090565b60606000620007c9620007a1565b67ffffffffffffffff811115620007e557620007e46200223b565b5b604051908082528060200260200182016040528015620008145781602001602082028036833780820191505090505b50905060005b62000824620007a1565b811015620008e5576005600060028381548110620008475762000846620026ab565b5b9060005260206000200160009054906101000a900473ffffffffffffffffffffffffffffffffffffffff1673ffffffffffffffffffffffffffffffffffffffff1673ffffffffffffffffffffffffffffffffffffffff16815260200190815260200160002054828281518110620008c357620008c2620026ab565b5b6020026020010181815250508080620008dc9062002736565b9150506200081a565b508091505090565b600160009054906101000a900473ffffffffffffffffffffffffffffffffffffffff1673ffffffffffffffffffffffffffffffffffffffff16633a8658e4826040518263ffffffff1660e01b81526004016200094a91906200242e565b600060405180830381600087803b1580156200096557600080fd5b505af11580156200097a573d6000803e3d6000fd5b5050505050565b60005b600360149054906101000a900460ff1660ff1681101562000aba57600060028281548110620009b857620009b7620026ab565b5b9060005260206000200160009054906101000a900473ffffffffffffffffffffffffffffffffffffffff1690506000600460008373ffffffffffffffffffffffffffffffffffffffff1673ffffffffffffffffffffffffffffffffffffffff16815260200190815260200160002060009054906101000a900460ff16905060008290508073ffffffffffffffffffffffffffffffffffffffff166108fc8660648562000a659190620027b2565b60ff1662000a749190620027ea565b9081150290604051600060405180830381858888f1935050505015801562000aa0573d6000803e3d6000fd5b50505050808062000ab19062002736565b91505062000984565b5050565b600360009054906101000a900473ffffffffffffffffffffffffffffffffffffffff1673ffffffffffffffffffffffffffffffffffffffff163373ffffffffffffffffffffffffffffffffffffffff161462000b1957600080fd5b600080600090505b60028054905081101562000bbe578373ffffffffffffffffffffffffffffffffffffffff166002828154811062000b5d5762000b5c620026ab565b5b9060005260206000200160009054906101000a900473ffffffffffffffffffffffffffffffffffffffff1673ffffffffffffffffffffffffffffffffffffffff160362000ba8578391505b808062000bb59062002736565b91505062000b21565b508273ffffffffffffffffffffffffffffffffffffffff168173ffffffffffffffffffffffffffffffffffffffff160362000c30576040517f08c379a000000000000000000000000000000000000000000000000000000000815260040162000c2790620028d2565b60405180910390fd5b6002839080600181540180825580915050600190039060005260206000200160009091909190916101000a81548173ffffffffffffffffffffffffffffffffffffffff021916908373ffffffffffffffffffffffffffffffffffffffff1602179055506000600460008573ffffffffffffffffffffffffffffffffffffffff1673ffffffffffffffffffffffffffffffffffffffff16815260200190815260200160002060006101000a81548160ff021916908360ff16021790555081600560008573ffffffffffffffffffffffffffffffffffffffff1673ffffffffffffffffffffffffffffffffffffffff168152602001908152602001600020819055506001600360148282829054906101000a900460ff1662000d519190620028f4565b92506101000a81548160ff021916908360ff160217905550505050565b6000600360009054906101000a900473ffffffffffffffffffffffffffffffffffffffff16905090565b6000600160009054906101000a900473ffffffffffffffffffffffffffffffffffffffff1673ffffffffffffffffffffffffffffffffffffffff16635b588ac66040518163ffffffff1660e01b8152600401602060405180830381865afa15801562000e08573d6000803e3d6000fd5b505050506040513d601f19601f8201168201806040525081019062000e2e919062002949565b905090565b600160009054906101000a900473ffffffffffffffffffffffffffffffffffffffff1673ffffffffffffffffffffffffffffffffffffffff16635cccb48e826040518263ffffffff1660e01b815260040162000e909190620021a5565b600060405180830381600087803b15801562000eab57600080fd5b505af115801562000ec0573d6000803e3d6000fd5b5050505050565b600360009054906101000a900473ffffffffffffffffffffffffffffffffffffffff1673ffffffffffffffffffffffffffffffffffffffff163373ffffffffffffffffffffffffffffffffffffffff161462000f2257600080fd5b60028054905081511462000f6d576040517f08c379a000000000000000000000000000000000000000000000000000000000815260040162000f6490620029f1565b60405180910390fd5b600080600090505b825181101562000fc55782818151811062000f955762000f94620026ab565b5b602002602001015160ff168262000fad919062002a13565b9150808062000fbc9062002736565b91505062000f75565b50606481146200100c576040517f08c379a0000000000000000000000000000000000000000000000000000000008152600401620010039062002ae6565b60405180910390fd5b60005b8251811015620010e5578281815181106200102f576200102e620026ab565b5b60200260200101516004600060028481548110620010525762001051620026ab565b5b9060005260206000200160009054906101000a900473ffffffffffffffffffffffffffffffffffffffff1673ffffffffffffffffffffffffffffffffffffffff1673ffffffffffffffffffffffffffffffffffffffff16815260200190815260200160002060006101000a81548160ff021916908360ff1602179055508080620010dc9062002736565b9150506200100f565b505050565b60056020528060005260406000206000915090505481565b600360149054906101000a900460ff1681565b3073ffffffffffffffffffffffffffffffffffffffff16633b926cbf836040518263ffffffff1660e01b815260040162001150919062001f3b565b600060405180830381600087803b1580156200116b57600080fd5b505af115801562001180573d6000803e3d6000fd5b5050505060008054906101000a900473ffffffffffffffffffffffffffffffffffffffff1673ffffffffffffffffffffffffffffffffffffffff1663da304e4d836040518263ffffffff1660e01b8152600401620011df919062001f3b565b600060405180830381600087803b158015620011fa57600080fd5b505af11580156200120f573d6000803e3d6000fd5b5050505060008060009054906101000a900473ffffffffffffffffffffffffffffffffffffffff1673ffffffffffffffffffffffffffffffffffffffff166319e5ad38846040518263ffffffff1660e01b815260040162001271919062001f3b565b602060405180830381865afa1580156200128f573d6000803e3d6000fd5b505050506040513d601f19601f82011682018060405250810190620012b5919062002b1f565b905060008054906101000a900473ffffffffffffffffffffffffffffffffffffffff1673ffffffffffffffffffffffffffffffffffffffff1663af55de6c6040518163ffffffff1660e01b8152600401602060405180830381865afa15801562001323573d6000803e3d6000fd5b505050506040513d601f19601f8201168201806040525081019062001349919062002b96565b73ffffffffffffffffffffffffffffffffffffffff1663a9059cbb83836040518363ffffffff1660e01b81526004016200138592919062002bc8565b6020604051808303816000875af1158015620013a5573d6000803e3d6000fd5b505050506040513d601f19601f82011682018060405250810190620013cb919062002c32565b50505050565b6000600160009054906101000a900473ffffffffffffffffffffffffffffffffffffffff1673ffffffffffffffffffffffffffffffffffffffff16639dffb367836040518263ffffffff1660e01b81526004016200143091906200242e565b602060405180830381865afa1580156200144e573d6000803e3d6000fd5b505050506040513d601f19601f8201168201806040525081019062001474919062002b1f565b9050919050565b600360009054906101000a900473ffffffffffffffffffffffffffffffffffffffff1673ffffffffffffffffffffffffffffffffffffffff163373ffffffffffffffffffffffffffffffffffffffff1614620014d657600080fd5b6000620014e2620007a1565b67ffffffffffffffff811115620014fe57620014fd6200223b565b5b6040519080825280602002602001820160405280156200152d5781602001602082028036833780820191505090505b50905060006200153c620007a1565b67ffffffffffffffff8111156200155857620015576200223b565b5b604051908082528060200260200182016040528015620015875781602001602082028036833780820191505090505b50905060005b62001597620007a1565b81101562001710576004600060028381548110620015ba57620015b9620026ab565b5b9060005260206000200160009054906101000a900473ffffffffffffffffffffffffffffffffffffffff1673ffffffffffffffffffffffffffffffffffffffff1673ffffffffffffffffffffffffffffffffffffffff16815260200190815260200160002060009054906101000a900460ff16838281518110620016435762001642620026ab565b5b602002602001019060ff16908160ff16815250506005600060028381548110620016725762001671620026ab565b5b9060005260206000200160009054906101000a900473ffffffffffffffffffffffffffffffffffffffff1673ffffffffffffffffffffffffffffffffffffffff1673ffffffffffffffffffffffffffffffffffffffff16815260200190815260200160002054828281518110620016ee57620016ed620026ab565b5b6020026020010181815250508080620017079062002736565b9150506200158d565b5060006002905060006002600360149054906101000a900460ff16858585896040516200173d9062001e91565b6200174e9695949392919062002e6e565b604051809103906000f0801580156200176b573d6000803e3d6000fd5b50905080600160006101000a81548173ffffffffffffffffffffffffffffffffffffffff021916908373ffffffffffffffffffffffffffffffffffffffff1602179055505050505050565b60028181548110620017c757600080fd5b906000526020600020016000915054906101000a900473ffffffffffffffffffffffffffffffffffffffff1681565b6060600062001804620007a1565b67ffffffffffffffff81111562001820576200181f6200223b565b5b6040519080825280602002602001820160405280156200184f5781602001602082028036833780820191505090505b50905060005b6200185f620007a1565b8110156200197c57600660003373ffffffffffffffffffffffffffffffffffffffff1673ffffffffffffffffffffffffffffffffffffffff168152602001908152602001600020546004600060028481548110620018c257620018c1620026ab565b5b9060005260206000200160009054906101000a900473ffffffffffffffffffffffffffffffffffffffff1673ffffffffffffffffffffffffffffffffffffffff1673ffffffffffffffffffffffffffffffffffffffff16815260200190815260200160002060009054906101000a900460ff1660ff16620019449190620027ea565b8282815181106200195a5762001959620026ab565b5b6020026020010181815250508080620019739062002736565b91505062001855565b508091505090565b600160009054906101000a900473ffffffffffffffffffffffffffffffffffffffff1673ffffffffffffffffffffffffffffffffffffffff1663d7ed7d2f826040518263ffffffff1660e01b8152600401620019e1919062002560565b600060405180830381600087803b158015620019fc57600080fd5b505af115801562001a11573d6000803e3d6000fd5b5050505050565b6060600062001a26620007a1565b67ffffffffffffffff81111562001a425762001a416200223b565b5b60405190808252806020026020018201604052801562001a715781602001602082028036833780820191505090505b50905060005b62001a81620007a1565b81101562001b5f5783600460006002848154811062001aa55762001aa4620026ab565b5b9060005260206000200160009054906101000a900473ffffffffffffffffffffffffffffffffffffffff1673ffffffffffffffffffffffffffffffffffffffff1673ffffffffffffffffffffffffffffffffffffffff16815260200190815260200160002060009054906101000a900460ff1660ff1662001b279190620027ea565b82828151811062001b3d5762001b3c620026ab565b5b602002602001018181525050808062001b569062002736565b91505062001a77565b5080915050919050565b60046020528060005260406000206000915054906101000a900460ff1681565b60066020528060005260406000206000915090505481565b6060600062001baf620007a1565b67ffffffffffffffff81111562001bcb5762001bca6200223b565b5b60405190808252806020026020018201604052801562001bfa5781602001602082028036833780820191505090505b50905060005b62001c0a620007a1565b81101562001e895760008060009054906101000a900473ffffffffffffffffffffffffffffffffffffffff1673ffffffffffffffffffffffffffffffffffffffff1663d1014bee6002848154811062001c685762001c67620026ab565b5b9060005260206000200160009054906101000a900473ffffffffffffffffffffffffffffffffffffffff166040518263ffffffff1660e01b815260040162001cb191906200216a565b602060405180830381865afa15801562001ccf573d6000803e3d6000fd5b505050506040513d601f19601f8201168201806040525081019062001cf5919062002b1f565b90508083838151811062001d0e5762001d0d620026ab565b5b60200260200101818152505060008054906101000a900473ffffffffffffffffffffffffffffffffffffffff1673ffffffffffffffffffffffffffffffffffffffff1663af55de6c6040518163ffffffff1660e01b8152600401602060405180830381865afa15801562001d86573d6000803e3d6000fd5b505050506040513d601f19601f8201168201806040525081019062001dac919062002b96565b73ffffffffffffffffffffffffffffffffffffffff166323b872dd6002848154811062001dde5762001ddd620026ab565b5b9060005260206000200160009054906101000a900473ffffffffffffffffffffffffffffffffffffffff1630846040518463ffffffff1660e01b815260040162001e2b9392919062002ef0565b6020604051808303816000875af115801562001e4b573d6000803e3d6000fd5b505050506040513d601f19601f8201168201806040525081019062001e71919062002c32565b5050808062001e809062002736565b91505062001c00565b508091505090565b612caf8062002f2e83390190565b6000604051905090565b600080fd5b600080fd5b6000819050919050565b62001ec88162001eb3565b811462001ed457600080fd5b50565b60008135905062001ee88162001ebd565b92915050565b60006020828403121562001f075762001f0662001ea9565b5b600062001f178482850162001ed7565b91505092915050565b6000819050919050565b62001f358162001f20565b82525050565b600060208201905062001f52600083018462001f2a565b92915050565b600081519050919050565b600082825260208201905092915050565b6000819050602082019050919050565b62001f8f8162001eb3565b82525050565b600062001fa3838362001f84565b60208301905092915050565b6000602082019050919050565b600062001fc98262001f58565b62001fd5818562001f63565b935062001fe28362001f74565b8060005b838110156200201957815162001ffd888262001f95565b97506200200a8362001faf565b92505060018101905062001fe6565b5085935050505092915050565b6000602082019050818103600083015262002042818462001fbc565b905092915050565b620020558162001f20565b81146200206157600080fd5b50565b60008135905062002075816200204a565b92915050565b60006020828403121562002094576200209362001ea9565b5b6000620020a48482850162002064565b91505092915050565b600073ffffffffffffffffffffffffffffffffffffffff82169050919050565b6000620020da82620020ad565b9050919050565b620020ec81620020cd565b8114620020f857600080fd5b50565b6000813590506200210c81620020e1565b92915050565b600080604083850312156200212c576200212b62001ea9565b5b60006200213c85828601620020fb565b92505060206200214f8582860162001ed7565b9150509250929050565b6200216481620020cd565b82525050565b600060208201905062002181600083018462002159565b92915050565b600060ff82169050919050565b6200219f8162002187565b82525050565b6000602082019050620021bc600083018462002194565b92915050565b620021cd8162002187565b8114620021d957600080fd5b50565b600081359050620021ed81620021c2565b92915050565b6000602082840312156200220c576200220b62001ea9565b5b60006200221c84828501620021dc565b91505092915050565b600080fd5b6000601f19601f8301169050919050565b7f4e487b7100000000000000000000000000000000000000000000000000000000600052604160045260246000fd5b62002275826200222a565b810181811067ffffffffffffffff821117156200229757620022966200223b565b5b80604052505050565b6000620022ac62001e9f565b9050620022ba82826200226a565b919050565b600067ffffffffffffffff821115620022dd57620022dc6200223b565b5b602082029050602081019050919050565b600080fd5b60006200230a6200230484620022bf565b620022a0565b9050808382526020820190506020840283018581111562002330576200232f620022ee565b5b835b818110156200235d5780620023488882620021dc565b84526020840193505060208101905062002332565b5050509392505050565b600082601f8301126200237f576200237e62002225565b5b813562002391848260208601620022f3565b91505092915050565b600060208284031215620023b357620023b262001ea9565b5b600082013567ffffffffffffffff811115620023d457620023d362001eae565b5b620023e28482850162002367565b91505092915050565b60006020828403121562002404576200240362001ea9565b5b60006200241484828501620020fb565b91505092915050565b620024288162001eb3565b82525050565b60006020820190506200244560008301846200241d565b92915050565b6000806040838503121562002465576200246462001ea9565b5b6000620024758582860162002064565b92505060206200248885828601620020fb565b9150509250929050565b600081519050919050565b600082825260208201905092915050565b6000819050602082019050919050565b620024c98162001f20565b82525050565b6000620024dd8383620024be565b60208301905092915050565b6000602082019050919050565b6000620025038262002492565b6200250f81856200249d565b93506200251c83620024ae565b8060005b8381101562002553578151620025378882620024cf565b97506200254483620024e9565b92505060018101905062002520565b5085935050505092915050565b600060208201905081810360008301526200257c8184620024f6565b905092915050565b600067ffffffffffffffff821115620025a257620025a16200223b565b5b602082029050602081019050919050565b6000620025ca620025c48462002584565b620022a0565b90508083825260208201905060208402830185811115620025f057620025ef620022ee565b5b835b818110156200261d578062002608888262002064565b845260208401935050602081019050620025f2565b5050509392505050565b600082601f8301126200263f576200263e62002225565b5b813562002651848260208601620025b3565b91505092915050565b60006020828403121562002673576200267262001ea9565b5b600082013567ffffffffffffffff81111562002694576200269362001eae565b5b620026a28482850162002627565b91505092915050565b7f4e487b7100000000000000000000000000000000000000000000000000000000600052603260045260246000fd5b6000604082019050620026f1600083018562002159565b62002700602083018462002194565b9392505050565b7f4e487b7100000000000000000000000000000000000000000000000000000000600052601160045260246000fd5b6000620027438262001f20565b91507fffffffffffffffffffffffffffffffffffffffffffffffffffffffffffffffff820362002778576200277762002707565b5b600182019050919050565b7f4e487b7100000000000000000000000000000000000000000000000000000000600052601260045260246000fd5b6000620027bf8262002187565b9150620027cc8362002187565b925082620027df57620027de62002783565b5b828204905092915050565b6000620027f78262001f20565b9150620028048362001f20565b9250817fffffffffffffffffffffffffffffffffffffffffffffffffffffffffffffffff048311821515161562002840576200283f62002707565b5b828202905092915050565b600082825260208201905092915050565b7f54686973206163636f756e742068617320616c7265616479206265656e20637260008201527f6561746564000000000000000000000000000000000000000000000000000000602082015250565b6000620028ba6025836200284b565b9150620028c7826200285c565b604082019050919050565b60006020820190508181036000830152620028ed81620028ab565b9050919050565b6000620029018262002187565b91506200290e8362002187565b92508260ff0382111562002927576200292662002707565b5b828201905092915050565b6000815190506200294381620021c2565b92915050565b60006020828403121562002962576200296162001ea9565b5b6000620029728482850162002932565b91505092915050565b7f4c656e677468206f6620696e70757420646966666572732066726f6d206e756d60008201527f626572206f66207375622d6163636f756e747300000000000000000000000000602082015250565b6000620029d96033836200284b565b9150620029e6826200297b565b604082019050919050565b6000602082019050818103600083015262002a0c81620029ca565b9050919050565b600062002a208262001f20565b915062002a2d8362001f20565b9250827fffffffffffffffffffffffffffffffffffffffffffffffffffffffffffffffff0382111562002a655762002a6462002707565b5b828201905092915050565b7f596f75722070657263656e746167657320646f6573206e6f742061646420757060008201527f20746f2031303000000000000000000000000000000000000000000000000000602082015250565b600062002ace6027836200284b565b915062002adb8262002a70565b604082019050919050565b6000602082019050818103600083015262002b018162002abf565b9050919050565b60008151905062002b19816200204a565b92915050565b60006020828403121562002b385762002b3762001ea9565b5b600062002b488482850162002b08565b91505092915050565b600062002b5e82620020cd565b9050919050565b62002b708162002b51565b811462002b7c57600080fd5b50565b60008151905062002b908162002b65565b92915050565b60006020828403121562002baf5762002bae62001ea9565b5b600062002bbf8482850162002b7f565b91505092915050565b600060408201905062002bdf600083018562002159565b62002bee602083018462001f2a565b9392505050565b60008115159050919050565b62002c0c8162002bf5565b811462002c1857600080fd5b50565b60008151905062002c2c8162002c01565b92915050565b60006020828403121562002c4b5762002c4a62001ea9565b5b600062002c5b8482850162002c1b565b91505092915050565b600081549050919050565b600082825260208201905092915050565b60008190508160005260206000209050919050565b62002ca081620020cd565b82525050565b600062002cb4838362002c95565b60208301905092915050565b60008160001c9050919050565b600073ffffffffffffffffffffffffffffffffffffffff82169050919050565b600062002d0462002cfe8362002cc0565b62002ccd565b9050919050565b600062002d19825462002ced565b9050919050565b6000600182019050919050565b600062002d3a8262002c64565b62002d46818562002c6f565b935062002d538362002c80565b8060005b8381101562002d935762002d6b8262002d0b565b62002d77888262002ca6565b975062002d848362002d20565b92505060018101905062002d57565b5085935050505092915050565b600081519050919050565b600082825260208201905092915050565b6000819050602082019050919050565b62002dd78162002187565b82525050565b600062002deb838362002dcc565b60208301905092915050565b6000602082019050919050565b600062002e118262002da0565b62002e1d818562002dab565b935062002e2a8362002dbc565b8060005b8381101562002e6157815162002e45888262002ddd565b975062002e528362002df7565b92505060018101905062002e2e565b5085935050505092915050565b600060c082019050818103600083015262002e8a818962002d2d565b905062002e9b602083018862002194565b818103604083015262002eaf818762002e04565b9050818103606083015262002ec5818662001fbc565b905062002ed6608083018562002194565b62002ee560a08301846200241d565b979650505050505050565b600060608201905062002f07600083018662002159565b62002f16602083018562002159565b62002f25604083018462001f2a565b94935050505056fe60806040523480156200001157600080fd5b5060405162002caf38038062002caf833981810160405281019062000037919062000726565b33600d60006101000a81548173ffffffffffffffffffffffffffffffffffffffff021916908373ffffffffffffffffffffffffffffffffffffffff16021790555084600160006101000a81548160ff021916908360ff1602179055508560009080519060200190620000ab92919062000265565b5081600a60006101000a81548160ff021916908360ff16021790555080600b8190555060005b600160009054906101000a900460ff1660ff1681101562000258578481815181106200010257620001016200081f565b5b6020026020010151600260008084815481106200012457620001236200081f565b5b9060005260206000200160009054906101000a900473ffffffffffffffffffffffffffffffffffffffff1673ffffffffffffffffffffffffffffffffffffffff1673ffffffffffffffffffffffffffffffffffffffff16815260200190815260200160002060006101000a81548160ff021916908360ff160217905550838181518110620001b757620001b66200081f565b5b602002602001015160036000808481548110620001d957620001d86200081f565b5b9060005260206000200160009054906101000a900473ffffffffffffffffffffffffffffffffffffffff1673ffffffffffffffffffffffffffffffffffffffff1673ffffffffffffffffffffffffffffffffffffffff1681526020019081526020016000208190555080806200024f9062000887565b915050620000d1565b50505050505050620008d4565b828054828255906000526020600020908101928215620002e1579160200282015b82811115620002e05782518260006101000a81548173ffffffffffffffffffffffffffffffffffffffff021916908373ffffffffffffffffffffffffffffffffffffffff1602179055509160200191906001019062000286565b5b509050620002f09190620002f4565b5090565b5b808211156200030f576000816000905550600101620002f5565b5090565b6000604051905090565b600080fd5b600080fd5b600080fd5b6000601f19601f8301169050919050565b7f4e487b7100000000000000000000000000000000000000000000000000000000600052604160045260246000fd5b62000377826200032c565b810181811067ffffffffffffffff821117156200039957620003986200033d565b5b80604052505050565b6000620003ae62000313565b9050620003bc82826200036c565b919050565b600067ffffffffffffffff821115620003df57620003de6200033d565b5b602082029050602081019050919050565b600080fd5b600073ffffffffffffffffffffffffffffffffffffffff82169050919050565b60006200042282620003f5565b9050919050565b620004348162000415565b81146200044057600080fd5b50565b600081519050620004548162000429565b92915050565b6000620004716200046b84620003c1565b620003a2565b90508083825260208201905060208402830185811115620004975762000496620003f0565b5b835b81811015620004c45780620004af888262000443565b84526020840193505060208101905062000499565b5050509392505050565b600082601f830112620004e657620004e562000327565b5b8151620004f88482602086016200045a565b91505092915050565b600060ff82169050919050565b620005198162000501565b81146200052557600080fd5b50565b60008151905062000539816200050e565b92915050565b600067ffffffffffffffff8211156200055d576200055c6200033d565b5b602082029050602081019050919050565b6000620005856200057f846200053f565b620003a2565b90508083825260208201905060208402830185811115620005ab57620005aa620003f0565b5b835b81811015620005d85780620005c3888262000528565b845260208401935050602081019050620005ad565b5050509392505050565b600082601f830112620005fa57620005f962000327565b5b81516200060c8482602086016200056e565b91505092915050565b600067ffffffffffffffff8211156200063357620006326200033d565b5b602082029050602081019050919050565b6000819050919050565b620006598162000644565b81146200066557600080fd5b50565b60008151905062000679816200064e565b92915050565b600062000696620006908462000615565b620003a2565b90508083825260208201905060208402830185811115620006bc57620006bb620003f0565b5b835b81811015620006e95780620006d4888262000668565b845260208401935050602081019050620006be565b5050509392505050565b600082601f8301126200070b576200070a62000327565b5b81516200071d8482602086016200067f565b91505092915050565b60008060008060008060c087890312156200074657620007456200031d565b5b600087015167ffffffffffffffff81111562000767576200076662000322565b5b6200077589828a01620004ce565b96505060206200078889828a0162000528565b955050604087015167ffffffffffffffff811115620007ac57620007ab62000322565b5b620007ba89828a01620005e2565b945050606087015167ffffffffffffffff811115620007de57620007dd62000322565b5b620007ec89828a01620006f3565b9350506080620007ff89828a0162000528565b92505060a06200081289828a0162000668565b9150509295509295509295565b7f4e487b7100000000000000000000000000000000000000000000000000000000600052603260045260246000fd5b7f4e487b7100000000000000000000000000000000000000000000000000000000600052601160045260246000fd5b6000819050919050565b600062000894826200087d565b91507fffffffffffffffffffffffffffffffffffffffffffffffffffffffffffffffff8203620008c957620008c86200084e565b5b600182019050919050565b6123cb80620008e46000396000f3fe6080604052600436106100a75760003560e01c806378ad2c2f1161006457806378ad2c2f146101995780639dffb367146101c4578063ca5b7c2e14610201578063d7ed7d2f1461023e578063d8270dce14610267578063fa6b9a2514610292576100a7565b8063021a3b22146100ac5780633a8658e4146100c85780635b588ac6146100f15780635cccb48e1461011c57806371aac7f9146101455780637603cd7a1461015c575b600080fd5b6100c660048036038101906100c19190611c79565b6102cf565b005b3480156100d457600080fd5b506100ef60048036038101906100ea9190611c79565b610c36565b005b3480156100fd57600080fd5b50610106611718565b6040516101139190611cc2565b60405180910390f35b34801561012857600080fd5b50610143600480360381019061013e9190611d09565b61172f565b005b34801561015157600080fd5b5061015a611884565b005b34801561016857600080fd5b50610183600480360381019061017e9190611d94565b6118e0565b6040516101909190611dd0565b60405180910390f35b3480156101a557600080fd5b506101ae6118f8565b6040516101bb9190611cc2565b60405180910390f35b3480156101d057600080fd5b506101eb60048036038101906101e69190611c79565b61190b565b6040516101f89190611e04565b60405180910390f35b34801561020d57600080fd5b5061022860048036038101906102239190611e4b565b611a4c565b6040516102359190611e87565b60405180910390f35b34801561024a57600080fd5b5061026560048036038101906102609190611ffb565b611a8b565b005b34801561027357600080fd5b5061027c611c09565b6040516102899190611e04565b60405180910390f35b34801561029e57600080fd5b506102b960048036038101906102b49190611d94565b611c0f565b6040516102c69190611cc2565b60405180910390f35b60005b600160009054906101000a900460ff1660ff168110156106045760006002811115610300576102ff612044565b5b6006600080848154811061031757610316612073565b5b9060005260206000200160009054906101000a900473ffffffffffffffffffffffffffffffffffffffff1673ffffffffffffffffffffffffffffffffffffffff1673ffffffffffffffffffffffffffffffffffffffff16815260200190815260200160002060009054906101000a900460ff16600281111561039c5761039b612044565b5b1480156103b9575062093a80600c546103b591906120d1565b4210155b156105f1576002600660008084815481106103d7576103d6612073565b5b9060005260206000200160009054906101000a900473ffffffffffffffffffffffffffffffffffffffff1673ffffffffffffffffffffffffffffffffffffffff1673ffffffffffffffffffffffffffffffffffffffff16815260200190815260200160002060006101000a81548160ff0219169083600281111561045e5761045d612044565b5b02179055507fe98097b6040eb0966e73fd39adf87f8715de85b3f660e6a7009ba2469d4fd86d6000828154811061049857610497612073565b5b9060005260206000200160009054906101000a900473ffffffffffffffffffffffffffffffffffffffff16600460008085815481106104da576104d9612073565b5b9060005260206000200160009054906101000a900473ffffffffffffffffffffffffffffffffffffffff1673ffffffffffffffffffffffffffffffffffffffff1673ffffffffffffffffffffffffffffffffffffffff168152602001908152602001600020546003600080868154811061055757610556612073565b5b9060005260206000200160009054906101000a900473ffffffffffffffffffffffffffffffffffffffff1673ffffffffffffffffffffffffffffffffffffffff1673ffffffffffffffffffffffffffffffffffffffff168152602001908152602001600020546040516105cc93929190612127565b60405180910390a16003600a60006101000a81548160ff021916908360ff1602179055505b80806105fc9061215e565b9150506102d2565b50600080600090505b600160009054906101000a900460ff1660ff168110156106ff57826003600080848154811061063f5761063e612073565b5b9060005260206000200160009054906101000a900473ffffffffffffffffffffffffffffffffffffffff1673ffffffffffffffffffffffffffffffffffffffff1673ffffffffffffffffffffffffffffffffffffffff16815260200190815260200160002054036106ec57600081815481106106be576106bd612073565b5b9060005260206000200160009054906101000a900473ffffffffffffffffffffffffffffffffffffffff1691505b80806106f79061215e565b91505061060d565b506000600281111561071457610713612044565b5b600660008373ffffffffffffffffffffffffffffffffffffffff1673ffffffffffffffffffffffffffffffffffffffff16815260200190815260200160002060009054906101000a900460ff16600281111561077357610772612044565b5b146107b3576040517f08c379a00000000000000000000000000000000000000000000000000000000081526004016107aa90612229565b60405180910390fd5b6000600460008373ffffffffffffffffffffffffffffffffffffffff1673ffffffffffffffffffffffffffffffffffffffff1681526020019081526020016000205490506000811461081257348161080b91906120d1565b9050610816565b3490505b80600460008473ffffffffffffffffffffffffffffffffffffffff1673ffffffffffffffffffffffffffffffffffffffff16815260200190815260200160002081905550600560008373ffffffffffffffffffffffffffffffffffffffff1673ffffffffffffffffffffffffffffffffffffffff168152602001908152602001600020548110610944576001600660008473ffffffffffffffffffffffffffffffffffffffff1673ffffffffffffffffffffffffffffffffffffffff16815260200190815260200160002060006101000a81548160ff0219169083600281111561090357610902612044565b5b02179055507f84ce75384538250d1691d23fcf41bb86189a077b16f707a9abf1d1c3e1285aa382828560405161093b93929190612127565b60405180910390a15b60011515600860008473ffffffffffffffffffffffffffffffffffffffff1673ffffffffffffffffffffffffffffffffffffffff16815260200190815260200160002060003373ffffffffffffffffffffffffffffffffffffffff1673ffffffffffffffffffffffffffffffffffffffff16815260200190815260200160002060009054906101000a900460ff16151514610b0f576001600860008473ffffffffffffffffffffffffffffffffffffffff1673ffffffffffffffffffffffffffffffffffffffff16815260200190815260200160002060003373ffffffffffffffffffffffffffffffffffffffff1673ffffffffffffffffffffffffffffffffffffffff16815260200190815260200160002060006101000a81548160ff021916908315150217905550600960008373ffffffffffffffffffffffffffffffffffffffff1673ffffffffffffffffffffffffffffffffffffffff168152602001908152602001600020339080600181540180825580915050600190039060005260206000200160009091909190916101000a81548173ffffffffffffffffffffffffffffffffffffffff021916908373ffffffffffffffffffffffffffffffffffffffff1602179055505b6000600760008473ffffffffffffffffffffffffffffffffffffffff1673ffffffffffffffffffffffffffffffffffffffff16815260200190815260200160002060003373ffffffffffffffffffffffffffffffffffffffff1673ffffffffffffffffffffffffffffffffffffffff16815260200190815260200160002054905060008114610bab573481610ba491906120d1565b9050610baf565b3490505b80600760008573ffffffffffffffffffffffffffffffffffffffff1673ffffffffffffffffffffffffffffffffffffffff16815260200190815260200160002060003373ffffffffffffffffffffffffffffffffffffffff1673ffffffffffffffffffffffffffffffffffffffff1681526020019081526020016000208190555050505050565b60005b600160009054906101000a900460ff1660ff16811015610f6b5760006002811115610c6757610c66612044565b5b60066000808481548110610c7e57610c7d612073565b5b9060005260206000200160009054906101000a900473ffffffffffffffffffffffffffffffffffffffff1673ffffffffffffffffffffffffffffffffffffffff1673ffffffffffffffffffffffffffffffffffffffff16815260200190815260200160002060009054906101000a900460ff166002811115610d0357610d02612044565b5b148015610d20575062093a80600c54610d1c91906120d1565b4210155b15610f5857600260066000808481548110610d3e57610d3d612073565b5b9060005260206000200160009054906101000a900473ffffffffffffffffffffffffffffffffffffffff1673ffffffffffffffffffffffffffffffffffffffff1673ffffffffffffffffffffffffffffffffffffffff16815260200190815260200160002060006101000a81548160ff02191690836002811115610dc557610dc4612044565b5b02179055507fe98097b6040eb0966e73fd39adf87f8715de85b3f660e6a7009ba2469d4fd86d60008281548110610dff57610dfe612073565b5b9060005260206000200160009054906101000a900473ffffffffffffffffffffffffffffffffffffffff1660046000808581548110610e4157610e40612073565b5b9060005260206000200160009054906101000a900473ffffffffffffffffffffffffffffffffffffffff1673ffffffffffffffffffffffffffffffffffffffff1673ffffffffffffffffffffffffffffffffffffffff1681526020019081526020016000205460036000808681548110610ebe57610ebd612073565b5b9060005260206000200160009054906101000a900473ffffffffffffffffffffffffffffffffffffffff1673ffffffffffffffffffffffffffffffffffffffff1673ffffffffffffffffffffffffffffffffffffffff16815260200190815260200160002054604051610f3393929190612127565b60405180910390a16003600a60006101000a81548160ff021916908360ff1602179055505b8080610f639061215e565b915050610c39565b50600d60009054906101000a900473ffffffffffffffffffffffffffffffffffffffff1673ffffffffffffffffffffffffffffffffffffffff163373ffffffffffffffffffffffffffffffffffffffff1614610fc657600080fd5b600080600090505b600160009054906101000a900460ff1660ff168110156110c057826003600080848154811061100057610fff612073565b5b9060005260206000200160009054906101000a900473ffffffffffffffffffffffffffffffffffffffff1673ffffffffffffffffffffffffffffffffffffffff1673ffffffffffffffffffffffffffffffffffffffff16815260200190815260200160002054036110ad576000818154811061107f5761107e612073565b5b9060005260206000200160009054906101000a900473ffffffffffffffffffffffffffffffffffffffff1691505b80806110b89061215e565b915050610fce565b50600160028111156110d5576110d4612044565b5b600660008373ffffffffffffffffffffffffffffffffffffffff1673ffffffffffffffffffffffffffffffffffffffff16815260200190815260200160002060009054906101000a900460ff16600281111561113457611133612044565b5b036111d0576000600460008373ffffffffffffffffffffffffffffffffffffffff1673ffffffffffffffffffffffffffffffffffffffff16815260200190815260200160002054905060008290508073ffffffffffffffffffffffffffffffffffffffff166108fc839081150290604051600060405180830381858888f193505050501580156111c8573d6000803e3d6000fd5b505050611714565b6002808111156111e3576111e2612044565b5b600660008373ffffffffffffffffffffffffffffffffffffffff1673ffffffffffffffffffffffffffffffffffffffff16815260200190815260200160002060009054906101000a900460ff16600281111561124257611241612044565b5b0361166d576000600460008373ffffffffffffffffffffffffffffffffffffffff1673ffffffffffffffffffffffffffffffffffffffff16815260200190815260200160002054905060008114611667576000600a60009054906101000a900460ff1660ff1603611424576000600460008473ffffffffffffffffffffffffffffffffffffffff1673ffffffffffffffffffffffffffffffffffffffff16815260200190815260200160002054905060005b600160009054906101000a900460ff1660ff1681101561141d57600080828154811061132357611322612073565b5b9060005260206000200160009054906101000a900473ffffffffffffffffffffffffffffffffffffffff1690506000600260008373ffffffffffffffffffffffffffffffffffffffff1673ffffffffffffffffffffffffffffffffffffffff16815260200190815260200160002060009054906101000a900460ff16905060008290508073ffffffffffffffffffffffffffffffffffffffff166108fc866064856113ce9190612278565b60ff166113db91906122a9565b9081150290604051600060405180830381858888f19350505050158015611406573d6000803e3d6000fd5b5050505080806114159061215e565b9150506112f4565b5050611666565b6001600a60009054906101000a900460ff1660ff16036116655760005b600960008473ffffffffffffffffffffffffffffffffffffffff1673ffffffffffffffffffffffffffffffffffffffff16815260200190815260200160002080549050811015611663576000600760008573ffffffffffffffffffffffffffffffffffffffff1673ffffffffffffffffffffffffffffffffffffffff1681526020019081526020016000206000600960008773ffffffffffffffffffffffffffffffffffffffff1673ffffffffffffffffffffffffffffffffffffffff168152602001908152602001600020848154811061151f5761151e612073565b5b9060005260206000200160009054906101000a900473ffffffffffffffffffffffffffffffffffffffff1673ffffffffffffffffffffffffffffffffffffffff1673ffffffffffffffffffffffffffffffffffffffff1681526020019081526020016000205490506000600960008673ffffffffffffffffffffffffffffffffffffffff1673ffffffffffffffffffffffffffffffffffffffff16815260200190815260200160002083815481106115da576115d9612073565b5b9060005260206000200160009054906101000a900473ffffffffffffffffffffffffffffffffffffffff1690508073ffffffffffffffffffffffffffffffffffffffff166108fc839081150290604051600060405180830381858888f1935050505015801561164d573d6000803e3d6000fd5b505050808061165b9061215e565b915050611441565b505b5b5b50611713565b6000600281111561168157611680612044565b5b600660008373ffffffffffffffffffffffffffffffffffffffff1673ffffffffffffffffffffffffffffffffffffffff16815260200190815260200160002060009054906101000a900460ff1660028111156116e0576116df612044565b5b03611712577f64d12556a85cdd58f632c188b5b6bdb51b11dff496b036e63e193315cbc6019f60405160405180910390a15b5b5b5050565b6000600a60009054906101000a900460ff16905090565b600d60009054906101000a900473ffffffffffffffffffffffffffffffffffffffff1673ffffffffffffffffffffffffffffffffffffffff163373ffffffffffffffffffffffffffffffffffffffff161461178957600080fd5b60005b600160009054906101000a900460ff1660ff1681101561185e576000600660008084815481106117bf576117be612073565b5b9060005260206000200160009054906101000a900473ffffffffffffffffffffffffffffffffffffffff1673ffffffffffffffffffffffffffffffffffffffff1673ffffffffffffffffffffffffffffffffffffffff16815260200190815260200160002060006101000a81548160ff0219169083600281111561184657611845612044565b5b021790555080806118569061215e565b91505061178c565b5042600c8190555080600a60006101000a81548160ff021916908360ff16021790555050565b600d60009054906101000a900473ffffffffffffffffffffffffffffffffffffffff1673ffffffffffffffffffffffffffffffffffffffff163373ffffffffffffffffffffffffffffffffffffffff16146118de57600080fd5b565b60036020528060005260406000206000915090505481565b600160009054906101000a900460ff1681565b60008060005b600160009054906101000a900460ff1660ff16811015611a0357836003600080848154811061194357611942612073565b5b9060005260206000200160009054906101000a900473ffffffffffffffffffffffffffffffffffffffff1673ffffffffffffffffffffffffffffffffffffffff1673ffffffffffffffffffffffffffffffffffffffff16815260200190815260200160002054036119f057600081815481106119c2576119c1612073565b5b9060005260206000200160009054906101000a900473ffffffffffffffffffffffffffffffffffffffff1691505b80806119fb9061215e565b915050611911565b50600460008273ffffffffffffffffffffffffffffffffffffffff1673ffffffffffffffffffffffffffffffffffffffff16815260200190815260200160002054915050919050565b60008181548110611a5c57600080fd5b906000526020600020016000915054906101000a900473ffffffffffffffffffffffffffffffffffffffff1681565b600d60009054906101000a900473ffffffffffffffffffffffffffffffffffffffff1673ffffffffffffffffffffffffffffffffffffffff163373ffffffffffffffffffffffffffffffffffffffff1614611ae557600080fd5b600160009054906101000a900460ff1660ff16815114611b3a576040517f08c379a0000000000000000000000000000000000000000000000000000000008152600401611b3190612375565b60405180910390fd5b60005b600160009054906101000a900460ff1660ff16811015611c0557818181518110611b6a57611b69612073565b5b602002602001015160056000808481548110611b8957611b88612073565b5b9060005260206000200160009054906101000a900473ffffffffffffffffffffffffffffffffffffffff1673ffffffffffffffffffffffffffffffffffffffff1673ffffffffffffffffffffffffffffffffffffffff168152602001908152602001600020819055508080611bfd9061215e565b915050611b3d565b5050565b600c5481565b60026020528060005260406000206000915054906101000a900460ff1681565b6000604051905090565b600080fd5b600080fd5b6000819050919050565b611c5681611c43565b8114611c6157600080fd5b50565b600081359050611c7381611c4d565b92915050565b600060208284031215611c8f57611c8e611c39565b5b6000611c9d84828501611c64565b91505092915050565b600060ff82169050919050565b611cbc81611ca6565b82525050565b6000602082019050611cd76000830184611cb3565b92915050565b611ce681611ca6565b8114611cf157600080fd5b50565b600081359050611d0381611cdd565b92915050565b600060208284031215611d1f57611d1e611c39565b5b6000611d2d84828501611cf4565b91505092915050565b600073ffffffffffffffffffffffffffffffffffffffff82169050919050565b6000611d6182611d36565b9050919050565b611d7181611d56565b8114611d7c57600080fd5b50565b600081359050611d8e81611d68565b92915050565b600060208284031215611daa57611da9611c39565b5b6000611db884828501611d7f565b91505092915050565b611dca81611c43565b82525050565b6000602082019050611de56000830184611dc1565b92915050565b6000819050919050565b611dfe81611deb565b82525050565b6000602082019050611e196000830184611df5565b92915050565b611e2881611deb565b8114611e3357600080fd5b50565b600081359050611e4581611e1f565b92915050565b600060208284031215611e6157611e60611c39565b5b6000611e6f84828501611e36565b91505092915050565b611e8181611d56565b82525050565b6000602082019050611e9c6000830184611e78565b92915050565b600080fd5b6000601f19601f8301169050919050565b7f4e487b7100000000000000000000000000000000000000000000000000000000600052604160045260246000fd5b611ef082611ea7565b810181811067ffffffffffffffff82111715611f0f57611f0e611eb8565b5b80604052505050565b6000611f22611c2f565b9050611f2e8282611ee7565b919050565b600067ffffffffffffffff821115611f4e57611f4d611eb8565b5b602082029050602081019050919050565b600080fd5b6000611f77611f7284611f33565b611f18565b90508083825260208201905060208402830185811115611f9a57611f99611f5f565b5b835b81811015611fc35780611faf8882611e36565b845260208401935050602081019050611f9c565b5050509392505050565b600082601f830112611fe257611fe1611ea2565b5b8135611ff2848260208601611f64565b91505092915050565b60006020828403121561201157612010611c39565b5b600082013567ffffffffffffffff81111561202f5761202e611c3e565b5b61203b84828501611fcd565b91505092915050565b7f4e487b7100000000000000000000000000000000000000000000000000000000600052602160045260246000fd5b7f4e487b7100000000000000000000000000000000000000000000000000000000600052603260045260246000fd5b7f4e487b7100000000000000000000000000000000000000000000000000000000600052601160045260246000fd5b60006120dc82611deb565b91506120e783611deb565b9250827fffffffffffffffffffffffffffffffffffffffffffffffffffffffffffffffff0382111561211c5761211b6120a2565b5b828201905092915050565b600060608201905061213c6000830186611e78565b6121496020830185611df5565b6121566040830184611dc1565b949350505050565b600061216982611deb565b91507fffffffffffffffffffffffffffffffffffffffffffffffffffffffffffffffff820361219b5761219a6120a2565b5b600182019050919050565b600082825260208201905092915050565b7f5468652063616d706169676e20686173206569746865722066696e697368656460008201527f206f7220686173206265656e2066756c66696c6c65642e000000000000000000602082015250565b60006122136037836121a6565b915061221e826121b7565b604082019050919050565b6000602082019050818103600083015261224281612206565b9050919050565b7f4e487b7100000000000000000000000000000000000000000000000000000000600052601260045260246000fd5b600061228382611ca6565b915061228e83611ca6565b92508261229e5761229d612249565b5b828204905092915050565b60006122b482611deb565b91506122bf83611deb565b9250817fffffffffffffffffffffffffffffffffffffffffffffffffffffffffffffffff04831182151516156122f8576122f76120a2565b5b828202905092915050565b7f596f75206e65656420746f20637265617465206120676f616c20666f7220656160008201527f6368207375622d6163636f756e74210000000000000000000000000000000000602082015250565b600061235f602f836121a6565b915061236a82612303565b604082019050919050565b6000602082019050818103600083015261238e81612352565b905091905056fea2646970667358221220168a4abee3b243edcce4d70ab326e13b6ded0fc298da533bec0962f0bdaa817d64736f6c634300080d0033a2646970667358221220d45dc8efd0544c5960bb8b0b3df921257490d641ef8ad9a31144e0b0282f4b5464736f6c634300080d0033608060405234801561001057600080fd5b50600060405161001f906100cf565b604051809103906000f08015801561003b573d6000803e3d6000fd5b509050806000806101000a81548173ffffffffffffffffffffffffffffffffffffffff021916908373ffffffffffffffffffffffffffffffffffffffff16021790555033600360006101000a81548173ffffffffffffffffffffffffffffffffffffffff021916908373ffffffffffffffffffffffffffffffffffffffff160217905550620186a0600181905550506100dc565b6115228061097183390190565b610886806100eb6000396000f3fe60806040526004361061004a5760003560e01c806319e5ad381461004f5780636cba62901461008c578063af55de6c146100b7578063d1014bee146100e2578063da304e4d1461011f575b600080fd5b34801561005b57600080fd5b5061007660048036038101906100719190610498565b61013b565b60405161008391906104d4565b60405180910390f35b34801561009857600080fd5b506100a1610157565b6040516100ae91906104d4565b60405180910390f35b3480156100c357600080fd5b506100cc6101f9565b6040516100d9919061056e565b60405180910390f35b3480156100ee57600080fd5b50610109600480360381019061010491906105c7565b610222565b60405161011691906104d4565b60405180910390f35b61013960048036038101906101349190610498565b6102c6565b005b6000662386f26fc10000826101509190610652565b9050919050565b60008060009054906101000a900473ffffffffffffffffffffffffffffffffffffffff1673ffffffffffffffffffffffffffffffffffffffff166370a08231336040518263ffffffff1660e01b81526004016101b39190610692565b602060405180830381865afa1580156101d0573d6000803e3d6000fd5b505050506040513d601f19601f820116820180604052508101906101f491906106c2565b905090565b60008060009054906101000a900473ffffffffffffffffffffffffffffffffffffffff16905090565b60008060009054906101000a900473ffffffffffffffffffffffffffffffffffffffff1673ffffffffffffffffffffffffffffffffffffffff166370a08231836040518263ffffffff1660e01b815260040161027e9190610692565b602060405180830381865afa15801561029b573d6000803e3d6000fd5b505050506040513d601f19601f820116820180604052508101906102bf91906106c2565b9050919050565b6000662386f26fc10000826102db9190610652565b90506001548160008054906101000a900473ffffffffffffffffffffffffffffffffffffffff1673ffffffffffffffffffffffffffffffffffffffff166318160ddd6040518163ffffffff1660e01b8152600401602060405180830381865afa15801561034c573d6000803e3d6000fd5b505050506040513d601f19601f8201168201806040525081019061037091906106c2565b61037a91906106ef565b106103ba576040517f08c379a00000000000000000000000000000000000000000000000000000000081526004016103b1906107a2565b60405180910390fd5b60008054906101000a900473ffffffffffffffffffffffffffffffffffffffff1673ffffffffffffffffffffffffffffffffffffffff166340c10f1933836040518363ffffffff1660e01b81526004016104159291906107c2565b6020604051808303816000875af1158015610434573d6000803e3d6000fd5b505050506040513d601f19601f820116820180604052508101906104589190610823565b505050565b600080fd5b6000819050919050565b61047581610462565b811461048057600080fd5b50565b6000813590506104928161046c565b92915050565b6000602082840312156104ae576104ad61045d565b5b60006104bc84828501610483565b91505092915050565b6104ce81610462565b82525050565b60006020820190506104e960008301846104c5565b92915050565b600073ffffffffffffffffffffffffffffffffffffffff82169050919050565b6000819050919050565b600061053461052f61052a846104ef565b61050f565b6104ef565b9050919050565b600061054682610519565b9050919050565b60006105588261053b565b9050919050565b6105688161054d565b82525050565b6000602082019050610583600083018461055f565b92915050565b6000610594826104ef565b9050919050565b6105a481610589565b81146105af57600080fd5b50565b6000813590506105c18161059b565b92915050565b6000602082840312156105dd576105dc61045d565b5b60006105eb848285016105b2565b91505092915050565b7f4e487b7100000000000000000000000000000000000000000000000000000000600052601260045260246000fd5b7f4e487b7100000000000000000000000000000000000000000000000000000000600052601160045260246000fd5b600061065d82610462565b915061066883610462565b925082610678576106776105f4565b5b828204905092915050565b61068c81610589565b82525050565b60006020820190506106a76000830184610683565b92915050565b6000815190506106bc8161046c565b92915050565b6000602082840312156106d8576106d761045d565b5b60006106e6848285016106ad565b91505092915050565b60006106fa82610462565b915061070583610462565b9250827fffffffffffffffffffffffffffffffffffffffffffffffffffffffffffffffff0382111561073a57610739610623565b5b828201905092915050565b600082825260208201905092915050565b7f435420737570706c79206973206e6f7420656e6f756768210000000000000000600082015250565b600061078c601883610745565b915061079782610756565b602082019050919050565b600060208201905081810360008301526107bb8161077f565b9050919050565b60006040820190506107d76000830185610683565b6107e460208301846104c5565b9392505050565b60008115159050919050565b610800816107eb565b811461080b57600080fd5b50565b60008151905061081d816107f7565b92915050565b6000602082840312156108395761083861045d565b5b60006108478482850161080e565b9150509291505056fea264697066735822122063caf944aebf0dde4a7574ae9dd344d10aa8ab2143da7d1cdf8b0c384fc2760664736f6c634300080d0033608060405260008060006101000a81548160ff02191690831515021790555033600060016101000a81548173ffffffffffffffffffffffffffffffffffffffff021916908373ffffffffffffffffffffffffffffffffffffffff16021790555034801561006b57600080fd5b506114a78061007b6000396000f3fe608060405234801561001057600080fd5b50600436106100ea5760003560e01c806370a082311161008c5780638da5cb5b116100665780638da5cb5b1461026357806395d89b4114610281578063a9059cbb1461029f578063dd62ed3e146102cf576100ea565b806370a08231146101f75780637d64bcb414610227578063893d20e814610245576100ea565b806318160ddd116100c857806318160ddd1461015b57806323b872dd14610179578063313ce567146101a957806340c10f19146101c7576100ea565b806305d2035b146100ef57806306fdde031461010d578063095ea7b31461012b575b600080fd5b6100f76102ff565b6040516101049190610f25565b60405180910390f35b610115610310565b6040516101229190610fd9565b60405180910390f35b61014560048036038101906101409190611094565b610349565b6040516101529190610f25565b60405180910390f35b61016361043b565b60405161017091906110e3565b60405180910390f35b610193600480360381019061018e91906110fe565b610445565b6040516101a09190610f25565b60405180910390f35b6101b1610869565b6040516101be919061116d565b60405180910390f35b6101e160048036038101906101dc9190611094565b61086e565b6040516101ee9190610f25565b60405180910390f35b610211600480360381019061020c9190611188565b610a4f565b60405161021e91906110e3565b60405180910390f35b61022f610a98565b60405161023c9190610f25565b60405180910390f35b61024d610b58565b60405161025a91906111c4565b60405180910390f35b61026b610b81565b60405161027891906111c4565b60405180910390f35b610289610ba7565b6040516102969190610fd9565b60405180910390f35b6102b960048036038101906102b49190611094565b610be0565b6040516102c69190610f25565b60405180910390f35b6102e960048036038101906102e491906111df565b610e35565b6040516102f691906110e3565b60405180910390f35b60008054906101000a900460ff1681565b6040518060400160405280600981526020017f44696365546f6b656e000000000000000000000000000000000000000000000081525081565b600081600160003373ffffffffffffffffffffffffffffffffffffffff1673ffffffffffffffffffffffffffffffffffffffff16815260200190815260200160002060008573ffffffffffffffffffffffffffffffffffffffff1673ffffffffffffffffffffffffffffffffffffffff168152602001908152602001600020819055508273ffffffffffffffffffffffffffffffffffffffff163373ffffffffffffffffffffffffffffffffffffffff167f8c5be1e5ebec7d5bd14f71427d1e84f3dd0314c0f7b2291e5b200ac8c7c3b9258460405161042991906110e3565b60405180910390a36001905092915050565b6000600354905090565b60008073ffffffffffffffffffffffffffffffffffffffff168373ffffffffffffffffffffffffffffffffffffffff160361047f57600080fd5b600260008573ffffffffffffffffffffffffffffffffffffffff1673ffffffffffffffffffffffffffffffffffffffff16815260200190815260200160002054821115610501576040517f08c379a00000000000000000000000000000000000000000000000000000000081526004016104f89061126b565b60405180910390fd5b600160008573ffffffffffffffffffffffffffffffffffffffff1673ffffffffffffffffffffffffffffffffffffffff16815260200190815260200160002060003273ffffffffffffffffffffffffffffffffffffffff1673ffffffffffffffffffffffffffffffffffffffff168152602001908152602001600020548211156105c0576040517f08c379a00000000000000000000000000000000000000000000000000000000081526004016105b7906112d7565b60405180910390fd5b61061282600260008773ffffffffffffffffffffffffffffffffffffffff1673ffffffffffffffffffffffffffffffffffffffff16815260200190815260200160002054610ebc90919063ffffffff16565b600260008673ffffffffffffffffffffffffffffffffffffffff1673ffffffffffffffffffffffffffffffffffffffff168152602001908152602001600020819055506106a782600260008673ffffffffffffffffffffffffffffffffffffffff1673ffffffffffffffffffffffffffffffffffffffff16815260200190815260200160002054610ee390919063ffffffff16565b600260008573ffffffffffffffffffffffffffffffffffffffff1673ffffffffffffffffffffffffffffffffffffffff1681526020019081526020016000208190555061077982600160008773ffffffffffffffffffffffffffffffffffffffff1673ffffffffffffffffffffffffffffffffffffffff16815260200190815260200160002060003273ffffffffffffffffffffffffffffffffffffffff1673ffffffffffffffffffffffffffffffffffffffff16815260200190815260200160002054610ebc90919063ffffffff16565b600160008673ffffffffffffffffffffffffffffffffffffffff1673ffffffffffffffffffffffffffffffffffffffff16815260200190815260200160002060003273ffffffffffffffffffffffffffffffffffffffff1673ffffffffffffffffffffffffffffffffffffffff168152602001908152602001600020819055508273ffffffffffffffffffffffffffffffffffffffff168473ffffffffffffffffffffffffffffffffffffffff167fddf252ad1be2c89b69c2b068fc378daa952ba7f163c4a11628f55a4df523b3ef8460405161085691906110e3565b60405180910390a3600190509392505050565b601281565b60008060019054906101000a900473ffffffffffffffffffffffffffffffffffffffff1673ffffffffffffffffffffffffffffffffffffffff163373ffffffffffffffffffffffffffffffffffffffff16146108c957600080fd5b60008054906101000a900460ff16156108e157600080fd5b6108f682600354610ee390919063ffffffff16565b60038190555061094e82600260008673ffffffffffffffffffffffffffffffffffffffff1673ffffffffffffffffffffffffffffffffffffffff16815260200190815260200160002054610ee390919063ffffffff16565b600260008573ffffffffffffffffffffffffffffffffffffffff1673ffffffffffffffffffffffffffffffffffffffff168152602001908152602001600020819055508273ffffffffffffffffffffffffffffffffffffffff167f0f6798a560793a54c3bcfe86a93cde1e73087d944c0ea20544137d4121396885836040516109d791906110e3565b60405180910390a28273ffffffffffffffffffffffffffffffffffffffff16600073ffffffffffffffffffffffffffffffffffffffff167fddf252ad1be2c89b69c2b068fc378daa952ba7f163c4a11628f55a4df523b3ef84604051610a3d91906110e3565b60405180910390a36001905092915050565b6000600260008373ffffffffffffffffffffffffffffffffffffffff1673ffffffffffffffffffffffffffffffffffffffff168152602001908152602001600020549050919050565b60008060019054906101000a900473ffffffffffffffffffffffffffffffffffffffff1673ffffffffffffffffffffffffffffffffffffffff163373ffffffffffffffffffffffffffffffffffffffff1614610af357600080fd5b60008054906101000a900460ff1615610b0b57600080fd5b60016000806101000a81548160ff0219169083151502179055507fae5184fba832cb2b1f702aca6117b8d265eaf03ad33eb133f19dde0f5920fa0860405160405180910390a16001905090565b60008060019054906101000a900473ffffffffffffffffffffffffffffffffffffffff16905090565b600060019054906101000a900473ffffffffffffffffffffffffffffffffffffffff1681565b6040518060400160405280600281526020017f445400000000000000000000000000000000000000000000000000000000000081525081565b60008073ffffffffffffffffffffffffffffffffffffffff168373ffffffffffffffffffffffffffffffffffffffff1603610c1a57600080fd5b600260003273ffffffffffffffffffffffffffffffffffffffff1673ffffffffffffffffffffffffffffffffffffffff16815260200190815260200160002054821115610c9c576040517f08c379a0000000000000000000000000000000000000000000000000000000008152600401610c9390611369565b60405180910390fd5b610cee82600260003273ffffffffffffffffffffffffffffffffffffffff1673ffffffffffffffffffffffffffffffffffffffff16815260200190815260200160002054610ebc90919063ffffffff16565b600260003273ffffffffffffffffffffffffffffffffffffffff1673ffffffffffffffffffffffffffffffffffffffff16815260200190815260200160002081905550610d8382600260008673ffffffffffffffffffffffffffffffffffffffff1673ffffffffffffffffffffffffffffffffffffffff16815260200190815260200160002054610ee390919063ffffffff16565b600260008573ffffffffffffffffffffffffffffffffffffffff1673ffffffffffffffffffffffffffffffffffffffff168152602001908152602001600020819055508273ffffffffffffffffffffffffffffffffffffffff163273ffffffffffffffffffffffffffffffffffffffff167fddf252ad1be2c89b69c2b068fc378daa952ba7f163c4a11628f55a4df523b3ef84604051610e2391906110e3565b60405180910390a36001905092915050565b6000600160008473ffffffffffffffffffffffffffffffffffffffff1673ffffffffffffffffffffffffffffffffffffffff16815260200190815260200160002060008373ffffffffffffffffffffffffffffffffffffffff1673ffffffffffffffffffffffffffffffffffffffff16815260200190815260200160002054905092915050565b600082821115610ecf57610ece611389565b5b8183610edb91906113e7565b905092915050565b60008183610ef1919061141b565b905082811015610f0457610f03611389565b5b92915050565b60008115159050919050565b610f1f81610f0a565b82525050565b6000602082019050610f3a6000830184610f16565b92915050565b600081519050919050565b600082825260208201905092915050565b60005b83811015610f7a578082015181840152602081019050610f5f565b83811115610f89576000848401525b50505050565b6000601f19601f8301169050919050565b6000610fab82610f40565b610fb58185610f4b565b9350610fc5818560208601610f5c565b610fce81610f8f565b840191505092915050565b60006020820190508181036000830152610ff38184610fa0565b905092915050565b600080fd5b600073ffffffffffffffffffffffffffffffffffffffff82169050919050565b600061102b82611000565b9050919050565b61103b81611020565b811461104657600080fd5b50565b60008135905061105881611032565b92915050565b6000819050919050565b6110718161105e565b811461107c57600080fd5b50565b60008135905061108e81611068565b92915050565b600080604083850312156110ab576110aa610ffb565b5b60006110b985828601611049565b92505060206110ca8582860161107f565b9150509250929050565b6110dd8161105e565b82525050565b60006020820190506110f860008301846110d4565b92915050565b60008060006060848603121561111757611116610ffb565b5b600061112586828701611049565b935050602061113686828701611049565b92505060406111478682870161107f565b9150509250925092565b600060ff82169050919050565b61116781611151565b82525050565b6000602082019050611182600083018461115e565b92915050565b60006020828403121561119e5761119d610ffb565b5b60006111ac84828501611049565b91505092915050565b6111be81611020565b82525050565b60006020820190506111d960008301846111b5565b92915050565b600080604083850312156111f6576111f5610ffb565b5b600061120485828601611049565b925050602061121585828601611049565b9150509250929050565b7f46726f6d20646f65736e2774206861766520656e6f7567682062616c616e6365600082015250565b6000611255602083610f4b565b91506112608261121f565b602082019050919050565b6000602082019050818103600083015261128481611248565b9050919050565b7f4e6f7420616c6c6f77656420746f207370656e642074686973206d7563680000600082015250565b60006112c1601e83610f4b565b91506112cc8261128b565b602082019050919050565b600060208201905081810360008301526112f0816112b4565b9050919050565b7f6d73672e73656e64657220646f65736e2774206861766520656e6f756768206260008201527f616c616e63650000000000000000000000000000000000000000000000000000602082015250565b6000611353602683610f4b565b915061135e826112f7565b604082019050919050565b6000602082019050818103600083015261138281611346565b9050919050565b7f4e487b7100000000000000000000000000000000000000000000000000000000600052600160045260246000fd5b7f4e487b7100000000000000000000000000000000000000000000000000000000600052601160045260246000fd5b60006113f28261105e565b91506113fd8361105e565b9250828210156114105761140f6113b8565b5b828203905092915050565b60006114268261105e565b91506114318361105e565b9250827fffffffffffffffffffffffffffffffffffffffffffffffffffffffffffffffff03821115611466576114656113b8565b5b82820190509291505056fea2646970667358221220848d4fe9a6cdd4cb0779a596e6d88882ce3cfff4bbb6a6288eee308acebfa5c664736f6c634300080d0033",
  "immutableReferences": {},
  "source": "// SPDX-License-Identifier: MIT\r\npragma solidity >=0.8.0;\r\npragma abicoder v2;\r\n\r\nimport \"./ChariToken.sol\";\r\nimport \"./Campaign.sol\";\r\n\r\ncontract Charity {\r\n    ChariToken tokenContract;\r\n    Campaign campaignContract;\r\n    address[] public subAccounts;\r\n    address _owner = msg.sender;\r\n    uint8 public numberOfSubAccounts; //subaccounts sld not exceed 255\r\n    mapping(address => uint8) public subAccountPercentages; // mapping of proportion of amount donated, for each sub-account [0.1, 0.2, 0.3, 0.4] etc\r\n    mapping(address => bytes32) public subAccountNames; // same size as mapping above, stores the name of each subaccount for that charity\r\n    // mapping(address => uint256) public subAccountVotes; //same size as mapping above, tracks num. of votes per subaccount for that charity\r\n    mapping(address => uint256) public amountDonated; // mapping for amount that each person donates\r\n\r\n\r\n    constructor() {\r\n        ChariToken ct = new ChariToken();\r\n        tokenContract = ct;\r\n        numberOfSubAccounts = 0;\r\n    }\r\n\r\n    event Allocation(address accountAddress, uint8 percentages);\r\n\r\n    event Transfer(address to, uint256 amount); //event for transfer of CT\r\n    event AwardCT(address to, uint256 amount); //event for CT awarded to donor for donating\r\n    // event TokenSent(address sender, uint256 amt);\r\n    event Voted(address subAccount);\r\n    \r\n    modifier ownerOnly() {\r\n        require(msg.sender == _owner);\r\n        _;\r\n    }\r\n    // Function to receive Ether. msg.data must be empty\r\n    // receive() external payable {} // might need to change imo.... because we need to store senders\r\n\r\n    // // Fallback function is called when msg.data is not empty\r\n    // fallback() external payable {}\r\n\r\n    // creation of sub-accounts for a single charity\r\n    function createSubAccount(address accountAddress, bytes32 accountName) public ownerOnly{\r\n        address temp;\r\n        for(uint i = 0; i < subAccounts.length; i++) {\r\n            if (subAccounts[i] == accountAddress) {\r\n                temp = accountAddress;\r\n            }\r\n        }\r\n        require(temp != accountAddress, \"This account has already been created\");\r\n        subAccounts.push(accountAddress);\r\n        subAccountPercentages[accountAddress] = 0;\r\n        subAccountNames[accountAddress] = accountName;\r\n        numberOfSubAccounts += 1;\r\n    }\r\n\r\n    // allocate percentages based on sub-account addresses. Feed in array of percentages\r\n    function allocatePercentages(uint8[] memory percentages) public ownerOnly() {\r\n        require(percentages.length == subAccounts.length, \"Length of input differs from number of sub-accounts\");\r\n        uint temp;\r\n        for(uint i = 0; i < percentages.length; i++) {\r\n            temp += percentages[i];\r\n        }\r\n        require(temp == 100, \"Your percentages does not add up to 100\");\r\n        for(uint i = 0; i < percentages.length; i++) {\r\n            subAccountPercentages[subAccounts[i]] = percentages[i];\r\n        }\r\n    }\r\n\r\n    // allocate donations based on balance.. do we need to change? to allocate each time someone donates\r\n    function allocateDonations(uint256 amtDonated) public payable {\r\n        // uint256 amtDonated = getBalance();\r\n        for (uint i =0; i < numberOfSubAccounts; i++) {\r\n            address subAccountAdd = subAccounts[i]; // subaccount in question currently\r\n            uint8 ratio = subAccountPercentages[subAccountAdd];\r\n            address payable subAccountAddPayable = payable(subAccountAdd);\r\n            subAccountAddPayable.transfer((ratio/100)*amtDonated);\r\n        }\r\n    }\r\n\r\n    //process donations: split donations and award donor with tokens\r\n    function processDonations(uint256 amtDonated, address donor) public payable {\r\n        this.allocateDonations(amtDonated); //allocate donations\r\n\r\n        //mint tokens to this contract, then send it to donor\r\n        tokenContract.getCredit(amtDonated);\r\n        uint256 tokensToAward = tokenContract.convertToCredits(amtDonated);\r\n        tokenContract.getErc20Contract().transfer(donor, tokensToAward); \r\n    }\r\n\r\n\r\n    function createCampaign(bytes32 campaignName) public ownerOnly() {\r\n        uint8[] memory percentages = new uint8[](getNumberOfAccounts());\r\n        bytes32[] memory names = new bytes32[](getNumberOfAccounts());\r\n        for (uint i = 0; i < getNumberOfAccounts(); i++) {\r\n            percentages[i] = subAccountPercentages[subAccounts[i]];\r\n            names[i] = subAccountNames[subAccounts[i]];\r\n        }\r\n        uint8 campaignType = 2;\r\n        Campaign c = new Campaign(subAccounts, numberOfSubAccounts, percentages, names, campaignType, campaignName);\r\n        campaignContract = c;\r\n    }\r\n\r\n/* Campaign section */\r\n\r\n    function addCampaignGoals(uint256[] memory allocations) public{\r\n        campaignContract.addCampaignGoals(allocations);\r\n    }\r\n\r\n    function startCampaign(uint8 typeOfCampaign) public {\r\n        campaignContract.startCampaign(typeOfCampaign);\r\n    }\r\n\r\n    function depositCampaign(bytes32 subAccount) public payable {\r\n        campaignContract.depositCampaign(subAccount);\r\n    }\r\n\r\n    function withdrawCampaign(bytes32 subAccount) public {\r\n        campaignContract.withdrawCampaign(subAccount);\r\n    }\r\n\r\n\r\n/* GETTERS */\r\n    //Add relevant getters and setters\r\n    function getContractOwner() public view returns(address){\r\n        return _owner;\r\n    }\r\n\r\n\r\n     // getter for allocation\r\n    function showAllocation() public {\r\n        for(uint i = 0; i < subAccounts.length; i++) {\r\n            address tempAddress = subAccounts[i];\r\n            uint8 tempAllocation = subAccountPercentages[tempAddress];\r\n            emit Allocation(tempAddress, tempAllocation);\r\n        }\r\n    }\r\n\r\n    // a general check on how much money the person has put, and how it has been spread\r\n    function getProportions() public view returns (uint[] memory xd) {\r\n        uint[] memory listOfProportions = new uint[](getNumberOfAccounts());\r\n        for (uint256 i = 0; i < getNumberOfAccounts(); i++) {\r\n            listOfProportions[i] = subAccountPercentages[subAccounts[i]] * amountDonated[msg.sender]; // \"Food, 100\" e.g.\r\n        }\r\n        return listOfProportions; // e.g. [100, 200, 300]\r\n    }\r\n    \r\n   \r\n    \r\n    function getAccountsInOrder() public view returns (bytes32[] memory xd) {\r\n        bytes32[] memory listOfAccounts = new bytes32[](getNumberOfAccounts());\r\n        for (uint256 i = 0; i < getNumberOfAccounts(); i++) {\r\n            listOfAccounts[i] = (subAccountNames[subAccounts[i]]); // \"Food, 100\" e.g.\r\n        }\r\n        return listOfAccounts; // e.g. [\"Food\", \"Water\", \"Air\"]. combine with getProportions() to find out amount of money in each sub wallet\r\n    }\r\n\r\n\r\n    // given an amount, how much is going to which acc? a way for donors to check where amounts are gg before they donate. \r\n    //combine with getAccountsInOrder() as well, to find out where in which account\r\n    function checkAmount(uint256 amt) public view returns (uint[] memory xd) {\r\n        uint[] memory listOfAmounts = new uint[](getNumberOfAccounts());\r\n        for (uint256 i = 0; i < getNumberOfAccounts(); i++) {\r\n            listOfAmounts[i] = (subAccountPercentages[subAccounts[i]] * amt);\r\n        }\r\n        return listOfAmounts;\r\n    }\r\n\r\n    function getNumberOfAccounts() public view returns (uint256) {\r\n        return numberOfSubAccounts;\r\n    }\r\n\r\n    // fall back function balance!\r\n    function getBalance() public view returns (uint) {\r\n        return address(this).balance;\r\n    }\r\n\r\n    function getSubAccountBalance(bytes32 subAccountName) public view returns(uint256) {\r\n        return campaignContract.getSubAccountBalance(subAccountName);\r\n    }\r\n\r\n     function getCampaignType() public view returns (uint8) {\r\n         return campaignContract.getCampaignType();\r\n     }\r\n    function checkVoteOutcome() public payable returns(uint256[] memory vc) {\r\n        uint256[] memory voteCounts = new uint256[](getNumberOfAccounts());\r\n        for (uint256 i = 0; i < getNumberOfAccounts(); i++) {\r\n            uint256 currVoteCount = tokenContract.checkCreditGivenAddress(subAccounts[i]);\r\n            voteCounts[i] = currVoteCount;\r\n\r\n            //reset voteCount\r\n            tokenContract.getErc20Contract().transferFrom(subAccounts[i], address(this), currVoteCount); //simulate burn tokens by transferring from subaccount to charity\r\n\r\n        }\r\n\r\n        return voteCounts;        \r\n    }\r\n}",
  "sourcePath": "C:\\Users\\cheer\\Desktop\\IS4302 Labs\\Project\\charichain\\charichain\\contracts\\Charity.sol",
  "compiler": {
    "name": "solc",
    "version": "0.8.13+commit.abaa5c0e.Emscripten.clang"
  },
  "schemaVersion": "3.4.4",
  "updatedAt": "2022-04-12T13:12:52.606Z",
  "devdoc": {
    "kind": "dev",
    "methods": {},
    "version": 1
  },
  "userdoc": {
    "kind": "user",
    "methods": {},
    "version": 1
  }
}