{
  "contractName": "Charity",
  "abi": [
    {
      "inputs": [],
      "stateMutability": "nonpayable",
      "type": "constructor"
    },
    {
      "anonymous": false,
      "inputs": [
        {
          "indexed": false,
          "internalType": "address",
          "name": "accountAddress",
          "type": "address"
        },
        {
          "indexed": false,
          "internalType": "uint8",
          "name": "percentages",
          "type": "uint8"
        }
      ],
      "name": "Allocation",
      "type": "event"
    },
    {
      "anonymous": false,
      "inputs": [
        {
          "indexed": false,
          "internalType": "address",
          "name": "to",
          "type": "address"
        },
        {
          "indexed": false,
          "internalType": "uint256",
          "name": "amount",
          "type": "uint256"
        }
      ],
      "name": "GetCT",
      "type": "event"
    },
    {
      "anonymous": false,
      "inputs": [
        {
          "indexed": false,
          "internalType": "address",
          "name": "to",
          "type": "address"
        },
        {
          "indexed": false,
          "internalType": "uint256",
          "name": "amount",
          "type": "uint256"
        }
      ],
      "name": "Transfer",
      "type": "event"
    },
    {
      "anonymous": false,
      "inputs": [
        {
          "indexed": false,
          "internalType": "address",
          "name": "to",
          "type": "address"
        },
        {
          "indexed": false,
          "internalType": "uint256",
          "name": "amount",
          "type": "uint256"
        }
      ],
      "name": "TransferViaVote",
      "type": "event"
    },
    {
      "anonymous": false,
      "inputs": [
        {
          "indexed": false,
          "internalType": "address",
          "name": "candidate",
          "type": "address"
        }
      ],
      "name": "Voted",
      "type": "event"
    },
    {
      "inputs": [
        {
          "internalType": "address",
          "name": "",
          "type": "address"
        }
      ],
      "name": "amountDonated",
      "outputs": [
        {
          "internalType": "uint256",
          "name": "",
          "type": "uint256"
        }
      ],
      "stateMutability": "view",
      "type": "function"
    },
    {
      "inputs": [],
      "name": "numberOfSubAccounts",
      "outputs": [
        {
          "internalType": "uint8",
          "name": "",
          "type": "uint8"
        }
      ],
      "stateMutability": "view",
      "type": "function"
    },
    {
      "inputs": [
        {
          "internalType": "address",
          "name": "",
          "type": "address"
        }
      ],
      "name": "subAccountNames",
      "outputs": [
        {
          "internalType": "bytes32",
          "name": "",
          "type": "bytes32"
        }
      ],
      "stateMutability": "view",
      "type": "function"
    },
    {
      "inputs": [
        {
          "internalType": "address",
          "name": "",
          "type": "address"
        }
      ],
      "name": "subAccountPercentages",
      "outputs": [
        {
          "internalType": "uint8",
          "name": "",
          "type": "uint8"
        }
      ],
      "stateMutability": "view",
      "type": "function"
    },
    {
      "inputs": [
        {
          "internalType": "uint256",
          "name": "",
          "type": "uint256"
        }
      ],
      "name": "subAccounts",
      "outputs": [
        {
          "internalType": "address",
          "name": "",
          "type": "address"
        }
      ],
      "stateMutability": "view",
      "type": "function"
    },
    {
      "inputs": [
        {
          "internalType": "address",
          "name": "accountAddress",
          "type": "address"
        },
        {
          "internalType": "bytes32",
          "name": "accountName",
          "type": "bytes32"
        }
      ],
      "name": "createSubAccount",
      "outputs": [],
      "stateMutability": "nonpayable",
      "type": "function"
    },
    {
      "inputs": [
        {
          "internalType": "uint8[]",
          "name": "percentages",
          "type": "uint8[]"
        }
      ],
      "name": "allocatePercentages",
      "outputs": [],
      "stateMutability": "nonpayable",
      "type": "function"
    },
    {
      "inputs": [
        {
          "internalType": "uint256",
          "name": "amt",
          "type": "uint256"
        }
      ],
      "name": "getCT",
      "outputs": [],
      "stateMutability": "payable",
      "type": "function"
    },
    {
      "inputs": [
        {
          "internalType": "address",
          "name": "to",
          "type": "address"
        },
        {
          "internalType": "uint256",
          "name": "amount",
          "type": "uint256"
        }
      ],
      "name": "transferCT",
      "outputs": [],
      "stateMutability": "nonpayable",
      "type": "function"
    },
    {
      "inputs": [
        {
          "internalType": "address",
          "name": "from",
          "type": "address"
        },
        {
          "internalType": "address",
          "name": "to",
          "type": "address"
        },
        {
          "internalType": "uint256",
          "name": "amount",
          "type": "uint256"
        }
      ],
      "name": "transferCTViaVote",
      "outputs": [],
      "stateMutability": "nonpayable",
      "type": "function"
    },
    {
      "inputs": [],
      "name": "donate",
      "outputs": [],
      "stateMutability": "payable",
      "type": "function"
    },
    {
      "inputs": [
        {
          "internalType": "address",
          "name": "subAccount",
          "type": "address"
        },
        {
          "internalType": "uint256",
          "name": "voteAmt",
          "type": "uint256"
        }
      ],
      "name": "vote",
      "outputs": [],
      "stateMutability": "payable",
      "type": "function"
    },
    {
      "inputs": [
        {
          "internalType": "uint256",
          "name": "amtDonated",
          "type": "uint256"
        }
      ],
      "name": "allocateDonations",
      "outputs": [],
      "stateMutability": "payable",
      "type": "function"
    },
    {
      "inputs": [
        {
          "internalType": "uint256",
          "name": "etherAmount",
          "type": "uint256"
        }
      ],
      "name": "convertToCredits",
      "outputs": [
        {
          "internalType": "uint256",
          "name": "",
          "type": "uint256"
        }
      ],
      "stateMutability": "pure",
      "type": "function"
    },
    {
      "inputs": [
        {
          "internalType": "address",
          "name": "user",
          "type": "address"
        }
      ],
      "name": "checkCTBalance",
      "outputs": [
        {
          "internalType": "uint256",
          "name": "",
          "type": "uint256"
        }
      ],
      "stateMutability": "view",
      "type": "function"
    },
    {
      "inputs": [
        {
          "internalType": "bytes32",
          "name": "campaignName",
          "type": "bytes32"
        }
      ],
      "name": "createCampaign",
      "outputs": [],
      "stateMutability": "nonpayable",
      "type": "function"
    },
    {
      "inputs": [
        {
          "internalType": "uint256[]",
          "name": "allocations",
          "type": "uint256[]"
        }
      ],
      "name": "addCampaignGoals",
      "outputs": [],
      "stateMutability": "nonpayable",
      "type": "function"
    },
    {
      "inputs": [
        {
          "internalType": "uint8",
          "name": "typeOfCampaign",
          "type": "uint8"
        }
      ],
      "name": "startCampaign",
      "outputs": [],
      "stateMutability": "nonpayable",
      "type": "function"
    },
    {
      "inputs": [
        {
          "internalType": "bytes32",
          "name": "subAccount",
          "type": "bytes32"
        }
      ],
      "name": "depositCampaign",
      "outputs": [],
      "stateMutability": "payable",
      "type": "function"
    },
    {
      "inputs": [
        {
          "internalType": "bytes32",
          "name": "subAccount",
          "type": "bytes32"
        }
      ],
      "name": "withdrawCampaign",
      "outputs": [],
      "stateMutability": "nonpayable",
      "type": "function"
    },
    {
      "inputs": [],
      "name": "getContractOwner",
      "outputs": [
        {
          "internalType": "address",
          "name": "",
          "type": "address"
        }
      ],
      "stateMutability": "view",
      "type": "function"
    },
    {
      "inputs": [],
      "name": "showAllocation",
      "outputs": [],
      "stateMutability": "nonpayable",
      "type": "function"
    },
    {
      "inputs": [],
      "name": "getProportions",
      "outputs": [
        {
          "internalType": "uint256[]",
          "name": "xd",
          "type": "uint256[]"
        }
      ],
      "stateMutability": "view",
      "type": "function"
    },
    {
      "inputs": [],
      "name": "getAccountsInOrder",
      "outputs": [
        {
          "internalType": "bytes32[]",
          "name": "xd",
          "type": "bytes32[]"
        }
      ],
      "stateMutability": "view",
      "type": "function"
    },
    {
      "inputs": [
        {
          "internalType": "uint256",
          "name": "amt",
          "type": "uint256"
        }
      ],
      "name": "checkAmount",
      "outputs": [
        {
          "internalType": "uint256[]",
          "name": "xd",
          "type": "uint256[]"
        }
      ],
      "stateMutability": "view",
      "type": "function"
    },
    {
      "inputs": [],
      "name": "getNumberOfAccounts",
      "outputs": [
        {
          "internalType": "uint256",
          "name": "",
          "type": "uint256"
        }
      ],
      "stateMutability": "view",
      "type": "function"
    },
    {
      "inputs": [],
      "name": "getBalance",
      "outputs": [
        {
          "internalType": "uint256",
          "name": "",
          "type": "uint256"
        }
      ],
      "stateMutability": "view",
      "type": "function"
    },
    {
      "inputs": [
        {
          "internalType": "bytes32",
          "name": "subAccountName",
          "type": "bytes32"
        }
      ],
      "name": "getSubAccountBalance",
      "outputs": [
        {
          "internalType": "uint256",
          "name": "",
          "type": "uint256"
        }
      ],
      "stateMutability": "view",
      "type": "function"
    },
    {
      "inputs": [],
      "name": "getCampaignType",
      "outputs": [
        {
          "internalType": "uint8",
          "name": "",
          "type": "uint8"
        }
      ],
      "stateMutability": "view",
      "type": "function"
    },
    {
      "inputs": [],
      "name": "checkVoteOutcome",
      "outputs": [
        {
          "internalType": "uint256[]",
          "name": "vc",
          "type": "uint256[]"
        }
      ],
      "stateMutability": "payable",
      "type": "function"
    }
  ],
  "bytecode": "0x608060405260028054600160a060020a0319163317905534801561002257600080fd5b5060405161002f90610081565b604051809103906000f08015801561004b573d6000803e3d6000fd5b5060068054600160a060020a031916600160a060020a03929092169190911790556002805460a060020a60ff021916905561008f565b61095f80620035ed83390190565b61354e806200009f6000396000f3fe6080604052600436106200017f5760e060020a6000350463021a3b22811462000184578063099113f2146200019d5780630eee4f2f14620001b557806312065fe014620001cc57806319e5ad3814620001f0578063309e36ef14620002155780633649aeed146200022d5780633a8658e414620002545780633b926cbf14620002795780633edfa595146200029057806342e3f1ed14620002b5578063442890d514620002da5780635b588ac614620003045780635cccb48e146200032f5780635d598f1d14620003545780635f74bbde14620003795780637603cd7a146200039057806378ad2c2f14620003c1578063917a43ac14620003e45780639dffb3671462000409578063b4c0d9cc146200042e578063ca5b7c2e1462000453578063cdc7fcc21462000478578063d7ed7d2f146200049f578063dcd1e67014620004c4578063e9772c5214620004e9578063ed88c68e146200050e578063fa6b9a251462000518578063fbeb46ff146200054c578063fe91f6eb146200057d575b600080fd5b6200019b620001953660046200186d565b62000587565b005b348015620001aa57600080fd5b506200019b620005ee565b6200019b620001c63660046200186d565b62000695565b348015620001d957600080fd5b5030315b6040519081526020015b60405180910390f35b348015620001fd57600080fd5b50620001dd6200020f3660046200186d565b620007ed565b3480156200022257600080fd5b50620001dd62000808565b3480156200023a57600080fd5b506200024562000818565b604051620001e79190620018c4565b3480156200026157600080fd5b506200019b620002733660046200186d565b620008fe565b6200019b6200028a3660046200186d565b62000933565b3480156200029d57600080fd5b506200019b620002af366004620018fd565b620009f7565b348015620002c257600080fd5b506200019b620002d4366004620018fd565b62000b90565b348015620002e757600080fd5b50600254600160a060020a03165b604051620001e791906200192a565b3480156200031157600080fd5b506200031c62000c41565b60405160ff9091168152602001620001e7565b3480156200033c57600080fd5b506200019b6200034e3660046200194e565b62000cc4565b3480156200036157600080fd5b506200019b62000373366004620019e1565b62000cfb565b6200019b6200038a366004620018fd565b62000ed9565b3480156200039d57600080fd5b50620001dd620003af36600462001a88565b60046020526000908152604090205481565b348015620003ce57600080fd5b506002546200031c9060a060020a900460ff1681565b348015620003f157600080fd5b50620001dd6200040336600462001a88565b62001044565b3480156200041657600080fd5b50620001dd620004283660046200186d565b620010be565b3480156200043b57600080fd5b506200019b6200044d3660046200186d565b620010f4565b3480156200046057600080fd5b50620002f5620004723660046200186d565b62001330565b3480156200048557600080fd5b50620004906200135b565b604051620001e7919062001aa6565b348015620004ac57600080fd5b506200019b620004be36600462001aec565b6200145d565b348015620004d157600080fd5b5062000490620004e33660046200186d565b62001492565b348015620004f657600080fd5b506200019b6200050836600462001b77565b62001587565b6200019b62001647565b3480156200052557600080fd5b506200031c6200053736600462001a88565b60036020526000908152604090205460ff1681565b3480156200055957600080fd5b50620001dd6200056b36600462001a88565b60056020526000908152604090205481565b62000490620016d6565b60005460405160e160020a63010d1d9102815260048101839052600160a060020a039091169063021a3b22906024015b600060405180830381600087803b158015620005d257600080fd5b505af1158015620005e7573d6000803e3d6000fd5b5050505050565b60005b600154811015620006925760006001828154811062000614576200061462001bb8565b600091825260208083209190910154600160a060020a03168083526003825260409283902054835182815260ff90911692810183905290935090917f1678b24f967a3843f4df73c502214e9713abcdddaae41eb0afe87d808a99e785910160405180910390a150508080620006899062001bec565b915050620005f1565b50565b600254600160a060020a03163314620006ad57600080fd5b662386f26fc100008110156200071a5760405160e560020a62461bcd02815260206004820152602160248201527f4174206c6561737420302e3031455448206e656564656420746f206765742043604482015260fa60020a60150260648201526084015b60405180910390fd5b60006200072f662386f26fc100008362001c22565b60065460405160e060020a6340c10f19028152919250600160a060020a0316906340c10f199062000767903390859060040162001c39565b6020604051808303816000875af115801562000787573d6000803e3d6000fd5b505050506040513d601f19601f82011682018060405250810190620007ad919062001c52565b507fdbc07349ff099ef130fa7a5897745980f288735cb5e10425d95c20fb1dc2ece33382604051620007e192919062001c39565b60405180910390a15050565b600062000802662386f26fc100008362001c22565b92915050565b60025460a060020a900460ff1690565b606060006200082662000808565b6001604060020a038111156200084057620008406200196e565b6040519080825280602002602001820160405280156200086a578160200160208202803683370190505b50905060005b6200087a62000808565b811015620008f85760046000600183815481106200089c576200089c62001bb8565b6000918252602080832090910154600160a060020a031683528201929092526040019020548251839083908110620008d857620008d862001bb8565b602090810291909101015280620008ef8162001bec565b91505062000870565b50919050565b60005460405160e260020a630ea1963902815260048101839052600160a060020a0390911690633a8658e490602401620005b7565b60005b60025460a060020a900460ff16811015620009f35760006001828154811062000963576200096362001bb8565b6000918252602080832090910154600160a060020a0316808352600390915260409091205490915060ff1681806108fc86620009a160648662001c76565b60ff16620009b0919062001c9b565b6040518115909202916000818181858888f19350505050158015620009d9573d6000803e3d6000fd5b505050508080620009ea9062001bec565b91505062000936565b5050565b600254600160a060020a0316331462000a0f57600080fd5b6000805b60015481101562000a725783600160a060020a03166001828154811062000a3e5762000a3e62001bb8565b600091825260209091200154600160a060020a03160362000a5d578391505b8062000a698162001bec565b91505062000a13565b5082600160a060020a031681600160a060020a03160362000aea5760405160e560020a62461bcd02815260206004820152602560248201527f54686973206163636f756e742068617320616c7265616479206265656e206372604482015260da60020a6419585d195902606482015260840162000711565b6001805480820182557fb10e2d527612073b26eecdfd717e6a320cf44b4afac2b0732d9fcbe2b7fa0cf6018054600160a060020a038616600160a060020a031990911681179091556000908152600360209081526040808320805460ff19169055600490915290208390556002805460149062000b7390849060a060020a900460ff1662001cbd565b92506101000a81548160ff021916908360ff160217905550505050565b60065460405160e060020a63a9059cbb028152600160a060020a039091169063a9059cbb9062000bc7908590859060040162001c39565b6020604051808303816000875af115801562000be7573d6000803e3d6000fd5b505050506040513d601f19601f8201168201806040525081019062000c0d919062001c52565b507f69ca02dd4edd7bf0a4abb9ed3b7af3f14778db5d61921c7dc7cd545266326de28282604051620007e192919062001c39565b60008060009054906101000a9004600160a060020a0316600160a060020a0316635b588ac66040518163ffffffff1660e060020a028152600401602060405180830381865afa15801562000c99573d6000803e3d6000fd5b505050506040513d601f19601f8201168201806040525081019062000cbf919062001ce5565b905090565b60005460405160e160020a632e665a4702815260ff83166004820152600160a060020a0390911690635cccb48e90602401620005b7565b600254600160a060020a0316331462000d1357600080fd5b60015481511462000d895760405160e560020a62461bcd02815260206004820152603360248201527f4c656e677468206f6620696e70757420646966666572732066726f6d206e756d6044820152606860020a72626572206f66207375622d6163636f756e747302606482015260840162000711565b6000805b825181101562000ddb5782818151811062000dac5762000dac62001bb8565b602002602001015160ff168262000dc4919062001d05565b91508062000dd28162001bec565b91505062000d8d565b508060641462000e445760405160e560020a62461bcd02815260206004820152602760248201527f596f75722070657263656e746167657320646f6573206e6f7420616464207570604482015260cc60020a66020746f203130302606482015260840162000711565b60005b825181101562000ed45782818151811062000e665762000e6662001bb8565b6020026020010151600360006001848154811062000e885762000e8862001bb8565b600091825260208083209190910154600160a060020a031683528201929092526040019020805460ff191660ff929092169190911790558062000ecb8162001bec565b91505062000e47565b505050565b60405160e260020a63245e90eb0281523390600090309063917a43ac9062000f069085906004016200192a565b602060405180830381865afa15801562000f24573d6000803e3d6000fd5b505050506040513d601f19601f8201168201806040525081019062000f4a919062001d20565b90506000811162000fb35760405160e560020a62461bcd02815260206004820152602660248201527f596f7520646f6e2774206861766520616e79204368617269546f6b656e732074604482015260d060020a656f20766f746502606482015260840162000711565b60065460405160e060020a63095ea7b3028152600160a060020a039091169063095ea7b39062000fea908590879060040162001c39565b6020604051808303816000875af11580156200100a573d6000803e3d6000fd5b505050506040513d601f19601f8201168201806040525081019062001030919062001c52565b506200103e82858562001587565b50505050565b60065460405160e060020a6370a08231028152600091600160a060020a0316906370a08231906200107a9085906004016200192a565b602060405180830381865afa15801562001098573d6000803e3d6000fd5b505050506040513d601f19601f8201168201806040525081019062000802919062001d20565b6000805460405160e060020a639dffb36702815260048101849052600160a060020a0390911690639dffb367906024016200107a565b600254600160a060020a031633146200110c57600080fd5b60006200111862000808565b6001604060020a038111156200113257620011326200196e565b6040519080825280602002602001820160405280156200115c578160200160208202803683370190505b50905060006200116b62000808565b6001604060020a038111156200118557620011856200196e565b604051908082528060200260200182016040528015620011af578160200160208202803683370190505b50905060005b620011bf62000808565b811015620012ad576003600060018381548110620011e157620011e162001bb8565b6000918252602080832090910154600160a060020a03168352820192909252604001902054835160ff9091169084908390811062001223576200122362001bb8565b602002602001019060ff16908160ff1681525050600460006001838154811062001251576200125162001bb8565b6000918252602080832090910154600160a060020a0316835282019290925260400190205482518390839081106200128d576200128d62001bb8565b602090810291909101015280620012a48162001bec565b915050620011b5565b5060006002905060006001600260149054906101000a900460ff1685858589604051620012da906200185f565b620012eb9695949392919062001d6f565b604051809103906000f08015801562001308573d6000803e3d6000fd5b5060008054600160a060020a031916600160a060020a03929092169190911790555050505050565b600181815481106200134157600080fd5b600091825260209091200154600160a060020a0316905081565b606060006200136962000808565b6001604060020a038111156200138357620013836200196e565b604051908082528060200260200182016040528015620013ad578160200160208202803683370190505b50905060005b620013bd62000808565b811015620008f8573360009081526005602052604081205460018054919260039290919085908110620013f457620013f462001bb8565b6000918252602080832090910154600160a060020a0316835282019290925260400190205462001428919060ff1662001c9b565b8282815181106200143d576200143d62001bb8565b602090810291909101015280620014548162001bec565b915050620013b3565b60005460405160e060020a63d7ed7d2f028152600160a060020a039091169063d7ed7d2f90620005b790849060040162001aa6565b60606000620014a062000808565b6001604060020a03811115620014ba57620014ba6200196e565b604051908082528060200260200182016040528015620014e4578160200160208202803683370190505b50905060005b620014f462000808565b811015620015805783600360006001848154811062001517576200151762001bb8565b6000918252602080832090910154600160a060020a031683528201929092526040019020546200154b919060ff1662001c9b565b82828151811062001560576200156062001bb8565b602090810291909101015280620015778162001bec565b915050620014ea565b5092915050565b60065460405160e060020a6323b872dd028152600160a060020a03909116906323b872dd90620015c09086908690869060040162001e15565b6020604051808303816000875af1158015620015e0573d6000803e3d6000fd5b505050506040513d601f19601f8201168201806040525081019062001606919062001c52565b507fa973846bd7f7b7646779266b098fff2b1230da803e26243c05dff2e4e846dfc282826040516200163a92919062001c39565b60405180910390a1505050565b3334620016548162000933565b6200165f8162000695565b60405160e360020a63033cb5a70281526004810182905260009030906319e5ad3890602401602060405180830381865afa158015620016a2573d6000803e3d6000fd5b505050506040513d601f19601f82011682018060405250810190620016c8919062001d20565b905062000ed4838262000b90565b60606000620016e462000808565b6001604060020a03811115620016fe57620016fe6200196e565b60405190808252806020026020018201604052801562001728578160200160208202803683370190505b50905060005b6200173862000808565b811015620008f857600062001777600183815481106200175c576200175c62001bb8565b600091825260209091200154600160a060020a031662001044565b9050808383815181106200178f576200178f62001bb8565b602090810291909101015260065460018054600160a060020a03909216916323b872dd919085908110620017c757620017c762001bb8565b60009182526020909120015460405160e060020a63ffffffff84160281526200180191600160a060020a0316903090869060040162001e15565b6020604051808303816000875af115801562001821573d6000803e3d6000fd5b505050506040513d601f19601f8201168201806040525081019062001847919062001c52565b50508080620018569062001bec565b9150506200172e565b6116df8062001e3a83390190565b6000602082840312156200188057600080fd5b5035919050565b600081518084526020808501945080840160005b83811015620018b9578151875295820195908201906001016200189b565b509495945050505050565b602081526000620018d9602083018462001887565b9392505050565b8035600160a060020a0381168114620018f857600080fd5b919050565b600080604083850312156200191157600080fd5b6200191c83620018e0565b946020939093013593505050565b600160a060020a0391909116815260200190565b60ff811681146200069257600080fd5b6000602082840312156200196157600080fd5b8135620018d9816200193e565b60e060020a634e487b710260009081526041600452602490fd5b604051601f8201601f191681016001604060020a0381118282101715620019b357620019b36200196e565b604052919050565b60006001604060020a03821115620019d757620019d76200196e565b5060209081020190565b60006020808385031215620019f557600080fd5b82356001604060020a0381111562001a0c57600080fd5b8301601f8101851362001a1e57600080fd5b803562001a3562001a2f82620019bb565b62001988565b8181529083028201830190838101908783111562001a5257600080fd5b928401925b8284101562001a7d57833562001a6d816200193e565b8252928401929084019062001a57565b979650505050505050565b60006020828403121562001a9b57600080fd5b620018d982620018e0565b6020808252825182820181905260009190848201906040850190845b8181101562001ae05783518352928401929184019160010162001ac2565b50909695505050505050565b6000602080838503121562001b0057600080fd5b82356001604060020a0381111562001b1757600080fd5b8301601f8101851362001b2957600080fd5b803562001b3a62001a2f82620019bb565b8181529083028201830190838101908783111562001b5757600080fd5b928401925b8284101562001a7d5783358252928401929084019062001b5c565b60008060006060848603121562001b8d57600080fd5b62001b9884620018e0565b925062001ba860208501620018e0565b9150604084013590509250925092565b60e060020a634e487b710260009081526032600452602490fd5b60e060020a634e487b710260009081526011600452602490fd5b60006001820162001c015762001c0162001bd2565b5060010190565b60e060020a634e487b710260009081526012600452602490fd5b60008262001c345762001c3462001c08565b500490565b600160a060020a03929092168252602082015260400190565b60006020828403121562001c6557600080fd5b81518015158114620018d957600080fd5b600060ff83168062001c8c5762001c8c62001c08565b8060ff84160491505092915050565b600081600019048311821515161562001cb85762001cb862001bd2565b500290565b600060ff821660ff84168060ff0382111562001cdd5762001cdd62001bd2565b019392505050565b60006020828403121562001cf857600080fd5b8151620018d9816200193e565b6000821982111562001d1b5762001d1b62001bd2565b500190565b60006020828403121562001d3357600080fd5b5051919050565b600081518084526020808501945080840160005b83811015620018b957815160ff168752958201959082019060010162001d4e565b600060c0820160c0835280895480835260e0850191508a600052602092508260002060005b8281101562001dbb578154600160a060020a03168452928401926001918201910162001d94565b50505060ff891684830152838103604085015262001dda818962001d3a565b915050828103606084015262001df1818762001887565b91505062001e04608083018560ff169052565b8260a0830152979650505050505050565b600160a060020a03938416815291909216602082015260408101919091526060019056fe60806040523480156200001157600080fd5b50604051620016df380380620016df833981016040819052620000349162000376565b600d8054600160a060020a031916331790556001805460ff871660ff1990911617905585516200006c9060009060208901906200017e565b50600a805460ff191660ff8416179055600b81905560005b60015460ff168110156200017157848181518110620000a757620000a7620004a6565b602002602001015160026000808481548110620000c857620000c8620004a6565b600091825260208083209190910154600160a060020a031683528201929092526040019020805460ff191660ff929092169190911790558351849082908110620001165762000116620004a6565b602002602001015160036000808481548110620001375762000137620004a6565b6000918252602080832090910154600160a060020a03168352820192909252604001902055806200016881620004d5565b91505062000084565b5050505050505062000516565b828054828255906000526020600020908101928215620001d6579160200282015b82811115620001d65782518254600160a060020a031916600160a060020a039091161782556020909201916001909101906200019f565b50620001e4929150620001e8565b5090565b5b80821115620001e45760008155600101620001e9565b7f4e487b7100000000000000000000000000000000000000000000000000000000600052604160045260246000fd5b604051601f8201601f191681016001604060020a0381118282101715620002595762000259620001ff565b604052919050565b60006001604060020a038211156200027d576200027d620001ff565b5060209081020190565b805160ff811681146200029957600080fd5b919050565b600082601f830112620002b057600080fd5b81516020620002c9620002c38362000261565b6200022e565b82815291810284018101918181019086841115620002e657600080fd5b8286015b848110156200030c57620002fe8162000287565b8352918301918301620002ea565b509695505050505050565b600082601f8301126200032957600080fd5b815160206200033c620002c38362000261565b828152918102840181019181810190868411156200035957600080fd5b8286015b848110156200030c57805183529183019183016200035d565b60008060008060008060c087890312156200039057600080fd5b86516001604060020a0380821115620003a857600080fd5b818901915089601f830112620003bd57600080fd5b81516020620003d0620002c38362000261565b8281529181028401810191818101908d841115620003ed57600080fd5b948201945b8386101562000424578551600160a060020a0381168114620004145760008081fd5b82529482019490820190620003f2565b9a506200043590508b820162000287565b9850505060408901519150808211156200044e57600080fd5b6200045c8a838b016200029e565b955060608901519150808211156200047357600080fd5b506200048289828a0162000317565b935050620004936080880162000287565b915060a087015190509295509295509295565b7f4e487b7100000000000000000000000000000000000000000000000000000000600052603260045260246000fd5b6000600182016200050f577f4e487b7100000000000000000000000000000000000000000000000000000000600052601160045260246000fd5b5060010190565b6111b980620005266000396000f3fe60806040526004361061009a5760e060020a6000350463021a3b22811461009f5780633a8658e4146100b45780635b588ac6146100d45780635cccb48e146100ff57806371aac7f91461011f5780637603cd7a1461013457806378ad2c2f1461016f5780639dffb36714610189578063ca5b7c2e146101a9578063d7ed7d2f146101e1578063d8270dce14610201578063fa6b9a2514610217575b600080fd5b6100b26100ad366004610f2e565b610247565b005b3480156100c057600080fd5b506100b26100cf366004610f2e565b6106fc565b3480156100e057600080fd5b50600a5460ff165b60405160ff90911681526020015b60405180910390f35b34801561010b57600080fd5b506100b261011a366004610f47565b610c89565b34801561012b57600080fd5b506100b2610d38565b34801561014057600080fd5b5061016161014f366004610f71565b60036020526000908152604090205481565b6040519081526020016100f6565b34801561017b57600080fd5b506001546100e89060ff1681565b34801561019557600080fd5b506101616101a4366004610f2e565b610d51565b3480156101b557600080fd5b506101c96101c4366004610f2e565b610e01565b604051600160a060020a0390911681526020016100f6565b3480156101ed57600080fd5b506100b26101fc366004610fb4565b610e2b565b34801561020d57600080fd5b50610161600c5481565b34801561022357600080fd5b506100e8610232366004610f71565b60026020526000908152604090205460ff1681565b60005b60015460ff168110156104105760006006600080848154811061026f5761026f61108a565b6000918252602080832090910154600160a060020a0316835282019290925260400190205460ff1660028111156102a8576102a8611070565b1480156102c45750600c546102c09062093a806110be565b4210155b156103fe576002600660008084815481106102e1576102e161108a565b6000918252602080832090910154600160a060020a031683528201929092526040019020805460ff1916600183600281111561031f5761031f611070565b0217905550600080516020611164833981519152600082815481106103465761034661108a565b60009182526020822001548154600160a060020a03909116916004918190869081106103745761037461108a565b6000918252602080832090910154600160a060020a03168352820192909252604001812054815490916003918190879081106103b2576103b261108a565b6000918252602080832090910154600160a060020a0316835282019290925260409081019091205490516103e8939291906110d6565b60405180910390a1600a805460ff191660031790555b80610408816110f7565b91505061024a565b506000805b60015460ff168110156104a05782600360008084815481106104395761043961108a565b6000918252602080832090910154600160a060020a031683528201929092526040019020540361048e57600081815481106104765761047661108a565b600091825260209091200154600160a060020a031691505b80610498816110f7565b915050610415565b50600160a060020a03811660009081526006602052604081205460ff1660028111156104ce576104ce611070565b146105465760405160e560020a62461bcd02815260206004820152603760248201527f5468652063616d706169676e20686173206569746865722066696e69736865646044820152604960020a761037b9103430b9903132b2b710333ab63334b63632b2170260648201526084015b60405180910390fd5b600160a060020a03811660009081526004602052604090205480156105765761056f34826110be565b9050610579565b50345b600160a060020a03821660009081526004602090815260408083208490556005909152902054811061060557600160a060020a03821660009081526006602052604090819020805460ff19166001179055517f84ce75384538250d1691d23fcf41bb86189a077b16f707a9abf1d1c3e1285aa3906105fc908490849087906110d6565b60405180910390a15b600160a060020a038216600090815260086020908152604080832033845290915290205460ff16151560011461069257600160a060020a038216600081815260086020908152604080832033808552908352818420805460ff191660019081179091559484526009835290832080549485018155835291209091018054600160a060020a03191690911790555b600160a060020a038216600090815260076020908152604080832033845290915290205480156106cd576106c634826110be565b90506106d0565b50345b600160a060020a0390921660009081526007602090815260408083203384529091529020919091555050565b60005b60015460ff168110156108c5576000600660008084815481106107245761072461108a565b6000918252602080832090910154600160a060020a0316835282019290925260400190205460ff16600281111561075d5761075d611070565b1480156107795750600c546107759062093a806110be565b4210155b156108b3576002600660008084815481106107965761079661108a565b6000918252602080832090910154600160a060020a031683528201929092526040019020805460ff191660018360028111156107d4576107d4611070565b0217905550600080516020611164833981519152600082815481106107fb576107fb61108a565b60009182526020822001548154600160a060020a03909116916004918190869081106108295761082961108a565b6000918252602080832090910154600160a060020a03168352820192909252604001812054815490916003918190879081106108675761086761108a565b6000918252602080832090910154600160a060020a03168352820192909252604090810190912054905161089d939291906110d6565b60405180910390a1600a805460ff191660031790555b806108bd816110f7565b9150506106ff565b50600d54600160a060020a031633146108dd57600080fd5b6000805b60015460ff1681101561096c5782600360008084815481106109055761090561108a565b6000918252602080832090910154600160a060020a031683528201929092526040019020540361095a57600081815481106109425761094261108a565b600091825260209091200154600160a060020a031691505b80610964816110f7565b9150506108e1565b506001600160a060020a03821660009081526006602052604090205460ff16600281111561099c5761099c611070565b036109f157600160a060020a03811660008181526004602052604080822054905190928492909184156108fc0291859190818181858888f193505050501580156109ea573d6000803e3d6000fd5b5050505050565b6002600160a060020a03821660009081526006602052604090205460ff166002811115610a2057610a20611070565b03610c2957600160a060020a0381166000908152600460205260409020548015610c2457600a5460ff16600003610b1557600160a060020a038216600090815260046020526040812054905b60015460ff168110156109ea576000808281548110610a8d57610a8d61108a565b6000918252602080832090910154600160a060020a0316808352600290915260409091205490915060ff1681806108fc86610ac9606486611110565b60ff16610ad69190611144565b6040518115909202916000818181858888f19350505050158015610afe573d6000803e3d6000fd5b505050508080610b0d906110f7565b915050610a6c565b600a5460ff16600103610c245760005b600160a060020a038316600090815260096020526040902054811015610c2257600160a060020a038316600090815260076020908152604080832060099092528220805483919085908110610b7c57610b7c61108a565b6000918252602080832090910154600160a060020a0390811684528382019490945260409283018220549388168252600990529081208054929350909184908110610bc957610bc961108a565b6000918252602082200154604051600160a060020a039091169250829184156108fc02918591818181858888f19350505050158015610c0c573d6000803e3d6000fd5b5050508080610c1a906110f7565b915050610b25565b505b505050565b600160a060020a03811660009081526006602052604081205460ff166002811115610c5657610c56611070565b03610c85576040517f64d12556a85cdd58f632c188b5b6bdb51b11dff496b036e63e193315cbc6019f90600090a15b5050565b600d54600160a060020a03163314610ca057600080fd5b60005b60015460ff16811015610d1d57600060066000808481548110610cc857610cc861108a565b6000918252602080832090910154600160a060020a031683528201929092526040019020805460ff19166001836002811115610d0657610d06611070565b021790555080610d15816110f7565b915050610ca3565b5042600c55600a805460ff191660ff92909216919091179055565b600d54600160a060020a03163314610d4f57600080fd5b565b60008060005b60015460ff16811015610de2578360036000808481548110610d7b57610d7b61108a565b6000918252602080832090910154600160a060020a0316835282019290925260400190205403610dd05760008181548110610db857610db861108a565b600091825260209091200154600160a060020a031691505b80610dda816110f7565b915050610d57565b50600160a060020a031660009081526004602052604090205492915050565b60008181548110610e1157600080fd5b600091825260209091200154600160a060020a0316905081565b600d54600160a060020a03163314610e4257600080fd5b600154815160ff90911614610eb75760405160e560020a62461bcd02815260206004820152602f60248201527f596f75206e65656420746f20637265617465206120676f616c20666f722065616044820152608860020a6e6368207375622d6163636f756e742102606482015260840161053d565b60005b60015460ff16811015610c8557818181518110610ed957610ed961108a565b602002602001015160056000808481548110610ef757610ef761108a565b6000918252602080832090910154600160a060020a0316835282019290925260400190205580610f26816110f7565b915050610eba565b600060208284031215610f4057600080fd5b5035919050565b600060208284031215610f5957600080fd5b813560ff81168114610f6a57600080fd5b9392505050565b600060208284031215610f8357600080fd5b8135600160a060020a0381168114610f6a57600080fd5b60e060020a634e487b710260009081526041600452602490fd5b60006020808385031215610fc757600080fd5b82356001604060020a0380821115610fde57600080fd5b818501915085601f830112610ff257600080fd5b81358181111561100457611004610f9a565b838102604051601f19603f8301168101818110858211171561102857611028610f9a565b60405291825284820192508381018501918883111561104657600080fd5b938501935b828510156110645784358452938501939285019261104b565b98975050505050505050565b60e060020a634e487b710260009081526021600452602490fd5b60e060020a634e487b710260009081526032600452602490fd5b60e060020a634e487b710260009081526011600452602490fd5b600082198211156110d1576110d16110a4565b500190565b600160a060020a039390931683526020830191909152604082015260600190565b600060018201611109576111096110a4565b5060010190565b600060ff8316806111355760e060020a634e487b710260009081526012600452602490fd5b8060ff84160491505092915050565b600081600019048311821515161561115e5761115e6110a4565b50029056fee98097b6040eb0966e73fd39adf87f8715de85b3f660e6a7009ba2469d4fd86da264697066735822122061ebabc4c61e2c5fc1576db3cd34e1958242e9f55b8c671502a81cc72e2562ee64736f6c634300080d0033a264697066735822122031cc5127bb0477199e11c9eaf1f1ae5c2258957c6addeec868e809918d3b19cb64736f6c634300080d0033608060405260008054600160a860020a031916610100330217905534801561002657600080fd5b50610929806100366000396000f3fe608060405234801561001057600080fd5b50600436106100bd5760e060020a600035046305d2035b81146100c257806306fdde03146100e4578063095ea7b31461011c57806318160ddd1461012f57806323b872dd14610141578063313ce5671461015457806340c10f191461016e57806370a08231146101815780637d64bcb4146101aa578063893d20e8146101b25780638da5cb5b146101dc57806395d89b41146101f4578063a9059cbb14610218578063dd62ed3e1461022b575b600080fd5b6000546100cf9060ff1681565b60405190151581526020015b60405180910390f35b61010f60405180604001604052806009815260200160b960020a682234b1b2aa37b5b2b70281525081565b6040516100db919061074b565b6100cf61012a3660046107bc565b610264565b6003545b6040519081526020016100db565b6100cf61014f3660046107e6565b6102d1565b61015c601281565b60405160ff90911681526020016100db565b6100cf61017c3660046107bc565b6104b2565b61013361018f366004610822565b600160a060020a031660009081526002602052604090205490565b6100cf610595565b6000546101009004600160a060020a03165b604051600160a060020a0390911681526020016100db565b6000546101c4906101009004600160a060020a031681565b61010f60405180604001604052806002815260200160f260020a6111150281525081565b6100cf6102263660046107bc565b6105fc565b61013361023936600461083d565b600160a060020a03918216600090815260016020908152604080832093909416825291909152205490565b336000818152600160209081526040808320600160a060020a038716808552925280832085905551919290917f8c5be1e5ebec7d5bd14f71427d1e84f3dd0314c0f7b2291e5b200ac8c7c3b925906102bf9086815260200190565b60405180910390a35060015b92915050565b6000600160a060020a0383166102e657600080fd5b600160a060020a0384166000908152600260205260409020548211156103565760405160e560020a62461bcd02815260206004820181905260248201527f46726f6d20646f65736e2774206861766520656e6f7567682062616c616e636560448201526064015b60405180910390fd5b600160a060020a03841660009081526001602090815260408083203284529091529020548211156103cc5760405160e560020a62461bcd02815260206004820152601e60248201527f4e6f7420616c6c6f77656420746f207370656e642074686973206d7563680000604482015260640161034d565b600160a060020a0384166000908152600260205260409020546103ef908361070a565b600160a060020a03808616600090815260026020526040808220939093559085168152205461041e908361072d565b600160a060020a03808516600090815260026020908152604080832094909455918716815260018252828120328252909152205461045c908361070a565b600160a060020a03858116600081815260016020908152604080832032845282529182902094909455518581529186169290916000805160206108d4833981519152910160405180910390a35060019392505050565b600080546101009004600160a060020a031633146104cf57600080fd5b60005460ff16156104df57600080fd5b6003546104ec908361072d565b600355600160a060020a038316600090815260026020526040902054610512908361072d565b600160a060020a038416600081815260026020526040908190209290925590517f0f6798a560793a54c3bcfe86a93cde1e73087d944c0ea20544137d4121396885906105619085815260200190565b60405180910390a2604051828152600160a060020a038416906000906000805160206108d4833981519152906020016102bf565b600080546101009004600160a060020a031633146105b257600080fd5b60005460ff16156105c257600080fd5b6000805460ff191660011781556040517fae5184fba832cb2b1f702aca6117b8d265eaf03ad33eb133f19dde0f5920fa089190a150600190565b6000600160a060020a03831661061157600080fd5b326000908152600260205260409020548211156106855760405160e560020a62461bcd02815260206004820152602660248201527f6d73672e73656e64657220646f65736e2774206861766520656e6f7567682062604482015260d060020a65616c616e636502606482015260840161034d565b3260009081526002602052604090205461069f908361070a565b3260009081526002602052604080822092909255600160a060020a038516815220546106cb908361072d565b600160a060020a0384166000818152600260205260409081902092909255905132906000805160206108d4833981519152906102bf9086815260200190565b60008282111561071c5761071c610870565b61072682846108a4565b9392505050565b600061073982846108bb565b9050828110156102cb576102cb610870565b600060208083528351808285015260005b818110156107785785810183015185820160400152820161075c565b8181111561078a576000604083870101525b50601f01601f1916929092016040019392505050565b8035600160a060020a03811681146107b757600080fd5b919050565b600080604083850312156107cf57600080fd5b6107d8836107a0565b946020939093013593505050565b6000806000606084860312156107fb57600080fd5b610804846107a0565b9250610812602085016107a0565b9150604084013590509250925092565b60006020828403121561083457600080fd5b610726826107a0565b6000806040838503121561085057600080fd5b610859836107a0565b9150610867602084016107a0565b90509250929050565b60e060020a634e487b710260009081526001600452602490fd5b60e060020a634e487b710260009081526011600452602490fd5b6000828210156108b6576108b661088a565b500390565b600082198211156108ce576108ce61088a565b50019056feddf252ad1be2c89b69c2b068fc378daa952ba7f163c4a11628f55a4df523b3efa26469706673582212206ca69f99d4095f97a12fe24e4412e7bd9fe79cdcfadc5885e71ded173d6c7b9764736f6c634300080d0033",
  "immutableReferences": {},
  "source": "// SPDX-License-Identifier: MIT\r\npragma solidity >=0.8.0;\r\npragma abicoder v2;\r\n\r\n// import \"./ChariToken.sol\";\r\nimport './ERC20.sol';\r\nimport \"./Campaign.sol\";\r\n\r\ncontract Charity {\r\n    // ChariToken tokenContract;\r\n    Campaign campaignContract;\r\n    address[] public subAccounts;\r\n    address _owner = msg.sender;\r\n    uint8 public numberOfSubAccounts; //subaccounts sld not exceed 255\r\n    mapping(address => uint8) public subAccountPercentages; // mapping of proportion of amount donated, for each sub-account [0.1, 0.2, 0.3, 0.4] etc\r\n    mapping(address => bytes32) public subAccountNames; // same size as mapping above, stores the name of each subaccount for that charity\r\n    // mapping(address => uint256) public subAccountVotes; //same size as mapping above, tracks num. of votes per subaccount for that charity\r\n    mapping(address => uint256) public amountDonated; // mapping for amount that each person donates\r\n\r\n    //Token integration\r\n    ERC20 erc20instance;\r\n\r\n    constructor() {\r\n        erc20instance = new ERC20();\r\n        numberOfSubAccounts = 0;\r\n    }\r\n\r\n    event Allocation(address accountAddress, uint8 percentages);\r\n\r\n    event Transfer(address to, uint256 amount); //event of Charity sending CT to donor\r\n    event GetCT(address to, uint256 amount); //event of this contract getting CT with Eth\r\n    event TransferViaVote(address to, uint256 amount); //event of Donor voting to sub account\r\n    // event TokenSent(address sender, uint256 amt); //event of Charity sending CT to donor\r\n    event Voted(address candidate); //event of voting for a sub-account\r\n    \r\n    modifier ownerOnly() {\r\n        require(msg.sender == _owner);\r\n        _;\r\n    }\r\n    // Function to receive Ether. msg.data must be empty\r\n    // receive() external payable {} // might need to change imo.... because we need to store senders\r\n\r\n    // // Fallback function is called when msg.data is not empty\r\n    // fallback() external payable {}\r\n    \r\n    // creation of sub-accounts for a single charity\r\n    function createSubAccount(address accountAddress, bytes32 accountName) public ownerOnly{\r\n        address temp;\r\n        for(uint i = 0; i < subAccounts.length; i++) {\r\n            if (subAccounts[i] == accountAddress) {\r\n                temp = accountAddress;\r\n            }\r\n        }\r\n        require(temp != accountAddress, \"This account has already been created\");\r\n        subAccounts.push(accountAddress);\r\n        subAccountPercentages[accountAddress] = 0;\r\n        subAccountNames[accountAddress] = accountName;\r\n        numberOfSubAccounts += 1;\r\n    }\r\n\r\n    // allocate percentages based on sub-account addresses. Feed in array of percentages\r\n    function allocatePercentages(uint8[] memory percentages) public ownerOnly() {\r\n        require(percentages.length == subAccounts.length, \"Length of input differs from number of sub-accounts\");\r\n        uint temp;\r\n        for(uint i = 0; i < percentages.length; i++) {\r\n            temp += percentages[i];\r\n        }\r\n        require(temp == 100, \"Your percentages does not add up to 100\");\r\n        for(uint i = 0; i < percentages.length; i++) {\r\n            subAccountPercentages[subAccounts[i]] = percentages[i];\r\n        }\r\n    }\r\n\r\n    //token integration\r\n    function getCT(uint256 amt) public payable ownerOnly { //an address gets CT with Eth\r\n        require(amt >= 1E16, \"At least 0.01ETH needed to get CT\");\r\n        uint256 val = amt/ 1E16;\r\n        erc20instance.mint(msg.sender, val);\r\n        emit GetCT(msg.sender, val);\r\n    }\r\n\r\n    function transferCT(address to, uint256 amount) public { //transfer PT from Pool contract to an address, will be called within the contract when voting ends to transfer the PT in the pool to the winner or return the PT\r\n        erc20instance.transfer(to, amount);\r\n        emit Transfer(to, amount);\r\n    }\r\n\r\n    function transferCTViaVote(address from, address to, uint256 amount) public { //transfer PT from Pool contract to an address, will be called within the contract when voting ends to transfer the PT in the pool to the winner or return the PT\r\n        erc20instance.transferFrom(from, to, amount);\r\n        emit TransferViaVote(to, amount);\r\n    }\r\n\r\n    function donate() public payable {\r\n        address donor = msg.sender;\r\n        uint256 amtDonated = msg.value;\r\n        // address payable charityAddress = address(this);\r\n        // charityAddress.transfer(amtDonated);\r\n\r\n        allocateDonations(amtDonated); //allocate donations\r\n\r\n        //mint tokens to this contract, then send it to donor\r\n        getCT(amtDonated);\r\n        uint256 tokensToAward = this.convertToCredits(amtDonated);\r\n        transferCT(donor, tokensToAward); \r\n    }\r\n\r\n    function vote(address subAccount, uint256 voteAmt) public payable {\r\n        address donor = msg.sender;\r\n        uint256 tokenBalance = this.checkCTBalance(donor);\r\n        require(tokenBalance > 0, \"You don't have any ChariTokens to vote\");\r\n        erc20instance.approve(donor, voteAmt);\r\n        transferCTViaVote(donor, subAccount, voteAmt); \r\n    }\r\n\r\n    // allocate donations based on balance.. do we need to change? to allocate each time someone donates\r\n    function allocateDonations(uint256 amtDonated) public payable {\r\n        // uint256 amtDonated = getBalance();\r\n        for (uint i =0; i < numberOfSubAccounts; i++) {\r\n            address subAccountAdd = subAccounts[i]; // subaccount in question currently\r\n            uint8 ratio = subAccountPercentages[subAccountAdd];\r\n            address payable subAccountAddPayable = payable(subAccountAdd);\r\n            subAccountAddPayable.transfer((ratio/100)*amtDonated);\r\n        }\r\n    }\r\n\r\n\r\n\r\n    //this is a unit conversion function that converts amount of ether into DTs\r\n    function convertToCredits(uint256 etherAmount) public pure returns(uint256) {\r\n        return(etherAmount / 10000000000000000);\r\n    }\r\n\r\n    function checkCTBalance(address user) public view returns(uint256) {\r\n        return erc20instance.balanceOf(user);\r\n    }\r\n\r\n\r\n    //process donations: split donations and award donor with tokens\r\n    // function processDonations(uint256 amtDonated, address donor) public payable {\r\n    //     this.allocateDonations(amtDonated); //allocate donations\r\n\r\n    //     //mint tokens to this contract, then send it to donor\r\n    //     tokenContract.getCredit(amtDonated);\r\n    //     uint256 tokensToAward = tokenContract.convertToCredits(amtDonated);\r\n    //     tokenContract.getErc20Contract().transfer(donor, tokensToAward); \r\n    // }\r\n\r\n\r\n    function createCampaign(bytes32 campaignName) public ownerOnly() {\r\n        uint8[] memory percentages = new uint8[](getNumberOfAccounts());\r\n        bytes32[] memory names = new bytes32[](getNumberOfAccounts());\r\n        for (uint i = 0; i < getNumberOfAccounts(); i++) {\r\n            percentages[i] = subAccountPercentages[subAccounts[i]];\r\n            names[i] = subAccountNames[subAccounts[i]];\r\n        }\r\n        uint8 campaignType = 2;\r\n        Campaign c = new Campaign(subAccounts, numberOfSubAccounts, percentages, names, campaignType, campaignName);\r\n        campaignContract = c;\r\n    }\r\n\r\n/* Campaign section */\r\n\r\n    function addCampaignGoals(uint256[] memory allocations) public{\r\n        campaignContract.addCampaignGoals(allocations);\r\n    }\r\n\r\n    function startCampaign(uint8 typeOfCampaign) public {\r\n        campaignContract.startCampaign(typeOfCampaign);\r\n    }\r\n\r\n    function depositCampaign(bytes32 subAccount) public payable {\r\n        campaignContract.depositCampaign(subAccount);\r\n    }\r\n\r\n    function withdrawCampaign(bytes32 subAccount) public {\r\n        campaignContract.withdrawCampaign(subAccount);\r\n    }\r\n\r\n\r\n/* GETTERS */\r\n    //Add relevant getters and setters\r\n    function getContractOwner() public view returns(address){\r\n        return _owner;\r\n    }\r\n\r\n\r\n     // getter for allocation\r\n    function showAllocation() public {\r\n        for(uint i = 0; i < subAccounts.length; i++) {\r\n            address tempAddress = subAccounts[i];\r\n            uint8 tempAllocation = subAccountPercentages[tempAddress];\r\n            emit Allocation(tempAddress, tempAllocation);\r\n        }\r\n    }\r\n\r\n    // a general check on how much money the person has put, and how it has been spread\r\n    function getProportions() public view returns (uint[] memory xd) {\r\n        uint[] memory listOfProportions = new uint[](getNumberOfAccounts());\r\n        for (uint256 i = 0; i < getNumberOfAccounts(); i++) {\r\n            listOfProportions[i] = subAccountPercentages[subAccounts[i]] * amountDonated[msg.sender]; // \"Food, 100\" e.g.\r\n        }\r\n        return listOfProportions; // e.g. [100, 200, 300]\r\n    }\r\n    \r\n   \r\n    \r\n    function getAccountsInOrder() public view returns (bytes32[] memory xd) {\r\n        bytes32[] memory listOfAccounts = new bytes32[](getNumberOfAccounts());\r\n        for (uint256 i = 0; i < getNumberOfAccounts(); i++) {\r\n            listOfAccounts[i] = (subAccountNames[subAccounts[i]]); // \"Food, 100\" e.g.\r\n        }\r\n        return listOfAccounts; // e.g. [\"Food\", \"Water\", \"Air\"]. combine with getProportions() to find out amount of money in each sub wallet\r\n    }\r\n\r\n\r\n    // given an amount, how much is going to which acc? a way for donors to check where amounts are gg before they donate. \r\n    //combine with getAccountsInOrder() as well, to find out where in which account\r\n    function checkAmount(uint256 amt) public view returns (uint[] memory xd) {\r\n        uint[] memory listOfAmounts = new uint[](getNumberOfAccounts());\r\n        for (uint256 i = 0; i < getNumberOfAccounts(); i++) {\r\n            listOfAmounts[i] = (subAccountPercentages[subAccounts[i]] * amt);\r\n        }\r\n        return listOfAmounts;\r\n    }\r\n\r\n    function getNumberOfAccounts() public view returns (uint256) {\r\n        return numberOfSubAccounts;\r\n    }\r\n\r\n    // fall back function balance!\r\n    function getBalance() public view returns (uint) {\r\n        return address(this).balance;\r\n    }\r\n\r\n    function getSubAccountBalance(bytes32 subAccountName) public view returns(uint256) {\r\n        return campaignContract.getSubAccountBalance(subAccountName);\r\n    }\r\n\r\n     function getCampaignType() public view returns (uint8) {\r\n         return campaignContract.getCampaignType();\r\n     }\r\n\r\n    function checkVoteOutcome() public payable returns(uint256[] memory vc) {\r\n        uint256[] memory voteCounts = new uint256[](getNumberOfAccounts());\r\n        for (uint256 i = 0; i < getNumberOfAccounts(); i++) {\r\n            uint256 currVoteCount = checkCTBalance(subAccounts[i]);\r\n            voteCounts[i] = currVoteCount;\r\n\r\n            //reset voteCount\r\n            erc20instance.transferFrom(subAccounts[i], address(this), currVoteCount); //simulate burn tokens by transferring from subaccount to charity\r\n\r\n        }\r\n\r\n        return voteCounts;        \r\n    }\r\n}",
  "sourcePath": "C:\\Users\\cheer\\Desktop\\IS4302 Labs\\Project\\charichain\\charichain\\contracts\\Charity.sol",
  "compiler": {
    "name": "solc",
    "version": "0.8.13+commit.abaa5c0e.Emscripten.clang"
  },
  "schemaVersion": "3.4.4",
  "updatedAt": "2022-04-13T04:52:12.411Z",
  "devdoc": {
    "kind": "dev",
    "methods": {},
    "version": 1
  },
  "userdoc": {
    "kind": "user",
    "methods": {},
    "version": 1
  }
}