{
  "contractName": "Donor",
  "abi": [
    {
      "inputs": [
        {
          "internalType": "uint256",
          "name": "userId",
          "type": "uint256"
        },
        {
          "internalType": "contract ChariToken",
          "name": "chariTokenAddress",
          "type": "address"
        }
      ],
      "stateMutability": "nonpayable",
      "type": "constructor"
    },
    {
      "inputs": [
        {
          "internalType": "address",
          "name": "charity",
          "type": "address"
        }
      ],
      "name": "donate",
      "outputs": [],
      "stateMutability": "payable",
      "type": "function"
    },
    {
      "inputs": [
        {
          "internalType": "address",
          "name": "subAccount",
          "type": "address"
        },
        {
          "internalType": "uint256",
          "name": "voteAmt",
          "type": "uint256"
        }
      ],
      "name": "vote",
      "outputs": [],
      "stateMutability": "payable",
      "type": "function"
    }
  ],
  "bytecode": "0x608060405233600360006101000a81548173ffffffffffffffffffffffffffffffffffffffff021916908373ffffffffffffffffffffffffffffffffffffffff16021790555034801561005157600080fd5b506040516107f53803806107f58339818101604052810190610073919061016d565b8160028190555080600160006101000a81548173ffffffffffffffffffffffffffffffffffffffff021916908373ffffffffffffffffffffffffffffffffffffffff16021790555050506101ad565b600080fd5b6000819050919050565b6100da816100c7565b81146100e557600080fd5b50565b6000815190506100f7816100d1565b92915050565b600073ffffffffffffffffffffffffffffffffffffffff82169050919050565b6000610128826100fd565b9050919050565b600061013a8261011d565b9050919050565b61014a8161012f565b811461015557600080fd5b50565b60008151905061016781610141565b92915050565b60008060408385031215610184576101836100c2565b5b6000610192858286016100e8565b92505060206101a385828601610158565b9150509250929050565b610639806101bc6000396000f3fe6080604052600436106100285760003560e01c8062362a951461002d5780635f74bbde14610049575b600080fd5b61004760048036038101906100429190610364565b610065565b005b610063600480360381019061005e91906103c7565b6100bb565b005b600034905060008290508073ffffffffffffffffffffffffffffffffffffffff166108fc839081150290604051600060405180830381858888f193505050501580156100b5573d6000803e3d6000fd5b50505050565b600360009054906101000a900473ffffffffffffffffffffffffffffffffffffffff1673ffffffffffffffffffffffffffffffffffffffff163373ffffffffffffffffffffffffffffffffffffffff161461011557600080fd5b6000600160009054906101000a900473ffffffffffffffffffffffffffffffffffffffff1673ffffffffffffffffffffffffffffffffffffffff16636cba62906040518163ffffffff1660e01b8152600401602060405180830381865afa158015610184573d6000803e3d6000fd5b505050506040513d601f19601f820116820180604052508101906101a8919061041c565b9050600081116101ed576040517f08c379a00000000000000000000000000000000000000000000000000000000081526004016101e4906104cc565b60405180910390fd5b600160009054906101000a900473ffffffffffffffffffffffffffffffffffffffff1673ffffffffffffffffffffffffffffffffffffffff1663af55de6c6040518163ffffffff1660e01b8152600401602060405180830381865afa15801561025a573d6000803e3d6000fd5b505050506040513d601f19601f8201168201806040525081019061027e919061052a565b73ffffffffffffffffffffffffffffffffffffffff1663a9059cbb84846040518363ffffffff1660e01b81526004016102b8929190610575565b6020604051808303816000875af11580156102d7573d6000803e3d6000fd5b505050506040513d601f19601f820116820180604052508101906102fb91906105d6565b50505050565b600080fd5b600073ffffffffffffffffffffffffffffffffffffffff82169050919050565b600061033182610306565b9050919050565b61034181610326565b811461034c57600080fd5b50565b60008135905061035e81610338565b92915050565b60006020828403121561037a57610379610301565b5b60006103888482850161034f565b91505092915050565b6000819050919050565b6103a481610391565b81146103af57600080fd5b50565b6000813590506103c18161039b565b92915050565b600080604083850312156103de576103dd610301565b5b60006103ec8582860161034f565b92505060206103fd858286016103b2565b9150509250929050565b6000815190506104168161039b565b92915050565b60006020828403121561043257610431610301565b5b600061044084828501610407565b91505092915050565b600082825260208201905092915050565b7f596f7520646f6e2774206861766520616e79204368617269546f6b656e73207460008201527f6f20766f74650000000000000000000000000000000000000000000000000000602082015250565b60006104b6602683610449565b91506104c18261045a565b604082019050919050565b600060208201905081810360008301526104e5816104a9565b9050919050565b60006104f782610326565b9050919050565b610507816104ec565b811461051257600080fd5b50565b600081519050610524816104fe565b92915050565b6000602082840312156105405761053f610301565b5b600061054e84828501610515565b91505092915050565b61056081610326565b82525050565b61056f81610391565b82525050565b600060408201905061058a6000830185610557565b6105976020830184610566565b9392505050565b60008115159050919050565b6105b38161059e565b81146105be57600080fd5b50565b6000815190506105d0816105aa565b92915050565b6000602082840312156105ec576105eb610301565b5b60006105fa848285016105c1565b9150509291505056fea26469706673582212208e81bc014f41621d58679dd4a61ccb85bcefd89abbf6284bc8f4ce235f4a287764736f6c634300080d0033",
  "immutableReferences": {},
  "source": "// SPDX-License-Identifier: MIT\r\npragma solidity >=0.8.0;\r\n// pragma abicoder v2;\r\nimport \"./Charity.sol\";\r\nimport \"./ChariToken.sol\";\r\n\r\ncontract Donor {\r\n    Charity charityContract;\r\n    ChariToken chariTokenContract;\r\n    uint256 id;\r\n    address _owner = msg.sender;\r\n\r\n    // constructor(uint256 userId, Charity charityAddress, ChariToken chariTokenAddress) {\r\n    //     id = userId;\r\n    //     charityContract = charityAddress;\r\n    //     chariTokenContract = chariTokenAddress;\r\n    // }\r\n\r\n    constructor(uint256 userId, ChariToken chariTokenAddress) {\r\n        id = userId;\r\n        // charityContract = charityAddress;\r\n        chariTokenContract = chariTokenAddress;\r\n    }\r\n\r\n\r\n\r\n    modifier ownerOnly() {\r\n        require(msg.sender == _owner);\r\n        _;\r\n    }\r\n\r\n\r\n    function donate(address charity) public payable {\r\n        uint256 amtDonated = msg.value;\r\n        address payable charityAddress = payable(charity);\r\n        charityAddress.transfer(amtDonated);\r\n\r\n        // charityContract.processDonations(amtDonated, address(this));\r\n    }\r\n\r\n    function vote(address subAccount, uint256 voteAmt) public payable ownerOnly {\r\n        uint256 tokenBalance = chariTokenContract.checkCredit();\r\n        require(tokenBalance > 0, \"You don't have any ChariTokens to vote\");\r\n        chariTokenContract.getErc20Contract().transfer(subAccount, voteAmt); \r\n    }\r\n}",
  "sourcePath": "C:\\Users\\cheer\\Desktop\\IS4302 Labs\\Project\\charichain\\charichain\\contracts\\Donor.sol",
  "compiler": {
    "name": "solc",
    "version": "0.8.13+commit.abaa5c0e.Emscripten.clang"
  },
  "schemaVersion": "3.4.4",
  "updatedAt": "2022-04-12T15:35:09.785Z",
  "devdoc": {
    "kind": "dev",
    "methods": {},
    "version": 1
  },
  "userdoc": {
    "kind": "user",
    "methods": {},
    "version": 1
  }
}